{
  "contractName": "BonusPool",
  "abi": [
    {
      "inputs": [
        {
          "internalType": "uint256",
          "name": "",
          "type": "uint256"
        }
      ],
      "name": "awardsInfos",
      "outputs": [
        {
          "internalType": "uint8",
          "name": "types",
          "type": "uint8"
        },
        {
          "internalType": "uint32",
          "name": "count",
          "type": "uint32"
        },
        {
          "internalType": "uint32",
          "name": "redeemedCount",
          "type": "uint32"
        },
        {
          "internalType": "uint32",
          "name": "fragmentCount",
          "type": "uint32"
        },
        {
          "internalType": "uint32",
          "name": "lastFragmentCount",
          "type": "uint32"
        },
        {
          "internalType": "uint8",
          "name": "ratio",
          "type": "uint8"
        },
        {
          "internalType": "uint256",
          "name": "bonus",
          "type": "uint256"
        }
      ],
      "stateMutability": "view",
      "type": "function",
      "constant": true
    },
    {
      "inputs": [],
      "name": "bonusDuration",
      "outputs": [
        {
          "internalType": "uint32",
          "name": "",
          "type": "uint32"
        }
      ],
      "stateMutability": "view",
      "type": "function",
      "constant": true
    },
    {
      "inputs": [],
      "name": "contractOwner",
      "outputs": [
        {
          "internalType": "address",
          "name": "",
          "type": "address"
        }
      ],
      "stateMutability": "view",
      "type": "function",
      "constant": true
    },
    {
      "inputs": [],
      "name": "current",
      "outputs": [
        {
          "internalType": "uint256",
          "name": "",
          "type": "uint256"
        }
      ],
      "stateMutability": "view",
      "type": "function",
      "constant": true
    },
    {
      "inputs": [
        {
          "internalType": "string",
          "name": "key",
          "type": "string"
        }
      ],
      "name": "getAddress",
      "outputs": [
        {
          "internalType": "address",
          "name": "",
          "type": "address"
        }
      ],
      "stateMutability": "view",
      "type": "function",
      "constant": true
    },
    {
      "inputs": [],
      "name": "manager",
      "outputs": [
        {
          "internalType": "contract Manager",
          "name": "",
          "type": "address"
        }
      ],
      "stateMutability": "view",
      "type": "function",
      "constant": true
    },
    {
      "inputs": [],
      "name": "number",
      "outputs": [
        {
          "internalType": "uint32",
          "name": "",
          "type": "uint32"
        }
      ],
      "stateMutability": "view",
      "type": "function",
      "constant": true
    },
    {
      "inputs": [],
      "name": "perFragmentToken",
      "outputs": [
        {
          "internalType": "uint256",
          "name": "",
          "type": "uint256"
        }
      ],
      "stateMutability": "view",
      "type": "function",
      "constant": true
    },
    {
      "inputs": [],
      "name": "rebateRatio",
      "outputs": [
        {
          "internalType": "uint32",
          "name": "",
          "type": "uint32"
        }
      ],
      "stateMutability": "view",
      "type": "function",
      "constant": true
    },
    {
      "inputs": [
        {
          "internalType": "address",
          "name": "addr",
          "type": "address"
        }
      ],
      "name": "setManager",
      "outputs": [],
      "stateMutability": "nonpayable",
      "type": "function"
    },
    {
      "inputs": [],
      "name": "total",
      "outputs": [
        {
          "internalType": "uint256",
          "name": "",
          "type": "uint256"
        }
      ],
      "stateMutability": "view",
      "type": "function",
      "constant": true
    },
    {
      "inputs": [
        {
          "internalType": "uint256",
          "name": "rate",
          "type": "uint256"
        },
        {
          "internalType": "uint256",
          "name": "duartion",
          "type": "uint256"
        },
        {
          "internalType": "uint256",
          "name": "perToken",
          "type": "uint256"
        }
      ],
      "name": "setParams",
      "outputs": [],
      "stateMutability": "nonpayable",
      "type": "function"
    },
    {
      "inputs": [],
      "name": "getInfo",
      "outputs": [
        {
          "internalType": "uint256",
          "name": "",
          "type": "uint256"
        },
        {
          "internalType": "uint256",
          "name": "",
          "type": "uint256"
        },
        {
          "internalType": "uint32",
          "name": "",
          "type": "uint32"
        },
        {
          "internalType": "uint32",
          "name": "",
          "type": "uint32"
        },
        {
          "internalType": "uint32",
          "name": "",
          "type": "uint32"
        },
        {
          "internalType": "uint256",
          "name": "",
          "type": "uint256"
        },
        {
          "components": [
            {
              "internalType": "uint64",
              "name": "startTime",
              "type": "uint64"
            },
            {
              "internalType": "uint64",
              "name": "endTime",
              "type": "uint64"
            },
            {
              "components": [
                {
                  "internalType": "uint8",
                  "name": "types",
                  "type": "uint8"
                },
                {
                  "internalType": "uint32",
                  "name": "count",
                  "type": "uint32"
                },
                {
                  "internalType": "uint32",
                  "name": "redeemedCount",
                  "type": "uint32"
                },
                {
                  "internalType": "uint32",
                  "name": "fragmentCount",
                  "type": "uint32"
                },
                {
                  "internalType": "uint32",
                  "name": "lastFragmentCount",
                  "type": "uint32"
                },
                {
                  "internalType": "uint8",
                  "name": "ratio",
                  "type": "uint8"
                },
                {
                  "internalType": "uint256",
                  "name": "bonus",
                  "type": "uint256"
                }
              ],
              "internalType": "struct BonusPool.AwardsInfo[]",
              "name": "awardsInfos",
              "type": "tuple[]"
            }
          ],
          "internalType": "struct BonusPool.Period",
          "name": "",
          "type": "tuple"
        }
      ],
      "stateMutability": "view",
      "type": "function",
      "constant": true
    },
    {
      "inputs": [
        {
          "internalType": "uint256",
          "name": "_number",
          "type": "uint256"
        }
      ],
      "name": "getPeriod",
      "outputs": [
        {
          "components": [
            {
              "internalType": "uint64",
              "name": "startTime",
              "type": "uint64"
            },
            {
              "internalType": "uint64",
              "name": "endTime",
              "type": "uint64"
            },
            {
              "components": [
                {
                  "internalType": "uint8",
                  "name": "types",
                  "type": "uint8"
                },
                {
                  "internalType": "uint32",
                  "name": "count",
                  "type": "uint32"
                },
                {
                  "internalType": "uint32",
                  "name": "redeemedCount",
                  "type": "uint32"
                },
                {
                  "internalType": "uint32",
                  "name": "fragmentCount",
                  "type": "uint32"
                },
                {
                  "internalType": "uint32",
                  "name": "lastFragmentCount",
                  "type": "uint32"
                },
                {
                  "internalType": "uint8",
                  "name": "ratio",
                  "type": "uint8"
                },
                {
                  "internalType": "uint256",
                  "name": "bonus",
                  "type": "uint256"
                }
              ],
              "internalType": "struct BonusPool.AwardsInfo[]",
              "name": "awardsInfos",
              "type": "tuple[]"
            }
          ],
          "internalType": "struct BonusPool.Period",
          "name": "period",
          "type": "tuple"
        }
      ],
      "stateMutability": "view",
      "type": "function",
      "constant": true
    },
    {
      "inputs": [
        {
          "internalType": "uint256",
          "name": "index",
          "type": "uint256"
        },
        {
          "components": [
            {
              "internalType": "uint8",
              "name": "types",
              "type": "uint8"
            },
            {
              "internalType": "uint32",
              "name": "count",
              "type": "uint32"
            },
            {
              "internalType": "uint32",
              "name": "redeemedCount",
              "type": "uint32"
            },
            {
              "internalType": "uint32",
              "name": "fragmentCount",
              "type": "uint32"
            },
            {
              "internalType": "uint32",
              "name": "lastFragmentCount",
              "type": "uint32"
            },
            {
              "internalType": "uint8",
              "name": "ratio",
              "type": "uint8"
            },
            {
              "internalType": "uint256",
              "name": "bonus",
              "type": "uint256"
            }
          ],
          "internalType": "struct BonusPool.AwardsInfo",
          "name": "awardsInfo",
          "type": "tuple"
        }
      ],
      "name": "addAwards",
      "outputs": [],
      "stateMutability": "nonpayable",
      "type": "function"
    },
    {
      "inputs": [],
      "name": "getPeriodFragment",
      "outputs": [
        {
          "components": [
            {
              "internalType": "uint8",
              "name": "fType",
              "type": "uint8"
            },
            {
              "internalType": "uint64",
              "name": "id",
              "type": "uint64"
            },
            {
              "internalType": "uint32",
              "name": "number",
              "type": "uint32"
            },
            {
              "internalType": "uint32",
              "name": "lastFragmentCount",
              "type": "uint32"
            },
            {
              "internalType": "uint256",
              "name": "tokens",
              "type": "uint256"
            }
          ],
          "internalType": "struct FragmentInfo[]",
          "name": "fragmentInfos",
          "type": "tuple[]"
        }
      ],
      "stateMutability": "view",
      "type": "function",
      "constant": true
    },
    {
      "inputs": [
        {
          "components": [
            {
              "internalType": "uint8",
              "name": "fType",
              "type": "uint8"
            },
            {
              "internalType": "uint64",
              "name": "id",
              "type": "uint64"
            },
            {
              "internalType": "uint32",
              "name": "number",
              "type": "uint32"
            },
            {
              "internalType": "uint32",
              "name": "lastFragmentCount",
              "type": "uint32"
            },
            {
              "internalType": "uint256",
              "name": "tokens",
              "type": "uint256"
            }
          ],
          "internalType": "struct FragmentInfo",
          "name": "fi",
          "type": "tuple"
        }
      ],
      "name": "updateFragment",
      "outputs": [],
      "stateMutability": "nonpayable",
      "type": "function"
    },
    {
      "inputs": [
        {
          "internalType": "uint256",
          "name": "value",
          "type": "uint256"
        }
      ],
      "name": "injectCapital",
      "outputs": [],
      "stateMutability": "nonpayable",
      "type": "function"
    },
    {
      "inputs": [],
      "name": "open",
      "outputs": [],
      "stateMutability": "nonpayable",
      "type": "function"
    },
    {
      "inputs": [
        {
          "internalType": "address",
          "name": "",
          "type": "address"
        },
        {
          "internalType": "address",
          "name": "_from",
          "type": "address"
        },
        {
          "internalType": "uint256",
          "name": "_tokenId",
          "type": "uint256"
        },
        {
          "internalType": "bytes",
          "name": "_data",
          "type": "bytes"
        }
      ],
      "name": "onERC721Received",
      "outputs": [
        {
          "internalType": "bytes4",
          "name": "",
          "type": "bytes4"
        }
      ],
      "stateMutability": "nonpayable",
      "type": "function"
    },
    {
      "inputs": [
        {
          "internalType": "address",
          "name": "",
          "type": "address"
        },
        {
          "internalType": "address",
          "name": "_from",
          "type": "address"
        },
        {
          "internalType": "uint256",
          "name": "_id",
          "type": "uint256"
        },
        {
          "internalType": "uint256",
          "name": "_value",
          "type": "uint256"
        },
        {
          "internalType": "bytes",
          "name": "_data",
          "type": "bytes"
        }
      ],
      "name": "onERC1155Received",
      "outputs": [
        {
          "internalType": "bytes4",
          "name": "",
          "type": "bytes4"
        }
      ],
      "stateMutability": "nonpayable",
      "type": "function"
    },
    {
      "inputs": [
        {
          "internalType": "address",
          "name": "",
          "type": "address"
        },
        {
          "internalType": "address",
          "name": "_from",
          "type": "address"
        },
        {
          "internalType": "uint256[]",
          "name": "_ids",
          "type": "uint256[]"
        },
        {
          "internalType": "uint256[]",
          "name": "_values",
          "type": "uint256[]"
        },
        {
          "internalType": "bytes",
          "name": "_data",
          "type": "bytes"
        }
      ],
      "name": "onERC1155BatchReceived",
      "outputs": [
        {
          "internalType": "bytes4",
          "name": "",
          "type": "bytes4"
        }
      ],
      "stateMutability": "nonpayable",
      "type": "function"
    }
  ],
  "bytecode": "0x608060405260008054336001600160a01b03199091161790556004805463ffffffff191660011763ffffffff60201b19166414000000001763ffffffff60401b19166a093a800000000000000000179055603260055534801561006157600080fd5b5061308a806100716000396000f3fe608060405234801561001057600080fd5b50600436106101425760003560e01c80638f8ae9c9116100b8578063c3e114cd1161007c578063c3e114cd1461028b578063ce606ee014610293578063cfbe98c21461029b578063d0ebdbe7146102c1578063f23a6e61146102d4578063fcfff16f146102e757610142565b80638f8ae9c9146102355780639fa6a6e31461024a578063a8bd775a14610252578063bc197c8114610265578063bf40fac11461027857610142565b80634b2c07061161010a5780634b2c0706146101b75780635a0ce676146101d75780635a9b0b89146101ec5780635ecc75121461020757806380b07ed91461021a5780638381f58a1461022d57610142565b80630802ca8214610147578063150b7a021461016557806319979932146101855780632ddbd13a1461018d578063481c6a75146101a2575b600080fd5b61014f6102ef565b60405161015c9190612c01565b60405180910390f35b610178610173366004612481565b610303565b60405161015c919061292d565b61014f610419565b61019561042c565b60405161015c9190612ba8565b6101aa610432565b60405161015c9190612812565b6101ca6101c53660046125f2565b610441565b60405161015c9190612b95565b6101ea6101e5366004612659565b610543565b005b6101f461064b565b60405161015c9796959493929190612bb1565b6101ea6102153660046125f2565b610792565b6101ea6102283660046125db565b6108e3565b61014f610aa6565b61023d610ab2565b60405161015c91906128a8565b610195610d06565b6101ea610260366004612622565b610d0c565b6101786102733660046123c7565b610f02565b6101aa610286366004612596565b6110f2565b610195611179565b6101aa61117f565b6102ae6102a93660046125f2565b61118e565b60405161015c9796959493929190612c12565b6101ea6102cf366004612388565b6111f8565b6101786102e23660046124fd565b61126a565b6101ea611387565b600454640100000000900463ffffffff1681565b600061032b60405180604001604052806005815260200164546f74656d60d81b8152506110f2565b6001600160a01b0316336001600160a01b031614156104075760008260008151811061036757634e487b7160e01b600052603260045260246000fd5b016020015160f81c600981111561038e57634e487b7160e01b600052602160045260246000fd5b90508060098111156103b057634e487b7160e01b600052602160045260246000fd5b600314156103c8576103c3338686611770565b610405565b8060098111156103e857634e487b7160e01b600052602160045260246000fd5b600214156103fb576103c3338686611a2b565b5060009050610411565b505b50630a85bd0160e11b5b949350505050565b600454600160401b900463ffffffff1681565b60025481565b6001546001600160a01b031681565b610449612209565b6000828152600660209081526040808320815160608101835281546001600160401b038082168352600160401b9091041681850152600182018054845181870281018701865281815292969395948701949293919290919084015b828210156105355760008481526020908190206040805160e08101825260028602909201805460ff808216855263ffffffff6101008304811686880152600160281b8304811694860194909452600160481b820484166060860152600160681b82049093166080850152600160881b900490911660a083015260019081015460c083015290835290920191016104a4565b505050915250909392505050565b604080518082018252600581526430b236b4b760d91b60208201526001549151637af32e3960e11b815290916001600160a01b03169063f5e65c729061058f903390859060040161284a565b60206040518083038186803b1580156105a757600080fd5b505afa1580156105bb573d6000803e3d6000fd5b505050506040513d601f19601f820116820180604052508101906105df9190612576565b6106045760405162461bcd60e51b81526004016105fb906129e3565b60405180910390fd5b506004805467ffffffff00000000191664010000000063ffffffff95861602176bffffffff00000000000000001916600160401b9390941692909202929092179055600555565b60008060008060008061065c612209565b60025460035460045460055463ffffffff8083166000818152600660209081526040808320815160608101835281546001600160401b038082168352600160401b9182900416828601526001830180548551818802810188018752818152989b64010000000081048b169b939004909916989197939692958795870194939192919084015b828210156107725760008481526020908190206040805160e08101825260028602909201805460ff808216855263ffffffff6101008304811686880152600160281b8304811694860194909452600160481b820484166060860152600160681b82049093166080850152600160881b900490911660a083015260019081015460c083015290835290920191016106e1565b505050915250979f969e50949c50929a5090985096509094509092505050565b6107b86040518060400160405280600581526020016453746f726560d81b8152506110f2565b6001600160a01b0316336001600160a01b03161415801561081257506107fc6040518060400160405280600781526020016650726553616c6560c81b8152506110f2565b6001600160a01b0316336001600160a01b031614155b156108c9576000610821611bf3565b90506000816001600160a01b03166323b872dd3330866040518463ffffffff1660e01b815260040161085593929190612826565b602060405180830381600087803b15801561086f57600080fd5b505af1158015610883573d6000803e3d6000fd5b505050506040513d601f19601f820116820180604052508101906108a79190612576565b9050806108c65760405162461bcd60e51b81526004016105fb90612a06565b50505b80600260008282546108db9190612c51565b909155505050565b60408051808201825260088152677a6f6e654d696e6560c01b60208201526001549151637af32e3960e11b815290916001600160a01b03169063f5e65c7290610932903390859060040161284a565b60206040518083038186803b15801561094a57600080fd5b505afa15801561095e573d6000803e3d6000fd5b505050506040513d601f19601f820116820180604052508101906109829190612576565b61099e5760405162461bcd60e51b81526004016105fb906129e3565b60006006816109b36060860160408701612684565b63ffffffff168152602001908152602001600020905060005b60018201548114610aa0576109e760408501602086016126a0565b60ff16826001018281548110610a0d57634e487b7160e01b600052603260045260246000fd5b600091825260209091206002909102015460ff161415610a8e57610a376080850160608601612684565b826001018281548110610a5a57634e487b7160e01b600052603260045260246000fd5b9060005260206000209060020201600001600d6101000a81548163ffffffff021916908363ffffffff160217905550610aa0565b80610a9881612e82565b9150506109cc565b50505050565b60045463ffffffff1681565b60045463ffffffff166000908152600660205260408120606091805b60018301548114610b41576001836001018281548110610afe57634e487b7160e01b600052603260045260246000fd5b6000918252602090912060029091020154600160681b900463ffffffff1610610b2f57610b2c600183612c51565b91505b80610b3981612e82565b915050610ace565b508015610d0157806001600160401b03811115610b6e57634e487b7160e01b600052604160045260246000fd5b604051908082528060200260200182016040528015610ba757816020015b610b94612228565b815260200190600190039081610b8c5790505b5092506000805b60018401548114610cfe576001846001018281548110610bde57634e487b7160e01b600052603260045260246000fd5b6000918252602090912060029091020154600160681b900463ffffffff1610610cec576040805160a0810190915280600160ff168152602001856001018381548110610c3a57634e487b7160e01b600052603260045260246000fd5b60009182526020918290206002909102015460ff16825260045463ffffffff169082015260018601805460409092019184908110610c8857634e487b7160e01b600052603260045260246000fd5b60009182526020918290206002909102015463ffffffff600160681b9091041682526005549101528551869084908110610cd257634e487b7160e01b600052603260045260246000fd5b60200260200101819052508180610ce890612e82565b9250505b80610cf681612e82565b915050610bae565b50505b505090565b60035481565b604080518082018252600581526430b236b4b760d91b60208201526001549151637af32e3960e11b815290916001600160a01b03169063f5e65c7290610d58903390859060040161284a565b60206040518083038186803b158015610d7057600080fd5b505afa158015610d84573d6000803e3d6000fd5b505050506040513d601f19601f82011682018060405250810190610da89190612576565b610dc45760405162461bcd60e51b81526004016105fb906129e3565b6000805b6007548114610e2b5760078181548110610df257634e487b7160e01b600052603260045260246000fd5b6000918252602090912060029091020154610e1790600160881b900460ff1683612c91565b915080610e2381612e82565b915050610dc8565b50610e37816064612e5f565b60ff16610e4a60c0850160a086016126c7565b60ff161115610e6b5760405162461bcd60e51b81526004016105fb90612b00565b600754841015610eb9578260078581548110610e9757634e487b7160e01b600052603260045260246000fd5b90600052602060002090600202018181610eb19190612ef9565b905050610aa0565b6007805460018101825560009190915283906002027fa66cc928b5edb82af9bd49922954155ab7b0942694bea4ce44661d9a8736c68801610efa8282612ef9565b505050505050565b6000610f2d60405180604001604052806008815260200167119c9859db595b9d60c21b8152506110f2565b6001600160a01b0316336001600160a01b031614156110dc57600083836000818110610f6957634e487b7160e01b600052603260045260246000fd5b919091013560f81c90506009811115610f9257634e487b7160e01b600052602160045260246000fd5b9050806009811115610fb457634e487b7160e01b600052602160045260246000fd5b600114156110355760005b80881461102f5761101d8a8a8a84818110610fea57634e487b7160e01b600052603260045260246000fd5b9050602002013589898581811061101157634e487b7160e01b600052603260045260246000fd5b90506020020135611c1f565b8061102781612e82565b915050610fbf565b506110da565b80600981111561105557634e487b7160e01b600052602160045260246000fd5b600214156110d05760005b80881461102f576110be8a8a8a8481811061108b57634e487b7160e01b600052603260045260246000fd5b905060200201358989858181106110b257634e487b7160e01b600052603260045260246000fd5b90506020020135611ec6565b806110c881612e82565b915050611060565b50600090506110e6565b505b5063bc197c8160e01b5b98975050505050505050565b6001546040516334abd05960e11b81526000916001600160a01b031690636957a0b290611123908590600401612942565b60206040518083038186803b15801561113b57600080fd5b505afa15801561114f573d6000803e3d6000fd5b505050506040513d601f19601f8201168201806040525081019061117391906123ab565b92915050565b60055481565b6000546001600160a01b031681565b6007818154811061119e57600080fd5b60009182526020909120600290910201805460019091015460ff808316935063ffffffff6101008404811693600160281b8104821693600160481b8204831693600160681b830490931692600160881b9092049091169087565b6000546001600160a01b031633146112225760405162461bcd60e51b81526004016105fb90612b27565b6001600160a01b0381166112485760405162461bcd60e51b81526004016105fb90612a55565b600180546001600160a01b0319166001600160a01b0392909216919091179055565b600061129560405180604001604052806008815260200167119c9859db595b9d60c21b8152506110f2565b6001600160a01b0316336001600160a01b03161415611373576000838360008181106112d157634e487b7160e01b600052603260045260246000fd5b919091013560f81c905060098111156112fa57634e487b7160e01b600052602160045260246000fd5b905080600981111561131c57634e487b7160e01b600052602160045260246000fd5b600114156113345761132f878787611c1f565b611371565b80600981111561135457634e487b7160e01b600052602160045260246000fd5b600214156113675761132f878787611ec6565b506000905061137d565b505b5063f23a6e6160e01b5b9695505050505050565b604080518082018252600581526430b236b4b760d91b60208201526001549151637af32e3960e11b815290916001600160a01b03169063f5e65c72906113d3903390859060040161284a565b60206040518083038186803b1580156113eb57600080fd5b505afa1580156113ff573d6000803e3d6000fd5b505050506040513d601f19601f820116820180604052508101906114239190612576565b61143f5760405162461bcd60e51b81526004016105fb906129e3565b60045463ffffffff166000908152600660205260408120544290600160401b90046001600160401b03168110156114885760405162461bcd60e51b81526004016105fb90612ab2565b600354156114aa57600354600260008282546114a49190612c51565b90915550505b6004546000906114c790600160401b900463ffffffff1683612c51565b600480549192506001916000906114e590849063ffffffff16612c69565b92506101000a81548163ffffffff021916908363ffffffff160217905550600083111561151b5760038390556000600255611568565b606460048054906101000a900463ffffffff1663ffffffff166002546115419190612e04565b61154b9190612cb6565b600381905560028054600090611562908490612e23565b90915550505b60045463ffffffff16600090815260066020526040812080546001600160401b03848116600160401b026fffffffffffffffff00000000000000001991871667ffffffffffffffff199093169290921716178155905b6007548114610efa576000600782815481106115ea57634e487b7160e01b600052603260045260246000fd5b60009182526020918290206040805160e0810182526002909302909101805460ff808216855263ffffffff61010083048116968601879052600160281b8304811694860194909452600160481b820484166060860152600160681b82049093166080850152600160881b900490911660a0830181905260019091015460c083015260035491935060649161167e9190612e04565b6116889190612cb6565b6116929190612cb6565b60c082019081526001848101805480830182556000918252602091829020855160029092020180549286015160408701516060880151608089015160a09099015160ff1990961660ff9586161764ffffffff00191661010063ffffffff948516021768ffffffff00000000001916600160281b92841692909202919091176cffffffff0000000000000000001916600160481b918316919091021763ffffffff60681b1916600160681b91909716029590951760ff60881b1916600160881b919092160217835590519101558061176881612e82565b9150506115be565b60f881901c63ffffffff609883901c16600182146117a05760405162461bcd60e51b81526004016105fb90612983565b60045463ffffffff8281169116146117ca5760405162461bcd60e51b81526004016105fb90612983565b60045463ffffffff166000908152600660205260409020805442906001600160401b0316811080159061180d57508154600160401b90046001600160401b031681105b6118295760405162461bcd60e51b81526004016105fb90612955565b604051630852cd8d60e31b815287906001600160a01b038216906342966c6890611857908990600401612ba8565b600060405180830381600087803b15801561187157600080fd5b505af1158015611885573d6000803e3d6000fd5b505050506000611894876120ca565b90508060c00151600360008282546118ac9190612e23565b90915550600090505b6001850154811461198c57816000015160ff168560010182815481106118eb57634e487b7160e01b600052603260045260246000fd5b600091825260209091206002909102015460ff16141561197a57600185600101828154811061192a57634e487b7160e01b600052603260045260246000fd5b600091825260209091206002909102018054600590611957908490600160281b900463ffffffff16612c69565b92506101000a81548163ffffffff021916908363ffffffff16021790555061198c565b8061198481612e82565b9150506118b5565b506000611997611bf3565b60c083015160405163a9059cbb60e01b81529192506001600160a01b0383169163a9059cbb916119cc918d919060040161286e565b602060405180830381600087803b1580156119e657600080fd5b505af11580156119fa573d6000803e3d6000fd5b505050506040513d601f19601f82011682018060405250810190611a1e9190612576565b5050505050505050505050565b60f881901c63ffffffff609883901c1660018214611a5b5760405162461bcd60e51b81526004016105fb90612983565b60045463ffffffff82811691161415611a865760405162461bcd60e51b81526004016105fb906129ac565b604051636e27d88960e01b81526000906001600160a01b03871690636e27d88990611ab5908790600401612ba8565b60206040518083038186803b158015611acd57600080fd5b505afa158015611ae1573d6000803e3d6000fd5b505050506040513d601f19601f82011682018060405250810190611b05919061260a565b604051630852cd8d60e31b81529091506001600160a01b038716906342966c6890611b34908790600401612ba8565b600060405180830381600087803b158015611b4e57600080fd5b505af1158015611b62573d6000803e3d6000fd5b50505050611b8c604051806040016040528060058152602001642a37b5b2b760d91b8152506110f2565b6001600160a01b03166340c10f1986836040518363ffffffff1660e01b8152600401611bb992919061286e565b600060405180830381600087803b158015611bd357600080fd5b505af1158015611be7573d6000803e3d6000fd5b50505050505050505050565b6000611c1a604051806040016040528060048152602001631554d11560e21b8152506110f2565b905090565b60f882901c60018114611c445760405162461bcd60e51b81526004016105fb90612983565b6000611c4f846120ca565b9050600081604001518260200151611c679190612e3a565b63ffffffff1611611c8a5760405162461bcd60e51b81526004016105fb90612a7b565b6000611cb560405180604001604052806008815260200167119c9859db595b9d60c21b8152506110f2565b9050600082602001518360600151611ccd9190612cca565b63ffffffff169050848114611cf45760405162461bcd60e51b81526004016105fb90612a2e565b600183604001818151611d079190612c69565b63ffffffff16905250604051637a94c56560e11b81526001600160a01b0383169063f5298aca90611d409030908a908690600401612887565b600060405180830381600087803b158015611d5a57600080fd5b505af1158015611d6e573d6000803e3d6000fd5b505050506000611d9a604051806040016040528060058152602001642a37b5b2b760d91b8152506110f2565b9050600082826001600160a01b031663313ce5676040518163ffffffff1660e01b815260040160206040518083038186803b158015611dd857600080fd5b505afa158015611dec573d6000803e3d6000fd5b505050506040513d601f19601f82011682018060405250810190611e1091906126e3565b611e1b90600a612d33565b600554611e289190612e04565b611e329190612e04565b9050611e5a60405180604001604052806005815260200164546f74656d60d81b8152506110f2565b6001600160a01b031663156e29f68a8a846040518463ffffffff1660e01b8152600401611e8993929190612887565b600060405180830381600087803b158015611ea357600080fd5b505af1158015611eb7573d6000803e3d6000fd5b50505050505050505050505050565b60f882901c63ffffffff609884901c1660018214611ef65760405162461bcd60e51b81526004016105fb90612983565b60045463ffffffff82811691161415611f215760405162461bcd60e51b81526004016105fb90612b5e565b611f4a60405180604001604052806008815260200167119c9859db595b9d60c21b8152506110f2565b6001600160a01b031663f5298aca3086866040518463ffffffff1660e01b8152600401611f7993929190612887565b600060405180830381600087803b158015611f9357600080fd5b505af1158015611fa7573d6000803e3d6000fd5b505050506000611fd3604051806040016040528060058152602001642a37b5b2b760d91b8152506110f2565b9050600084826001600160a01b031663313ce5676040518163ffffffff1660e01b815260040160206040518083038186803b15801561201157600080fd5b505afa158015612025573d6000803e3d6000fd5b505050506040513d601f19601f8201168201806040525081019061204991906126e3565b61205490600a612d33565b6005546120619190612e04565b61206b9190612e04565b6040516340c10f1960e01b81529091506001600160a01b038316906340c10f199061209c908a90859060040161286e565b600060405180830381600087803b1580156120b657600080fd5b505af1158015611a1e573d6000803e3d6000fd5b6120d2612256565b60045463ffffffff166000908152600660205260408120906001600160401b0360b885901c16905b60018301548114612201578160ff1683600101828154811061212c57634e487b7160e01b600052603260045260246000fd5b600091825260209091206002909102015460ff1614156121ef5782600101818154811061216957634e487b7160e01b600052603260045260246000fd5b60009182526020918290206040805160e0810182526002909302909101805460ff808216855263ffffffff6101008304811696860196909652600160281b8204861693850193909352600160481b810485166060850152600160681b81049094166080840152600160881b9093041660a082015260019091015460c08201529350612201565b806121f981612e82565b9150506120fa565b505050919050565b6040805160608082018352600080835260208301529181019190915290565b6040805160a08101825260008082526020820181905291810182905260608101829052608081019190915290565b6040805160e081018252600080825260208201819052918101829052606081018290526080810182905260a0810182905260c081019190915290565b60006001600160401b03808411156122ac576122ac612ec9565b604051601f8501601f1916810160200182811182821017156122d0576122d0612ec9565b6040528481529150818385018610156122e857600080fd5b8484602083013760006020868301015250509392505050565b60008083601f840112612312578182fd5b5081356001600160401b03811115612328578182fd5b602083019150836020808302850101111561234257600080fd5b9250929050565b60008083601f84011261235a578182fd5b5081356001600160401b03811115612370578182fd5b60208301915083602082850101111561234257600080fd5b600060208284031215612399578081fd5b81356123a48161301b565b9392505050565b6000602082840312156123bc578081fd5b81516123a48161301b565b60008060008060008060008060a0898b0312156123e2578384fd5b88356123ed8161301b565b975060208901356123fd8161301b565b965060408901356001600160401b0380821115612418578586fd5b6124248c838d01612301565b909850965060608b013591508082111561243c578586fd5b6124488c838d01612301565b909650945060808b0135915080821115612460578384fd5b5061246d8b828c01612349565b999c989b5096995094979396929594505050565b60008060008060808587031215612496578384fd5b84356124a18161301b565b935060208501356124b18161301b565b92506040850135915060608501356001600160401b038111156124d2578182fd5b8501601f810187136124e2578182fd5b6124f187823560208401612292565b91505092959194509250565b60008060008060008060a08789031215612515578182fd5b86356125208161301b565b955060208701356125308161301b565b9450604087013593506060870135925060808701356001600160401b03811115612558578283fd5b61256489828a01612349565b979a9699509497509295939492505050565b600060208284031215612587578081fd5b815180151581146123a4578182fd5b6000602082840312156125a7578081fd5b81356001600160401b038111156125bc578182fd5b8201601f810184136125cc578182fd5b61041184823560208401612292565b600060a082840312156125ec578081fd5b50919050565b600060208284031215612603578081fd5b5035919050565b60006020828403121561261b578081fd5b5051919050565b600080828403610100811215612636578283fd5b8335925060e0601f198201121561264b578182fd5b506020830190509250929050565b60008060006060848603121561266d578081fd5b505081359360208301359350604090920135919050565b600060208284031215612695578081fd5b81356123a481613033565b6000602082840312156126b1578081fd5b81356001600160401b03811681146123a4578182fd5b6000602082840312156126d8578081fd5b81356123a481613045565b6000602082840312156126f4578081fd5b81516123a481613045565b60008151808452815b8181101561272457602081850181015186830182015201612708565b818111156127355782602083870101525b50601f01601f19169290920160200192915050565b600060608084016001600160401b038085511686526020818187015116818801526040915081860151848389015283815180865260809550858a0191508383019250875b818110156127fc578351805160ff1684528581015163ffffffff90811687860152878201518116888601528982015181168a86015288820151168885015260a0808201516127de8287018261280b565b505060c090810151908401529284019260e09092019160010161278e565b50909998505050505050505050565b60ff169052565b6001600160a01b0391909116815260200190565b6001600160a01b039384168152919092166020820152604081019190915260600190565b6001600160a01b0383168152604060208201819052600090610411908301846126ff565b6001600160a01b03929092168252602082015260400190565b6001600160a01b039390931683526020830191909152604082015260600190565b602080825282518282018190526000919060409081850190868401855b82811015612920578151805160ff168552868101516001600160401b0316878601528581015163ffffffff90811687870152606080830151909116908601526080908101519085015260a090930192908501906001016128c5565b5091979650505050505050565b6001600160e01b031991909116815260200190565b6000602082526123a460208301846126ff565b60208082526014908201527343616e27742072656465656d20616e796d6f726560601b604082015260600190565b6020808252600f908201526e125b9d985b1a59081d1bdad95b9259608a1b604082015260600190565b6020808252601e908201527f556e6578706972656420746f74656d2063616e6e6f74206265206275726e0000604082015260600190565b6020808252600990820152681b9bc81c195c9b5a5d60ba1b604082015260600190565b6020808252600e908201526d14185e5b595b9d0819985a5b195960921b604082015260600190565b6020808252600d908201526c496e76616c69642076616c756560981b604082015260600190565b6020808252600c908201526b7a65726f206164647265737360a01b604082015260600190565b6020808252601d908201527f5468657265206973206e6f7468696e6720746f20636f6d706f73697465000000604082015260600190565b6020808252602e908201527f7374617274206d7573742062652067726561746572207468616e206f7220657160408201526d75616c20746f20656e6454696d6560901b606082015260800190565b6020808252600d908201526c496e76616c696420726174696f60981b604082015260600190565b60208082526019908201527f6f6e6c7920616c6c6f7720636f6e7472616374206f776e657200000000000000604082015260600190565b6020808252601b908201527f4e6f7420657870697265642c2063616e6e6f74206265206275726e0000000000604082015260600190565b6000602082526123a4602083018461274a565b90815260200190565b600088825287602083015263ffffffff808816604084015280871660608401528086166080840152508360a083015260e060c0830152612bf460e083018461274a565b9998505050505050505050565b63ffffffff91909116815260200190565b60ff978816815263ffffffff968716602082015294861660408601529285166060850152931660808301529190921660a083015260c082015260e00190565b60008219821115612c6457612c64612e9d565b500190565b600063ffffffff808316818516808303821115612c8857612c88612e9d565b01949350505050565b600060ff821660ff84168060ff03821115612cae57612cae612e9d565b019392505050565b600082612cc557612cc5612eb3565b500490565b600063ffffffff80841680612ce157612ce1612eb3565b92169190910492915050565b80825b6001808611612cff5750612d2a565b818704821115612d1157612d11612e9d565b80861615612d1e57918102915b9490941c938002612cf0565b94509492505050565b60006123a460001960ff851684600082612d4f575060016123a4565b81612d5c575060006123a4565b8160018114612d725760028114612d7c57612da9565b60019150506123a4565b60ff841115612d8d57612d8d612e9d565b6001841b915084821115612da357612da3612e9d565b506123a4565b5060208310610133831016604e8410600b8410161715612ddc575081810a83811115612dd757612dd7612e9d565b6123a4565b612de98484846001612ced565b808604821115612dfb57612dfb612e9d565b02949350505050565b6000816000190483118215151615612e1e57612e1e612e9d565b500290565b600082821015612e3557612e35612e9d565b500390565b600063ffffffff83811690831681811015612e5757612e57612e9d565b039392505050565b600060ff821660ff841680821015612e7957612e79612e9d565b90039392505050565b6000600019821415612e9657612e96612e9d565b5060010190565b634e487b7160e01b600052601160045260246000fd5b634e487b7160e01b600052601260045260246000fd5b634e487b7160e01b600052604160045260246000fd5b6000813561117381613033565b6000813561117381613045565b8135612f0481613045565b815460ff191660ff91909116178082556020830135612f2281613033565b64ffffffff008160081b1664ffffffff00198316179150508082556040830135612f4b81613033565b68ffffffff00000000008160281b1668ffffffff00000000001983161783555050612f81612f7b60608401612edf565b82612ff9565b612f96612f9060808401612edf565b82612fb9565b612fab612fa560a08401612eec565b82612fdc565b60c082013560018201555050565b805463ffffffff60681b191660689290921b63ffffffff60681b16919091179055565b805460ff60881b191660889290921b60ff60881b16919091179055565b805463ffffffff60481b8360481b1663ffffffff60481b198216178255505050565b6001600160a01b038116811461303057600080fd5b50565b63ffffffff8116811461303057600080fd5b60ff8116811461303057600080fdfea2646970667358221220110322b68e516b005c3f262bc99d88811f8370d9835fa23984908fd14cf4949164736f6c63430008000033",
  "immutableReferences": {},
  "source": "pragma solidity ^0.8.0;\npragma abicoder v2;\n\n// SPDX-License-Identifier: MIT\n\nimport \"./lib/Permission.sol\";\nimport \"./include/IERC20.sol\";\nimport \"./include/IERC20OP.sol\";\nimport \"./include/ITotem.sol\";\nimport \"./include/IERC721.sol\";\nimport \"./include/IBonusPool.sol\";\nimport \"./include/ILockTokens.sol\";\nimport \"./include/IPeriod.sol\";\nimport \"./Structs.sol\";\nimport \"./include/IERC1155OP.sol\";\nimport \"./include/IERC1155TokenReceiver.sol\";\nimport \"./include/IERC721TokenReceiver.sol\";\n\ncontract BonusPool is Permission, IBonusPool, IPeriod, IERC1155TokenReceiver, IERC721TokenReceiver {\n    bytes4 internal constant ERC1155_ACCEPTED = 0xf23a6e61; // bytes4(keccak256(\"onERC1155Received(address,address,uint256,uint256,bytes)\"))\n    bytes4 internal constant ERC1155_BATCH_ACCEPTED = 0xbc197c81; // bytes4(keccak256(\"onERC1155BatchReceived(address,address,uint256[],uint256[],bytes)\"))\n    bytes4 private constant ERC721_RECEIVER_RETURN = 0x150b7a02;\n    // \n    uint256 public override total;\n    // \n    uint256 public override current;\n    // \n    uint32 public override number = 1;\n    // \n    uint32 public override rebateRatio = 20;\n    // \n    uint32 public override bonusDuration = 7 * 24 * 3600;\n    // Token()\n    uint256 public override perFragmentToken = 50;\n    // \n    mapping(uint256 => Period) private periods;\n\n    struct Period {\n        //\n        uint64 startTime;\n        //\n        uint64 endTime;\n        //\n        AwardsInfo[] awardsInfos;\n    }\n\n    struct AwardsInfo {\n        //:1 , 2 , 3 \n        uint8 types;\n        //\n        uint32 count;\n        //\n        uint32 redeemedCount;\n        //\n        uint32 fragmentCount;\n        //\n        uint32 lastFragmentCount;\n        //\n        uint8 ratio;\n        //\n        uint256 bonus;\n    }\n    AwardsInfo[] public awardsInfos;\n\n    function setParams(\n        uint256 rate,\n        uint256 duartion,\n        uint256 perToken\n    ) public CheckPermit(\"admin\") {\n        rebateRatio = uint32(rate);\n        bonusDuration = uint32(duartion);\n        perFragmentToken = perToken;\n    }\n\n    function getInfo()\n        public\n        view\n        returns (\n            uint256,\n            uint256,\n            uint32,\n            uint32,\n            uint32,\n            uint256,\n            Period memory\n        )\n    {\n        return (total, current, number, rebateRatio, bonusDuration, perFragmentToken, periods[number]);\n    }\n\n    function getPeriod(uint256 _number) public view returns (Period memory period) {\n        period = periods[_number];\n    }\n\n    function addAwards(uint256 index, AwardsInfo calldata awardsInfo) external CheckPermit(\"admin\") {\n        require(index >= 0, \"Invalid index\");\n        uint8 ratio;\n        for (uint256 i = 0; i != awardsInfos.length; i++) {\n            ratio += awardsInfos[i].ratio;\n        }\n        require(awardsInfo.ratio <= 100 - ratio, \"Invalid ratio\");\n        if (index < awardsInfos.length) {\n            awardsInfos[index] = awardsInfo;\n        } else {\n            awardsInfos.push(awardsInfo);\n        }\n    }\n\n    function getPeriodFragment() public view override returns (FragmentInfo[] memory fragmentInfos) {\n        Period storage period = periods[number];\n        uint256 length;\n        for (uint256 i = 0; i != period.awardsInfos.length; i++) {\n            if (period.awardsInfos[i].lastFragmentCount >= 1) length += 1;\n        }\n        if (length > 0) {\n            fragmentInfos = new FragmentInfo[](length);\n            uint256 j = 0;\n            for (uint256 i = 0; i != period.awardsInfos.length; i++) {\n                if (period.awardsInfos[i].lastFragmentCount >= 1) {\n                    fragmentInfos[j] = FragmentInfo(uint8(FragmentType.BonusPool), uint64(period.awardsInfos[i].types), number, period.awardsInfos[i].lastFragmentCount, perFragmentToken);\n                    j++;\n                }\n            }\n        }\n    }\n\n    function updateFragment(FragmentInfo calldata fi) external override CheckPermit(\"zoneMine\") {\n        Period storage period = periods[fi.number];\n        for (uint256 i = 0; i != period.awardsInfos.length; i++) {\n            if (period.awardsInfos[i].types == uint8(fi.id)) {\n                period.awardsInfos[i].lastFragmentCount = fi.lastFragmentCount;\n                break;\n            }\n        }\n    }\n\n    function _getTokenContract() internal view returns (IERC20) {\n        return IERC20(getAddress(\"USDT\"));\n    }\n\n    function injectCapital(uint256 value) external override {\n        if (msg.sender != getAddress(\"Store\") && msg.sender != getAddress(\"PreSale\")) {\n            IERC20 token = _getTokenContract();\n            bool success = token.transferFrom(msg.sender, address(this), value);\n            require(success, \"Payment failed\");\n        }\n        total += value;\n    }\n\n    function open() external CheckPermit(\"admin\") {\n        uint256 award;\n        uint256 start = block.timestamp;\n        require(start >= periods[number].endTime, \"start must be greater than or equal to endTime\");\n        if (current > 0) total += current;\n        uint256 end = start + bonusDuration;\n        number += 1;\n        if (award > 0) {\n            current = award;\n            total = 0;\n        } else {\n            current = (total * uint256(rebateRatio)) / 100;\n            total -= current;\n        }\n\n        Period storage period = periods[number];\n        period.startTime = uint64(start);\n        period.endTime = uint64(end);\n        for (uint256 i = 0; i != awardsInfos.length; i++) {\n            AwardsInfo memory ai = awardsInfos[i];\n            ai.bonus = (current * ai.ratio) / 100 / ai.count;\n            period.awardsInfos.push(ai);\n        }\n    }\n\n    function _getAwardsInfo(uint256 tokenId) internal view returns (AwardsInfo memory ai) {\n        Period storage period = periods[number];\n        uint8 types = uint8((tokenId << 8) >> 192);\n        for (uint256 i = 0; i != period.awardsInfos.length; i++) {\n            if (period.awardsInfos[i].types == types) {\n                ai = period.awardsInfos[i];\n                break;\n            }\n        }\n    }\n\n    function redeemTotem(\n        address totem,\n        address from,\n        uint256 tokenId\n    ) internal {\n        uint8 fType = uint8(tokenId >> 248);\n        uint32 num = uint32((tokenId << 72) >> 224);\n        require(fType == 1, \"Invalid tokenId\");\n        require(num == number, \"Invalid tokenId\");\n        Period storage period = periods[number];\n        uint256 _now = block.timestamp;\n        require(_now >= period.startTime && _now < period.endTime, \"Can't redeem anymore\");\n\n        //\n        ITotem iTotem = ITotem(totem);\n        iTotem.burn(tokenId);\n        //\n        AwardsInfo memory ai = _getAwardsInfo(tokenId);\n        current -= ai.bonus;\n        for (uint256 i = 0; i != period.awardsInfos.length; i++) {\n            if (period.awardsInfos[i].types == ai.types) {\n                period.awardsInfos[i].redeemedCount += 1;\n                break;\n            }\n        }\n        //\n        IERC20 token = _getTokenContract();\n        token.transfer(from, ai.bonus);\n    }\n\n    function onERC721Received(\n        address,\n        address _from,\n        uint256 _tokenId,\n        bytes memory _data\n    ) external override returns (bytes4) {\n        if (msg.sender == getAddress(\"Totem\")) {\n            Operate op = Operate(uint8(_data[0]));\n            if (Operate.Redeem == op) {\n                redeemTotem(msg.sender, _from, _tokenId);\n            } else if (Operate.Burn == op) {\n                burnTotem(msg.sender, _from, _tokenId);\n            } else {\n                return 0;\n            }\n        }\n        return ERC721_RECEIVER_RETURN;\n    }\n\n    function burnTotem(\n        address totem,\n        address from,\n        uint256 tokenId\n    ) internal {\n        uint8 fType = uint8(tokenId >> 248);\n        uint32 num = uint32((tokenId << 72) >> 224);\n        require(fType == 1, \"Invalid tokenId\");\n        require(num != number, \"Unexpired totem cannot be burn\");\n        uint256 tokens = ILockTokens(totem).lockTokens(tokenId);\n        ITotem(totem).burn(tokenId);\n        IERC20OP(getAddress(\"Token\")).mint(from, tokens);\n    }\n\n    function onERC1155Received(\n        address,\n        address _from,\n        uint256 _id,\n        uint256 _value,\n        bytes calldata _data\n    ) external override returns (bytes4) {\n        if (msg.sender == getAddress(\"Fragment\")) {\n            Operate op = Operate(uint8(_data[0]));\n            if (Operate.Composite == op) {\n                composite(_from, _id, _value);\n            } else if (Operate.Burn == op) {\n                burnFragment(_from, _id, _value);\n            } else {\n                return 0;\n            }\n        }\n        return ERC1155_ACCEPTED;\n    }\n\n    function onERC1155BatchReceived(\n        address,\n        address _from,\n        uint256[] calldata _ids,\n        uint256[] calldata _values,\n        bytes calldata _data\n    ) external override returns (bytes4) {\n        if (msg.sender == getAddress(\"Fragment\")) {\n            Operate op = Operate(uint8(_data[0]));\n            if (Operate.Composite == op) {\n                for (uint256 i = 0; i != _ids.length; i++) {\n                    composite(_from, _ids[i], _values[i]);\n                }\n            } else if (Operate.Burn == op) {\n                for (uint256 i = 0; i != _ids.length; i++) {\n                    burnFragment(_from, _ids[i], _values[i]);\n                }\n            } else {\n                return 0;\n            }\n        }\n        return ERC1155_BATCH_ACCEPTED;\n    }\n\n    function burnFragment(\n        address from,\n        uint256 tokenId,\n        uint256 value\n    ) internal {\n        uint8 fType = uint8(tokenId >> 248);\n        uint32 num = uint32((tokenId << 72) >> 224);\n        require(fType == 1, \"Invalid tokenId\");\n        require(num != number, \"Not expired, cannot be burn\");\n        IERC1155OP(getAddress(\"Fragment\")).burn(address(this), tokenId, value);\n        address lgc = getAddress(\"Token\");\n        uint256 val = perFragmentToken * (10**IERC20(lgc).decimals()) * value;\n        IERC20OP(lgc).mint(from, val);\n    }\n\n    function composite(\n        address from,\n        uint256 tokenId,\n        uint256 _value\n    ) internal {\n        uint8 fType = uint8(tokenId >> 248);\n        require(fType == 1, \"Invalid tokenId\");\n        AwardsInfo memory ai = _getAwardsInfo(tokenId);\n        require(ai.count - ai.redeemedCount > 0, \"There is nothing to composite\");\n        address fragment = getAddress(\"Fragment\");\n        //\n        uint256 value = ai.fragmentCount / ai.count;\n        require(value == _value, \"Invalid value\");\n        ai.redeemedCount += 1;\n        //\n        IERC1155OP(fragment).burn(address(this), tokenId, value);\n        //\n        address lgc = getAddress(\"Token\");\n        uint256 totalValue = perFragmentToken * (10**IERC20(lgc).decimals()) * value;\n        ITotem(getAddress(\"Totem\")).mint(from, tokenId, totalValue);\n    }\n}\n",
  "sourcePath": "/Users/necklace/work/Legend/Legend/contracts/BonusPool.sol",
  "compiler": {
    "name": "solc",
    "version": "0.8.0+commit.c7dfd78e.Darwin.appleclang"
  },
  "schemaVersion": "3.4.3",
  "updatedAt": "2022-03-25T17:08:34.254Z",
  "networkType": "ethereum",
  "devdoc": {
    "kind": "dev",
    "methods": {},
    "version": 1
  },
  "userdoc": {
    "kind": "user",
    "methods": {},
    "version": 1
  }
}