{
  "contractName": "Box",
  "abi": [
    {
      "inputs": [
        {
          "internalType": "string",
          "name": "name",
          "type": "string"
        },
        {
          "internalType": "string",
          "name": "symbol",
          "type": "string"
        }
      ],
      "stateMutability": "nonpayable",
      "type": "constructor"
    },
    {
      "anonymous": false,
      "inputs": [
        {
          "indexed": true,
          "internalType": "address",
          "name": "_owner",
          "type": "address"
        },
        {
          "indexed": true,
          "internalType": "address",
          "name": "_approved",
          "type": "address"
        },
        {
          "indexed": true,
          "internalType": "uint256",
          "name": "_tokenId",
          "type": "uint256"
        }
      ],
      "name": "Approval",
      "type": "event"
    },
    {
      "anonymous": false,
      "inputs": [
        {
          "indexed": true,
          "internalType": "address",
          "name": "_owner",
          "type": "address"
        },
        {
          "indexed": true,
          "internalType": "address",
          "name": "_operator",
          "type": "address"
        },
        {
          "indexed": false,
          "internalType": "bool",
          "name": "_approved",
          "type": "bool"
        }
      ],
      "name": "ApprovalForAll",
      "type": "event"
    },
    {
      "anonymous": false,
      "inputs": [
        {
          "indexed": true,
          "internalType": "address",
          "name": "user",
          "type": "address"
        },
        {
          "indexed": true,
          "internalType": "uint256",
          "name": "class",
          "type": "uint256"
        },
        {
          "indexed": true,
          "internalType": "uint256",
          "name": "quality",
          "type": "uint256"
        },
        {
          "indexed": false,
          "internalType": "uint256",
          "name": "number",
          "type": "uint256"
        },
        {
          "indexed": false,
          "internalType": "uint256",
          "name": "time",
          "type": "uint256"
        }
      ],
      "name": "Gain",
      "type": "event"
    },
    {
      "anonymous": false,
      "inputs": [
        {
          "indexed": true,
          "internalType": "address",
          "name": "_from",
          "type": "address"
        },
        {
          "indexed": true,
          "internalType": "address",
          "name": "_to",
          "type": "address"
        },
        {
          "indexed": true,
          "internalType": "uint256",
          "name": "_tokenId",
          "type": "uint256"
        }
      ],
      "name": "Transfer",
      "type": "event"
    },
    {
      "inputs": [
        {
          "internalType": "address",
          "name": "to",
          "type": "address"
        },
        {
          "internalType": "uint256",
          "name": "tokenId",
          "type": "uint256"
        }
      ],
      "name": "approve",
      "outputs": [],
      "stateMutability": "payable",
      "type": "function"
    },
    {
      "inputs": [
        {
          "internalType": "address",
          "name": "owner",
          "type": "address"
        }
      ],
      "name": "balanceOf",
      "outputs": [
        {
          "internalType": "uint256",
          "name": "",
          "type": "uint256"
        }
      ],
      "stateMutability": "view",
      "type": "function"
    },
    {
      "inputs": [
        {
          "internalType": "uint256",
          "name": "",
          "type": "uint256"
        }
      ],
      "name": "boxInfos",
      "outputs": [
        {
          "internalType": "uint16",
          "name": "classId",
          "type": "uint16"
        },
        {
          "internalType": "uint256",
          "name": "blockNumber",
          "type": "uint256"
        }
      ],
      "stateMutability": "view",
      "type": "function"
    },
    {
      "inputs": [
        {
          "internalType": "uint256",
          "name": "",
          "type": "uint256"
        }
      ],
      "name": "categories",
      "outputs": [
        {
          "internalType": "uint16",
          "name": "minQuantity",
          "type": "uint16"
        },
        {
          "internalType": "uint16",
          "name": "maxQuantity",
          "type": "uint16"
        },
        {
          "internalType": "uint256",
          "name": "tokens",
          "type": "uint256"
        }
      ],
      "stateMutability": "view",
      "type": "function"
    },
    {
      "inputs": [],
      "name": "contractOwner",
      "outputs": [
        {
          "internalType": "address",
          "name": "",
          "type": "address"
        }
      ],
      "stateMutability": "view",
      "type": "function"
    },
    {
      "inputs": [
        {
          "internalType": "string",
          "name": "key",
          "type": "string"
        }
      ],
      "name": "getAddress",
      "outputs": [
        {
          "internalType": "address",
          "name": "",
          "type": "address"
        }
      ],
      "stateMutability": "view",
      "type": "function"
    },
    {
      "inputs": [
        {
          "internalType": "uint256",
          "name": "tokenId",
          "type": "uint256"
        }
      ],
      "name": "getApproved",
      "outputs": [
        {
          "internalType": "address",
          "name": "",
          "type": "address"
        }
      ],
      "stateMutability": "view",
      "type": "function"
    },
    {
      "inputs": [
        {
          "internalType": "address",
          "name": "owner",
          "type": "address"
        },
        {
          "internalType": "address",
          "name": "operator",
          "type": "address"
        }
      ],
      "name": "isApprovedForAll",
      "outputs": [
        {
          "internalType": "bool",
          "name": "",
          "type": "bool"
        }
      ],
      "stateMutability": "view",
      "type": "function"
    },
    {
      "inputs": [],
      "name": "manager",
      "outputs": [
        {
          "internalType": "contract Manager",
          "name": "",
          "type": "address"
        }
      ],
      "stateMutability": "view",
      "type": "function"
    },
    {
      "inputs": [],
      "name": "name",
      "outputs": [
        {
          "internalType": "string",
          "name": "",
          "type": "string"
        }
      ],
      "stateMutability": "view",
      "type": "function"
    },
    {
      "inputs": [
        {
          "internalType": "uint256",
          "name": "tokenId",
          "type": "uint256"
        }
      ],
      "name": "ownerOf",
      "outputs": [
        {
          "internalType": "address",
          "name": "",
          "type": "address"
        }
      ],
      "stateMutability": "view",
      "type": "function"
    },
    {
      "inputs": [
        {
          "internalType": "address",
          "name": "from",
          "type": "address"
        },
        {
          "internalType": "address",
          "name": "to",
          "type": "address"
        },
        {
          "internalType": "uint256",
          "name": "tokenId",
          "type": "uint256"
        },
        {
          "internalType": "bytes",
          "name": "data",
          "type": "bytes"
        }
      ],
      "name": "safeTransferFrom",
      "outputs": [],
      "stateMutability": "payable",
      "type": "function"
    },
    {
      "inputs": [
        {
          "internalType": "address",
          "name": "to",
          "type": "address"
        },
        {
          "internalType": "bool",
          "name": "approved",
          "type": "bool"
        }
      ],
      "name": "setApprovalForAll",
      "outputs": [],
      "stateMutability": "nonpayable",
      "type": "function"
    },
    {
      "inputs": [
        {
          "internalType": "address",
          "name": "addr",
          "type": "address"
        }
      ],
      "name": "setManager",
      "outputs": [],
      "stateMutability": "nonpayable",
      "type": "function"
    },
    {
      "inputs": [
        {
          "internalType": "bytes4",
          "name": "interfaceID",
          "type": "bytes4"
        }
      ],
      "name": "supportsInterface",
      "outputs": [
        {
          "internalType": "bool",
          "name": "",
          "type": "bool"
        }
      ],
      "stateMutability": "pure",
      "type": "function"
    },
    {
      "inputs": [],
      "name": "symbol",
      "outputs": [
        {
          "internalType": "string",
          "name": "",
          "type": "string"
        }
      ],
      "stateMutability": "view",
      "type": "function"
    },
    {
      "inputs": [
        {
          "internalType": "address",
          "name": "owner",
          "type": "address"
        },
        {
          "internalType": "uint256",
          "name": "startIndex",
          "type": "uint256"
        },
        {
          "internalType": "uint256",
          "name": "endIndex",
          "type": "uint256"
        }
      ],
      "name": "tokensOf",
      "outputs": [
        {
          "internalType": "uint256[]",
          "name": "",
          "type": "uint256[]"
        }
      ],
      "stateMutability": "view",
      "type": "function"
    },
    {
      "inputs": [],
      "name": "totalSupply",
      "outputs": [
        {
          "internalType": "uint256",
          "name": "",
          "type": "uint256"
        }
      ],
      "stateMutability": "view",
      "type": "function"
    },
    {
      "inputs": [
        {
          "internalType": "address",
          "name": "from",
          "type": "address"
        },
        {
          "internalType": "address",
          "name": "to",
          "type": "address"
        },
        {
          "internalType": "uint256",
          "name": "tokenId",
          "type": "uint256"
        }
      ],
      "name": "transferFrom",
      "outputs": [],
      "stateMutability": "payable",
      "type": "function"
    },
    {
      "inputs": [],
      "name": "uriPrefix",
      "outputs": [
        {
          "internalType": "string",
          "name": "",
          "type": "string"
        }
      ],
      "stateMutability": "view",
      "type": "function"
    },
    {
      "inputs": [
        {
          "internalType": "uint256",
          "name": "boxId",
          "type": "uint256"
        }
      ],
      "name": "tokenURI",
      "outputs": [
        {
          "internalType": "string",
          "name": "",
          "type": "string"
        }
      ],
      "stateMutability": "view",
      "type": "function"
    },
    {
      "inputs": [
        {
          "internalType": "uint256",
          "name": "classId",
          "type": "uint256"
        },
        {
          "components": [
            {
              "internalType": "uint32[][6]",
              "name": "equipmentIds",
              "type": "uint32[][6]"
            },
            {
              "internalType": "uint8[]",
              "name": "quality",
              "type": "uint8[]"
            },
            {
              "internalType": "uint8[]",
              "name": "categoryQuality",
              "type": "uint8[]"
            },
            {
              "internalType": "uint16",
              "name": "minQuantity",
              "type": "uint16"
            },
            {
              "internalType": "uint16",
              "name": "maxQuantity",
              "type": "uint16"
            },
            {
              "internalType": "uint256",
              "name": "tokens",
              "type": "uint256"
            }
          ],
          "internalType": "struct Box.BoxCategory",
          "name": "category",
          "type": "tuple"
        }
      ],
      "name": "addCategories",
      "outputs": [],
      "stateMutability": "nonpayable",
      "type": "function"
    },
    {
      "inputs": [
        {
          "internalType": "address",
          "name": "to",
          "type": "address"
        },
        {
          "internalType": "uint256",
          "name": "boxId",
          "type": "uint256"
        }
      ],
      "name": "mint",
      "outputs": [],
      "stateMutability": "nonpayable",
      "type": "function"
    },
    {
      "inputs": [
        {
          "internalType": "address",
          "name": "to",
          "type": "address"
        },
        {
          "internalType": "uint256",
          "name": "quantity",
          "type": "uint256"
        },
        {
          "internalType": "bytes",
          "name": "data",
          "type": "bytes"
        }
      ],
      "name": "mint",
      "outputs": [],
      "stateMutability": "nonpayable",
      "type": "function"
    },
    {
      "inputs": [
        {
          "internalType": "uint256",
          "name": "boxId",
          "type": "uint256"
        }
      ],
      "name": "burn",
      "outputs": [],
      "stateMutability": "nonpayable",
      "type": "function"
    },
    {
      "inputs": [
        {
          "internalType": "uint256",
          "name": "boxId",
          "type": "uint256"
        }
      ],
      "name": "open",
      "outputs": [],
      "stateMutability": "nonpayable",
      "type": "function"
    },
    {
      "inputs": [
        {
          "internalType": "uint256[]",
          "name": "boxIds",
          "type": "uint256[]"
        }
      ],
      "name": "open",
      "outputs": [],
      "stateMutability": "nonpayable",
      "type": "function"
    }
  ],
  "bytecode": "0x6000600755600880546001600160a01b0319163317905560e060405260216080818152906200357a60a03980516200004091600a91602090910190620000ab565b503480156200004e57600080fd5b506040516200359b3803806200359b8339810160408190526200007191620001fc565b8151829082906200008a906000906020850190620000ab565b508051620000a0906001906020840190620000ab565b5050505050620002b6565b828054620000b99062000263565b90600052602060002090601f016020900481019282620000dd576000855562000128565b82601f10620000f857805160ff191683800117855562000128565b8280016001018555821562000128579182015b82811115620001285782518255916020019190600101906200010b565b50620001369291506200013a565b5090565b5b808211156200013657600081556001016200013b565b600082601f83011262000162578081fd5b81516001600160401b03808211156200017f576200017f620002a0565b6040516020601f8401601f1916820181018381118382101715620001a757620001a7620002a0565b6040528382528584018101871015620001be578485fd5b8492505b83831015620001e15785830181015182840182015291820191620001c2565b83831115620001f257848185840101525b5095945050505050565b600080604083850312156200020f578182fd5b82516001600160401b038082111562000226578384fd5b620002348683870162000151565b935060208501519150808211156200024a578283fd5b50620002598582860162000151565b9150509250929050565b6002810460018216806200027857607f821691505b602082108114156200029a57634e487b7160e01b600052602260045260246000fd5b50919050565b634e487b7160e01b600052604160045260246000fd5b6132b480620002c66000396000f3fe60806040526004361061019c5760003560e01c806370a08231116100ec578063bf40fac11161008a578063ce606ee011610064578063ce606ee01461048c578063d0ebdbe7146104a1578063e985e9c5146104c1578063f3041744146104e15761019c565b8063bf40fac11461041d578063c6cdbe5e1461043d578063c87b56dd1461046c5761019c565b806394d008ef116100c657806394d008ef146103b557806395d89b41146103d5578063a22cb465146103ea578063b88d4fde1461040a5761019c565b806370a082311461034757806372e9fae0146103675780638da91778146103955761019c565b806323b872dd11610159578063481c6a7511610133578063481c6a75146102dd57806362b99ad4146102f25780636352211e14610307578063690e7c09146103275761019c565b806323b872dd1461028a57806340c10f191461029d57806342966c68146102bd5761019c565b806301ffc9a7146101a157806306fdde03146101d7578063081812fc146101f9578063095ea7b31461022657806318160ddd1461023b57806323185dc91461025d575b600080fd5b3480156101ad57600080fd5b506101c16101bc366004612387565b610501565b6040516101ce9190612974565b60405180910390f35b3480156101e357600080fd5b506101ec610555565b6040516101ce919061297f565b34801561020557600080fd5b50610219610214366004612518565b6105e3565b6040516101ce91906127a7565b610239610234366004612203565b61063c565b005b34801561024757600080fd5b506102506106fd565b6040516101ce9190612d33565b34801561026957600080fd5b5061027d6102783660046122b1565b610703565b6040516101ce9190612930565b61023961029836600461211a565b610893565b3480156102a957600080fd5b506102396102b8366004612203565b6108a3565b3480156102c957600080fd5b506102396102d8366004612518565b6108a7565b3480156102e957600080fd5b50610219610954565b3480156102fe57600080fd5b506101ec610963565b34801561031357600080fd5b50610219610322366004612518565b610970565b34801561033357600080fd5b50610239610342366004612518565b6109a5565b34801561035357600080fd5b506102506103623660046120aa565b610c46565b34801561037357600080fd5b50610387610382366004612518565b610c8a565b6040516101ce929190612d1f565b3480156103a157600080fd5b506102396103b03660046122e5565b610caa565b3480156103c157600080fd5b506102396103d036600461222e565b610cf5565b3480156103e157600080fd5b506101ec610f64565b3480156103f657600080fd5b506102396104053660046121d6565b610f71565b61023961041836600461215a565b610fe0565b34801561042957600080fd5b506102196104383660046123bf565b6110b5565b34801561044957600080fd5b5061045d610458366004612518565b611136565b6040516101ce93929190612d00565b34801561047857600080fd5b506101ec610487366004612518565b611161565b34801561049857600080fd5b506102196111ac565b3480156104ad57600080fd5b506102396104bc3660046120aa565b6111bb565b3480156104cd57600080fd5b506101c16104dc3660046120e2565b61122d565b3480156104ed57600080fd5b506102396104fc366004612530565b61125d565b60006001600160e01b031982166301ffc9a760e01b148061053257506001600160e01b031982166380ac58cd60e01b145b8061054d57506001600160e01b03198216635b5e139f60e01b145b90505b919050565b6000805461056290612f3b565b80601f016020809104026020016040519081016040528092919081815260200182805461058e90612f3b565b80156105db5780601f106105b0576101008083540402835291602001916105db565b820191906000526020600020905b8154815290600101906020018083116105be57829003601f168201915b505050505081565b6000818152600460205260408120546001600160a01b03166106205760405162461bcd60e51b815260040161061790612bf3565b60405180910390fd5b506000908152600560205260409020546001600160a01b031690565b6000818152600460205260409020546001600160a01b03163381148061068557506001600160a01b038116600090815260066020908152604080832033845290915290205460ff165b6106a15760405162461bcd60e51b815260040161061790612a15565b60008281526005602052604080822080546001600160a01b0319166001600160a01b0387811691821790925591518593918516917f8c5be1e5ebec7d5bd14f71427d1e84f3dd0314c0f7b2291e5b200ac8c7c3b92591a4505050565b60075481565b60606001600160a01b03841661072b5760405162461bcd60e51b815260040161061790612a89565b6001600160a01b03841660009081526002602052604090208261079c5780546040805160208084028201810190925282815291839183018282801561078f57602002820191906000526020600020905b81548152602001906001019080831161077b575b505050505091505061088c565b8284106107bb5760405162461bcd60e51b815260040161061790612cd9565b60006107c78585612e19565b6001600160401b038111156107ec57634e487b7160e01b600052604160045260246000fd5b604051908082528060200260200182016040528015610815578160200160208202803683370190505b509050845b8481146108875782818154811061084157634e487b7160e01b600052603260045260246000fd5b906000526020600020015482828151811061086c57634e487b7160e01b600052603260045260246000fd5b602090810291909101015261088081612f76565b905061081a565b509150505b9392505050565b61089e838383611336565b505050565b5050565b6000818152600460205260409020546001600160a01b0316338114806108e357506000828152600560205260409020546001600160a01b031633145b8061091157506001600160a01b038116600090815260066020908152604080832033845290915290205460ff165b61092d5760405162461bcd60e51b815260040161061790612b88565b610936826114c6565b506000908152600c60205260408120805461ffff1916815560010155565b6009546001600160a01b031681565b600a805461056290612f3b565b6000818152600460205260408120546001600160a01b03168061054d5760405162461bcd60e51b815260040161061790612c22565b6000818152600c60209081526040918290208251808401909352805461ffff16808452600190910154918301919091526109f15760405162461bcd60e51b815260040161061790612bcc565b6109fa826108a7565b805161ffff166000908152600b602090815260408083208151808301909252600682526552616e646f6d60d01b9282019290925290916001600160801b03607086901c1691610a48906110b5565b6001600160a01b031663cd4b691485602001516040518263ffffffff1660e01b8152600401610a779190612d33565b60206040518083038186803b158015610a8f57600080fd5b505afa158015610aa3573d6000803e3d6000fd5b505050506040513d601f19601f82011682018060405250810190610ac7919061236f565b905060008360080160029054906101000a900461ffff1661ffff1660011415610af257506001610b36565b8451604051610b3391610b0b9186908690602001612775565b60408051601f19818403018152919052600886015461ffff808216916201000090041661155e565b90505b60005b818114610c3d576000610b4e848784886115a8565b9050610b7a60405180604001604052806009815260200168115c5d5a5c1b595b9d60ba1b8152506110b5565b6001600160a01b031663803a763a33836040518363ffffffff1660e01b8152600401610ba7929190612812565b600060405180830381600087803b158015610bc157600080fd5b505af1158015610bd5573d6000803e3d6000fd5b50505050806060015160ff166000336001600160a01b03167f4ce2915a2cc4b91d8c8bc375bdaaa6e23f6dcaf968d438483dd19f9ca8483b79846000015142604051610c22929190612d3c565b60405180910390a45080610c3581612f76565b915050610b39565b50505050505050565b60006001600160a01b038216610c6e5760405162461bcd60e51b815260040161061790612a89565b506001600160a01b031660009081526002602052604090205490565b600c602052600090815260409020805460019091015461ffff9091169082565b60005b80821461089e57610ce3838383818110610cd757634e487b7160e01b600052603260045260246000fd5b905060200201356109a5565b80610ced81612f76565b915050610cad565b604080518082018252600581526473746f726560d81b60208201526009549151637af32e3960e11b815290916001600160a01b03169063f5e65c7290610d4190339085906004016127ee565b60206040518083038186803b158015610d5957600080fd5b505afa158015610d6d573d6000803e3d6000fd5b505050506040513d601f19601f82011682018060405250810190610d919190612353565b610dad5760405162461bcd60e51b815260040161061790612b65565b60028214610dcd5760405162461bcd60e51b815260040161061790612b14565b6000610e0e84848080601f01602080910402602001604051908101604052809392919081815260200183838082843760009201829052509250611881915050565b61ffff81166000908152600b6020526040902060060154909150610e445760405162461bcd60e51b815260040161061790612b14565b60005b858114610ecd57600060706007546001610e619190612ded565b6001600160801b0316901b60f084901b6001600160f01b031916176000818152600c60205260409020805461ffff861661ffff19909116178155909150610ea9436001612ded565b6001820155610eb889836118e1565b50508080610ec590612f76565b915050610e47565b50610ef56040518060400160405280600681526020016552616e646f6d60d01b8152506110b5565b6001600160a01b031663f207564e610f0e436001612ded565b6040518263ffffffff1660e01b8152600401610f2a9190612d33565b600060405180830381600087803b158015610f4457600080fd5b505af1158015610f58573d6000803e3d6000fd5b50505050505050505050565b6001805461056290612f3b565b3360008181526006602090815260408083206001600160a01b038716808552925291829020805460ff191685151517905590519091907f17307eab39ab6107e8899845ad3d59bd9653f200f220920489ca2b5937696c3190610fd4908590612974565b60405180910390a35050565b610feb848484611336565b610ffd836001600160a01b031661193a565b156110af57604051630a85bd0160e11b808252906001600160a01b0385169063150b7a02906110369033908990889088906004016127bb565b602060405180830381600087803b15801561105057600080fd5b505af1158015611064573d6000803e3d6000fd5b505050506040513d601f19601f8201168201806040525081019061108891906123a3565b6001600160e01b031916146110af5760405162461bcd60e51b8152600401610617906129d4565b50505050565b6009546040516334abd05960e11b81526000916001600160a01b031690636957a0b2906110e690859060040161297f565b60206040518083038186803b1580156110fe57600080fd5b505afa158015611112573d6000803e3d6000fd5b505050506040513d601f19601f8201168201806040525081019061054d91906120c6565b600b602052600090815260409020600881015460099091015461ffff80831692620100009004169083565b6000818152600c602052604081205460609190600a906111849061ffff16611940565b6040516020016111959291906126d0565b60408051808303601f190181529190529392505050565b6008546001600160a01b031681565b6008546001600160a01b031633146111e55760405162461bcd60e51b815260040161061790612ca2565b6001600160a01b03811661120b5760405162461bcd60e51b815260040161061790612c50565b600980546001600160a01b0319166001600160a01b0392909216919091179055565b6001600160a01b0380831660009081526006602090815260408083209385168352929052205460ff165b92915050565b604080518082018252600581526430b236b4b760d91b60208201526009549151637af32e3960e11b815290916001600160a01b03169063f5e65c72906112a990339085906004016127ee565b60206040518083038186803b1580156112c157600080fd5b505afa1580156112d5573d6000803e3d6000fd5b505050506040513d601f19601f820116820180604052508101906112f99190612353565b6113155760405162461bcd60e51b815260040161061790612b65565b6000838152600b60205260409020829061132f828261307c565b5050505050565b6001600160a01b03831661135c5760405162461bcd60e51b815260040161061790612ab8565b6001600160a01b0382166113825760405162461bcd60e51b815260040161061790612a5d565b6000818152600460205260409020546001600160a01b038481169116146113bb5760405162461bcd60e51b815260040161061790612c76565b336001600160a01b03841614806113e857506000818152600560205260409020546001600160a01b031633145b8061141657506001600160a01b038316600090815260066020908152604080832033845290915290205460ff165b6114325760405162461bcd60e51b815260040161061790612992565b6000818152600560205260409020546001600160a01b03161561146c57600081815260056020526040902080546001600160a01b03191690555b611476838261194d565b6114808282611a52565b80826001600160a01b0316846001600160a01b03167fddf252ad1be2c89b69c2b068fc378daa952ba7f163c4a11628f55a4df523b3ef60405160405180910390a4505050565b6000818152600460205260409020546001600160a01b03166114e8818361194d565b6000828152600560205260409020546001600160a01b03161561152257600082815260056020526040902080546001600160a01b03191690555b60405182906000906001600160a01b038416907fddf252ad1be2c89b69c2b068fc378daa952ba7f163c4a11628f55a4df523b3ef908390a45050565b600081831061156e57508161088c565b83516020850120836115808185612e19565b61158b906001612ded565b6115959083612f91565b61159f9190612ded565b95945050505050565b6115b0611eca565b60006115d960405180604001604052806006815260200165436f6e66696760d01b8152506110b5565b90506116748685856040516020016115f39392919061269d565b60408051601f1981840301815260068901805460208181028601810190945280855291939290919083018282801561166857602002820191906000526020600020906000905b825461010083900a900460ff168152602060019283018181049485019490930390920291018084116116395790505b50505050506064611aab565b60ff1660608301526040516000906117199061169890899088908890602001612669565b60408051601f1981840301815260078a01805460208181028601810190945280855291939290919083018282801561170d57602002820191906000526020600020906000905b825461010083900a900460ff168152602060019283018181049485019490930390920291018084116116de5790505b50505050506064611b83565b9050600061177d88878760405160200161173593929190612637565b60408051601f19818403018152919052600060018a60ff87166006811061176c57634e487b7160e01b600052603260045260246000fd5b01546117789190612e19565b61155e565b90506001600160a01b03831663b8fea24b8860ff8516600681106117b157634e487b7160e01b600052603260045260246000fd5b0183815481106117d157634e487b7160e01b600052603260045260246000fd5b90600052602060002090600891828204019190066004029054906101000a900463ffffffff1686606001516040518363ffffffff1660e01b8152600401611819929190612d52565b6102806040518083038186803b15801561183257600080fd5b505afa158015611846573d6000803e3d6000fd5b505050506040513d601f19601f8201168201806040525081019061186a919061240c565b60099097015460c088015250949695505050505050565b60008161188f816002612ded565b10156118ad5760405162461bcd60e51b815260040161061790612b3a565b6118b8826002612ded565b835110156118d85760405162461bcd60e51b815260040161061790612ae6565b50016002015190565b6118eb8282611a52565b6007600081546118fa90612f76565b9091555060405181906001600160a01b038416906000907fddf252ad1be2c89b69c2b068fc378daa952ba7f163c4a11628f55a4df523b3ef908290a45050565b3b151590565b606061054d82600a611c5b565b6000818152600360209081526040808320546001600160a01b03861684526002909252822080549192909161198490600190612e19565b905060008282815481106119a857634e487b7160e01b600052603260045260246000fd5b90600052602060002001549050808385815481106119d657634e487b7160e01b600052603260045260246000fd5b60009182526020808320909101929092558281526003909152604090208490558254839080611a1557634e487b7160e01b600052603160045260246000fd5b60008281526020808220830160001990810183905590920190925595815260049095525050604090922080546001600160a01b0319169055505050565b6001600160a01b03909116600081815260026020908152604080832080548685526003845282852081905560018101825590845282842001859055938252600490529190912080546001600160a01b0319169091179055565b60008083516001600160401b03811115611ad557634e487b7160e01b600052604160045260246000fd5b604051908082528060200260200182016040528015611afe578160200160208202803683370190505b50905060005b84518114611b7457848181518110611b2c57634e487b7160e01b600052603260045260246000fd5b602002602001015160ff16828281518110611b5757634e487b7160e01b600052603260045260246000fd5b602090810291909101015280611b6c81612f76565b915050611b04565b5061159f85828560ff16611d7e565b60008083516001600160401b03811115611bad57634e487b7160e01b600052604160045260246000fd5b604051908082528060200260200182016040528015611bd6578160200160208202803683370190505b50905060005b84518114611c4c57848181518110611c0457634e487b7160e01b600052603260045260246000fd5b602002602001015160ff16828281518110611c2f57634e487b7160e01b600052603260045260246000fd5b602090810291909101015280611c4481612f76565b915050611bdc565b5061159f85828560ff16611e30565b606082611c8057506040805180820190915260018152600360fc1b6020820152611257565b8260005b8115611ca95780611c9481612f76565b9150611ca290508483612e05565b9150611c84565b6000816001600160401b03811115611cd157634e487b7160e01b600052604160045260246000fd5b6040519080825280601f01601f191660200182016040528015611cfb576020820181803683370190505b508693509050815b8315611d7457611d138685612f91565b611d1e906030612ded565b60f81b82611d2b83612f24565b92508281518110611d4c57634e487b7160e01b600052603260045260246000fd5b60200101906001600160f81b031916908160001a905350611d6d8685612e05565b9350611d03565b5095945050505050565b600080611d8d8560018561155e565b9050600060018551611d9f9190612e19565b90505b8015611e2457848181518110611dc857634e487b7160e01b600052603260045260246000fd5b60200260200101518211611ddf57915061088c9050565b848181518110611dff57634e487b7160e01b600052603260045260246000fd5b602002602001015182611e129190612e19565b9150611e1d81612f24565b9050611da2565b50600095945050505050565b600080611e3f8560018561155e565b90506000805b60018651611e539190612e19565b8114611eb157858181518110611e7957634e487b7160e01b600052603260045260246000fd5b602002602001015182611e8c9190612ded565b9150818311611e9f57925061088c915050565b80611ea981612f76565b915050611e45565b5060018551611ec09190612e19565b9695505050505050565b604080516101c081018252600080825260208201819052918101829052606081018290526080810182905260a0810182905260c0810182905260e0810182905261010081018290526101208101829052610140810182905261016081018290526101808101919091526101a08101611f40611f45565b905290565b6040805160e081018252600080825260208201819052918101829052606081018290526080810182905260a0810182905260c081019190915290565b60006001600160401b03831115611f9a57611f9a612fd1565b611fad601f8401601f1916602001612db8565b9050828152838383011115611fc157600080fd5b828260208301376000602084830101529392505050565b805161055081613239565b600060e08284031215611ff4578081fd5b60405160e081018181106001600160401b038211171561201657612016612fd1565b60405290508061202583612094565b815261203360208401612094565b602082015261204460408401612094565b604082015261205560608401612094565b606082015261206660808401612094565b608082015261207760a08401612094565b60a082015261208860c08401612094565b60c08201525092915050565b80516105508161325d565b80516105508161326f565b6000602082840312156120bb578081fd5b813561088c81613221565b6000602082840312156120d7578081fd5b815161088c81613221565b600080604083850312156120f4578081fd5b82356120ff81613221565b9150602083013561210f81613221565b809150509250929050565b60008060006060848603121561212e578081fd5b833561213981613221565b9250602084013561214981613221565b929592945050506040919091013590565b6000806000806080858703121561216f578182fd5b843561217a81613221565b9350602085013561218a81613221565b92506040850135915060608501356001600160401b038111156121ab578182fd5b8501601f810187136121bb578182fd5b6121ca87823560208401611f81565b91505092959194509250565b600080604083850312156121e8578182fd5b82356121f381613221565b9150602083013561210f81613239565b60008060408385031215612215578182fd5b823561222081613221565b946020939093013593505050565b60008060008060608587031215612243578182fd5b843561224e81613221565b93506020850135925060408501356001600160401b0380821115612270578384fd5b818701915087601f830112612283578384fd5b813581811115612291578485fd5b8860208285010111156122a2578485fd5b95989497505060200194505050565b6000806000606084860312156122c5578081fd5b83356122d081613221565b95602085013595506040909401359392505050565b600080602083850312156122f7578182fd5b82356001600160401b038082111561230d578384fd5b818501915085601f830112612320578384fd5b81358181111561232e578485fd5b8660208083028501011115612341578485fd5b60209290920196919550909350505050565b600060208284031215612364578081fd5b815161088c81613239565b600060208284031215612380578081fd5b5051919050565b600060208284031215612398578081fd5b813561088c81613247565b6000602082840312156123b4578081fd5b815161088c81613247565b6000602082840312156123d0578081fd5b81356001600160401b038111156123e5578182fd5b8201601f810184136123f5578182fd5b61240484823560208401611f81565b949350505050565b6000610280828403121561241e578081fd5b6124296101c0612db8565b61243283612094565b81526124406020840161209f565b60208201526124516040840161209f565b60408201526124626060840161209f565b606082015261247360808401611fd8565b608082015261248460a08401611fd8565b60a082015260c083015160c082015261249f60e08401612094565b60e08201526101006124b2818501612094565b908201526101206124c4848201612094565b908201526101406124d6848201612094565b908201526101606124e8848201612094565b908201526101806124fa848201612094565b908201526101a061250d85858301611fe3565b908201529392505050565b600060208284031215612529578081fd5b5035919050565b60008060408385031215612542578182fd5b8235915060208301356001600160401b0381111561255e578182fd5b830160c0818603121561210f578182fd5b15159052565b6000815180845261258d816020860160208601612ef8565b601f01601f19169290920160200192915050565b600081516125b3818560208601612ef8565b9290920192915050565b64173539b7b760d91b815260050190565b63ffffffff8082511683528060208301511660208401528060408301511660408401528060608301511660608401528060808301511660808401528060a08301511660a08401528060c08301511660c0840152505050565b63ffffffff169052565b60ff169052565b928352602083019190915260801b6001600160801b0319166040820152650ca92dcc8caf60d31b605082015260560190565b928352602083019190915260801b6001600160801b03191660408201526763617465676f727960c01b605082015260580190565b928352602083019190915260801b6001600160801b0319166040820152667175616c69747960c81b605082015260570190565b82546000908190600281046001808316806126ec57607f831692505b602080841082141561270c57634e487b7160e01b87526022600452602487fd5b81801561272057600181146127315761275d565b60ff1986168952848901965061275d565b61273a8b612de1565b885b868110156127555781548b82015290850190830161273c565b505084890196505b50505050505061159f61277082866125a1565b6125bd565b60f09390931b6001600160f01b031916835260809190911b6001600160801b0319166002830152601282015260320190565b6001600160a01b0391909116815260200190565b6001600160a01b0385811682528416602082015260408101839052608060608201819052600090611ec090830184612575565b6001600160a01b038316815260406020820181905260009061240490830184612575565b6001600160a01b038316815281516102a0820190612834906020840190612626565b60208301516128466040840182612630565b5060408301516128596060840182612630565b50606083015161286c6080840182612630565b50608083015161287f60a084018261256f565b5060a083015161289260c084018261256f565b5060c083015160e083015260e08301516101006128b181850183612626565b84015190506101206128c584820183612626565b84015190506101406128d984820183612626565b84015190506101606128ed84820183612626565b840151905061018061290184820183612626565b84015190506101a061291584820183612626565b84015190506129286101c08401826125ce565b509392505050565b6020808252825182820181905260009190848201906040850190845b818110156129685783518352928401929184019160010161294c565b50909695505050505050565b901515815260200190565b60006020825261088c6020830184612575565b60208082526022908201527f73656e646572206d757374206265206f776e6572206f7220617070726f76616c604082015261195960f21b606082015260800190565b60208082526021908201527f6f6e455243373231526563656976656428292072657475726e20696e76616c696040820152601960fa1b606082015260800190565b60208082526028908201527f73656e646572206d757374206265206f776e6572206f7220617070726f76656460408201526708199bdc88185b1b60c21b606082015260800190565b602080825260129082015271746f206973207a65726f206164647265737360701b604082015260600190565b6020808252601590820152746f776e6572206973207a65726f206164647265737360581b604082015260600190565b60208082526014908201527366726f6d206973207a65726f206164647265737360601b604082015260600190565b602080825260149082015273746f55696e7431365f6f75744f66426f756e647360601b604082015260600190565b6020808252600c908201526b496e76616c6964206461746160a01b604082015260600190565b602080825260119082015270746f55696e7431365f6f766572666c6f7760781b604082015260600190565b6020808252600990820152681b9bc81c195c9b5a5d60ba1b604082015260600190565b60208082526024908201527f6d73672e73656e646572206d757374206265206f776e6572206f7220617070726040820152631bdd995960e21b606082015260800190565b6020808252600d908201526c125b9d985b1a5908189bde1259609a1b604082015260600190565b6020808252601590820152743737b137b23c9037bbb7103a3432b7103a37b5b2b760591b604082015260600190565b6020808252601490820152733737b137b23c9037bbb7103a3432903a37b5b2b760611b604082015260600190565b6020808252600c908201526b7a65726f206164647265737360a01b604082015260600190565b602080825260129082015271333937b69036bab9ba1031329037bbb732b960711b604082015260600190565b60208082526019908201527f6f6e6c7920616c6c6f7720636f6e7472616374206f776e657200000000000000604082015260600190565b6020808252600d908201526c0d2dcecc2d8d2c840d2dcc8caf609b1b604082015260600190565b61ffff9384168152919092166020820152604081019190915260600190565b61ffff929092168252602082015260400190565b90815260200190565b63ffffffff929092168252602082015260400190565b63ffffffff92909216825260ff16602082015260400190565b6000808335601e19843603018112612d81578283fd5b8301803591506001600160401b03821115612d9a578283fd5b6020908101925081023603821315612db157600080fd5b9250929050565b6040518181016001600160401b0381118282101715612dd957612dd9612fd1565b604052919050565b60009081526020902090565b60008219821115612e0057612e00612fa5565b500190565b600082612e1457612e14612fbb565b500490565b600082821015612e2b57612e2b612fa5565b500390565b5b818110156108a35760008155600101612e31565b600160401b831115612e5957612e59612fd1565b805483825580841015612ea6578160005260206000206020601f8601048101601f86168015612e9057612e90816000198401612fe7565b50612ea36020601f850104830182612e30565b50505b5081612eb182612de1565b6000805b86811015610c3d57612ed0612ec98561300e565b8385613200565b60208401935060018083019250601f831115612eef5792830192600092505b50600101612eb5565b60005b83811015612f13578181015183820152602001612efb565b838111156110af5750506000910152565b600081612f3357612f33612fa5565b506000190190565b600281046001821680612f4f57607f821691505b60208210811415612f7057634e487b7160e01b600052602260045260246000fd5b50919050565b6000600019821415612f8a57612f8a612fa5565b5060010190565b600082612fa057612fa0612fbb565b500690565b634e487b7160e01b600052601160045260246000fd5b634e487b7160e01b600052601260045260246000fd5b634e487b7160e01b600052604160045260246000fd5b8054600019836020036008021c1681555050565b6000813561ffff8116811461054d578182fd5b6000813561054d8161326f565b600160401b82111561302f5761302f612fd1565b80548282558083101561089e5781600052602060002060086007850104810160046007861602801561306957613069816000198401612fe7565b5061132f60086007850104830182612e30565b813560be1983360301811261309057600080fd5b820180826000805b60068110156130cc576130ab8585612d6b565b6130b781838688613177565b50506020949094019360019283019201613098565b50505050506130de6020830183612d6b565b6130ec818360068601612e45565b50506130fb6040830183612d6b565b613109818360078601612e45565b50506008810161312461311e60608501612ffb565b82613148565b61313961313360808501612ffb565b8261315b565b5060a082013560098201555050565b61ffff821661ffff198254161781555050565b805463ffff00008360101b1663ffff0000198216178255505050565b811561319357634e487b7160e01b600052600060045260246000fd5b61319d848261301b565b826000828152602080822082835b89811015610f585785356131be8161325d565b835463ffffffff6008850281811b801990931693909116901b1617835594830194600490910190601c8211156131f8578491506001830192505b6001016131ab565b80546008830260ff811b8060ff8716831b1681198416178455505050505050565b6001600160a01b038116811461323657600080fd5b50565b801515811461323657600080fd5b6001600160e01b03198116811461323657600080fd5b63ffffffff8116811461323657600080fd5b60ff8116811461323657600080fdfea26469706673582212207341b7bb77eb7badb18cb32279874301272cdef85cd61591d5c5848ab75a0a8f64736f6c6343000800003368747470733a2f2f736f757263652e6c6567656e646e66742e636f6d2f626f782f",
  "immutableReferences": {},
  "source": "// SPDX-License-Identifier: MIT\n\npragma solidity ^0.8.0;\npragma abicoder v2;\n\nimport \"./lib/ERC721.sol\";\nimport \"./lib/Permission.sol\";\nimport \"./include/IERC721OP.sol\";\nimport \"./include/IStoreOP.sol\";\nimport \"./lib/Utils.sol\";\nimport \"./lib/Uinteger.sol\";\nimport \"./include/IRandom.sol\";\nimport \"./Structs.sol\";\nimport \"./include/IEquipment.sol\";\nimport \"./include/IConfig.sol\";\n\n/**\n\n*/\ncontract Box is ERC721, Permission, IERC721OP, IStoreOP {\n    using Uinteger for uint256;\n\n    string public uriPrefix = \"https://source.legendnft.com/box/\";\n    struct BoxCategory {\n        //;EquipmentType,\n        uint32[][6] equipmentIds;\n        /*\n        ,1-3[0,1,2],100\n        :[50,30,20][50,50][100]\n        */\n        uint8[] quality;\n        /*\n        \n        */\n        uint8[] categoryQuality;\n        //\n        uint16 minQuantity;\n        //\n        uint16 maxQuantity;\n        //token\n        uint256 tokens;\n    }\n\n    struct BoxInfo {\n        uint16 classId;\n        uint256 blockNumber;\n    }\n\n    /**\n    @notice \n    @param user \n    @param class (0,1)\n    @param quality ()\n    @param number (,)\n    @param time \n    */\n    event Gain(address indexed user, uint256 indexed class, uint256 indexed quality, uint256 number, uint256 time);\n\n    //: id(classId) => \n    mapping(uint256 => BoxCategory) public categories;\n\n    //boxId => BoxInfo\n    mapping(uint256 => BoxInfo) public boxInfos;\n\n    constructor(string memory name, string memory symbol) ERC721(name, symbol) {}\n\n    function tokenURI(uint256 boxId) external view override returns (string memory) {\n        string memory uri = string(abi.encodePacked(uriPrefix, uint256(boxInfos[boxId].classId).toString(), \".json\"));\n        return uri;\n    }\n\n    function addCategories(uint256 classId, BoxCategory calldata category) external CheckPermit(\"admin\") {\n        categories[classId] = category;\n    }\n\n    /*\n    \n    @to \n    @quantity \n    @data (classId)\n    */\n    function mint(\n        address to,\n        uint256 quantity,\n        bytes calldata data\n    ) external override CheckPermit(\"store\") {\n        require(data.length == 2, \"Invalid data\");\n        uint16 classId = Utils.toUint16(data, 0);\n        require(categories[classId].quality.length > 0, \"Invalid data\");\n        for (uint256 i = 0; i != quantity; i++) {\n            uint256 id = (uint256(classId) << 240) | (uint256(uint128(totalSupply + 1)) << 112);\n            BoxInfo storage bi = boxInfos[id];\n            bi.classId = classId;\n            bi.blockNumber = block.number + 1;\n            _mint(to, id);\n        }\n        IRandom(getAddress(\"Random\")).register(block.number + 1);\n    }\n\n    function mint(address to, uint256 boxId) external override {}\n\n    /*\n    \n    */\n    function burn(uint256 boxId) public override {\n        address owner = tokenOwners[boxId];\n        require(msg.sender == owner || msg.sender == tokenApprovals[boxId] || approvalForAlls[owner][msg.sender], \"msg.sender must be owner or approved\");\n        _burn(boxId);\n        delete boxInfos[boxId];\n    }\n\n    /*\n    \n    @boxId ID\n     */\n    function open(uint256 boxId) public {\n        BoxInfo memory boxInfo = boxInfos[boxId];\n        require(boxInfo.classId != 0, \"Invalid boxId\");\n        burn(boxId);\n        BoxCategory storage category = categories[boxInfo.classId];\n        uint128 number = uint128((boxId << 16) >> 128);\n        bytes32 seed = IRandom(getAddress(\"Random\")).getRandom(boxInfo.blockNumber);\n        //\n        uint256 quantity;\n        if (category.maxQuantity == 1) {\n            quantity = 1;\n        } else {\n            quantity = Utils.randomUint(abi.encodePacked(boxInfo.classId, number, seed), category.minQuantity, category.maxQuantity);\n        }\n        for (uint256 i = 0; i != quantity; i++) {\n            EquipmentAttr memory attr = _calcProperty(seed, category, i, number);\n            IEquipment(getAddress(\"Equipment\")).mint(msg.sender, attr);\n            emit Gain(msg.sender, 0, attr.quality, attr.number, block.timestamp);\n        }\n    }\n\n    function open(uint256[] calldata boxIds) public {\n        for (uint256 i = 0; i != boxIds.length; i++) {\n            open(boxIds[i]);\n        }\n    }\n\n    function _calcProperty(\n        bytes32 seed,\n        BoxCategory storage category,\n        uint256 index,\n        uint128 number\n    ) internal view returns (EquipmentAttr memory attr) {\n        IConfig config = IConfig(getAddress(\"Config\"));\n        //\n        attr.quality = uint8(_randomWeightR(abi.encodePacked(seed, index, number, \"quality\"), category.quality, 100));\n        //\n        uint8 cIndex = uint8(_randomWeight(abi.encodePacked(seed, index, number, \"category\"), category.categoryQuality, 100));\n        //\n        uint256 eIndex = Utils.randomUint(abi.encodePacked(seed, index, number, \"eIndex\"), 0, category.equipmentIds[cIndex].length - 1);\n        attr = config.getEquipmentInfo(category.equipmentIds[cIndex][eIndex], attr.quality);\n        attr.tokens = category.tokens;\n    }\n\n    function _randomWeight(\n        bytes memory seed,\n        uint8[] memory weights,\n        uint8 totalWeight\n    ) internal pure returns (uint256) {\n        uint256[] memory ws = new uint256[](weights.length);\n        for (uint256 i = 0; i != weights.length; i++) {\n            ws[i] = weights[i];\n        }\n        return Utils.randomWeight(seed, ws, totalWeight);\n    }\n    function _randomWeightR(\n        bytes memory seed,\n        uint8[] memory weights,\n        uint8 totalWeight\n    ) internal pure returns (uint256) {\n        uint256[] memory ws = new uint256[](weights.length);\n        for (uint256 i = 0; i != weights.length; i++) {\n            ws[i] = weights[i];\n        }\n        return Utils.randomWeightR(seed, ws, totalWeight);\n    }\n}\n",
  "sourcePath": "/Users/necklace/work/Legend/Legend/contracts/Box.sol",
  "compiler": {
    "name": "solc",
    "version": "0.8.0+commit.c7dfd78e.Darwin.appleclang"
  },
  "schemaVersion": "3.4.3",
  "updatedAt": "2022-03-25T17:08:34.341Z",
  "networkType": "ethereum",
  "devdoc": {
    "events": {
      "Gain(address,uint256,uint256,uint256,uint256)": {
        "params": {
          "class": "(0,1)",
          "number": "(,)",
          "quality": "()",
          "time": "",
          "user": ""
        }
      }
    },
    "kind": "dev",
    "methods": {},
    "version": 1
  },
  "userdoc": {
    "events": {
      "Gain(address,uint256,uint256,uint256,uint256)": {
        "notice": ""
      }
    },
    "kind": "user",
    "methods": {
      "name()": {
        "notice": "A descriptive name for a collection of NFTs in this contract"
      },
      "symbol()": {
        "notice": "An abbreviated name for NFTs in this contract"
      }
    },
    "notice": "",
    "version": 1
  }
}