{
  "contractName": "Configuration",
  "abi": [
    {
      "inputs": [],
      "stateMutability": "nonpayable",
      "type": "constructor"
    },
    {
      "inputs": [],
      "name": "contractOwner",
      "outputs": [
        {
          "internalType": "address",
          "name": "",
          "type": "address"
        }
      ],
      "stateMutability": "view",
      "type": "function"
    },
    {
      "inputs": [
        {
          "internalType": "string",
          "name": "key",
          "type": "string"
        }
      ],
      "name": "getAddress",
      "outputs": [
        {
          "internalType": "address",
          "name": "",
          "type": "address"
        }
      ],
      "stateMutability": "view",
      "type": "function"
    },
    {
      "inputs": [],
      "name": "manager",
      "outputs": [
        {
          "internalType": "contract Manager",
          "name": "",
          "type": "address"
        }
      ],
      "stateMutability": "view",
      "type": "function"
    },
    {
      "inputs": [],
      "name": "maxLevel",
      "outputs": [
        {
          "internalType": "uint32",
          "name": "",
          "type": "uint32"
        }
      ],
      "stateMutability": "view",
      "type": "function"
    },
    {
      "inputs": [
        {
          "internalType": "address",
          "name": "addr",
          "type": "address"
        }
      ],
      "name": "setManager",
      "outputs": [],
      "stateMutability": "nonpayable",
      "type": "function"
    },
    {
      "inputs": [
        {
          "internalType": "uint32",
          "name": "tokenType",
          "type": "uint32"
        },
        {
          "internalType": "string",
          "name": "key",
          "type": "string"
        },
        {
          "internalType": "uint256",
          "name": "fee",
          "type": "uint256"
        }
      ],
      "name": "setTokenInfo",
      "outputs": [],
      "stateMutability": "nonpayable",
      "type": "function"
    },
    {
      "inputs": [
        {
          "internalType": "uint256",
          "name": "number",
          "type": "uint256"
        },
        {
          "components": [
            {
              "internalType": "uint32",
              "name": "number",
              "type": "uint32"
            },
            {
              "internalType": "uint16",
              "name": "level",
              "type": "uint16"
            },
            {
              "internalType": "uint8",
              "name": "profession",
              "type": "uint8"
            },
            {
              "internalType": "uint8",
              "name": "category",
              "type": "uint8"
            }
          ],
          "internalType": "struct Configuration.EquipmentConfig",
          "name": "config",
          "type": "tuple"
        }
      ],
      "name": "setEquipmentConfig",
      "outputs": [],
      "stateMutability": "nonpayable",
      "type": "function"
    },
    {
      "inputs": [
        {
          "internalType": "uint256",
          "name": "number",
          "type": "uint256"
        }
      ],
      "name": "getEquipmentConfig",
      "outputs": [
        {
          "components": [
            {
              "internalType": "uint32",
              "name": "number",
              "type": "uint32"
            },
            {
              "internalType": "uint16",
              "name": "level",
              "type": "uint16"
            },
            {
              "internalType": "uint8",
              "name": "profession",
              "type": "uint8"
            },
            {
              "internalType": "uint8",
              "name": "category",
              "type": "uint8"
            }
          ],
          "internalType": "struct Configuration.EquipmentConfig",
          "name": "",
          "type": "tuple"
        }
      ],
      "stateMutability": "view",
      "type": "function"
    },
    {
      "inputs": [
        {
          "internalType": "uint32",
          "name": "tokenType",
          "type": "uint32"
        }
      ],
      "name": "getTokenInfo",
      "outputs": [
        {
          "components": [
            {
              "internalType": "uint256",
              "name": "fee",
              "type": "uint256"
            },
            {
              "internalType": "string",
              "name": "key",
              "type": "string"
            }
          ],
          "internalType": "struct TokenInfo",
          "name": "",
          "type": "tuple"
        }
      ],
      "stateMutability": "view",
      "type": "function"
    },
    {
      "inputs": [
        {
          "internalType": "uint32",
          "name": "value",
          "type": "uint32"
        }
      ],
      "name": "setMaxLevel",
      "outputs": [],
      "stateMutability": "nonpayable",
      "type": "function"
    },
    {
      "inputs": [
        {
          "internalType": "uint32",
          "name": "level",
          "type": "uint32"
        }
      ],
      "name": "getLevelInfo",
      "outputs": [
        {
          "components": [
            {
              "internalType": "uint32",
              "name": "exp",
              "type": "uint32"
            },
            {
              "internalType": "uint32",
              "name": "nextExp",
              "type": "uint32"
            }
          ],
          "internalType": "struct LevelInfo",
          "name": "levelInfo",
          "type": "tuple"
        }
      ],
      "stateMutability": "pure",
      "type": "function"
    },
    {
      "inputs": [
        {
          "internalType": "uint32",
          "name": "level",
          "type": "uint32"
        },
        {
          "components": [
            {
              "internalType": "uint32",
              "name": "attack",
              "type": "uint32"
            },
            {
              "internalType": "uint32",
              "name": "taoism",
              "type": "uint32"
            },
            {
              "internalType": "uint32",
              "name": "magic",
              "type": "uint32"
            },
            {
              "internalType": "uint32",
              "name": "defense",
              "type": "uint32"
            },
            {
              "internalType": "uint32",
              "name": "magicDefense",
              "type": "uint32"
            },
            {
              "internalType": "uint32",
              "name": "physicalPower",
              "type": "uint32"
            },
            {
              "internalType": "uint32",
              "name": "magicPower",
              "type": "uint32"
            }
          ],
          "internalType": "struct MainAttrs",
          "name": "mainAttrs",
          "type": "tuple"
        }
      ],
      "name": "calcPower",
      "outputs": [
        {
          "internalType": "uint32",
          "name": "power",
          "type": "uint32"
        }
      ],
      "stateMutability": "pure",
      "type": "function"
    },
    {
      "inputs": [],
      "name": "getEquipMaxLevel",
      "outputs": [
        {
          "internalType": "uint32[3]",
          "name": "",
          "type": "uint32[3]"
        }
      ],
      "stateMutability": "view",
      "type": "function"
    },
    {
      "inputs": [
        {
          "internalType": "uint32",
          "name": "number",
          "type": "uint32"
        },
        {
          "internalType": "uint8",
          "name": "quality",
          "type": "uint8"
        }
      ],
      "name": "getEquipmentInfo",
      "outputs": [
        {
          "components": [
            {
              "internalType": "uint32",
              "name": "number",
              "type": "uint32"
            },
            {
              "internalType": "uint8",
              "name": "profession",
              "type": "uint8"
            },
            {
              "internalType": "uint8",
              "name": "category",
              "type": "uint8"
            },
            {
              "internalType": "uint8",
              "name": "quality",
              "type": "uint8"
            },
            {
              "internalType": "bool",
              "name": "locked",
              "type": "bool"
            },
            {
              "internalType": "bool",
              "name": "isEquip",
              "type": "bool"
            },
            {
              "internalType": "uint256",
              "name": "tokens",
              "type": "uint256"
            },
            {
              "internalType": "uint32",
              "name": "power",
              "type": "uint32"
            },
            {
              "internalType": "uint32",
              "name": "level",
              "type": "uint32"
            },
            {
              "internalType": "uint32",
              "name": "increaseCount",
              "type": "uint32"
            },
            {
              "internalType": "uint32",
              "name": "increaseMax",
              "type": "uint32"
            },
            {
              "internalType": "uint32",
              "name": "suitId",
              "type": "uint32"
            },
            {
              "internalType": "uint32",
              "name": "suitNumber",
              "type": "uint32"
            },
            {
              "components": [
                {
                  "internalType": "uint32",
                  "name": "attack",
                  "type": "uint32"
                },
                {
                  "internalType": "uint32",
                  "name": "taoism",
                  "type": "uint32"
                },
                {
                  "internalType": "uint32",
                  "name": "magic",
                  "type": "uint32"
                },
                {
                  "internalType": "uint32",
                  "name": "defense",
                  "type": "uint32"
                },
                {
                  "internalType": "uint32",
                  "name": "magicDefense",
                  "type": "uint32"
                },
                {
                  "internalType": "uint32",
                  "name": "physicalPower",
                  "type": "uint32"
                },
                {
                  "internalType": "uint32",
                  "name": "magicPower",
                  "type": "uint32"
                }
              ],
              "internalType": "struct MainAttrs",
              "name": "mainAttrs",
              "type": "tuple"
            }
          ],
          "internalType": "struct EquipmentAttr",
          "name": "attrs",
          "type": "tuple"
        }
      ],
      "stateMutability": "view",
      "type": "function"
    },
    {
      "inputs": [
        {
          "internalType": "uint8",
          "name": "quality",
          "type": "uint8"
        },
        {
          "internalType": "uint32[]",
          "name": "equipmentIds",
          "type": "uint32[]"
        },
        {
          "internalType": "bytes",
          "name": "seed",
          "type": "bytes"
        }
      ],
      "name": "searchEquipment",
      "outputs": [
        {
          "components": [
            {
              "internalType": "uint32",
              "name": "number",
              "type": "uint32"
            },
            {
              "internalType": "uint8",
              "name": "profession",
              "type": "uint8"
            },
            {
              "internalType": "uint8",
              "name": "category",
              "type": "uint8"
            },
            {
              "internalType": "uint8",
              "name": "quality",
              "type": "uint8"
            },
            {
              "internalType": "bool",
              "name": "locked",
              "type": "bool"
            },
            {
              "internalType": "bool",
              "name": "isEquip",
              "type": "bool"
            },
            {
              "internalType": "uint256",
              "name": "tokens",
              "type": "uint256"
            },
            {
              "internalType": "uint32",
              "name": "power",
              "type": "uint32"
            },
            {
              "internalType": "uint32",
              "name": "level",
              "type": "uint32"
            },
            {
              "internalType": "uint32",
              "name": "increaseCount",
              "type": "uint32"
            },
            {
              "internalType": "uint32",
              "name": "increaseMax",
              "type": "uint32"
            },
            {
              "internalType": "uint32",
              "name": "suitId",
              "type": "uint32"
            },
            {
              "internalType": "uint32",
              "name": "suitNumber",
              "type": "uint32"
            },
            {
              "components": [
                {
                  "internalType": "uint32",
                  "name": "attack",
                  "type": "uint32"
                },
                {
                  "internalType": "uint32",
                  "name": "taoism",
                  "type": "uint32"
                },
                {
                  "internalType": "uint32",
                  "name": "magic",
                  "type": "uint32"
                },
                {
                  "internalType": "uint32",
                  "name": "defense",
                  "type": "uint32"
                },
                {
                  "internalType": "uint32",
                  "name": "magicDefense",
                  "type": "uint32"
                },
                {
                  "internalType": "uint32",
                  "name": "physicalPower",
                  "type": "uint32"
                },
                {
                  "internalType": "uint32",
                  "name": "magicPower",
                  "type": "uint32"
                }
              ],
              "internalType": "struct MainAttrs",
              "name": "mainAttrs",
              "type": "tuple"
            }
          ],
          "internalType": "struct EquipmentAttr",
          "name": "equipment",
          "type": "tuple"
        }
      ],
      "stateMutability": "view",
      "type": "function"
    },
    {
      "inputs": [
        {
          "internalType": "uint256",
          "name": "level",
          "type": "uint256"
        },
        {
          "internalType": "uint256",
          "name": "quality",
          "type": "uint256"
        },
        {
          "internalType": "bool",
          "name": "universal",
          "type": "bool"
        }
      ],
      "name": "getIncreaseConfig",
      "outputs": [
        {
          "internalType": "uint32[2]",
          "name": "",
          "type": "uint32[2]"
        }
      ],
      "stateMutability": "view",
      "type": "function"
    },
    {
      "inputs": [
        {
          "internalType": "uint256",
          "name": "level",
          "type": "uint256"
        },
        {
          "internalType": "uint256",
          "name": "quality",
          "type": "uint256"
        },
        {
          "internalType": "bool",
          "name": "universal",
          "type": "bool"
        },
        {
          "internalType": "uint32[2]",
          "name": "data",
          "type": "uint32[2]"
        }
      ],
      "name": "setIncreaseConfig",
      "outputs": [],
      "stateMutability": "nonpayable",
      "type": "function"
    }
  ],
  "bytecode": "0x600080546001600160a01b0319163317905560018054601960a11b63ffffffff60a01b1990911617905560e0604052600a6080908152601e60a052603260c0526200004e906003908162002371565b503480156200005c57600080fd5b506040805180820182526706f05b59d3b20000815281516020818101909352600080825283830191825280526002835281517fac33ff75c19e70fe83507db0d683fd3465c996598dc972688b7ace676c89077b9081559051805192939192620000e9927fac33ff75c19e70fe83507db0d683fd3465c996598dc972688b7ace676c89077c92019062002414565b5050604080518082018252678ac7230489e800008152815180830190925260058252642a37b5b2b760d91b60208381019190915280820192835260016000526002815281517fe90b7bceb6e7df5418fb78d8ee546e97c83a08bbccc01a0644d599ccd2a7c2e0908155925180519294506200018b927fe90b7bceb6e7df5418fb78d8ee546e97c83a08bbccc01a0644d599ccd2a7c2e192919091019062002414565b5050604080518082018252670de0b6b3a76400008152815180830190925260048252631554d11560e21b60208381019190915280820192835260026000819052815281517f679795a0195a1b76cdebb7c51d74e058aee92919b8c3389af86ef24535e8a28c908155925180519294506200022c927f679795a0195a1b76cdebb7c51d74e058aee92919b8c3389af86ef24535e8a28d92919091019062002414565b5060019150505b80600a14620004f05760405180608001604052808261271062000257919062002502565b63ffffffff1681526020016200026f8360056200251d565b61ffff1681526001602082015260006040909101819052600690620002978461271062002502565b8152602080820192909252604090810160002083518154938501518584015160609096015163ffffffff1990951663ffffffff9092169190911761ffff60201b191664010000000061ffff909216919091021760ff60301b1916660100000000000060ff958616021760ff60381b191667010000000000000094909316939093029190911790915580516080810190915280620003378361271962002502565b63ffffffff1681526020016200034f8360056200251d565b61ffff1681526002602082015260006040909101819052600690620003778461271962002502565b8152602080820192909252604090810160002083518154938501518584015160609096015163ffffffff1990951663ffffffff9092169190911761ffff60201b191664010000000061ffff909216919091021760ff60301b1916660100000000000060ff958616021760ff60381b191667010000000000000094909316939093029190911790915580516080810190915280620004178361272262002502565b63ffffffff1681526020016200042f8360056200251d565b61ffff1681526003602082015260006040909101819052600690620004578461272262002502565b8152602080820192909252604090810160002083518154938501519285015160609095015163ffffffff1990941663ffffffff9091161761ffff60201b191664010000000061ffff909316929092029190911760ff60301b1916660100000000000060ff948516021760ff60381b1916670100000000000000939092169290920217905580620004e78162002596565b91505062000233565b50604051806080016040528061272c63ffffffff168152602001600261ffff168152602001600060ff168152602001600260ff168152506006600061272c815260200190815260200160002060008201518160000160006101000a81548163ffffffff021916908363ffffffff16021790555060208201518160000160046101000a81548161ffff021916908361ffff16021790555060408201518160000160066101000a81548160ff021916908360ff16021790555060608201518160000160076101000a81548160ff021916908360ff160217905550905050604051806080016040528061272d63ffffffff168152602001600c61ffff168152602001600060ff168152602001600260ff168152506006600061272d815260200190815260200160002060008201518160000160006101000a81548163ffffffff021916908363ffffffff16021790555060208201518160000160046101000a81548161ffff021916908361ffff16021790555060408201518160000160066101000a81548160ff021916908360ff16021790555060608201518160000160076101000a81548160ff021916908360ff1602179055509050506000600190505b806005146200098d5760405180608001604052808261272d620006d0919062002502565b63ffffffff168152602001620006e883600a6200251d565b620006f590600c62002502565b61ffff168152600160208201526002604090910152600660006200071c8461272d62002502565b8152602080820192909252604090810160002083518154938501518584015160609096015163ffffffff1990951663ffffffff9092169190911761ffff60201b191664010000000061ffff909216919091021760ff60301b1916660100000000000060ff958616021760ff60381b191667010000000000000094909316939093029190911790915580516080810190915280620007bc8361273162002502565b63ffffffff168152602001620007d483600a6200251d565b620007e190600c62002502565b61ffff16815260036020820152600260409091015260066000620008088461273162002502565b8152602080820192909252604090810160002083518154938501518584015160609096015163ffffffff1990951663ffffffff9092169190911761ffff60201b191664010000000061ffff909216919091021760ff60301b1916660100000000000060ff958616021760ff60381b191667010000000000000094909316939093029190911790915580516080810190915280620008a88361273562002502565b63ffffffff168152602001620008c083600a6200251d565b620008cd90600c62002502565b61ffff16815260026020820181905260409091015260066000620008f48461273562002502565b8152602080820192909252604090810160002083518154938501519285015160609095015163ffffffff1990941663ffffffff9091161761ffff60201b191664010000000061ffff909316929092029190911760ff60301b1916660100000000000060ff948516021760ff60381b1916670100000000000000939092169290920217905580620009848162002596565b915050620006ac565b5060015b8060061462000c9957604051806080016040528082612739620009b5919062002502565b63ffffffff168152602001620009cd6001846200253f565b620009da90600a6200251d565b620009e790600762002502565b61ffff1681526001602082015260036040909101526006600062000a0e8461273962002502565b8152602080820192909252604090810160002083518154938501518584015160609096015163ffffffff1990951663ffffffff9092169190911761ffff60201b191664010000000061ffff909216919091021760ff60301b1916660100000000000060ff958616021760ff60381b19166701000000000000009490931693909302919091179091558051608081019091528062000aae8361273e62002502565b63ffffffff16815260200162000ac66001846200253f565b62000ad390600a6200251d565b62000ae090600762002502565b61ffff1681526003602082018190526040909101526006600062000b078461273e62002502565b8152602080820192909252604090810160002083518154938501518584015160609096015163ffffffff1990951663ffffffff9092169190911761ffff60201b191664010000000061ffff909216919091021760ff60301b1916660100000000000060ff958616021760ff60381b19166701000000000000009490931693909302919091179091558051608081019091528062000ba78361274362002502565b63ffffffff16815260200162000bbf6001846200253f565b62000bcc90600a6200251d565b62000bd990600762002502565b61ffff1681526002602082015260036040909101526006600062000c008461274362002502565b8152602080820192909252604090810160002083518154938501519285015160609095015163ffffffff1990941663ffffffff9091161761ffff60201b191664010000000061ffff909316929092029190911760ff60301b1916660100000000000060ff948516021760ff60381b191667010000000000000093909216929092021790558062000c908162002596565b91505062000991565b50604051806080016040528061274963ffffffff168152602001600661ffff168152602001600060ff168152602001600160ff1681525060066000612749815260200190815260200160002060008201518160000160006101000a81548163ffffffff021916908363ffffffff16021790555060208201518160000160046101000a81548161ffff021916908361ffff16021790555060408201518160000160066101000a81548160ff021916908360ff16021790555060608201518160000160076101000a81548160ff021916908360ff160217905550905050604051806080016040528061274a63ffffffff168152602001601061ffff168152602001600060ff168152602001600160ff168152506006600061274a815260200190815260200160002060008201518160000160006101000a81548163ffffffff021916908363ffffffff16021790555060208201518160000160046101000a81548161ffff021916908361ffff16021790555060408201518160000160066101000a81548160ff021916908360ff16021790555060608201518160000160076101000a81548160ff021916908360ff160217905550905050604051806080016040528061274b63ffffffff168152602001601a61ffff168152602001600060ff168152602001600160ff168152506006600061274b815260200190815260200160002060008201518160000160006101000a81548163ffffffff021916908363ffffffff16021790555060208201518160000160046101000a81548161ffff021916908361ffff16021790555060408201518160000160066101000a81548160ff021916908360ff16021790555060608201518160000160076101000a81548160ff021916908360ff160217905550905050604051806080016040528061274c63ffffffff168152602001602461ffff168152602001600160ff168152602001600160ff168152506006600061274c815260200190815260200160002060008201518160000160006101000a81548163ffffffff021916908363ffffffff16021790555060208201518160000160046101000a81548161ffff021916908361ffff16021790555060408201518160000160066101000a81548160ff021916908360ff16021790555060608201518160000160076101000a81548160ff021916908360ff160217905550905050604051806080016040528061274d63ffffffff168152602001602e61ffff168152602001600160ff168152602001600160ff168152506006600061274d815260200190815260200160002060008201518160000160006101000a81548163ffffffff021916908363ffffffff16021790555060208201518160000160046101000a81548161ffff021916908361ffff16021790555060408201518160000160066101000a81548160ff021916908360ff16021790555060608201518160000160076101000a81548160ff021916908360ff160217905550905050604051806080016040528061274e63ffffffff168152602001602461ffff168152602001600360ff168152602001600160ff168152506006600061274e815260200190815260200160002060008201518160000160006101000a81548163ffffffff021916908363ffffffff16021790555060208201518160000160046101000a81548161ffff021916908361ffff16021790555060408201518160000160066101000a81548160ff021916908360ff16021790555060608201518160000160076101000a81548160ff021916908360ff160217905550905050604051806080016040528061274f63ffffffff168152602001602e61ffff168152602001600360ff168152602001600160ff168152506006600061274f815260200190815260200160002060008201518160000160006101000a81548163ffffffff021916908363ffffffff16021790555060208201518160000160046101000a81548161ffff021916908361ffff16021790555060408201518160000160066101000a81548160ff021916908360ff16021790555060608201518160000160076101000a81548160ff021916908360ff160217905550905050604051806080016040528061275063ffffffff168152602001602461ffff168152602001600260ff168152602001600160ff1681525060066000612750815260200190815260200160002060008201518160000160006101000a81548163ffffffff021916908363ffffffff16021790555060208201518160000160046101000a81548161ffff021916908361ffff16021790555060408201518160000160066101000a81548160ff021916908360ff16021790555060608201518160000160076101000a81548160ff021916908360ff160217905550905050604051806080016040528061275163ffffffff168152602001602e61ffff168152602001600260ff168152602001600160ff1681525060066000612751815260200190815260200160002060008201518160000160006101000a81548163ffffffff021916908363ffffffff16021790555060208201518160000160046101000a81548161ffff021916908361ffff16021790555060408201518160000160066101000a81548160ff021916908360ff16021790555060608201518160000160076101000a81548160ff021916908360ff1602179055509050506000600190505b8060061462001753576040518060800160405280826127516200146f919062002502565b63ffffffff168152602001620014876001846200253f565b6200149490600a6200251d565b620014a190600462002502565b61ffff16815260016020820152600560409091015260066000620014c88461275162002502565b8152602080820192909252604090810160002083518154938501518584015160609096015163ffffffff1990951663ffffffff9092169190911761ffff60201b191664010000000061ffff909216919091021760ff60301b1916660100000000000060ff958616021760ff60381b191667010000000000000094909316939093029190911790915580516080810190915280620015688361275662002502565b63ffffffff168152602001620015806001846200253f565b6200158d90600a6200251d565b6200159a90600462002502565b61ffff16815260026020820152600560409091015260066000620015c18461275662002502565b8152602080820192909252604090810160002083518154938501518584015160609096015163ffffffff1990951663ffffffff9092169190911761ffff60201b191664010000000061ffff909216919091021760ff60301b1916660100000000000060ff958616021760ff60381b191667010000000000000094909316939093029190911790915580516080810190915280620016618361275b62002502565b63ffffffff168152602001620016796001846200253f565b6200168690600a6200251d565b6200169390600462002502565b61ffff16815260036020820152600560409091015260066000620016ba8461275b62002502565b8152602080820192909252604090810160002083518154938501519285015160609095015163ffffffff1990941663ffffffff9091161761ffff60201b191664010000000061ffff909316929092029190911760ff60301b1916660100000000000060ff948516021760ff60381b19166701000000000000009390921692909202179055806200174a8162002596565b9150506200144b565b5060015b8060061462001a5f576040518060800160405280826127606200177b919062002502565b63ffffffff168152602001620017936001846200253f565b620017a090600a6200251d565b620017ad90600962002502565b61ffff16815260016020820152600460409091015260066000620017d48461276062002502565b8152602080820192909252604090810160002083518154938501518584015160609096015163ffffffff1990951663ffffffff9092169190911761ffff60201b191664010000000061ffff909216919091021760ff60301b1916660100000000000060ff958616021760ff60381b191667010000000000000094909316939093029190911790915580516080810190915280620018748361276562002502565b63ffffffff1681526020016200188c6001846200253f565b6200189990600a6200251d565b620018a690600962002502565b61ffff16815260036020820152600460409091015260066000620018cd8461276562002502565b8152602080820192909252604090810160002083518154938501518584015160609096015163ffffffff1990951663ffffffff9092169190911761ffff60201b191664010000000061ffff909216919091021760ff60301b1916660100000000000060ff958616021760ff60381b1916670100000000000000949093169390930291909117909155805160808101909152806200196d8361276a62002502565b63ffffffff168152602001620019856001846200253f565b6200199290600a6200251d565b6200199f90600962002502565b61ffff16815260026020820152600460409091015260066000620019c68461276a62002502565b8152602080820192909252604090810160002083518154938501519285015160609095015163ffffffff1990941663ffffffff9091161761ffff60201b191664010000000061ffff909316929092029190911760ff60301b1916660100000000000060ff948516021760ff60381b191667010000000000000093909216929092021790558062001a568162002596565b91505062001757565b506040805180820190915260018082526003602080840191909152600091909152600080516020620048f5833981519152905262001ac1907f91a929c9ec5705e488608361b51aeeb184fe55eb85793f3a420f51243ca22a3790600262002491565b50604080518082019091526003815260066020808301919091526001600052600080516020620049b5833981519152905262001b21907f6763387ad2d066a53cf4a1abdf70cd5bddab334e579a9ba59bf3a7a53cda81ca90600262002491565b5060408051808201909152600581526009602080830191909152600160005260008051602062004955833981519152905262001b80907ee28636aab960e5ab7bae6afd10a8cb24d3e08dacfd8c3a510db09eb714d13690600262002491565b5060408051808201909152600881526010602080830191909152600160005260008051602062004975833981519152905262001be0907fa09f09843b1c486c24a48fbc2d49905d6d77c82a372b4177c1abc2d182449f4c90600262002491565b5060408051808201909152600f8152601a602080830191909152600160005260008051602062004915833981519152905262001c40907f6cc85a1062b7748eed648c91c76ee102931b504432a34e985070aa241a6504d290600262002491565b506040805180820190915260038152600960208083019190915260026000819052600080516020620048f583398151915290915262001ca1917f3ee599b7498e5f58c0cf496e6a67fe2810c85ff58f1b3809c5e04df57a6aac5d9162002491565b506040805180820190915260098152601260208083019190915260026000819052600080516020620049b583398151915290915262001d02917f88fd72165bcd3228b2975728293d34e1dc5b10f8d02106c2da453d97ba88259e9162002491565b5060408051808201909152600f8152601b602080830191909152600260008190526000805160206200495583398151915290915262001d63917f4e35876bfafde0e405c900e55a6f475631cef9a6ee8a84dcc5b7c2d3f34cc97a9162002491565b5060408051808201909152601881526036602080830191909152600260008190526000805160206200497583398151915290915262001dc4917ff736329f500f758ce260e66a9b09e6aded17ea4bd7bd51fbe36597442ab4d06d9162002491565b5060408051808201909152602d8152604b602080830191909152600260008190526000805160206200491583398151915290915262001e25917ff57bb5cf84717c1fadf71d4041f7ef466feeaf14496e33d2a9ad3f654a5d1cb79162002491565b50604080518082019091526006815260126020808301919091526003600052600080516020620048f5833981519152905262001e85907f3b6e0960102b35c1db694ba6b177dcaa59c66c9ba0851b01eccff0beab17143290600262002491565b50604080518082019091526012815260246020808301919091526003600052600080516020620049b5833981519152905262001ee5907f4d16478f263168393d7809adc880ac5e7305b6a7c70b135338e83054c1d8c63790600262002491565b5060408051808201909152601e81526036602080830191909152600360005260008051602062004955833981519152905262001f45907fe27dfb2d9260308d6dd9fcd4a2ce73f304364e51dea6458da55186c791359aa290600262002491565b5060408051808201909152603081526060602080830191909152600360005260008051602062004975833981519152905262001fa5907fe289a66e465fd1d7b2956835b390d0e34ca056f819f8c5afc0c1e9da8613164290600262002491565b5060408051808201909152605a81526096602080830191909152600360005260008051602062004915833981519152905262002005907f737b4a99ee44905207f23c3230c43d04514adfedca056564be4e593e1fa3fcfb90600262002491565b50604080518082019091526001808252600560208084019190915260009190915260008051602062004935833981519152905262002067907f5f3486166877647309981c8ac04440249bce15ac04aa12124ca980947a9a5cbb90600262002491565b506040805180820190915260038152600a6020808301919091526001600052600080516020620049958339815191529052620020c7907f1aa088828ea439c2d2cdaa4e7f27dcd7c5331394988678b45d5d5c605686963b90600262002491565b506040805180820190915260068152600f6020808301919091526001600052600080516020620048d5833981519152905262002127907fc230fe1ad1485e338f245f97e56b8ec046ac9d435f0f9a2845fb8b127c1e146b90600262002491565b506040805180820190915260038152600f602080830191909152600260008190526000805160206200493583398151915290915262002188917ff5420ca259a62a5d01b98236cad4b6c63e18c1c4aeae10e9ea108330f776d4799162002491565b5060408051808201909152600c8152601e6020808301919091526002600081905260008051602062004995833981519152909152620021e9917fc3872fadc793fb0bb284ae601a7003728d4f91ef813a9c52151175538e74d8e99162002491565b506040805180820190915260128152602d60208083019190915260026000819052600080516020620048d58339815191529091526200224a917f1d7f3ebad127f83afc6959705ce470ae52e5f79897ae3b7e721e0b13088974599162002491565b506040805180820190915260068152601e6020808301919091526003600052600080516020620049358339815191529052620022aa907fae0d4d0ca061c554e850c8013a76c42d75d5ba7cebc01d1240c06efd18fbf8e590600262002491565b506040805180820190915260128152603c60208083019190915260036000526000805160206200499583398151915290526200230a907fa77ae0bd3e56335ff49c76055f2eca0ced7395ada69e971c1cfc4ce403a7a1ef90600262002491565b506040805180820190915260248152605a6020808301919091526003600052600080516020620048d583398151915290526200236a907f3b33b664f2622d73e4e3ff6136c7a87e4aa132629031f6dabf359c85448aace590600262002491565b50620025ca565b600183019183908215620024025791602002820160005b83821115620023ce57835183826101000a81548163ffffffff021916908363ffffffff160217905550926020019260040160208160030104928301926001030262002388565b8015620024005782816101000a81549063ffffffff0219169055600401602081600301049283019260010302620023ce565b505b5062002410929150620024eb565b5090565b828054620024229062002559565b90600052602060002090601f01602090048101928262002446576000855562002402565b82601f106200246157805160ff191683800117855562002402565b8280016001018555821562002402579182015b828111156200240257825182559160200191906001019062002474565b600183019183908215620024025791602002820160005b83821115620023ce57835183826101000a81548163ffffffff021916908360ff1602179055509260200192600401602081600301049283019260010302620024a8565b5b80821115620024105760008155600101620024ec565b60008219821115620025185762002518620025b4565b500190565b60008160001904831182151516156200253a576200253a620025b4565b500290565b600082821015620025545762002554620025b4565b500390565b6002810460018216806200256e57607f821691505b602082108114156200259057634e487b7160e01b600052602260045260246000fd5b50919050565b6000600019821415620025ad57620025ad620025b4565b5060010190565b634e487b7160e01b600052601160045260246000fd5b6122fb80620025da6000396000f3fe608060405234801561001057600080fd5b506004361061010b5760003560e01c8063a8be9ca1116100a2578063cc06c35911610071578063cc06c35914610251578063ce606ee014610259578063d0ebdbe714610261578063e09b66ab14610274578063e4bf32e8146102875761010b565b8063a8be9ca1146101eb578063b8fea24b1461020b578063bf40fac11461021e578063cbd90cd0146102315761010b565b8063481c6a75116100de578063481c6a751461018e5780634c0e274f146101a3578063815eb518146101b857806393e81a5f146101cb5761010b565b80631ea4919614610110578063296bfa5814610139578063426676fb14610159578063465a6cfe1461016e575b600080fd5b61012361011e366004611a75565b61029a565b6040516101309190611fe3565b60405180910390f35b61014c610147366004611bf8565b610398565b6040516101309190611e8f565b610161610438565b6040516101309190611dce565b61018161017c366004611ae8565b61049d565b6040516101309190612028565b610196610553565b6040516101309190611d5f565b6101b66101b1366004611a75565b610562565b005b6101b66101c6366004611a91565b61064a565b6101de6101d93660046119a2565b610739565b6040516101309190611fa3565b6101fe6101f93660046119f0565b6107a5565b6040516101309190611d97565b61014c610219366004611bc0565b610a5c565b61019661022c36600461196f565b610ef0565b61024461023f366004611a75565b610f77565b6040516101309190612003565b610181611041565b610196611054565b6101b661026f36600461191b565b611063565b6101b6610282366004611a28565b6110d5565b6101b66102953660046119ba565b61120e565b6102a26115c7565b63ffffffff82161561031a5760646102d16102cc6801599999999999a0008563ffffffff166112e0565b61150c565b6102e19063ffffffff8516612106565b6102ec8460646120da565b63ffffffff166102fc9190612079565b61030691906120bf565b610311906064612106565b63ffffffff1681525b6000610327836001612051565b905060646103476102cc6801599999999999a0008463ffffffff166112e0565b6103579063ffffffff8416612106565b6103628360646120da565b63ffffffff166103729190612079565b61037c91906120bf565b610387906064612106565b63ffffffff16602083015250919050565b6103a06115de565b60006103ed84848080601f016020809104026020016040519081016040528093929190818152602001838380828437600092018290525092506103e89150600190508961212d565b611528565b905061042d86868381811061041257634e487b7160e01b600052603260045260246000fd5b90506020020160208101906104279190611a75565b88610a5c565b979650505050505050565b610440611659565b604080516060810191829052906003908190816000855b82829054906101000a900463ffffffff1663ffffffff16815260200190600401906020826003010492830192600103820291508084116104575790505050505050905090565b600080610524836020015184604001518560000151866080015187606001516104c69190612051565b6104d09190612051565b6104da9190612051565b6104e49190612051565b6104ef9060036120da565b60648560c001518660a001516105059190612051565b61050f919061209c565b6105199190612051565b63ffffffff16611572565b905061054b6102cc8261054668010cccccccccccd0008863ffffffff166112e0565b611590565b949350505050565b6001546001600160a01b031681565b604080518082018252600581526430b236b4b760d91b60208201526001549151637af32e3960e11b815290916001600160a01b03169063f5e65c72906105ae9033908590600401611d73565b60206040518083038186803b1580156105c657600080fd5b505afa1580156105da573d6000803e3d6000fd5b505050506040513d601f19601f820116820180604052508101906105fe9190611953565b6106235760405162461bcd60e51b815260040161061a90611e0f565b60405180910390fd5b506001805463ffffffff909216600160a01b0263ffffffff60a01b19909216919091179055565b604080518082018252600581526430b236b4b760d91b60208201526001549151637af32e3960e11b815290916001600160a01b03169063f5e65c72906106969033908590600401611d73565b60206040518083038186803b1580156106ae57600080fd5b505afa1580156106c2573d6000803e3d6000fd5b505050506040513d601f19601f820116820180604052508101906106e69190611953565b6107025760405162461bcd60e51b815260040161061a90611e0f565b63ffffffff841660009081526002602090815260409091208451909161072f916001840191870190611677565b5091909155505050565b6107416116fb565b506000818152600660209081526040918290208251608081018452905463ffffffff8116825261ffff6401000000008204169282019290925260ff66010000000000008304811693820193909352600160381b90910490911660608201525b919050565b6107ad611722565b81156108ed57600a8411610865576001600081815260056020527f1471eb6eb2c5e789fc3de43f8ce62938c7d1836ec861730447e2ada8fd81017b916107f4908690612039565b815260208101919091526040908101600020815180830190925260028282826020028201916000905b82829054906101000a900463ffffffff1663ffffffff168152602001906004019060208260030104928301926001038202915080841161081d57905050505050509050610a55565b600a84118015610876575060148411155b156108b4576002600090815260056020527f89832631fb3c3307a103ba2c84ab569c64d6182a18893dcd163f0f1c2090733a906107f4856001612039565b6003600090815260056020527fa9bc9a3a348c357ba16b37005d7e6b3236198c0e939f4af8c5f19b8deeb8ebc0906107f4856001612039565b600a841161092e576001600081815260046020527fabd6e7cb50984ff9c2f3e18a2660c3353dadf4e3291deeb275dae2cd1e44fe05916107f4908690612039565b600a8411801561093f575060148411155b1561097d576002600090815260046020527f91da3fd0782e51c6b3986e9e672fd566868e71f3dbc2d6c2cd6fbb3e361af2a7906107f4856001612039565b60148411801561098e5750601e8411155b156109cc576003600090815260046020527f2e174c10e159ea99b867ce3205125c24a42d128804e4070ed6fcc8cc98166aa0906107f4856001612039565b601e841180156109dd575060288411155b15610a1c57600460008181526020919091527f1a1e6821cde7d0159c0d293177871e09677b4e42307c7db3ba94f8648a5a050f906107f4856001612039565b6005600090815260046020527f04cde762ef08b6b6c5ded8e8c4c0b3f4e5c9ad7342c88fcc93681b4588b73f05906107f4856001612039565b9392505050565b610a646115de565b63ffffffff838116600090815260066020908152604091829020805493841685526601000000000000840460ff90811692860192909252600160381b840482169285019290925284166060840181905264010000000090920461ffff1661010084015290600390818110610ae857634e487b7160e01b600052603260045260246000fd5b600881049091015463ffffffff600460079093169290920261010090810a9091048216610140850152830151600091610b2c9168010cccccccccccd00091166112e0565b90506000610b3b610190611572565b90506000846040015160ff166005811115610b6657634e487b7160e01b600052602160045260246000fd5b90506000856020015160ff166003811115610b9157634e487b7160e01b600052602160045260246000fd5b905060008080846005811115610bb757634e487b7160e01b600052602160045260246000fd5b1415610bdd57610bd66102cc866105466780000000000000008a611590565b9150610e0b565b6002846005811115610bff57634e487b7160e01b600052602160045260246000fd5b1415610c9357610c0f60c8611572565b9450610c2a6102cc866105466799999999999998008a611590565b6101a08901805163ffffffff831660609091018190529051608001529050610c536107d0611572565b9450610c6a6102cc86610546600160401b8a611590565b6101a08901805163ffffffff92831660a09182015290519081015190911660c090910152610e0b565b6001846005811115610cb557634e487b7160e01b600052602160045260246000fd5b1415610d1e57610cd46102cc866105466707ae147ae147ae008a611590565b9150610ce060c8611572565b9450610cfb6102cc866105466733333333333334008a611590565b6101a08901805163ffffffff831660609091018190529051608001529050610e0b565b6003846005811115610d4057634e487b7160e01b600052602160045260246000fd5b1415610d5f57610bd66102cc866105466726666666666666008a611590565b6005846005811115610d8157634e487b7160e01b600052602160045260246000fd5b1415610dc757610da06102cc86610546670f5c28f5c28f5c008a611590565b9150610dac60c8611572565b9450610cfb6102cc86610546671999999999999a008a611590565b6004846005811115610de957634e487b7160e01b600052602160045260246000fd5b1415610e0b57610e086102cc86610546670f5c28f5c28f5c008a611590565b91505b6001836003811115610e2d57634e487b7160e01b600052602160045260246000fd5b1415610e47576101a088015163ffffffff83169052610ec3565b6002836003811115610e6957634e487b7160e01b600052602160045260246000fd5b1415610e87576101a088015163ffffffff8316604090910152610ec3565b6003836003811115610ea957634e487b7160e01b600052602160045260246000fd5b1415610ec3576101a088015163ffffffff83166020909101525b610ed7886101000151896101a0015161049d565b63ffffffff1660e0890152509598975050505050505050565b6001546040516334abd05960e11b81526000916001600160a01b031690636957a0b290610f21908590600401611dfc565b60206040518083038186803b158015610f3957600080fd5b505afa158015610f4d573d6000803e3d6000fd5b505050506040513d601f19601f82011682018060405250810190610f719190611937565b92915050565b610f7f611740565b63ffffffff82166000908152600260209081526040918290208251808401909352805483526001810180549192840191610fb890612144565b80601f0160208091040260200160405190810160405280929190818152602001828054610fe490612144565b80156110315780601f1061100657610100808354040283529160200191611031565b820191906000526020600020905b81548152906001019060200180831161101457829003601f168201915b5050505050815250509050919050565b600154600160a01b900463ffffffff1681565b6000546001600160a01b031681565b6000546001600160a01b0316331461108d5760405162461bcd60e51b815260040161061a90611e58565b6001600160a01b0381166110b35760405162461bcd60e51b815260040161061a90611e32565b600180546001600160a01b0319166001600160a01b0392909216919091179055565b604080518082018252600581526430b236b4b760d91b60208201526001549151637af32e3960e11b815290916001600160a01b03169063f5e65c72906111219033908590600401611d73565b60206040518083038186803b15801561113957600080fd5b505afa15801561114d573d6000803e3d6000fd5b505050506040513d601f19601f820116820180604052508101906111719190611953565b61118d5760405162461bcd60e51b815260040161061a90611e0f565b82156111cf57600085815260056020526040812083916111ae876001612039565b815260208101919091526040016000206111c991600261175a565b50611207565b600085815260046020526040812083916111ea876001612039565b8152602081019190915260400160002061120591600261175a565b505b5050505050565b604080518082018252600581526430b236b4b760d91b60208201526001549151637af32e3960e11b815290916001600160a01b03169063f5e65c729061125a9033908590600401611d73565b60206040518083038186803b15801561127257600080fd5b505afa158015611286573d6000803e3d6000fd5b505050506040513d601f19601f820116820180604052508101906112aa9190611953565b6112c65760405162461bcd60e51b815260040161061a90611e0f565b6000838152600660205260409020829061120782826121d5565b600080600084600f0b1280156112f95750826001166001145b905060008085600f0b1261130d5784611312565b846000035b6fffffffffffffffffffffffffffffffff169050600160801b600160401b82116113b057603f82901b91505b84156113a8576001851615611353578102607f1c5b908002607f1c906002851615611369578102607f1c5b908002607f1c90600485161561137f578102607f1c5b908002607f1c906008851615611395578102607f1c5b60049490941c93908002607f1c9061133e565b60401c6114c6565b603f600160601b8310156113ca5760209290921b91601f19015b600160701b8310156113e25760109290921b91600f19015b600160781b8310156113fa5760089290921b91600719015b6001607c1b8310156114125760049290921b91600319015b6001607e1b83101561142a5760029290921b91600119015b6001607f1b8310156114425760019290921b91600019015b60005b86156114af576040821061145857600080fd5b600187161561147e57918302607f1c918101600160801b83111561147e57600192831c92015b928002607f1c9260019190911b90600160801b84106114a357600193841c9391909101905b600187901c9650611445565b604081106114bc57600080fd5b6040039190911c90505b6000836114d357816114d8565b816000035b905060016001607f1b031981128015906114f9575060016001607f1b038113155b61150257600080fd5b9695505050505050565b60008082600f0b121561151e57600080fd5b50600f0b60401d90565b6000818310611538575081610a55565b835160208501208361154a818561212d565b611555906001612039565b61155f908361217f565b6115699190612039565b95945050505050565b6000677fffffffffffffff82111561158957600080fd5b5060401b90565b6000600f83810b9083900b0260401d60016001607f1b031981128015906115be575060016001607f1b038113155b610a5557600080fd5b604080518082019091526000808252602082015290565b604080516101c081018252600080825260208201819052918101829052606081018290526080810182905260a0810182905260c0810182905260e0810182905261010081018290526101208101829052610140810182905261016081018290526101808101919091526101a081016116546117f7565b905290565b60405180606001604052806003906020820280368337509192915050565b82805461168390612144565b90600052602060002090601f0160209004810192826116a557600085556116eb565b82601f106116be57805160ff19168380011785556116eb565b828001600101855582156116eb579182015b828111156116eb5782518255916020019190600101906116d0565b506116f7929150611833565b5090565b60408051608081018252600080825260208201819052918101829052606081019190915290565b60405180604001604052806002906020820280368337509192915050565b604051806040016040528060008152602001606081525090565b6001830191839082156116eb5791602002820160005b838211156117ba57833563ffffffff1683826101000a81548163ffffffff021916908363ffffffff1602179055509260200192600401602081600301049283019260010302611770565b80156117ea5782816101000a81549063ffffffff02191690556004016020816003010492830192600103026117ba565b50506116f7929150611833565b6040805160e081018252600080825260208201819052918101829052606081018290526080810182905260a0810182905260c081019190915290565b5b808211156116f75760008155600101611834565b60008083601f840112611859578182fd5b50813567ffffffffffffffff811115611870578182fd5b60208301915083602082850101111561188857600080fd5b9250929050565b600082601f83011261189f578081fd5b813567ffffffffffffffff808211156118ba576118ba6121bf565b604051601f8301601f1916810160200182811182821017156118de576118de6121bf565b6040528281528483016020018610156118f5578384fd5b82602086016020830137918201602001929092529392505050565b80356107a0816122a4565b60006020828403121561192c578081fd5b8135610a558161227e565b600060208284031215611948578081fd5b8151610a558161227e565b600060208284031215611964578081fd5b8151610a5581612296565b600060208284031215611980578081fd5b813567ffffffffffffffff811115611996578182fd5b61054b8482850161188f565b6000602082840312156119b3578081fd5b5035919050565b60008082840360a08112156119cd578182fd5b833592506080601f19820112156119e2578182fd5b506020830190509250929050565b600080600060608486031215611a04578081fd5b83359250602084013591506040840135611a1d81612296565b809150509250925092565b60008060008060a08587031215611a3d578081fd5b84359350602085013592506040850135611a5681612296565b915060a08501861015611a67578081fd5b509194909350909160600190565b600060208284031215611a86578081fd5b8135610a55816122a4565b600080600060608486031215611aa5578283fd5b8335611ab0816122a4565b9250602084013567ffffffffffffffff811115611acb578283fd5b611ad78682870161188f565b925050604084013590509250925092565b600080828403610100811215611afc578182fd5b8335611b07816122a4565b925060e0601f1982011215611b1a578182fd5b5060405160e0810181811067ffffffffffffffff82111715611b3e57611b3e6121bf565b604052611b4d60208501611910565b8152611b5b60408501611910565b6020820152611b6c60608501611910565b6040820152611b7d60808501611910565b6060820152611b8e60a08501611910565b6080820152611b9f60c08501611910565b60a0820152611bb060e08501611910565b60c0820152809150509250929050565b60008060408385031215611bd2578182fd5b8235611bdd816122a4565b91506020830135611bed816122b6565b809150509250929050565b600080600080600060608688031215611c0f578283fd5b8535611c1a816122b6565b9450602086013567ffffffffffffffff80821115611c36578485fd5b818801915088601f830112611c49578485fd5b813581811115611c57578586fd5b8960208083028501011115611c6a578586fd5b602083019650809550506040880135915080821115611c87578283fd5b50611c9488828901611848565b969995985093965092949392505050565b15159052565b60008151808452815b81811015611cd057602081850181015186830182015201611cb4565b81811115611ce15782602083870101525b50601f01601f19169290920160200192915050565b63ffffffff8082511683528060208301511660208401528060408301511660408401528060608301511660608401528060808301511660808401528060a08301511660a08401528060c08301511660c0840152505050565b63ffffffff169052565b60ff169052565b6001600160a01b0391909116815260200190565b6001600160a01b038316815260406020820181905260009061054b90830184611cab565b60408101818360005b6002811015611dc557815163ffffffff16835260209283019290910190600101611da0565b50505092915050565b60608101818360005b6003811015611dc557815163ffffffff16835260209283019290910190600101611dd7565b600060208252610a556020830184611cab565b6020808252600990820152681b9bc81c195c9b5a5d60ba1b604082015260600190565b6020808252600c908201526b7a65726f206164647265737360a01b604082015260600190565b60208082526019908201527f6f6e6c7920616c6c6f7720636f6e7472616374206f776e657200000000000000604082015260600190565b600061028082019050611ea3828451611d4e565b6020830151611eb56020840182611d58565b506040830151611ec86040840182611d58565b506060830151611edb6060840182611d58565b506080830151611eee6080840182611ca5565b5060a0830151611f0160a0840182611ca5565b5060c083015160c083015260e0830151611f1e60e0840182611d4e565b5061010080840151611f3282850182611d4e565b505061012080840151611f4782850182611d4e565b505061014080840151611f5c82850182611d4e565b505061016080840151611f7182850182611d4e565b505061018080840151611f8682850182611d4e565b50506101a080840151611f9b82850182611cf6565b505092915050565b600060808201905063ffffffff835116825261ffff602084015116602083015260ff604084015116604083015260ff606084015116606083015292915050565b815163ffffffff9081168252602092830151169181019190915260400190565b60006020825282516020830152602083015160408084015261054b6060840182611cab565b63ffffffff91909116815260200190565b6000821982111561204c5761204c612193565b500190565b600063ffffffff80831681851680830382111561207057612070612193565b01949350505050565b600067ffffffffffffffff80831681851680830382111561207057612070612193565b600063ffffffff808416806120b3576120b36121a9565b92169190910492915050565b600067ffffffffffffffff808416806120b3576120b36121a9565b600063ffffffff808316818516818304811182151516156120fd576120fd612193565b02949350505050565b600067ffffffffffffffff808316818516818304811182151516156120fd576120fd612193565b60008282101561213f5761213f612193565b500390565b60028104600182168061215857607f821691505b6020821081141561217957634e487b7160e01b600052602260045260246000fd5b50919050565b60008261218e5761218e6121a9565b500690565b634e487b7160e01b600052601160045260246000fd5b634e487b7160e01b600052601260045260246000fd5b634e487b7160e01b600052604160045260246000fd5b81356121e0816122a4565b815463ffffffff191663ffffffff9190911617808255602083013561ffff8116811461220b57600080fd5b65ffff000000008160201b1665ffff00000000198316179150508082556040830135612236816122b6565b66ff0000000000008160301b1666ff000000000000198316179150508082556060830135612263816122b6565b60ff60381b8160381b1660ff60381b19831617835550505050565b6001600160a01b038116811461229357600080fd5b50565b801515811461229357600080fd5b63ffffffff8116811461229357600080fd5b60ff8116811461229357600080fdfea26469706673582212201306680b38d68eb32312742ead3ddd771d12af325313ee476d71a32ce78ae3cd64736f6c63430008000033a9bc9a3a348c357ba16b37005d7e6b3236198c0e939f4af8c5f19b8deeb8ebc0abd6e7cb50984ff9c2f3e18a2660c3353dadf4e3291deeb275dae2cd1e44fe0504cde762ef08b6b6c5ded8e8c4c0b3f4e5c9ad7342c88fcc93681b4588b73f051471eb6eb2c5e789fc3de43f8ce62938c7d1836ec861730447e2ada8fd81017b2e174c10e159ea99b867ce3205125c24a42d128804e4070ed6fcc8cc98166aa01a1e6821cde7d0159c0d293177871e09677b4e42307c7db3ba94f8648a5a050f89832631fb3c3307a103ba2c84ab569c64d6182a18893dcd163f0f1c2090733a91da3fd0782e51c6b3986e9e672fd566868e71f3dbc2d6c2cd6fbb3e361af2a7",
  "immutableReferences": {},
  "source": "pragma solidity ^0.8.0;\npragma abicoder v2;\n\n// SPDX-License-Identifier: MIT\n\nimport \"./lib/Permission.sol\";\nimport \"./Structs.sol\";\nimport \"./include/IConfig.sol\";\nimport \"./lib/Uinteger.sol\";\nimport \"./lib/Utils.sol\";\n\ncontract Configuration is Permission, IConfig {\n    //\n    struct EquipmentConfig {\n        //\n        uint32 number;\n        //\n        uint16 level;\n        //\n        uint8 profession;\n        //\n        uint8 category;\n    }\n    //(1.35)\n    int128 constant expCoe = 0x1599999999999a000;\n    //(1.05)\n    int128 constant powerCoe = 0x10cccccccccccd000;\n\n    //(1.05)\n    int128 constant attrCoe = 0x10cccccccccccd000;\n    //(0.5)\n    int128 constant armsCoe = 0x8000000000000000;\n    //(0.6)\n    int128 constant armorCoe = 0x9999999999999800;\n    //(1)\n    int128 constant armorPhCoe = 0x10000000000000000;\n    //(0.03)\n    int128 constant helmetCeo = 0x7ae147ae147ae00;\n    //(0.2)\n    int128 constant helmetDefenseCeo = 0x3333333333333400;\n    //(0.15)\n    int128 constant necklaceCeo = 0x2666666666666600;\n    //(0.06)\n    int128 constant braceletCeo = 0xf5c28f5c28f5c00;\n    //(0.1)\n    int128 constant braceletDefenseCeo = 0x1999999999999a00;\n    //(0.06)\n    int128 constant ringCeo = 0xf5c28f5c28f5c00;\n\n    //\n    uint32 public override maxLevel = 50;\n    //token\n    mapping(uint32 => TokenInfo) private tokenInfos;\n\n    //[10,30,50]\n    uint32[3] private equipMaxLevel = [uint32(10), 30, 50];\n\n    // (1-101,11-202,21-303,31-404,41-505)=>(1,2,3)=>\n    mapping(uint256 => mapping(uint256 => uint32[2])) private increaseConfig;\n    //\n    mapping(uint256 => mapping(uint256 => uint32[2])) private increaseUniversalConfig;\n\n    /*\n    \n     => \n    */\n    mapping(uint256 => EquipmentConfig) private equipmentConfigs;\n\n    constructor() {\n        //\n        tokenInfos[0] = TokenInfo({fee: 5 * (10**17), key: \"\"});\n        tokenInfos[1] = TokenInfo({fee: 10 * (10**18), key: \"Token\"});\n        tokenInfos[2] = TokenInfo({fee: 1 * (10**18), key: \"USDT\"});\n        \n        //\n        for (uint256 i = 1; i != 10; i++) {\n            equipmentConfigs[10000 + i] = EquipmentConfig(uint32(10000 + i), uint16(i * 5), 1, 0);\n            equipmentConfigs[10009 + i] = EquipmentConfig(uint32(10009 + i), uint16(i * 5), 2, 0);\n            equipmentConfigs[10018 + i] = EquipmentConfig(uint32(10018 + i), uint16(i * 5), 3, 0);\n        }\n        equipmentConfigs[10028] = EquipmentConfig(10028, 2, 0, 2);\n        equipmentConfigs[10029] = EquipmentConfig(10029, 12, 0, 2);\n        for (uint256 i = 1; i != 5; i++) {\n            equipmentConfigs[10029 + i] = EquipmentConfig(uint32(10029 + i), uint16(12 + i * 10), 1, 2);\n            equipmentConfigs[10033 + i] = EquipmentConfig(uint32(10033 + i), uint16(12 + i * 10), 3, 2);\n            equipmentConfigs[10037 + i] = EquipmentConfig(uint32(10037 + i), uint16(12 + i * 10), 2, 2);\n        }\n        for (uint256 i = 1; i != 6; i++) {\n            equipmentConfigs[10041 + i] = EquipmentConfig(uint32(10041 + i), uint16(7 + (i - 1) * 10), 1, 3);\n            equipmentConfigs[10046 + i] = EquipmentConfig(uint32(10046 + i), uint16(7 + (i - 1) * 10), 3, 3);\n            equipmentConfigs[10051 + i] = EquipmentConfig(uint32(10051 + i), uint16(7 + (i - 1) * 10), 2, 3);\n        }\n        equipmentConfigs[10057] = EquipmentConfig(10057, 6, 0, 1);\n        equipmentConfigs[10058] = EquipmentConfig(10058, 16, 0, 1);\n        equipmentConfigs[10059] = EquipmentConfig(10059, 26, 0, 1);\n        equipmentConfigs[10060] = EquipmentConfig(10060, 36, 1, 1);\n        equipmentConfigs[10061] = EquipmentConfig(10061, 46, 1, 1);\n        equipmentConfigs[10062] = EquipmentConfig(10062, 36, 3, 1);\n        equipmentConfigs[10063] = EquipmentConfig(10063, 46, 3, 1);\n        equipmentConfigs[10064] = EquipmentConfig(10064, 36, 2, 1);\n        equipmentConfigs[10065] = EquipmentConfig(10065, 46, 2, 1);\n        for (uint256 i = 1; i != 6; i++) {\n            equipmentConfigs[10065 + i] = EquipmentConfig(uint32(10065 + i), uint16(4 + (i - 1) * 10), 1, 5);\n            equipmentConfigs[10070 + i] = EquipmentConfig(uint32(10070 + i), uint16(4 + (i - 1) * 10), 2, 5);\n            equipmentConfigs[10075 + i] = EquipmentConfig(uint32(10075 + i), uint16(4 + (i - 1) * 10), 3, 5);\n        }\n        for (uint256 i = 1; i != 6; i++) {\n            equipmentConfigs[10080 + i] = EquipmentConfig(uint32(10080 + i), uint16(9 + (i - 1) * 10), 1, 4);\n            equipmentConfigs[10085 + i] = EquipmentConfig(uint32(10085 + i), uint16(9 + (i - 1) * 10), 3, 4);\n            equipmentConfigs[10090 + i] = EquipmentConfig(uint32(10090 + i), uint16(9 + (i - 1) * 10), 2, 4);\n        }\n        //\n        increaseConfig[1][1] = [1, 3];\n        increaseConfig[2][1] = [3, 6];\n        increaseConfig[3][1] = [5, 9];\n        increaseConfig[4][1] = [8, 16];\n        increaseConfig[5][1] = [15, 26];\n\n        increaseConfig[1][2] = [3, 9];\n        increaseConfig[2][2] = [9, 18];\n        increaseConfig[3][2] = [15, 27];\n        increaseConfig[4][2] = [24, 54];\n        increaseConfig[5][2] = [45, 75];\n\n        increaseConfig[1][3] = [6, 18];\n        increaseConfig[2][3] = [18, 36];\n        increaseConfig[3][3] = [30, 54];\n        increaseConfig[4][3] = [48, 96];\n        increaseConfig[5][3] = [90, 150];\n\n        increaseUniversalConfig[1][1] = [1, 5];\n        increaseUniversalConfig[2][1] = [3, 10];\n        increaseUniversalConfig[3][1] = [6, 15];\n\n        increaseUniversalConfig[1][2] = [3, 15];\n        increaseUniversalConfig[2][2] = [12, 30];\n        increaseUniversalConfig[3][2] = [18, 45];\n\n        increaseUniversalConfig[1][3] = [6, 30];\n        increaseUniversalConfig[2][3] = [18, 60];\n        increaseUniversalConfig[3][3] = [36, 90];\n    }\n\n    //token\n    function setTokenInfo(\n        uint32 tokenType,\n        string memory key,\n        uint256 fee\n    ) external CheckPermit(\"admin\") {\n        TokenInfo storage t = tokenInfos[tokenType];\n        t.key = key;\n        t.fee = fee;\n    }\n\n    /**\n    @notice \n    @param number \n    @param config \n     */\n    function setEquipmentConfig(uint256 number, EquipmentConfig calldata config) external CheckPermit(\"admin\") {\n        equipmentConfigs[number] = config;\n    }\n\n    function getEquipmentConfig(uint256 number) public view returns (EquipmentConfig memory) {\n        return equipmentConfigs[number];\n    }\n\n    function getTokenInfo(uint32 tokenType) external view override returns (TokenInfo memory) {\n        return tokenInfos[tokenType];\n    }\n\n    function setMaxLevel(uint32 value) external CheckPermit(\"admin\") {\n        maxLevel = value;\n    }\n\n    /**\n        @notice \n        @param level \n     */\n    function getLevelInfo(uint32 level) public pure override returns (LevelInfo memory levelInfo) {\n        if (level > 0) {\n            levelInfo.exp = uint32(((100 * level + level * Uinteger.toUInt(Uinteger.pow(expCoe, level))) / 100) * 100);\n        }\n        uint32 nl = level + 1;\n        levelInfo.nextExp = uint32(((100 * nl + nl * Uinteger.toUInt(Uinteger.pow(expCoe, nl))) / 100) * 100);\n    }\n\n    //\n    function calcPower(uint32 level, MainAttrs memory mainAttrs) public pure override returns (uint32 power) {\n        int128 basePower =\n            Uinteger.fromUInt((mainAttrs.physicalPower + mainAttrs.magicPower) / 100 + (mainAttrs.defense + mainAttrs.magicDefense + mainAttrs.attack + mainAttrs.magic + mainAttrs.taoism) * 3);\n        // power = uint32(basePower * Uinteger.toUInt(Uinteger.pow(powerCoe, level)));\n        power = uint32(Uinteger.toUInt(Uinteger.mul(basePower, Uinteger.pow(powerCoe, level))));\n    }\n\n    function getEquipMaxLevel() external view override returns (uint32[3] memory) {\n        return equipMaxLevel;\n    }\n\n    function getEquipmentInfo(uint32 number, uint8 quality) public view override returns (EquipmentAttr memory attrs) {\n        EquipmentConfig storage ec = equipmentConfigs[number];\n        attrs.number = ec.number;\n        attrs.profession = ec.profession;\n        attrs.category = ec.category;\n        attrs.quality = quality;\n        attrs.level = ec.level;\n        attrs.increaseMax = equipMaxLevel[quality];\n        //\n        int128 base = Uinteger.pow(attrCoe, attrs.level);\n        int128 b2 = Uinteger.fromUInt(20 * 20);\n        EquipmentType et = EquipmentType(attrs.category);\n        Profession p = Profession(attrs.profession);\n        uint32 a1;\n        uint32 a2;\n        if (et == EquipmentType.Arms) {\n            a1 = uint32(Uinteger.toUInt(Uinteger.mul(b2, Uinteger.mul(armsCoe, base))));\n        } else if (et == EquipmentType.Armor) {\n            b2 = Uinteger.fromUInt(10 * 20);\n            a2 = uint32(Uinteger.toUInt(Uinteger.mul(b2, Uinteger.mul(armorCoe, base))));\n            attrs.mainAttrs.defense = a2;\n            attrs.mainAttrs.magicDefense = a2;\n            b2 = Uinteger.fromUInt(100 * 20);\n            attrs.mainAttrs.physicalPower = uint32(Uinteger.toUInt(Uinteger.mul(b2, Uinteger.mul(armorPhCoe, base))));\n            attrs.mainAttrs.magicPower = attrs.mainAttrs.physicalPower;\n        } else if (et == EquipmentType.Helmet) {\n            a1 = uint32(Uinteger.toUInt(Uinteger.mul(b2, Uinteger.mul(helmetCeo, base))));\n            b2 = Uinteger.fromUInt(10 * 20);\n            a2 = uint32(Uinteger.toUInt(Uinteger.mul(b2, Uinteger.mul(helmetDefenseCeo, base))));\n            attrs.mainAttrs.defense = a2;\n            attrs.mainAttrs.magicDefense = a2;\n        } else if (et == EquipmentType.Necklace) {\n            a1 = uint32(Uinteger.toUInt(Uinteger.mul(b2, Uinteger.mul(necklaceCeo, base))));\n        } else if (et == EquipmentType.Bracelet) {\n            a1 = uint32(Uinteger.toUInt(Uinteger.mul(b2, Uinteger.mul(braceletCeo, base))));\n            b2 = Uinteger.fromUInt(10 * 20);\n            a2 = uint32(Uinteger.toUInt(Uinteger.mul(b2, Uinteger.mul(braceletDefenseCeo, base))));\n            attrs.mainAttrs.defense = a2;\n            attrs.mainAttrs.magicDefense = a2;\n        } else if (et == EquipmentType.Ring) {\n            a1 = uint32(Uinteger.toUInt(Uinteger.mul(b2, Uinteger.mul(ringCeo, base))));\n        }\n        if (p == Profession.Warrior) {\n            attrs.mainAttrs.attack = a1;\n        } else if (p == Profession.Mage) {\n            attrs.mainAttrs.magic = a1;\n        } else if (p == Profession.Taoism) {\n            attrs.mainAttrs.taoism = a1;\n        }\n        attrs.power = calcPower(attrs.level, attrs.mainAttrs);\n    }\n\n    function searchEquipment(\n        uint8 quality,\n        uint32[] calldata equipmentIds,\n        bytes calldata seed\n    ) external view override returns (EquipmentAttr memory equipment) {\n        uint256 index = Utils.randomUint(seed, 0, equipmentIds.length - 1);\n        equipment = getEquipmentInfo(equipmentIds[index], quality);\n    }\n\n    function getIncreaseConfig(\n        uint256 level,\n        uint256 quality,\n        bool universal\n    ) public view override returns (uint32[2] memory) {\n        if (universal) {\n            if (level <= 10) return increaseUniversalConfig[1][quality + 1];\n            else if (level > 10 && level <= 20) return increaseUniversalConfig[2][quality + 1];\n            else return increaseUniversalConfig[3][quality + 1];\n        } else {\n            if (level <= 10) return increaseConfig[1][quality + 1];\n            else if (level > 10 && level <= 20) return increaseConfig[2][quality + 1];\n            else if (level > 20 && level <= 30) return increaseConfig[3][quality + 1];\n            else if (level > 30 && level <= 40) return increaseConfig[4][quality + 1];\n            else return increaseConfig[5][quality + 1];\n        }\n    }\n\n    function setIncreaseConfig(\n        uint256 level,\n        uint256 quality,\n        bool universal,\n        uint32[2] calldata data\n    ) public CheckPermit(\"admin\") {\n        if (universal) {\n            increaseUniversalConfig[level][quality + 1] = data;\n        } else {\n            increaseConfig[level][quality + 1] = data;\n        }\n    }\n}\n",
  "sourcePath": "/Users/necklace/work/Legend/Legend/contracts/Configuration.sol",
  "compiler": {
    "name": "solc",
    "version": "0.8.0+commit.c7dfd78e.Darwin.appleclang"
  },
  "schemaVersion": "3.4.3",
  "updatedAt": "2022-03-25T17:08:34.010Z",
  "networkType": "ethereum",
  "devdoc": {
    "kind": "dev",
    "methods": {
      "calcPower(uint32,(uint32,uint32,uint32,uint32,uint32,uint32,uint32))": {
        "params": {
          "level": "",
          "mainAttrs": ""
        }
      },
      "getEquipmentInfo(uint32,uint8)": {
        "params": {
          "number": "",
          "quality": ""
        }
      },
      "getIncreaseConfig(uint256,uint256,bool)": {
        "params": {
          "level": "",
          "quality": "",
          "universal": ""
        }
      },
      "getLevelInfo(uint32)": {
        "params": {
          "level": ""
        }
      },
      "getTokenInfo(uint32)": {
        "params": {
          "tokenType": "Index of currencies that can be used to create heroes    "
        }
      },
      "searchEquipment(uint8,uint32[],bytes)": {
        "params": {
          "equipmentIds": "",
          "quality": "",
          "seed": ""
        }
      },
      "setEquipmentConfig(uint256,(uint32,uint16,uint8,uint8))": {
        "params": {
          "config": "",
          "number": ""
        }
      }
    },
    "version": 1
  },
  "userdoc": {
    "kind": "user",
    "methods": {
      "calcPower(uint32,(uint32,uint32,uint32,uint32,uint32,uint32,uint32))": {
        "notice": ""
      },
      "getEquipmentInfo(uint32,uint8)": {
        "notice": ""
      },
      "getIncreaseConfig(uint256,uint256,bool)": {
        "notice": ""
      },
      "getLevelInfo(uint32)": {
        "notice": ""
      },
      "getTokenInfo(uint32)": {
        "notice": "Get information about supported currencies"
      },
      "maxLevel()": {
        "notice": "The highest possible hero level"
      },
      "searchEquipment(uint8,uint32[],bytes)": {
        "notice": ""
      },
      "setEquipmentConfig(uint256,(uint32,uint16,uint8,uint8))": {
        "notice": ""
      }
    },
    "version": 1
  }
}