{
  "contractName": "Equipment",
  "abi": [
    {
      "inputs": [
        {
          "internalType": "string",
          "name": "_name",
          "type": "string"
        },
        {
          "internalType": "string",
          "name": "_symbol",
          "type": "string"
        }
      ],
      "stateMutability": "nonpayable",
      "type": "constructor"
    },
    {
      "anonymous": false,
      "inputs": [
        {
          "indexed": true,
          "internalType": "address",
          "name": "_owner",
          "type": "address"
        },
        {
          "indexed": true,
          "internalType": "address",
          "name": "_approved",
          "type": "address"
        },
        {
          "indexed": true,
          "internalType": "uint256",
          "name": "_tokenId",
          "type": "uint256"
        }
      ],
      "name": "Approval",
      "type": "event"
    },
    {
      "anonymous": false,
      "inputs": [
        {
          "indexed": true,
          "internalType": "address",
          "name": "_owner",
          "type": "address"
        },
        {
          "indexed": true,
          "internalType": "address",
          "name": "_operator",
          "type": "address"
        },
        {
          "indexed": false,
          "internalType": "bool",
          "name": "_approved",
          "type": "bool"
        }
      ],
      "name": "ApprovalForAll",
      "type": "event"
    },
    {
      "anonymous": false,
      "inputs": [
        {
          "indexed": true,
          "internalType": "address",
          "name": "_from",
          "type": "address"
        },
        {
          "indexed": true,
          "internalType": "address",
          "name": "_to",
          "type": "address"
        },
        {
          "indexed": true,
          "internalType": "uint256",
          "name": "_tokenId",
          "type": "uint256"
        }
      ],
      "name": "Transfer",
      "type": "event"
    },
    {
      "anonymous": false,
      "inputs": [
        {
          "indexed": true,
          "internalType": "address",
          "name": "owner",
          "type": "address"
        },
        {
          "indexed": false,
          "internalType": "uint256",
          "name": "equipmentId",
          "type": "uint256"
        },
        {
          "indexed": false,
          "internalType": "uint32",
          "name": "level",
          "type": "uint32"
        }
      ],
      "name": "Upgrade",
      "type": "event"
    },
    {
      "inputs": [
        {
          "internalType": "address",
          "name": "to",
          "type": "address"
        },
        {
          "internalType": "uint256",
          "name": "tokenId",
          "type": "uint256"
        }
      ],
      "name": "approve",
      "outputs": [],
      "stateMutability": "payable",
      "type": "function"
    },
    {
      "inputs": [
        {
          "internalType": "address",
          "name": "owner",
          "type": "address"
        }
      ],
      "name": "balanceOf",
      "outputs": [
        {
          "internalType": "uint256",
          "name": "",
          "type": "uint256"
        }
      ],
      "stateMutability": "view",
      "type": "function"
    },
    {
      "inputs": [],
      "name": "contractOwner",
      "outputs": [
        {
          "internalType": "address",
          "name": "",
          "type": "address"
        }
      ],
      "stateMutability": "view",
      "type": "function"
    },
    {
      "inputs": [
        {
          "internalType": "string",
          "name": "key",
          "type": "string"
        }
      ],
      "name": "getAddress",
      "outputs": [
        {
          "internalType": "address",
          "name": "",
          "type": "address"
        }
      ],
      "stateMutability": "view",
      "type": "function"
    },
    {
      "inputs": [
        {
          "internalType": "uint256",
          "name": "tokenId",
          "type": "uint256"
        }
      ],
      "name": "getApproved",
      "outputs": [
        {
          "internalType": "address",
          "name": "",
          "type": "address"
        }
      ],
      "stateMutability": "view",
      "type": "function"
    },
    {
      "inputs": [
        {
          "internalType": "address",
          "name": "owner",
          "type": "address"
        },
        {
          "internalType": "address",
          "name": "operator",
          "type": "address"
        }
      ],
      "name": "isApprovedForAll",
      "outputs": [
        {
          "internalType": "bool",
          "name": "",
          "type": "bool"
        }
      ],
      "stateMutability": "view",
      "type": "function"
    },
    {
      "inputs": [],
      "name": "lockDuration",
      "outputs": [
        {
          "internalType": "uint256",
          "name": "",
          "type": "uint256"
        }
      ],
      "stateMutability": "view",
      "type": "function"
    },
    {
      "inputs": [],
      "name": "manager",
      "outputs": [
        {
          "internalType": "contract Manager",
          "name": "",
          "type": "address"
        }
      ],
      "stateMutability": "view",
      "type": "function"
    },
    {
      "inputs": [],
      "name": "name",
      "outputs": [
        {
          "internalType": "string",
          "name": "",
          "type": "string"
        }
      ],
      "stateMutability": "view",
      "type": "function"
    },
    {
      "inputs": [
        {
          "internalType": "uint256",
          "name": "tokenId",
          "type": "uint256"
        }
      ],
      "name": "ownerOf",
      "outputs": [
        {
          "internalType": "address",
          "name": "",
          "type": "address"
        }
      ],
      "stateMutability": "view",
      "type": "function"
    },
    {
      "inputs": [
        {
          "internalType": "address",
          "name": "to",
          "type": "address"
        },
        {
          "internalType": "bool",
          "name": "approved",
          "type": "bool"
        }
      ],
      "name": "setApprovalForAll",
      "outputs": [],
      "stateMutability": "nonpayable",
      "type": "function"
    },
    {
      "inputs": [
        {
          "internalType": "address",
          "name": "addr",
          "type": "address"
        }
      ],
      "name": "setManager",
      "outputs": [],
      "stateMutability": "nonpayable",
      "type": "function"
    },
    {
      "inputs": [],
      "name": "symbol",
      "outputs": [
        {
          "internalType": "string",
          "name": "",
          "type": "string"
        }
      ],
      "stateMutability": "view",
      "type": "function"
    },
    {
      "inputs": [
        {
          "internalType": "address",
          "name": "owner",
          "type": "address"
        },
        {
          "internalType": "uint256",
          "name": "startIndex",
          "type": "uint256"
        },
        {
          "internalType": "uint256",
          "name": "endIndex",
          "type": "uint256"
        }
      ],
      "name": "tokensOf",
      "outputs": [
        {
          "internalType": "uint256[]",
          "name": "",
          "type": "uint256[]"
        }
      ],
      "stateMutability": "view",
      "type": "function"
    },
    {
      "inputs": [],
      "name": "totalSupply",
      "outputs": [
        {
          "internalType": "uint256",
          "name": "",
          "type": "uint256"
        }
      ],
      "stateMutability": "view",
      "type": "function"
    },
    {
      "inputs": [],
      "name": "uriPrefix",
      "outputs": [
        {
          "internalType": "string",
          "name": "",
          "type": "string"
        }
      ],
      "stateMutability": "view",
      "type": "function"
    },
    {
      "inputs": [
        {
          "internalType": "address",
          "name": "from",
          "type": "address"
        },
        {
          "internalType": "address",
          "name": "to",
          "type": "address"
        },
        {
          "internalType": "uint256",
          "name": "tokenId",
          "type": "uint256"
        },
        {
          "internalType": "bytes",
          "name": "data",
          "type": "bytes"
        }
      ],
      "name": "safeTransferFrom",
      "outputs": [],
      "stateMutability": "payable",
      "type": "function"
    },
    {
      "inputs": [
        {
          "internalType": "address",
          "name": "from",
          "type": "address"
        },
        {
          "internalType": "address",
          "name": "to",
          "type": "address"
        },
        {
          "internalType": "uint256",
          "name": "tokenId",
          "type": "uint256"
        }
      ],
      "name": "transferFrom",
      "outputs": [],
      "stateMutability": "payable",
      "type": "function"
    },
    {
      "inputs": [
        {
          "internalType": "uint256",
          "name": "tokenId",
          "type": "uint256"
        }
      ],
      "name": "tokenURI",
      "outputs": [
        {
          "internalType": "string",
          "name": "",
          "type": "string"
        }
      ],
      "stateMutability": "view",
      "type": "function"
    },
    {
      "inputs": [
        {
          "internalType": "uint256",
          "name": "tokenId",
          "type": "uint256"
        }
      ],
      "name": "getEquipment",
      "outputs": [
        {
          "internalType": "uint256",
          "name": "id",
          "type": "uint256"
        },
        {
          "components": [
            {
              "internalType": "uint32",
              "name": "number",
              "type": "uint32"
            },
            {
              "internalType": "uint8",
              "name": "profession",
              "type": "uint8"
            },
            {
              "internalType": "uint8",
              "name": "category",
              "type": "uint8"
            },
            {
              "internalType": "uint8",
              "name": "quality",
              "type": "uint8"
            },
            {
              "internalType": "bool",
              "name": "locked",
              "type": "bool"
            },
            {
              "internalType": "bool",
              "name": "isEquip",
              "type": "bool"
            },
            {
              "internalType": "uint256",
              "name": "tokens",
              "type": "uint256"
            },
            {
              "internalType": "uint32",
              "name": "power",
              "type": "uint32"
            },
            {
              "internalType": "uint32",
              "name": "level",
              "type": "uint32"
            },
            {
              "internalType": "uint32",
              "name": "increaseCount",
              "type": "uint32"
            },
            {
              "internalType": "uint32",
              "name": "increaseMax",
              "type": "uint32"
            },
            {
              "internalType": "uint32",
              "name": "suitId",
              "type": "uint32"
            },
            {
              "internalType": "uint32",
              "name": "suitNumber",
              "type": "uint32"
            },
            {
              "components": [
                {
                  "internalType": "uint32",
                  "name": "attack",
                  "type": "uint32"
                },
                {
                  "internalType": "uint32",
                  "name": "taoism",
                  "type": "uint32"
                },
                {
                  "internalType": "uint32",
                  "name": "magic",
                  "type": "uint32"
                },
                {
                  "internalType": "uint32",
                  "name": "defense",
                  "type": "uint32"
                },
                {
                  "internalType": "uint32",
                  "name": "magicDefense",
                  "type": "uint32"
                },
                {
                  "internalType": "uint32",
                  "name": "physicalPower",
                  "type": "uint32"
                },
                {
                  "internalType": "uint32",
                  "name": "magicPower",
                  "type": "uint32"
                }
              ],
              "internalType": "struct MainAttrs",
              "name": "mainAttrs",
              "type": "tuple"
            }
          ],
          "internalType": "struct EquipmentAttr",
          "name": "attrs",
          "type": "tuple"
        }
      ],
      "stateMutability": "view",
      "type": "function"
    },
    {
      "inputs": [
        {
          "internalType": "address",
          "name": "to",
          "type": "address"
        },
        {
          "components": [
            {
              "internalType": "uint32",
              "name": "number",
              "type": "uint32"
            },
            {
              "internalType": "uint8",
              "name": "profession",
              "type": "uint8"
            },
            {
              "internalType": "uint8",
              "name": "category",
              "type": "uint8"
            },
            {
              "internalType": "uint8",
              "name": "quality",
              "type": "uint8"
            },
            {
              "internalType": "bool",
              "name": "locked",
              "type": "bool"
            },
            {
              "internalType": "bool",
              "name": "isEquip",
              "type": "bool"
            },
            {
              "internalType": "uint256",
              "name": "tokens",
              "type": "uint256"
            },
            {
              "internalType": "uint32",
              "name": "power",
              "type": "uint32"
            },
            {
              "internalType": "uint32",
              "name": "level",
              "type": "uint32"
            },
            {
              "internalType": "uint32",
              "name": "increaseCount",
              "type": "uint32"
            },
            {
              "internalType": "uint32",
              "name": "increaseMax",
              "type": "uint32"
            },
            {
              "internalType": "uint32",
              "name": "suitId",
              "type": "uint32"
            },
            {
              "internalType": "uint32",
              "name": "suitNumber",
              "type": "uint32"
            },
            {
              "components": [
                {
                  "internalType": "uint32",
                  "name": "attack",
                  "type": "uint32"
                },
                {
                  "internalType": "uint32",
                  "name": "taoism",
                  "type": "uint32"
                },
                {
                  "internalType": "uint32",
                  "name": "magic",
                  "type": "uint32"
                },
                {
                  "internalType": "uint32",
                  "name": "defense",
                  "type": "uint32"
                },
                {
                  "internalType": "uint32",
                  "name": "magicDefense",
                  "type": "uint32"
                },
                {
                  "internalType": "uint32",
                  "name": "physicalPower",
                  "type": "uint32"
                },
                {
                  "internalType": "uint32",
                  "name": "magicPower",
                  "type": "uint32"
                }
              ],
              "internalType": "struct MainAttrs",
              "name": "mainAttrs",
              "type": "tuple"
            }
          ],
          "internalType": "struct EquipmentAttr",
          "name": "attr",
          "type": "tuple"
        }
      ],
      "name": "mint",
      "outputs": [],
      "stateMutability": "nonpayable",
      "type": "function"
    },
    {
      "inputs": [
        {
          "internalType": "uint256",
          "name": "eId",
          "type": "uint256"
        }
      ],
      "name": "burn",
      "outputs": [],
      "stateMutability": "nonpayable",
      "type": "function"
    },
    {
      "inputs": [
        {
          "internalType": "address",
          "name": "operator",
          "type": "address"
        },
        {
          "internalType": "uint32",
          "name": "level",
          "type": "uint32"
        },
        {
          "internalType": "uint256[]",
          "name": "newIds",
          "type": "uint256[]"
        },
        {
          "internalType": "uint256[]",
          "name": "oldIds",
          "type": "uint256[]"
        }
      ],
      "name": "equip",
      "outputs": [
        {
          "internalType": "uint32",
          "name": "power",
          "type": "uint32"
        }
      ],
      "stateMutability": "nonpayable",
      "type": "function"
    },
    {
      "inputs": [
        {
          "internalType": "uint256",
          "name": "baseId",
          "type": "uint256"
        },
        {
          "internalType": "uint256[]",
          "name": "consumeIds",
          "type": "uint256[]"
        }
      ],
      "name": "increase",
      "outputs": [],
      "stateMutability": "nonpayable",
      "type": "function"
    },
    {
      "inputs": [
        {
          "internalType": "bytes4",
          "name": "interfaceId",
          "type": "bytes4"
        }
      ],
      "name": "supportsInterface",
      "outputs": [
        {
          "internalType": "bool",
          "name": "",
          "type": "bool"
        }
      ],
      "stateMutability": "pure",
      "type": "function"
    },
    {
      "inputs": [
        {
          "internalType": "address",
          "name": "",
          "type": "address"
        },
        {
          "internalType": "address",
          "name": "from",
          "type": "address"
        },
        {
          "internalType": "uint256",
          "name": "value",
          "type": "uint256"
        },
        {
          "internalType": "bytes",
          "name": "data",
          "type": "bytes"
        }
      ],
      "name": "onTransferReceived",
      "outputs": [
        {
          "internalType": "bytes4",
          "name": "",
          "type": "bytes4"
        }
      ],
      "stateMutability": "nonpayable",
      "type": "function"
    }
  ],
  "bytecode": "0x6000600755600880546001600160a01b0319163317905560e060405260276080818152906200456f60a03980516200004091600a91602090910190620000b2565b506202a300600d553480156200005557600080fd5b506040516200459638038062004596833981016040819052620000789162000203565b81518290829062000091906000906020850190620000b2565b508051620000a7906001906020840190620000b2565b5050505050620002bd565b828054620000c0906200026a565b90600052602060002090601f016020900481019282620000e457600085556200012f565b82601f10620000ff57805160ff19168380011785556200012f565b828001600101855582156200012f579182015b828111156200012f57825182559160200191906001019062000112565b506200013d92915062000141565b5090565b5b808211156200013d576000815560010162000142565b600082601f83011262000169578081fd5b81516001600160401b0380821115620001865762000186620002a7565b6040516020601f8401601f1916820181018381118382101715620001ae57620001ae620002a7565b6040528382528584018101871015620001c5578485fd5b8492505b83831015620001e85785830181015182840182015291820191620001c9565b83831115620001f957848185840101525b5095945050505050565b6000806040838503121562000216578182fd5b82516001600160401b03808211156200022d578384fd5b6200023b8683870162000158565b9350602085015191508082111562000251578283fd5b50620002608582860162000158565b9150509250929050565b6002810460018216806200027f57607f821691505b60208210811415620002a157634e487b7160e01b600052602260045260246000fd5b50919050565b634e487b7160e01b600052604160045260246000fd5b6142a280620002cd6000396000f3fe6080604052600436106101815760003560e01c806370a08231116100d1578063a22cb4651161008a578063c87b56dd11610064578063c87b56dd14610451578063ce606ee014610471578063d0ebdbe714610486578063e985e9c5146104a657610181565b8063a22cb465146103fe578063b88d4fde1461041e578063bf40fac11461043157610181565b806370a0823114610321578063803a763a1461034157806381dd2fa01461036157806388a7ca5c1461038f57806394db160b146103bc57806395d89b41146103e957610181565b806323185dc91161013e57806342966c681161011857806342966c68146102b7578063481c6a75146102d757806362b99ad4146102ec5780636352211e1461030157610181565b806323185dc91461025757806323b872dd146102845780632828316a1461029757610181565b806301ffc9a71461018657806304554443146101bc57806306fdde03146101de578063081812fc14610200578063095ea7b31461022d57806318160ddd14610242575b600080fd5b34801561019257600080fd5b506101a66101a13660046135f6565b6104c6565b6040516101b39190613a24565b60405180910390f35b3480156101c857600080fd5b506101d16104f3565b6040516101b39190613a44565b3480156101ea57600080fd5b506101f36104f9565b6040516101b39190613a4d565b34801561020c57600080fd5b5061022061021b36600461367b565b610587565b6040516101b39190613942565b61024061023b366004613445565b6105e0565b005b34801561024e57600080fd5b506101d16106a1565b34801561026357600080fd5b50610277610272366004613470565b6106a7565b6040516101b391906139e0565b610240610292366004613188565b610837565b3480156102a357600080fd5b506102406102b23660046136e9565b6108b3565b3480156102c357600080fd5b506102406102d236600461367b565b6115a7565b3480156102e357600080fd5b506102206117c9565b3480156102f857600080fd5b506101f36117d8565b34801561030d57600080fd5b5061022061031c36600461367b565b6117e5565b34801561032d57600080fd5b506101d161033c366004613118565b61181a565b34801561034d57600080fd5b5061024061035c36600461330a565b61185e565b34801561036d57600080fd5b5061038161037c36600461367b565b611cec565b6040516101b3929190613eb7565b34801561039b57600080fd5b506103af6103aa3660046131c8565b611e4c565b6040516101b39190613a2f565b3480156103c857600080fd5b506103dc6103d73660046134a4565b611fea565b6040516101b39190613fcd565b3480156103f557600080fd5b506101f3612262565b34801561040a57600080fd5b506102406104193660046132dd565b61226f565b61024061042c366004613261565b6122de565b34801561043d57600080fd5b5061022061044c36600461362e565b612356565b34801561045d57600080fd5b506101f361046c36600461367b565b6123d7565b34801561047d57600080fd5b50610220612447565b34801561049257600080fd5b506102406104a1366004613118565b612456565b3480156104b257600080fd5b506101a66104c1366004613150565b6124c8565b60006001600160e01b03198216632229f29760e21b14806104eb57506104eb826124f8565b90505b919050565b600d5481565b6000805461050690614172565b80601f016020809104026020016040519081016040528092919081815260200182805461053290614172565b801561057f5780601f106105545761010080835404028352916020019161057f565b820191906000526020600020905b81548152906001019060200180831161056257829003601f168201915b505050505081565b6000818152600460205260408120546001600160a01b03166105c45760405162461bcd60e51b81526004016105bb90613cdb565b60405180910390fd5b506000908152600560205260409020546001600160a01b031690565b6000818152600460205260409020546001600160a01b03163381148061062957506001600160a01b038116600090815260066020908152604080832033845290915290205460ff165b6106455760405162461bcd60e51b81526004016105bb90613ae3565b60008281526005602052604080822080546001600160a01b0319166001600160a01b0387811691821790925591518593918516917f8c5be1e5ebec7d5bd14f71427d1e84f3dd0314c0f7b2291e5b200ac8c7c3b92591a4505050565b60075481565b60606001600160a01b0384166106cf5760405162461bcd60e51b81526004016105bb90613b8e565b6001600160a01b0384166000908152600260205260409020826107405780546040805160208084028201810190925282815291839183018282801561073357602002820191906000526020600020905b81548152602001906001019080831161071f575b5050505050915050610830565b82841061075f5760405162461bcd60e51b81526004016105bb90613e90565b600061076b8585614118565b6001600160401b0381111561079057634e487b7160e01b600052604160045260246000fd5b6040519080825280602002602001820160405280156107b9578160200160208202803683370190505b509050845b84811461082b578281815481106107e557634e487b7160e01b600052603260045260246000fd5b906000526020600020015482828151811061081057634e487b7160e01b600052603260045260246000fd5b6020908102919091010152610824816141ad565b90506107be565b509150505b9392505050565b6000818152600b6020526040902054600160381b900460ff161561086d5760405162461bcd60e51b81526004016105bb90613b2b565b6000818152600b6020526040902054600160401b900460ff16156108a35760405162461bcd60e51b81526004016105bb90613de0565b6108ae838383612546565b505050565b600081511180156108c65750600a815111155b6108e25760405162461bcd60e51b81526004016105bb90613c22565b6000828152600460205260409020546001600160a01b03163381148061091e57506000838152600560205260409020546001600160a01b031633145b8061094c57506001600160a01b038116600090815260066020908152604080832033845290915290205460ff165b6109685760405162461bcd60e51b81526004016105bb90613c97565b60005b82518110156115a157600083828151811061099657634e487b7160e01b600052603260045260246000fd5b602090810291909101810151600081815260049092526040909120549091506001600160a01b0316338114806109e257506000828152600560205260409020546001600160a01b031633145b80610a1057506001600160a01b038116600090815260066020908152604080832033845290915290205460ff165b610a2c5760405162461bcd60e51b81526004016105bb90613c97565b6000868152600b602090815260408083208584529281902081516101c081018352815463ffffffff808216835260ff600160201b808404821685890152650100000000008404821685880152600160301b84048216606080870191909152600160381b850483161515608080880191909152600160401b95869004909316151560a080880191909152600188015460c0808901919091526002808a015480881660e0808c019190915286820489166101008c015289820489166101208c0152600160601b8083048a166101408d0152600160801b8084048b166101608e0152600160a01b938490048b166101808e01528e519283018f526003909d0154808b1683529788048a169e82019e909e5289870489169c81019c909c528c86048816948c01949094529884048616948a0194909452908204841690880152600160c01b90048216908601526101a08301949094529185015490938104831691900490911610610b9b57505050506115a1565b806080015180610bac57508060a001515b15610bba575050505061158f565b610bc384612551565b6000848152600b60205260408120805468ffffffffffffffffff19168155600180820192909255600280820180546001600160c01b0319169055600390910180546001600160e01b031916905583018054600890610c2f908490600160401b900463ffffffff166140bd565b92506101000a81548163ffffffff021916908363ffffffff1602179055506000610c766040518060400160405280600681526020016552616e646f6d60d01b815250612356565b6001600160a01b031663cd4b691460006040518263ffffffff1660e01b8152600401610ca29190613a44565b60206040518083038186803b158015610cba57600080fd5b505afa158015610cce573d6000803e3d6000fd5b505050506040513d601f19601f82011682018060405250810190610cf291906135de565b90506000610d1d60405180604001604052806006815260200165436f6e66696760d01b815250612356565b600285015485549192506000916001600160a01b0384169163a8be9ca191600160201b90910463ffffffff1690600160301b900460ff16848954600160201b900460ff166003811115610d8057634e487b7160e01b600052602160045260246000fd5b6003811115610d9f57634e487b7160e01b600052602160045260246000fd5b146040518463ffffffff1660e01b8152600401610dbe9392919061404d565b604080518083038186803b158015610dd557600080fd5b505afa158015610de9573d6000803e3d6000fd5b505050506040513d601f19601f82011682018060405250810190610e0d9190613535565b90506000610e4d8442604051602001610e2792919061381e565b60408051808303601f190181529190528351602085015163ffffffff91821691166125e9565b8654909150600090600160201b900460ff166003811115610e7e57634e487b7160e01b600052602160045260246000fd5b875490915060009065010000000000900460ff166005811115610eb157634e487b7160e01b600052602160045260246000fd5b90506000826003811115610ed557634e487b7160e01b600052602160045260246000fd5b1415611067576002816005811115610efd57634e487b7160e01b600052602160045260246000fd5b1415610fcf57600388018054849190601490610f27908490600160a01b900463ffffffff166140bd565b82546101009290920a63ffffffff81810219909316918316021790915560038a01805463ffffffff60c01b198116600160a01b9091048316600160c01b02178082558693509091600c91610f84918591600160601b9004166140bd565b82546101009290920a63ffffffff81810219909316918316021790915560038a01805463ffffffff60801b198116600160601b909104909216600160801b0291909117905550611062565b6001816005811115610ff157634e487b7160e01b600052602160045260246000fd5b141561106257600388018054849190600c9061101b908490600160601b900463ffffffff166140bd565b82546101009290920a63ffffffff81810219909316918316021790915560038a01805463ffffffff60801b198116600160601b909104909216600160801b02919091179055505b6114b8565b600081600581111561108957634e487b7160e01b600052602160045260246000fd5b14156111b35760015b8260038111156110b257634e487b7160e01b600052602160045260246000fd5b14156110f8576003880180548491906000906110d590849063ffffffff166140bd565b92506101000a81548163ffffffff021916908363ffffffff160217905550611062565b600282600381111561111a57634e487b7160e01b600052602160045260246000fd5b1415611144576003880180548491906008906110d5908490600160401b900463ffffffff166140bd565b600382600381111561116657634e487b7160e01b600052602160045260246000fd5b141561106257600388018054849190600490611190908490600160201b900463ffffffff166140bd565b92506101000a81548163ffffffff021916908363ffffffff1602179055506114b8565b60018160058111156111d557634e487b7160e01b600052602160045260246000fd5b1480611200575060058160058111156111fe57634e487b7160e01b600052602160045260246000fd5b145b1561127657600388018054849190600c90611229908490600160601b900463ffffffff166140bd565b82546101009290920a63ffffffff81810219909316918316021790915560038a01805463ffffffff60801b198116600160601b909104909216600160801b02919091179055506001611092565b600281600581111561129857634e487b7160e01b600052602160045260246000fd5b141561136a57600388018054849190600c906112c2908490600160601b900463ffffffff166140bd565b82546101009290920a63ffffffff81810219909316918316021790915560038a01805463ffffffff60801b198116600160601b9091048316600160801b0217808255869350909160149161131f918591600160a01b9004166140bd565b82546101009290920a63ffffffff81810219909316918316021790915560038a01805463ffffffff60c01b198116600160a01b909104909216600160c01b02919091179055506114b8565b600381600581111561138c57634e487b7160e01b600052602160045260246000fd5b14806113b7575060048160058111156113b557634e487b7160e01b600052602160045260246000fd5b145b156114b85760018260038111156113de57634e487b7160e01b600052602160045260246000fd5b14156114015760038801805484919060009061119090849063ffffffff166140bd565b600282600381111561142357634e487b7160e01b600052602160045260246000fd5b141561144d57600388018054849190600890611190908490600160401b900463ffffffff166140bd565b600382600381111561146f57634e487b7160e01b600052602160045260246000fd5b14156114b857600388018054849190600490611499908490600160201b900463ffffffff166140bd565b92506101000a81548163ffffffff021916908363ffffffff1602179055505b600288015460405163232d367f60e11b81526001600160a01b0387169163465a6cfe916114fa91600160201b900463ffffffff169060038d0190600401613fde565b60206040518083038186803b15801561151257600080fd5b505afa158015611526573d6000803e3d6000fd5b505050506040513d601f19601f8201168201806040525081019061154a919061372d565b60028901805463ffffffff191663ffffffff9290921691909117905560c087015160018901805460009061157f9084906140a5565b9091555050505050505050505050505b80611599816141ad565b91505061096b565b50505050565b6000818152600b6020526040902054600160381b900460ff16156115dd5760405162461bcd60e51b81526004016105bb90613b2b565b6000818152600b6020526040902054600160401b900460ff16156116135760405162461bcd60e51b81526004016105bb90613de0565b6000818152600460205260409020546001600160a01b03163381148061164f57506000828152600560205260409020546001600160a01b031633145b8061167d57506001600160a01b038116600090815260066020908152604080832033845290915290205460ff165b6116995760405162461bcd60e51b81526004016105bb90613c97565b600d546001600160401b03604084901c169042906116b790836140a5565b106116d45760405162461bcd60e51b81526004016105bb90613beb565b6000838152600b60205260409020600101546116ef84612551565b6000848152600b60205260408120805468ffffffffffffffffff1916815560018101919091556002810180546001600160c01b031916905560030180546001600160e01b031916905580156115a157611764604051806040016040528060058152602001642a37b5b2b760d91b815250612356565b6001600160a01b03166340c10f1984836040518363ffffffff1660e01b81526004016117919291906139c7565b600060405180830381600087803b1580156117ab57600080fd5b505af11580156117bf573d6000803e3d6000fd5b5050505050505050565b6009546001600160a01b031681565b600a805461050690614172565b6000818152600460205260408120546001600160a01b0316806104eb5760405162461bcd60e51b81526004016105bb90613d0a565b60006001600160a01b0382166118425760405162461bcd60e51b81526004016105bb90613b8e565b506001600160a01b031660009081526002602052604090205490565b604080516080810182526008818301908152677a6f6e654d696e6560c01b60608301528152815180830190925260038252620c4def60eb1b6020838101919091528101919091526000805b60028114611974576009546001600160a01b031663f5e65c72338584600281106118e357634e487b7160e01b600052603260045260246000fd5b60200201516040518363ffffffff1660e01b81526004016119059291906139a3565b60206040518083038186803b15801561191d57600080fd5b505afa158015611931573d6000803e3d6000fd5b505050506040513d601f19601f8201168201806040525081019061195591906135c2565b9150811561196257611974565b8061196c816141ad565b9150506118a9565b50806119925760405162461bcd60e51b81526004016105bb90613c74565b600060075460016119a391906140a5565b6001600160401b03166040426001600160401b0316901b60e8866060015160ff16901b60f0876040015160ff16901b60f8886020015160ff16901b1717171790506119ee858261262a565b83600b600083815260200190815260200160002060008201518160000160006101000a81548163ffffffff021916908363ffffffff16021790555060208201518160000160046101000a81548160ff021916908360ff16021790555060408201518160000160056101000a81548160ff021916908360ff16021790555060608201518160000160066101000a81548160ff021916908360ff16021790555060808201518160000160076101000a81548160ff02191690831515021790555060a08201518160000160086101000a81548160ff02191690831515021790555060c0820151816001015560e08201518160020160006101000a81548163ffffffff021916908363ffffffff1602179055506101008201518160020160046101000a81548163ffffffff021916908363ffffffff1602179055506101208201518160020160086101000a81548163ffffffff021916908363ffffffff16021790555061014082015181600201600c6101000a81548163ffffffff021916908363ffffffff1602179055506101608201518160020160106101000a81548163ffffffff021916908363ffffffff1602179055506101808201518160020160146101000a81548163ffffffff021916908363ffffffff1602179055506101a08201518160030160008201518160000160006101000a81548163ffffffff021916908363ffffffff16021790555060208201518160000160046101000a81548163ffffffff021916908363ffffffff16021790555060408201518160000160086101000a81548163ffffffff021916908363ffffffff160217905550606082015181600001600c6101000a81548163ffffffff021916908363ffffffff16021790555060808201518160000160106101000a81548163ffffffff021916908363ffffffff16021790555060a08201518160000160146101000a81548163ffffffff021916908363ffffffff16021790555060c08201518160000160186101000a81548163ffffffff021916908363ffffffff16021790555050509050505050505050565b6000611cf6612e69565b50506000818152600b602090815260409182902082516101c081018452815463ffffffff8082168352600160201b80830460ff90811685880152650100000000008404811685890152600160301b84048116606080870191909152600160381b850482161515608080880191909152600160401b95869004909216151560a080880191909152600188015460c080890191909152600289015480871660e0808b019190915286820488166101008b015288820488166101208b0152600160601b80830489166101408c0152600160801b8084048a166101608d0152600160a01b938490048a166101808d01528e519283018f526003909c0154808a16835297880489169c82019c909c5297860487169b88019b909b52988404851691860191909152958204831690840152958604811693820193909352600160c01b909404909116918301919091526101a08101919091529091565b6000611e74604051806040016040528060058152602001642a37b5b2b760d91b815250612356565b6001600160a01b0316336001600160a01b03161415611fd75760008080611e9d85870187613693565b92509250925060008360ff166009811115611ec857634e487b7160e01b600052602160045260246000fd5b9050806009811115611eea57634e487b7160e01b600052602160045260246000fd5b60091415611fc4578151611f1b60405180604001604052806006815260200165119c9a595b9960d21b815250612356565b6001600160a01b03166370f9c6966040518163ffffffff1660e01b815260040160206040518083038186803b158015611f5357600080fd5b505afa158015611f67573d6000803e3d6000fd5b505050506040513d601f19601f82011682018060405250810190611f8b91906135de565b611f9591906140f9565b881015611fb45760405162461bcd60e51b81526004016105bb90613d38565b611fbf898484612683565b611fd2565b5060009350611fe192505050565b505050505b50632229f29760e21b5b95945050505050565b600061201160405180604001604052806004815260200163526f6c6560e01b815250612356565b6001600160a01b0316336001600160a01b0316146120415760405162461bcd60e51b81526004016105bb90613db1565b60005b8083146120bd5783838281811061206b57634e487b7160e01b600052603260045260246000fd5b905060200201356000146120ab576120ab8885858481811061209d57634e487b7160e01b600052603260045260246000fd5b9050602002013560006127a3565b806120b5816141ad565b915050612044565b5060005b808514612257578585828181106120e857634e487b7160e01b600052603260045260246000fd5b90506020020135600014612245578663ffffffff16600b600088888581811061212157634e487b7160e01b600052603260045260246000fd5b90506020020135815260200190815260200160002060020160049054906101000a900463ffffffff1663ffffffff16111561218187878481811061217557634e487b7160e01b600052603260045260246000fd5b90506020020135612885565b60405160200161219191906138fd565b604051602081830303815290604052906121be5760405162461bcd60e51b81526004016105bb9190613a4d565b506121f1888787848181106121e357634e487b7160e01b600052603260045260246000fd5b9050602002013560016127a3565b600b600087878481811061221557634e487b7160e01b600052603260045260246000fd5b60209081029290920135835250810191909152604001600020600201546122429063ffffffff16836140bd565b91505b8061224f816141ad565b9150506120c1565b509695505050505050565b6001805461050690614172565b3360008181526006602090815260408083206001600160a01b038716808552925291829020805460ff191685151517905590519091907f17307eab39ab6107e8899845ad3d59bd9653f200f220920489ca2b5937696c31906122d2908590613a24565b60405180910390a35050565b6000828152600b6020526040902054600160381b900460ff16156123145760405162461bcd60e51b81526004016105bb90613b2b565b6000828152600b6020526040902054600160401b900460ff161561234a5760405162461bcd60e51b81526004016105bb90613de0565b6115a184848484612892565b6009546040516334abd05960e11b81526000916001600160a01b031690636957a0b290612387908590600401613a4d565b60206040518083038186803b15801561239f57600080fd5b505afa1580156123b3573d6000803e3d6000fd5b505050506040513d601f19601f820116820180604052508101906104eb9190613134565b6000818152600b602052604081205460609190600a906123fc9063ffffffff16612885565b6000858152600b602052604090205461241e90600160301b900460ff16612885565b6040516020016124309392919061383d565b60408051808303601f190181529190529392505050565b6008546001600160a01b031681565b6008546001600160a01b031633146124805760405162461bcd60e51b81526004016105bb90613e22565b6001600160a01b0381166124a65760405162461bcd60e51b81526004016105bb90613d5f565b600980546001600160a01b0319166001600160a01b0392909216919091179055565b6001600160a01b0380831660009081526006602090815260408083209385168352929052205460ff165b92915050565b60006001600160e01b031982166301ffc9a760e01b148061252957506001600160e01b031982166380ac58cd60e01b145b806104eb5750506001600160e01b031916635b5e139f60e01b1490565b6108ae838383612961565b6000818152600460205260409020546001600160a01b03166125738183612af1565b6000828152600560205260409020546001600160a01b0316156125ad57600082815260056020526040902080546001600160a01b03191690555b60405182906000906001600160a01b038416907fddf252ad1be2c89b69c2b068fc378daa952ba7f163c4a11628f55a4df523b3ef908390a45050565b60008183106125f9575081610830565b835160208501208361260b8185614118565b6126169060016140a5565b61262090836141c8565b611fe191906140a5565b6126348282612bf6565b600760008154612643906141ad565b9091555060405181906001600160a01b038416906000907fddf252ad1be2c89b69c2b068fc378daa952ba7f163c4a11628f55a4df523b3ef908290a45050565b60006126ac60405180604001604052806006815260200165119c9a595b9960d21b815250612356565b6001600160a01b031663ed26cae885856040518363ffffffff1660e01b81526004016126d9929190613956565b60206040518083038186803b1580156126f157600080fd5b505afa158015612705573d6000803e3d6000fd5b505050506040513d601f19601f8201168201806040525081019061272991906135c2565b905060018115151461274d5760405162461bcd60e51b81526004016105bb90613e59565b60005b8251811461279c5761278a858585848151811061277d57634e487b7160e01b600052603260045260246000fd5b6020026020010151612c4f565b80612794816141ad565b915050612750565b5050505050565b6000828152600460205260409020546001600160a01b039081169084168114806127e657506000838152600560205260409020546001600160a01b038581169116145b8061281657506001600160a01b0380821660009081526006602090815260408083209388168352929052205460ff165b6128325760405162461bcd60e51b81526004016105bb90613c97565b6000838152600b6020526040902054600160401b900460ff161515821515146115a1576000838152600b602052604090208054831515600160401b0268ff00000000000000001990911617905550505050565b60606104eb82600a612d40565b61289d848484612961565b6128af836001600160a01b0316612e63565b156115a157604051630a85bd0160e11b808252906001600160a01b0385169063150b7a02906128e8903390899088908890600401613970565b602060405180830381600087803b15801561290257600080fd5b505af1158015612916573d6000803e3d6000fd5b505050506040513d601f19601f8201168201806040525081019061293a9190613612565b6001600160e01b031916146115a15760405162461bcd60e51b81526004016105bb90613aa2565b6001600160a01b0383166129875760405162461bcd60e51b81526004016105bb90613bbd565b6001600160a01b0382166129ad5760405162461bcd60e51b81526004016105bb90613b62565b6000818152600460205260409020546001600160a01b038481169116146129e65760405162461bcd60e51b81526004016105bb90613d85565b336001600160a01b0384161480612a1357506000818152600560205260409020546001600160a01b031633145b80612a4157506001600160a01b038316600090815260066020908152604080832033845290915290205460ff165b612a5d5760405162461bcd60e51b81526004016105bb90613a60565b6000818152600560205260409020546001600160a01b031615612a9757600081815260056020526040902080546001600160a01b03191690555b612aa18382612af1565b612aab8282612bf6565b80826001600160a01b0316846001600160a01b03167fddf252ad1be2c89b69c2b068fc378daa952ba7f163c4a11628f55a4df523b3ef60405160405180910390a4505050565b6000818152600360209081526040808320546001600160a01b038616845260029092528220805491929091612b2890600190614118565b90506000828281548110612b4c57634e487b7160e01b600052603260045260246000fd5b9060005260206000200154905080838581548110612b7a57634e487b7160e01b600052603260045260246000fd5b60009182526020808320909101929092558281526003909152604090208490558254839080612bb957634e487b7160e01b600052603160045260246000fd5b60008281526020808220830160001990810183905590920190925595815260049095525050604090922080546001600160a01b0319169055505050565b6001600160a01b03909116600081815260026020908152604080832080548685526003845282852081905560018101825590845282842001859055938252600490529190912080546001600160a01b0319169091179055565b6001600160a01b038316612c755760405162461bcd60e51b81526004016105bb90613bbd565b6001600160a01b038216612c9b5760405162461bcd60e51b81526004016105bb90613b62565b6000818152600b6020526040902054600160381b900460ff1615612cd15760405162461bcd60e51b81526004016105bb90613b2b565b6000818152600b6020526040902054600160401b900460ff1615612d075760405162461bcd60e51b81526004016105bb90613de0565b6000818152600460205260409020546001600160a01b03848116911614612a5d5760405162461bcd60e51b81526004016105bb90613d85565b606082612d6557506040805180820190915260018152600360fc1b60208201526124f2565b8260005b8115612d8e5780612d79816141ad565b9150612d87905084836140e5565b9150612d69565b6000816001600160401b03811115612db657634e487b7160e01b600052604160045260246000fd5b6040519080825280601f01601f191660200182016040528015612de0576020820181803683370190505b508693509050815b8315612e5957612df886856141c8565b612e039060306140a5565b60f81b82612e108361415b565b92508281518110612e3157634e487b7160e01b600052603260045260246000fd5b60200101906001600160f81b031916908160001a905350612e5286856140e5565b9350612de8565b5095945050505050565b3b151590565b604080516101c081018252600080825260208201819052918101829052606081018290526080810182905260a0810182905260c0810182905260e0810182905261010081018290526101208101829052610140810182905261016081018290526101808101919091526101a08101612edf612ee4565b905290565b6040805160e081018252600080825260208201819052918101829052606081018290526080810182905260a0810182905260c081019190915290565b60006001600160401b03831115612f3957612f39614208565b612f4c601f8401601f1916602001614070565b9050828152838383011115612f6057600080fd5b828260208301376000602084830101529392505050565b60008083601f840112612f88578182fd5b5081356001600160401b03811115612f9e578182fd5b6020830191508360208083028501011115612fb857600080fd5b9250929050565b600082601f830112612fcf578081fd5b813560206001600160401b03821115612fea57612fea614208565b808202612ff8828201614070565b838152828101908684018388018501891015613012578687fd5b8693505b85841015613034578035835260019390930192918401918401613016565b50979650505050505050565b80356104ee81614236565b600060e0828403121561305c578081fd5b60405160e081018181106001600160401b038211171561307e5761307e614208565b60405290508061308d836130fc565b815261309b602084016130fc565b60208201526130ac604084016130fc565b60408201526130bd606084016130fc565b60608201526130ce608084016130fc565b60808201526130df60a084016130fc565b60a08201526130f060c084016130fc565b60c08201525092915050565b80356104ee8161425a565b803560ff811681146104ee57600080fd5b600060208284031215613129578081fd5b81356108308161421e565b600060208284031215613145578081fd5b81516108308161421e565b60008060408385031215613162578081fd5b823561316d8161421e565b9150602083013561317d8161421e565b809150509250929050565b60008060006060848603121561319c578081fd5b83356131a78161421e565b925060208401356131b78161421e565b929592945050506040919091013590565b6000806000806000608086880312156131df578283fd5b85356131ea8161421e565b945060208601356131fa8161421e565b93506040860135925060608601356001600160401b038082111561321c578283fd5b818801915088601f83011261322f578283fd5b81358181111561323d578384fd5b89602082850101111561324e578384fd5b9699959850939650602001949392505050565b60008060008060808587031215613276578182fd5b84356132818161421e565b935060208501356132918161421e565b92506040850135915060608501356001600160401b038111156132b2578182fd5b8501601f810187136132c2578182fd5b6132d187823560208401612f20565b91505092959194509250565b600080604083850312156132ef578182fd5b82356132fa8161421e565b9150602083013561317d81614236565b6000808284036102a081121561331e578283fd5b83356133298161421e565b9250610280601f198201121561333d578182fd5b506101c061334a81614070565b613356602086016130fc565b815261336460408601613107565b602082015261337560608601613107565b604082015261338660808601613107565b606082015261339760a08601613040565b60808201526133a860c08601613040565b60a082015260e085013560c08201526101006133c58187016130fc565b60e08301526101206133d88188016130fc565b8284015261014091506133ec8288016130fc565b908301526101606133fe8782016130fc565b8284015261018091506134128288016130fc565b908301526101a06134248782016130fc565b828401526134348885890161304b565b908301525092959294509192505050565b60008060408385031215613457578182fd5b82356134628161421e565b946020939093013593505050565b600080600060608486031215613484578081fd5b833561348f8161421e565b95602085013595506040909401359392505050565b600080600080600080608087890312156134bc578384fd5b86356134c78161421e565b955060208701356134d78161425a565b945060408701356001600160401b03808211156134f2578586fd5b6134fe8a838b01612f77565b90965094506060890135915080821115613516578283fd5b5061352389828a01612f77565b979a9699509497509295939492505050565b600060408284031215613546578081fd5b82601f830112613554578081fd5b604051604081018181106001600160401b038211171561357657613576614208565b806040525080838560408601111561358c578384fd5b835b60028110156135b75781516135a28161425a565b8352602092830192919091019060010161358e565b509195945050505050565b6000602082840312156135d3578081fd5b815161083081614236565b6000602082840312156135ef578081fd5b5051919050565b600060208284031215613607578081fd5b813561083081614244565b600060208284031215613623578081fd5b815161083081614244565b60006020828403121561363f578081fd5b81356001600160401b03811115613654578182fd5b8201601f81018413613664578182fd5b61367384823560208401612f20565b949350505050565b60006020828403121561368c578081fd5b5035919050565b6000806000606084860312156136a7578081fd5b8335925060208401356136b98161421e565b915060408401356001600160401b038111156136d3578182fd5b6136df86828701612fbf565b9150509250925092565b600080604083850312156136fb578182fd5b8235915060208301356001600160401b03811115613717578182fd5b61372385828601612fbf565b9150509250929050565b60006020828403121561373e578081fd5b81516108308161425a565b15159052565b6000815180845261376781602086016020860161412f565b601f01601f19169290920160200192915050565b6000815161378d81856020860161412f565b9290920192915050565b64173539b7b760d91b815260050190565b605f60f81b815260010190565b63ffffffff8082511683528060208301511660208401528060408301511660408401528060608301511660608401528060808301511660808401528060a08301511660a08401528060c08301511660c0840152505050565b63ffffffff169052565b60ff169052565b918252602082015267696e63726561736560c01b604082015260480190565b835460009081906002810460018083168061385957607f831692505b602080841082141561387957634e487b7160e01b87526022600452602487fd5b81801561388d576001811461389e576138ca565b60ff198616895284890196506138ca565b6138a78c614099565b885b868110156138c25781548b8201529085019083016138a9565b505084890196505b5050505050506138f36138ee6138e86138e3848961377b565b6137a8565b8661377b565b613797565b9695505050505050565b60007f45717569706d656e74206c6576656c20697320746f6f20686967683a200000008252825161393581601d85016020870161412f565b91909101601d0192915050565b6001600160a01b0391909116815260200190565b6001600160a01b0392831681529116602082015260400190565b6001600160a01b03858116825284166020820152604081018390526080606082018190526000906138f39083018461374f565b6001600160a01b03831681526040602082018190526000906136739083018461374f565b6001600160a01b03929092168252602082015260400190565b6020808252825182820181905260009190848201906040850190845b81811015613a18578351835292840192918401916001016139fc565b50909695505050505050565b901515815260200190565b6001600160e01b031991909116815260200190565b90815260200190565b600060208252610830602083018461374f565b60208082526022908201527f73656e646572206d757374206265206f776e6572206f7220617070726f76616c604082015261195960f21b606082015260800190565b60208082526021908201527f6f6e455243373231526563656976656428292072657475726e20696e76616c696040820152601960fa1b606082015260800190565b60208082526028908201527f73656e646572206d757374206265206f776e6572206f7220617070726f76656460408201526708199bdc88185b1b60c21b606082015260800190565b60208082526018908201527f546869732065717569706d656e74206973206c6f636b65640000000000000000604082015260600190565b602080825260129082015271746f206973207a65726f206164647265737360701b604082015260600190565b6020808252601590820152746f776e6572206973207a65726f206164647265737360581b604082015260600190565b60208082526014908201527366726f6d206973207a65726f206164647265737360601b604082015260600190565b6020808252601a908201527f65717569706d656e7420686173206e6f7420756e6c6f636b6564000000000000604082015260600190565b60208082526032908201527f636f6e73756d654964732e6c656e677468206d757374206265206c6573732074604082015271068616e206f7220657175616c20746f2031360741b606082015260800190565b6020808252600990820152681b9bc81c195c9b5a5d60ba1b604082015260600190565b60208082526024908201527f6d73672e73656e646572206d757374206265206f776e6572206f7220617070726040820152631bdd995960e21b606082015260800190565b6020808252601590820152743737b137b23c9037bbb7103a3432b7103a37b5b2b760591b604082015260600190565b6020808252601490820152733737b137b23c9037bbb7103a3432903a37b5b2b760611b604082015260600190565b6020808252600d908201526c496e76616c69642076616c756560981b604082015260600190565b6020808252600c908201526b7a65726f206164647265737360a01b604082015260600190565b602080825260129082015271333937b69036bab9ba1031329037bbb732b960711b604082015260600190565b6020808252601590820152746f70657261746f72206d75737420626520526f6c6560581b604082015260600190565b60208082526022908201527f546869732065717569706d656e7420697320616c726561647920657175697070604082015261195960f21b606082015260800190565b60208082526019908201527f6f6e6c7920616c6c6f7720636f6e7472616374206f776e657200000000000000604082015260600190565b6020808252601c908201527f43616e206f6e6c7920626520676976656e20746f20667269656e647300000000604082015260600190565b6020808252600d908201526c0d2dcecc2d8d2c840d2dcc8caf609b1b604082015260600190565b60006102a082019050838252613ed160208301845161380d565b6020830151613ee36040840182613817565b506040830151613ef66060840182613817565b506060830151613f096080840182613817565b506080830151613f1c60a0840182613749565b5060a0830151613f2f60c0840182613749565b5060c083015160e083015260e0830151610100613f4e8185018361380d565b8401519050610120613f628482018361380d565b8401519050610140613f768482018361380d565b8401519050610160613f8a8482018361380d565b8401519050610180613f9e8482018361380d565b84015190506101a0613fb28482018361380d565b8401519050613fc56101c08401826137b5565b509392505050565b63ffffffff91909116815260200190565b60006101008201905063ffffffff808516835283548181166020850152818160201c166040850152818160401c166060850152818160601c166080850152818160801c1660a0850152818160a01c1660c085015261404460e08501838360c01c1661380d565b50509392505050565b63ffffffff93909316835260ff9190911660208301521515604082015260600190565b6040518181016001600160401b038111828210171561409157614091614208565b604052919050565b60009081526020902090565b600082198211156140b8576140b86141dc565b500190565b600063ffffffff8083168185168083038211156140dc576140dc6141dc565b01949350505050565b6000826140f4576140f46141f2565b500490565b6000816000190483118215151615614113576141136141dc565b500290565b60008282101561412a5761412a6141dc565b500390565b60005b8381101561414a578181015183820152602001614132565b838111156115a15750506000910152565b60008161416a5761416a6141dc565b506000190190565b60028104600182168061418657607f821691505b602082108114156141a757634e487b7160e01b600052602260045260246000fd5b50919050565b60006000198214156141c1576141c16141dc565b5060010190565b6000826141d7576141d76141f2565b500690565b634e487b7160e01b600052601160045260246000fd5b634e487b7160e01b600052601260045260246000fd5b634e487b7160e01b600052604160045260246000fd5b6001600160a01b038116811461423357600080fd5b50565b801515811461423357600080fd5b6001600160e01b03198116811461423357600080fd5b63ffffffff8116811461423357600080fdfea2646970667358221220588b4de96ca60dad8f795c444f7b8172ca2c57deee076a982e8f36242f8ca48964736f6c6343000800003368747470733a2f2f736f757263652e6c6567656e646e66742e636f6d2f65717569706d656e742f",
  "immutableReferences": {},
  "source": "pragma solidity ^0.8.0;\npragma abicoder v2;\n\n// SPDX-License-Identifier: MIT\n\nimport \"./Structs.sol\";\nimport \"./lib/Permission.sol\";\nimport \"./lib/ERC721.sol\";\nimport \"./include/IERC20OP.sol\";\nimport \"./lib/Uinteger.sol\";\nimport \"./include/IConfig.sol\";\nimport \"./include/IEquipment.sol\";\nimport \"./include/IRandom.sol\";\nimport \"./lib/Utils.sol\";\nimport \"./include/IFriend.sol\";\nimport \"./include/IERC1363Receiver.sol\";\n\ncontract Equipment is ERC721, Permission, IEquipment, IERC1363Receiver {\n    using Uinteger for uint256;\n\n    /***********event ***********/\n    event Upgrade(address indexed owner, uint256 equipmentId, uint32 level);\n\n    string public uriPrefix = \"https://source.legendnft.com/equipment/\";\n\n    // Equipment id => Equipment Attributes\n    mapping(uint256 => EquipmentAttr) private equipments;\n\n    /*\n        \n        id => \n    */\n    mapping(uint256 => SuitAttr) private suits;\n\n    //\n    uint256 public lockDuration = 3600 * 24 * 2;\n\n    constructor(string memory _name, string memory _symbol) ERC721(_name, _symbol) {}\n\n    function safeTransferFrom(\n        address from,\n        address to,\n        uint256 tokenId,\n        bytes memory data\n    ) public payable override {\n        require(equipments[tokenId].locked == false, \"This equipment is locked\");\n        require(equipments[tokenId].isEquip == false, \"This equipment is already equipped\");\n        super.safeTransferFrom(from, to, tokenId, data);\n    }\n\n    function transferFrom(\n        address from,\n        address to,\n        uint256 tokenId\n    ) public payable override {\n        require(equipments[tokenId].locked == false, \"This equipment is locked\");\n        require(equipments[tokenId].isEquip == false, \"This equipment is already equipped\");\n        super.transferFrom(from, to, tokenId);\n    }\n\n    function tokenURI(uint256 tokenId) public view override returns (string memory) {\n        string memory uri = string(abi.encodePacked(uriPrefix, uint256(equipments[tokenId].number).toString(), \"_\", uint256(equipments[tokenId].quality).toString(), \".json\"));\n        return uri;\n    }\n\n    function getEquipment(uint256 tokenId) public view override returns (uint256 id, EquipmentAttr memory attrs) {\n        return (tokenId, equipments[tokenId]);\n    }\n\n    function mint(address to, EquipmentAttr memory attr) public override CheckPermit2([\"zoneMine\", \"box\"]) {\n        uint256 eId = (uint256(attr.profession) << 248) | (uint256(attr.category) << 240) | (uint256(attr.quality) << 232) | (uint256(uint64(block.timestamp)) << 64) | uint64(totalSupply + 1);\n        _mint(to, eId);\n        equipments[eId] = attr;\n    }\n\n    function burn(uint256 eId) public {\n        require(equipments[eId].locked == false, \"This equipment is locked\");\n        require(equipments[eId].isEquip == false, \"This equipment is already equipped\");\n\n        address owner = tokenOwners[eId];\n        require(msg.sender == owner || msg.sender == tokenApprovals[eId] || approvalForAlls[owner][msg.sender], \"msg.sender must be owner or approved\");\n\n        uint256 mintTime = uint64(eId >> 64);\n        require(mintTime + lockDuration < block.timestamp, \"equipment has not unlocked\");\n\n        uint256 tokenAmount = equipments[eId].tokens;\n        _burn(eId);\n        delete equipments[eId];\n        if (tokenAmount > 0) IERC20OP(getAddress(\"Token\")).mint(owner, tokenAmount);\n    }\n\n    function _equip(\n        address operator,\n        uint256 eId,\n        bool isEquip\n    ) internal {\n        address owner = tokenOwners[eId];\n        require(operator == owner || operator == tokenApprovals[eId] || approvalForAlls[owner][operator], \"msg.sender must be owner or approved\");\n        if (isEquip != equipments[eId].isEquip) equipments[eId].isEquip = isEquip;\n    }\n\n    /**\n        @notice \n        @param operator \n        @param level \n        @param newIds id\n        @param oldIds id\n        @return power \n     */\n    function equip(\n        address operator,\n        uint32 level,\n        uint256[] calldata newIds,\n        uint256[] calldata oldIds\n    ) public override returns (uint32 power) {\n        require(msg.sender == getAddress(\"Role\"), \"operator must be Role\");\n        //\n        for (uint256 i = 0; i != oldIds.length; i++) {\n            if (oldIds[i] != 0) {\n                _equip(operator, oldIds[i], false);\n            }\n        }\n        // IConfig cfg = IConfig(getAddress(\"Config\"));\n        //\n        for (uint256 i = 0; i != newIds.length; i++) {\n            if (newIds[i] != 0) {\n                require(equipments[newIds[i]].level <= level, string(abi.encodePacked(\"Equipment level is too high: \", newIds[i].toString())));\n                _equip(operator, newIds[i], true);\n                // power += cfg.calcPower(equipments[newIds[i]].level, equipments[newIds[i]].mainAttrs);\n                power += equipments[newIds[i]].power;\n            }\n        }\n    }\n\n    /**\n        @notice \n        @param baseId id\n        @param consumeIds id\n     */\n    function increase(uint256 baseId, uint256[] memory consumeIds) public {\n        require(consumeIds.length > 0 && consumeIds.length <= 10, \"consumeIds.length must be less than or equal to 10\");\n        address baseOwner = tokenOwners[baseId];\n        require(msg.sender == baseOwner || msg.sender == tokenApprovals[baseId] || approvalForAlls[baseOwner][msg.sender], \"msg.sender must be owner or approved\");\n        for (uint256 i = 0; i < consumeIds.length; i++) {\n            uint256 consumeId = consumeIds[i];\n            address consumeOwner = tokenOwners[consumeId];\n            require(msg.sender == consumeOwner || msg.sender == tokenApprovals[consumeId] || approvalForAlls[consumeOwner][msg.sender], \"msg.sender must be owner or approved\");\n\n            EquipmentAttr storage base = equipments[baseId];\n            EquipmentAttr memory consume = equipments[consumeId];\n\n            if (base.increaseCount >= base.increaseMax) break;\n            if (consume.locked || consume.isEquip) continue;\n\n            _burn(consumeId);\n            delete equipments[consumeId];\n\n            base.increaseCount += 1;\n\n            // \n            bytes32 seed = IRandom(getAddress(\"Random\")).getRandom(0);\n            IConfig config = IConfig(getAddress(\"Config\"));\n            uint32[2] memory interval = config.getIncreaseConfig(base.level, base.quality, Profession(base.profession) == Profession.None);\n            uint256 val = Utils.randomUint(abi.encodePacked(seed, block.timestamp, \"increase\"), interval[0], interval[1]);\n            Profession p = Profession(base.profession);\n            EquipmentType et = EquipmentType(base.category);\n            if (p == Profession.None) {\n                //\n                if (et == EquipmentType.Armor) {\n                    //\n                    base.mainAttrs.physicalPower += uint32(val);\n                    base.mainAttrs.magicPower = base.mainAttrs.physicalPower;\n                    base.mainAttrs.defense += uint32(val);\n                    base.mainAttrs.magicDefense = base.mainAttrs.defense;\n                } else if (et == EquipmentType.Helmet) {\n                    //\n                    base.mainAttrs.defense += uint32(val);\n                    base.mainAttrs.magicDefense = base.mainAttrs.defense;\n                }\n            } else {\n                if (et == EquipmentType.Arms) {\n                    if (p == Profession.Warrior) {\n                        base.mainAttrs.attack += uint32(val);\n                    } else if (p == Profession.Mage) {\n                        base.mainAttrs.magic += uint32(val);\n                    } else if (p == Profession.Taoism) {\n                        base.mainAttrs.taoism += uint32(val);\n                    }\n                } else if (et == EquipmentType.Helmet || et == EquipmentType.Bracelet) {\n                    base.mainAttrs.defense += uint32(val);\n                    base.mainAttrs.magicDefense = base.mainAttrs.defense;\n                    if (p == Profession.Warrior) {\n                        base.mainAttrs.attack += uint32(val);\n                    } else if (p == Profession.Mage) {\n                        base.mainAttrs.magic += uint32(val);\n                    } else if (p == Profession.Taoism) {\n                        base.mainAttrs.taoism += uint32(val);\n                    }\n                } else if (et == EquipmentType.Armor) {\n                    base.mainAttrs.defense += uint32(val);\n                    base.mainAttrs.magicDefense = base.mainAttrs.defense;\n                    base.mainAttrs.physicalPower += uint32(val);\n                    base.mainAttrs.magicPower = base.mainAttrs.physicalPower;\n                } else if (et == EquipmentType.Necklace || et == EquipmentType.Ring) {\n                    if (p == Profession.Warrior) {\n                        base.mainAttrs.attack += uint32(val);\n                    } else if (p == Profession.Mage) {\n                        base.mainAttrs.magic += uint32(val);\n                    } else if (p == Profession.Taoism) {\n                        base.mainAttrs.taoism += uint32(val);\n                    }\n                }\n            }\n            base.power = config.calcPower(base.level, base.mainAttrs);\n            base.tokens += consume.tokens;\n        }\n    }\n\n    /**\n    @notice \n    @param from \n    @param to \n    @param ids id\n    */\n    function handsel(\n        address from,\n        address to,\n        uint256[] memory ids\n    ) internal {\n        bool isFriend = IFriend(getAddress(\"Friend\")).contains(from, to);\n        require(true == isFriend, \"Can only be given to friends\");\n        for (uint256 i = 0; i != ids.length; i++) {\n            _handsel(from, to, ids[i]);\n        }\n    }\n\n    function _handsel(\n        address from,\n        address to,\n        uint256 tokenId\n    ) internal {\n        require(from != address(0), \"from is zero address\");\n        require(to != address(0), \"to is zero address\");\n        require(equipments[tokenId].locked == false, \"This equipment is locked\");\n        require(equipments[tokenId].isEquip == false, \"This equipment is already equipped\");\n        require(from == tokenOwners[tokenId], \"from must be owner\");\n        if (tokenApprovals[tokenId] != address(0)) {\n            delete tokenApprovals[tokenId];\n        }\n        _removeTokenFrom(from, tokenId);\n        _addTokenTo(to, tokenId);\n        emit Transfer(from, to, tokenId);\n    }\n\n    function supportsInterface(bytes4 interfaceId) public pure override returns (bool) {\n        return interfaceId == type(IERC1363Receiver).interfaceId || super.supportsInterface(interfaceId);\n    }\n\n    function onTransferReceived(\n        address,\n        address from,\n        uint256 value,\n        bytes calldata data\n    ) public override returns (bytes4) {\n        if (msg.sender == getAddress(\"Token\")) {\n            (uint256 _op, address to, uint256[] memory ids) = abi.decode(data, (uint256, address, uint256[]));\n            Operate op = Operate(uint8(_op));\n            if (Operate.Handsel == op) {\n                //\n                require(value >= IFriend(getAddress(\"Friend\")).getHandselFee() * ids.length, \"Invalid value\");\n                //\n                handsel(from, to, ids);\n            } else {\n                return 0;\n            }\n        }\n        return IERC1363Receiver(this).onTransferReceived.selector;\n    }\n}\n",
  "sourcePath": "/Users/necklace/work/Legend/Legend/contracts/Equipment.sol",
  "compiler": {
    "name": "solc",
    "version": "0.8.0+commit.c7dfd78e.Darwin.appleclang"
  },
  "schemaVersion": "3.4.3",
  "updatedAt": "2022-03-25T17:08:34.107Z",
  "networkType": "ethereum",
  "devdoc": {
    "kind": "dev",
    "methods": {
      "equip(address,uint32,uint256[],uint256[])": {
        "params": {
          "level": "",
          "newIds": "id",
          "oldIds": "id",
          "operator": ""
        },
        "returns": {
          "power": ""
        }
      },
      "increase(uint256,uint256[])": {
        "params": {
          "baseId": "id",
          "consumeIds": "id"
        }
      },
      "mint(address,(uint32,uint8,uint8,uint8,bool,bool,uint256,uint32,uint32,uint32,uint32,uint32,uint32,(uint32,uint32,uint32,uint32,uint32,uint32,uint32)))": {
        "params": {
          "attr": "",
          "to": ""
        }
      }
    },
    "version": 1
  },
  "userdoc": {
    "kind": "user",
    "methods": {
      "equip(address,uint32,uint256[],uint256[])": {
        "notice": ""
      },
      "increase(uint256,uint256[])": {
        "notice": ""
      },
      "mint(address,(uint32,uint8,uint8,uint8,bool,bool,uint256,uint32,uint32,uint32,uint32,uint32,uint32,(uint32,uint32,uint32,uint32,uint32,uint32,uint32)))": {
        "notice": ""
      },
      "name()": {
        "notice": "A descriptive name for a collection of NFTs in this contract"
      },
      "symbol()": {
        "notice": "An abbreviated name for NFTs in this contract"
      }
    },
    "version": 1
  }
}