{
  "contractName": "ERC20",
  "abi": [
    {
      "inputs": [
        {
          "internalType": "string",
          "name": "_name",
          "type": "string"
        },
        {
          "internalType": "string",
          "name": "_symbol",
          "type": "string"
        },
        {
          "internalType": "uint8",
          "name": "_decimals",
          "type": "uint8"
        },
        {
          "internalType": "uint256",
          "name": "_maxSupply",
          "type": "uint256"
        }
      ],
      "stateMutability": "nonpayable",
      "type": "constructor"
    },
    {
      "anonymous": false,
      "inputs": [
        {
          "indexed": true,
          "internalType": "address",
          "name": "owner",
          "type": "address"
        },
        {
          "indexed": true,
          "internalType": "address",
          "name": "spender",
          "type": "address"
        },
        {
          "indexed": false,
          "internalType": "uint256",
          "name": "value",
          "type": "uint256"
        }
      ],
      "name": "Approval",
      "type": "event"
    },
    {
      "anonymous": false,
      "inputs": [
        {
          "indexed": true,
          "internalType": "address",
          "name": "from",
          "type": "address"
        },
        {
          "indexed": true,
          "internalType": "address",
          "name": "to",
          "type": "address"
        },
        {
          "indexed": false,
          "internalType": "uint256",
          "name": "value",
          "type": "uint256"
        }
      ],
      "name": "Transfer",
      "type": "event"
    },
    {
      "inputs": [
        {
          "internalType": "address",
          "name": "",
          "type": "address"
        },
        {
          "internalType": "address",
          "name": "",
          "type": "address"
        }
      ],
      "name": "allowance",
      "outputs": [
        {
          "internalType": "uint256",
          "name": "",
          "type": "uint256"
        }
      ],
      "stateMutability": "view",
      "type": "function"
    },
    {
      "inputs": [
        {
          "internalType": "address",
          "name": "",
          "type": "address"
        }
      ],
      "name": "balanceOf",
      "outputs": [
        {
          "internalType": "uint256",
          "name": "",
          "type": "uint256"
        }
      ],
      "stateMutability": "view",
      "type": "function"
    },
    {
      "inputs": [],
      "name": "contractOwner",
      "outputs": [
        {
          "internalType": "address",
          "name": "",
          "type": "address"
        }
      ],
      "stateMutability": "view",
      "type": "function"
    },
    {
      "inputs": [],
      "name": "decimals",
      "outputs": [
        {
          "internalType": "uint8",
          "name": "",
          "type": "uint8"
        }
      ],
      "stateMutability": "view",
      "type": "function"
    },
    {
      "inputs": [],
      "name": "name",
      "outputs": [
        {
          "internalType": "string",
          "name": "",
          "type": "string"
        }
      ],
      "stateMutability": "view",
      "type": "function"
    },
    {
      "inputs": [],
      "name": "remainedSupply",
      "outputs": [
        {
          "internalType": "uint256",
          "name": "",
          "type": "uint256"
        }
      ],
      "stateMutability": "view",
      "type": "function"
    },
    {
      "inputs": [],
      "name": "symbol",
      "outputs": [
        {
          "internalType": "string",
          "name": "",
          "type": "string"
        }
      ],
      "stateMutability": "view",
      "type": "function"
    },
    {
      "inputs": [],
      "name": "totalSupply",
      "outputs": [
        {
          "internalType": "uint256",
          "name": "",
          "type": "uint256"
        }
      ],
      "stateMutability": "view",
      "type": "function"
    },
    {
      "inputs": [
        {
          "internalType": "address",
          "name": "from",
          "type": "address"
        },
        {
          "internalType": "uint256",
          "name": "amount",
          "type": "uint256"
        }
      ],
      "name": "burnFrom",
      "outputs": [],
      "stateMutability": "nonpayable",
      "type": "function"
    },
    {
      "inputs": [
        {
          "internalType": "address",
          "name": "to",
          "type": "address"
        },
        {
          "internalType": "uint256",
          "name": "amount",
          "type": "uint256"
        }
      ],
      "name": "transfer",
      "outputs": [
        {
          "internalType": "bool",
          "name": "",
          "type": "bool"
        }
      ],
      "stateMutability": "nonpayable",
      "type": "function"
    },
    {
      "inputs": [
        {
          "internalType": "address",
          "name": "from",
          "type": "address"
        },
        {
          "internalType": "address",
          "name": "to",
          "type": "address"
        },
        {
          "internalType": "uint256",
          "name": "amount",
          "type": "uint256"
        }
      ],
      "name": "transferFrom",
      "outputs": [
        {
          "internalType": "bool",
          "name": "",
          "type": "bool"
        }
      ],
      "stateMutability": "nonpayable",
      "type": "function"
    },
    {
      "inputs": [
        {
          "internalType": "address",
          "name": "spender",
          "type": "address"
        },
        {
          "internalType": "uint256",
          "name": "amount",
          "type": "uint256"
        }
      ],
      "name": "approve",
      "outputs": [
        {
          "internalType": "bool",
          "name": "",
          "type": "bool"
        }
      ],
      "stateMutability": "nonpayable",
      "type": "function"
    }
  ],
  "bytecode": "0x6080604052600080546001600160a01b031916331790553480156200002357600080fd5b5060405162000bad38038062000bad8339810160408190526200004691620001e4565b83516200005b90600190602087019062000093565b5082516200007190600290602086019062000093565b506003805460ff191660ff939093169290921790915560055550620002be9050565b828054620000a1906200026b565b90600052602060002090601f016020900481019282620000c5576000855562000110565b82601f10620000e057805160ff191683800117855562000110565b8280016001018555821562000110579182015b8281111562000110578251825591602001919060010190620000f3565b506200011e92915062000122565b5090565b5b808211156200011e576000815560010162000123565b600082601f8301126200014a578081fd5b81516001600160401b0380821115620001675762000167620002a8565b6040516020601f8401601f19168201810183811183821017156200018f576200018f620002a8565b6040528382528584018101871015620001a6578485fd5b8492505b83831015620001c95785830181015182840182015291820191620001aa565b83831115620001da57848185840101525b5095945050505050565b60008060008060808587031215620001fa578384fd5b84516001600160401b038082111562000211578586fd5b6200021f8883890162000139565b9550602087015191508082111562000235578485fd5b50620002448782880162000139565b935050604085015160ff811681146200025b578283fd5b6060959095015193969295505050565b6002810460018216806200028057607f821691505b60208210811415620002a257634e487b7160e01b600052602260045260246000fd5b50919050565b634e487b7160e01b600052604160045260246000fd5b6108df80620002ce6000396000f3fe608060405234801561001057600080fd5b50600436106100b45760003560e01c806379cc67901161007157806379cc67901461014757806395d89b411461015c578063a9059cbb14610164578063ce606ee014610177578063dd62ed3e1461018c578063e3b38aa51461019f576100b4565b806306fdde03146100b9578063095ea7b3146100d757806318160ddd146100f757806323b872dd1461010c578063313ce5671461011f57806370a0823114610134575b600080fd5b6100c16101a7565b6040516100ce919061073f565b60405180910390f35b6100ea6100e53660046106f7565b610235565b6040516100ce9190610734565b6100ff6102d1565b6040516100ce9190610812565b6100ea61011a3660046106bc565b6102d7565b610127610368565b6040516100ce919061081b565b6100ff610142366004610669565b610371565b61015a6101553660046106f7565b610383565b005b6100c161040d565b6100ea6101723660046106f7565b61041a565b61017f610430565b6040516100ce9190610720565b6100ff61019a36600461068a565b61043f565b6100ff61045c565b600180546101b490610858565b80601f01602080910402602001604051908101604052809291908181526020018280546101e090610858565b801561022d5780601f106102025761010080835404028352916020019161022d565b820191906000526020600020905b81548152906001019060200180831161021057829003601f168201915b505050505081565b60006001600160a01b0383166102665760405162461bcd60e51b815260040161025d906107be565b60405180910390fd5b3360008181526007602090815260408083206001600160a01b03881680855292529182902085905590519091907f8c5be1e5ebec7d5bd14f71427d1e84f3dd0314c0f7b2291e5b200ac8c7c3b925906102c0908690610812565b60405180910390a350600192915050565b60045481565b6001600160a01b038316600090815260076020908152604080832033845290915281205482111561031a5760405162461bcd60e51b815260040161025d906107e4565b6001600160a01b03841660009081526007602090815260408083203384529091528120805484929061034d908490610841565b9091555061035e9050848484610462565b5060019392505050565b60035460ff1681565b60066020526000908152604090205481565b6001600160a01b03821660009081526007602090815260408083203384529091529020548111156103c65760405162461bcd60e51b815260040161025d906107e4565b6001600160a01b0382166000908152600760209081526040808320338452909152812080548392906103f9908490610841565b909155506104099050828261056c565b5050565b600280546101b490610858565b6000610427338484610462565b50600192915050565b6000546001600160a01b031681565b600760209081526000928352604080842090915290825290205481565b60055481565b6001600160a01b0382166104885760405162461bcd60e51b815260040161025d906107be565b6001600160a01b0383166000908152600660205260409020548111156104c05760405162461bcd60e51b815260040161025d90610792565b6001600160a01b038316600090815260066020526040812080548392906104e8908490610841565b90915550506001600160a01b03821660009081526006602052604081208054839290610515908490610829565b92505081905550816001600160a01b0316836001600160a01b03167fddf252ad1be2c89b69c2b068fc378daa952ba7f163c4a11628f55a4df523b3ef8360405161055f9190610812565b60405180910390a3505050565b6001600160a01b0382166000908152600660205260409020548111156105a45760405162461bcd60e51b815260040161025d90610792565b6001600160a01b038216600090815260066020526040812080548392906105cc908490610841565b9250508190555080600460008282546105e59190610841565b9250508190555080600560008282546105fe9190610829565b90915550506040516000906001600160a01b038416907fddf252ad1be2c89b69c2b068fc378daa952ba7f163c4a11628f55a4df523b3ef90610641908590610812565b60405180910390a35050565b80356001600160a01b038116811461066457600080fd5b919050565b60006020828403121561067a578081fd5b6106838261064d565b9392505050565b6000806040838503121561069c578081fd5b6106a58361064d565b91506106b36020840161064d565b90509250929050565b6000806000606084860312156106d0578081fd5b6106d98461064d565b92506106e76020850161064d565b9150604084013590509250925092565b60008060408385031215610709578182fd5b6107128361064d565b946020939093013593505050565b6001600160a01b0391909116815260200190565b901515815260200190565b6000602080835283518082850152825b8181101561076b5785810183015185820160400152820161074f565b8181111561077c5783604083870101525b50601f01601f1916929092016040019392505050565b6020808252601290820152710c4c2d8c2dcc6ca40dcdee840cadcdeeaced60731b604082015260600190565b6020808252600c908201526b7a65726f206164647265737360a01b604082015260600190565b6020808252601490820152730c2d8d8deeec2dcc6ca40dcdee840cadcdeeaced60631b604082015260600190565b90815260200190565b60ff91909116815260200190565b6000821982111561083c5761083c610893565b500190565b60008282101561085357610853610893565b500390565b60028104600182168061086c57607f821691505b6020821081141561088d57634e487b7160e01b600052602260045260246000fd5b50919050565b634e487b7160e01b600052601160045260246000fdfea2646970667358221220d3db4d52ee85fb2e1858758aa80ce17d08036e945937e02cd9a26e6a98c70eb664736f6c63430008000033",
  "immutableReferences": {},
  "source": "pragma solidity ^0.8.0;\n\n// SPDX-License-Identifier: Apache-2.0\n\nimport \"../include/IERC20.sol\";\nimport \"./ContractOwner.sol\";\n\ncontract ERC20 is IERC20, ContractOwner {\n    string public override name;\n    string public override symbol;\n    uint8 public override decimals;\n\n    uint256 public override totalSupply;\n    uint256 public remainedSupply;\n\n    mapping(address => uint256) public override balanceOf;\n    mapping(address => mapping(address => uint256)) public override allowance;\n\n    constructor(\n        string memory _name,\n        string memory _symbol,\n        uint8 _decimals,\n        uint256 _maxSupply\n    ) {\n        name = _name;\n        symbol = _symbol;\n        decimals = _decimals;\n        remainedSupply = _maxSupply;\n    }\n\n    function _burn(address from, uint256 amount) internal {\n        require(balanceOf[from] >= amount, \"balance not enough\");\n\n        balanceOf[from] -= amount;\n        totalSupply -= amount;\n        remainedSupply += amount;\n\n        emit Transfer(from, address(0), amount);\n    }\n\n    function burnFrom(address from, uint256 amount) public {\n        require(allowance[from][msg.sender] >= amount, \"allowance not enough\");\n\n        allowance[from][msg.sender] -= amount;\n        _burn(from, amount);\n    }\n\n    function _transfer(\n        address from,\n        address to,\n        uint256 amount\n    ) private {\n        require(to != address(0), \"zero address\");\n        require(balanceOf[from] >= amount, \"balance not enough\");\n\n        balanceOf[from] -= amount;\n        balanceOf[to] += amount;\n\n        emit Transfer(from, to, amount);\n    }\n\n    function transfer(address to, uint256 amount) public override returns (bool) {\n        _transfer(msg.sender, to, amount);\n        return true;\n    }\n\n    function transferFrom(\n        address from,\n        address to,\n        uint256 amount\n    ) public override returns (bool) {\n        require(allowance[from][msg.sender] >= amount, \"allowance not enough\");\n\n        allowance[from][msg.sender] -= amount;\n        _transfer(from, to, amount);\n\n        return true;\n    }\n\n    function approve(address spender, uint256 amount) public override returns (bool) {\n        require(spender != address(0), \"zero address\");\n\n        allowance[msg.sender][spender] = amount;\n        emit Approval(msg.sender, spender, amount);\n\n        return true;\n    }\n}\n",
  "sourcePath": "/Users/necklace/work/Legend/Legend/contracts/lib/ERC20.sol",
  "compiler": {
    "name": "solc",
    "version": "0.8.0+commit.c7dfd78e.Darwin.appleclang"
  },
  "schemaVersion": "3.4.3",
  "updatedAt": "2022-03-25T16:36:16.105Z",
  "devdoc": {
    "kind": "dev",
    "methods": {},
    "version": 1
  },
  "userdoc": {
    "kind": "user",
    "methods": {},
    "version": 1
  }
}