{
  "contractName": "Fragment",
  "abi": [
    {
      "inputs": [],
      "stateMutability": "nonpayable",
      "type": "constructor"
    },
    {
      "anonymous": false,
      "inputs": [
        {
          "indexed": true,
          "internalType": "address",
          "name": "_owner",
          "type": "address"
        },
        {
          "indexed": true,
          "internalType": "address",
          "name": "_operator",
          "type": "address"
        },
        {
          "indexed": false,
          "internalType": "bool",
          "name": "_approved",
          "type": "bool"
        }
      ],
      "name": "ApprovalForAll",
      "type": "event"
    },
    {
      "anonymous": false,
      "inputs": [
        {
          "indexed": true,
          "internalType": "address",
          "name": "_operator",
          "type": "address"
        },
        {
          "indexed": true,
          "internalType": "address",
          "name": "_from",
          "type": "address"
        },
        {
          "indexed": true,
          "internalType": "address",
          "name": "_to",
          "type": "address"
        },
        {
          "indexed": false,
          "internalType": "uint256[]",
          "name": "_ids",
          "type": "uint256[]"
        },
        {
          "indexed": false,
          "internalType": "uint256[]",
          "name": "_values",
          "type": "uint256[]"
        }
      ],
      "name": "TransferBatch",
      "type": "event"
    },
    {
      "anonymous": false,
      "inputs": [
        {
          "indexed": true,
          "internalType": "address",
          "name": "_operator",
          "type": "address"
        },
        {
          "indexed": true,
          "internalType": "address",
          "name": "_from",
          "type": "address"
        },
        {
          "indexed": true,
          "internalType": "address",
          "name": "_to",
          "type": "address"
        },
        {
          "indexed": false,
          "internalType": "uint256",
          "name": "_id",
          "type": "uint256"
        },
        {
          "indexed": false,
          "internalType": "uint256",
          "name": "_value",
          "type": "uint256"
        }
      ],
      "name": "TransferSingle",
      "type": "event"
    },
    {
      "anonymous": false,
      "inputs": [
        {
          "indexed": false,
          "internalType": "string",
          "name": "_value",
          "type": "string"
        },
        {
          "indexed": true,
          "internalType": "uint256",
          "name": "_id",
          "type": "uint256"
        }
      ],
      "name": "URI",
      "type": "event"
    },
    {
      "inputs": [
        {
          "internalType": "address",
          "name": "_owner",
          "type": "address"
        },
        {
          "internalType": "uint256",
          "name": "_id",
          "type": "uint256"
        }
      ],
      "name": "balanceOf",
      "outputs": [
        {
          "internalType": "uint256",
          "name": "",
          "type": "uint256"
        }
      ],
      "stateMutability": "view",
      "type": "function"
    },
    {
      "inputs": [
        {
          "internalType": "address[]",
          "name": "_owners",
          "type": "address[]"
        },
        {
          "internalType": "uint256[]",
          "name": "_ids",
          "type": "uint256[]"
        }
      ],
      "name": "balanceOfBatch",
      "outputs": [
        {
          "internalType": "uint256[]",
          "name": "",
          "type": "uint256[]"
        }
      ],
      "stateMutability": "view",
      "type": "function"
    },
    {
      "inputs": [],
      "name": "contractOwner",
      "outputs": [
        {
          "internalType": "address",
          "name": "",
          "type": "address"
        }
      ],
      "stateMutability": "view",
      "type": "function"
    },
    {
      "inputs": [
        {
          "internalType": "string",
          "name": "key",
          "type": "string"
        }
      ],
      "name": "getAddress",
      "outputs": [
        {
          "internalType": "address",
          "name": "",
          "type": "address"
        }
      ],
      "stateMutability": "view",
      "type": "function"
    },
    {
      "inputs": [
        {
          "internalType": "address",
          "name": "_owner",
          "type": "address"
        },
        {
          "internalType": "address",
          "name": "_operator",
          "type": "address"
        }
      ],
      "name": "isApprovedForAll",
      "outputs": [
        {
          "internalType": "bool",
          "name": "",
          "type": "bool"
        }
      ],
      "stateMutability": "view",
      "type": "function"
    },
    {
      "inputs": [
        {
          "internalType": "uint256",
          "name": "",
          "type": "uint256"
        }
      ],
      "name": "lockTokens",
      "outputs": [
        {
          "internalType": "uint256",
          "name": "",
          "type": "uint256"
        }
      ],
      "stateMutability": "view",
      "type": "function"
    },
    {
      "inputs": [],
      "name": "manager",
      "outputs": [
        {
          "internalType": "contract Manager",
          "name": "",
          "type": "address"
        }
      ],
      "stateMutability": "view",
      "type": "function"
    },
    {
      "inputs": [
        {
          "internalType": "address",
          "name": "_operator",
          "type": "address"
        },
        {
          "internalType": "bool",
          "name": "_approved",
          "type": "bool"
        }
      ],
      "name": "setApprovalForAll",
      "outputs": [],
      "stateMutability": "nonpayable",
      "type": "function"
    },
    {
      "inputs": [
        {
          "internalType": "address",
          "name": "addr",
          "type": "address"
        }
      ],
      "name": "setManager",
      "outputs": [],
      "stateMutability": "nonpayable",
      "type": "function"
    },
    {
      "inputs": [
        {
          "internalType": "bytes4",
          "name": "_interfaceId",
          "type": "bytes4"
        }
      ],
      "name": "supportsInterface",
      "outputs": [
        {
          "internalType": "bool",
          "name": "",
          "type": "bool"
        }
      ],
      "stateMutability": "pure",
      "type": "function"
    },
    {
      "inputs": [
        {
          "internalType": "uint256",
          "name": "",
          "type": "uint256"
        }
      ],
      "name": "totalSupply",
      "outputs": [
        {
          "internalType": "uint256",
          "name": "",
          "type": "uint256"
        }
      ],
      "stateMutability": "view",
      "type": "function"
    },
    {
      "inputs": [
        {
          "internalType": "uint256",
          "name": "_id",
          "type": "uint256"
        }
      ],
      "name": "uri",
      "outputs": [
        {
          "internalType": "string",
          "name": "",
          "type": "string"
        }
      ],
      "stateMutability": "view",
      "type": "function"
    },
    {
      "inputs": [
        {
          "internalType": "uint256",
          "name": "tokenId",
          "type": "uint256"
        },
        {
          "internalType": "address",
          "name": "owner",
          "type": "address"
        }
      ],
      "name": "getInfo",
      "outputs": [
        {
          "internalType": "uint256",
          "name": "tokens",
          "type": "uint256"
        },
        {
          "internalType": "uint256",
          "name": "balance",
          "type": "uint256"
        }
      ],
      "stateMutability": "view",
      "type": "function"
    },
    {
      "inputs": [
        {
          "internalType": "address",
          "name": "owner",
          "type": "address"
        },
        {
          "internalType": "uint256",
          "name": "startIndex",
          "type": "uint256"
        },
        {
          "internalType": "uint256",
          "name": "endIndex",
          "type": "uint256"
        }
      ],
      "name": "tokensOf",
      "outputs": [
        {
          "internalType": "uint256[]",
          "name": "",
          "type": "uint256[]"
        }
      ],
      "stateMutability": "view",
      "type": "function"
    },
    {
      "inputs": [
        {
          "internalType": "address",
          "name": "to",
          "type": "address"
        },
        {
          "internalType": "uint256",
          "name": "quantity",
          "type": "uint256"
        },
        {
          "internalType": "bytes",
          "name": "data",
          "type": "bytes"
        }
      ],
      "name": "mint",
      "outputs": [],
      "stateMutability": "nonpayable",
      "type": "function"
    },
    {
      "inputs": [
        {
          "internalType": "address",
          "name": "to",
          "type": "address"
        },
        {
          "internalType": "uint256",
          "name": "tokenId",
          "type": "uint256"
        },
        {
          "internalType": "uint256",
          "name": "amount",
          "type": "uint256"
        },
        {
          "internalType": "uint256",
          "name": "perTokens",
          "type": "uint256"
        }
      ],
      "name": "mint",
      "outputs": [],
      "stateMutability": "nonpayable",
      "type": "function"
    },
    {
      "inputs": [
        {
          "internalType": "address",
          "name": "from",
          "type": "address"
        },
        {
          "internalType": "uint256",
          "name": "tokenId",
          "type": "uint256"
        },
        {
          "internalType": "uint256",
          "name": "amount",
          "type": "uint256"
        }
      ],
      "name": "burn",
      "outputs": [],
      "stateMutability": "nonpayable",
      "type": "function"
    },
    {
      "inputs": [
        {
          "internalType": "address",
          "name": "_from",
          "type": "address"
        },
        {
          "internalType": "address",
          "name": "_to",
          "type": "address"
        },
        {
          "internalType": "uint256",
          "name": "_id",
          "type": "uint256"
        },
        {
          "internalType": "uint256",
          "name": "_value",
          "type": "uint256"
        },
        {
          "internalType": "bytes",
          "name": "_data",
          "type": "bytes"
        }
      ],
      "name": "safeTransferFrom",
      "outputs": [],
      "stateMutability": "nonpayable",
      "type": "function"
    },
    {
      "inputs": [
        {
          "internalType": "address",
          "name": "_from",
          "type": "address"
        },
        {
          "internalType": "address",
          "name": "_to",
          "type": "address"
        },
        {
          "internalType": "uint256[]",
          "name": "_ids",
          "type": "uint256[]"
        },
        {
          "internalType": "uint256[]",
          "name": "_values",
          "type": "uint256[]"
        },
        {
          "internalType": "bytes",
          "name": "_data",
          "type": "bytes"
        }
      ],
      "name": "safeBatchTransferFrom",
      "outputs": [],
      "stateMutability": "nonpayable",
      "type": "function"
    }
  ],
  "bytecode": "0x60a060408190526000608081905262000019918162000071565b50600380546001600160a01b031916331790553480156200003957600080fd5b50604051806060016040528060268152602001620026036026913980516200006a9160009160209091019062000071565b5062000154565b8280546200007f9062000117565b90600052602060002090601f016020900481019282620000a35760008555620000ee565b82601f10620000be57805160ff1916838001178555620000ee565b82800160010185558215620000ee579182015b82811115620000ee578251825591602001919060010190620000d1565b50620000fc92915062000100565b5090565b5b80821115620000fc576000815560010162000101565b6002810460018216806200012c57607f821691505b602082108114156200014e57634e487b7160e01b600052602260045260246000fd5b50919050565b61249f80620001646000396000f3fe608060405234801561001057600080fd5b506004361061011f5760003560e01c806394d008ef116100ad578063ce606ee011610071578063ce606ee01461027d578063d0ebdbe714610285578063e985e9c514610298578063f242432a146102ab578063f5298aca146102be5761011f565b806394d008ef1461021e578063a22cb46514610231578063a647e8ec14610244578063bd85b03914610257578063bf40fac11461026a5761011f565b806323185dc9116100f457806323185dc9146101ae5780632eb2c2d6146101ce578063481c6a75146101e35780634e1273f4146101f85780636e27d8891461020b5761011f565b8062d5397814610124578062fdd58e1461014e57806301ffc9a71461016e5780630e89341c1461018e575b600080fd5b610137610132366004611c0b565b6102d1565b6040516101459291906122ff565b60405180910390f35b61016161015c3660046119ae565b6102f4565b60405161014591906122f6565b61018161017c366004611b1a565b61031e565b6040516101459190611ec1565b6101a161019c366004611bf3565b610365565b6040516101459190611ecc565b6101c16101bc366004611a33565b61039b565b6040516101459190611eae565b6101e16101dc36600461184c565b610535565b005b6101eb6105ab565b6040516101459190611da4565b6101c1610206366004611aa1565b6105ba565b610161610219366004611bf3565b6106fe565b6101e161022c3660046119d9565b610710565b6101e161023f366004611981565b610974565b6101e1610252366004611a67565b6109e3565b610161610265366004611bf3565b610b31565b6101eb610278366004611b52565b610b43565b6101eb610bc5565b6101e16102933660046117dc565b610bd4565b6101816102a6366004611814565b610c46565b6101e16102b9366004611907565b610c74565b6101e16102cc366004611a33565b610c9e565b600082815260056020526040812054906102eb83856102f4565b90509250929050565b60008181526001602090815260408083206001600160a01b03861684529091529020545b92915050565b60006001600160e01b031982166301ffc9a760e01b148061034f57506001600160e01b03198216636cdb3d1360e11b145b1561035c57506001610360565b5060005b919050565b606060008061037384610d7d565b604051602001610384929190611cf6565b60408051808303601f190181529190529392505050565b60606001600160a01b0384166103cc5760405162461bcd60e51b81526004016103c390611f0b565b60405180910390fd5b6001600160a01b03841660009081526007602052604090208261043d5780546040805160208084028201810190925282815291839183018282801561043057602002820191906000526020600020905b81548152602001906001019080831161041c575b505050505091505061052e565b82841061045c5760405162461bcd60e51b81526004016103c390612243565b60006104688585612345565b67ffffffffffffffff81111561048e57634e487b7160e01b600052604160045260246000fd5b6040519080825280602002602001820160405280156104b7578160200160208202803683370190505b509050845b848114610529578281815481106104e357634e487b7160e01b600052603260045260246000fd5b906000526020600020015482828151811061050e57634e487b7160e01b600052603260045260246000fd5b60209081029190910101526105228161239f565b90506104bc565b509150505b9392505050565b6105458888888888888888610d8a565b60005b858110156105a057600087878381811061057257634e487b7160e01b600052603260045260246000fd5b9050602002013590506105858a82610fd5565b61058f818a611149565b506105998161239f565b9050610548565b505050505050505050565b6004546001600160a01b031681565b60608382146105c857600080fd5b60008467ffffffffffffffff8111156105f157634e487b7160e01b600052604160045260246000fd5b60405190808252806020026020018201604052801561061a578160200160208202803683370190505b50905060005b858110156106f4576001600086868481811061064c57634e487b7160e01b600052603260045260246000fd5b905060200201358152602001908152602001600020600088888481811061068357634e487b7160e01b600052603260045260246000fd5b905060200201602081019061069891906117dc565b6001600160a01b03166001600160a01b03168152602001908152602001600020548282815181106106d957634e487b7160e01b600052603260045260246000fd5b60209081029190910101526106ed8161239f565b9050610620565b5095945050505050565b60056020526000908152604090205481565b604080518082018252600581526473746f726560d81b6020820152600480549251637af32e3960e11b815291926001600160a01b03169163f5e65c729161075b913391869101611e5b565b60206040518083038186803b15801561077357600080fd5b505afa158015610787573d6000803e3d6000fd5b505050506040513d601f19601f820116820180604052508101906107ab9190611afe565b6107c75760405162461bcd60e51b81526004016103c390611fd3565b602982146107e75760405162461bcd60e51b81526004016103c390611f68565b600061082884848080601f016020809104026020016040519081016040528093929190818152602001838380828437600092018290525092506111d6915050565b9050600061086e85858080601f01602080910402602001604051908101604052809392919081815260200183838082843760009201919091525060019250611236915050565b905060006108b486868080601f01602080910402602001604051908101604052809392919081815260200183838082843760009201919091525060099250611296915050565b6001600160f81b031960f885901b1667ffffffffffffffff60b81b60b885901b1617600081815260056020908152604080832085905560069091528120805493945091928a929190610907908490612319565b90915550610918905089828a6112f6565b610922818a611149565b886001600160a01b031660006001600160a01b031660006001600160a01b031660008051602061244a833981519152848c6040516109619291906122ff565b60405180910390a4505050505050505050565b3360008181526002602090815260408083206001600160a01b038716808552925291829020805460ff191685151517905590519091907f17307eab39ab6107e8899845ad3d59bd9653f200f220920489ca2b5937696c31906109d7908590611ec1565b60405180910390a35050565b60408051808201825260088152677a6f6e654d696e6560c01b6020820152600480549251637af32e3960e11b815291926001600160a01b03169163f5e65c7291610a31913391869101611e5b565b60206040518083038186803b158015610a4957600080fd5b505afa158015610a5d573d6000803e3d6000fd5b505050506040513d601f19601f82011682018060405250810190610a819190611afe565b610a9d5760405162461bcd60e51b81526004016103c390611fd3565b6000848152600560209081526040808320859055600690915281208054859290610ac8908490612319565b90915550610ad990508585856112f6565b610ae38486611149565b846001600160a01b031660006001600160a01b031660006001600160a01b031660008051602061244a8339815191528787604051610b229291906122ff565b60405180910390a45050505050565b60066020526000908152604090205481565b600480546040516334abd05960e11b81526000926001600160a01b0390921691636957a0b291610b7591869101611ecc565b60206040518083038186803b158015610b8d57600080fd5b505afa158015610ba1573d6000803e3d6000fd5b505050506040513d601f19601f8201168201806040525081019061031891906117f8565b6003546001600160a01b031681565b6003546001600160a01b03163314610bfe5760405162461bcd60e51b81526004016103c3906121e1565b6001600160a01b038116610c245760405162461bcd60e51b81526004016103c3906120d1565b600480546001600160a01b0319166001600160a01b0392909216919091179055565b6001600160a01b03918216600090815260026020908152604080832093909416825291909152205460ff1690565b610c82868686868686611332565b610c8c8685610fd5565b610c968486611149565b505050505050565b6001600160a01b038316331480610cdd57506001600160a01b038316600090815260026020908152604080832033845290915290205460ff1615156001145b610cf95760405162461bcd60e51b81526004016103c3906120f7565b60008281526006602052604081208054839290610d17908490612345565b90915550610d289050838383611469565b610d328383610fd5565b60006001600160a01b0316836001600160a01b0316336001600160a01b031660008051602061244a8339815191528585604051610d709291906122ff565b60405180910390a4505050565b606061031882600a61149b565b6001600160a01b038716610db05760405162461bcd60e51b81526004016103c390611f8e565b848314610dcf5760405162461bcd60e51b81526004016103c390612198565b6001600160a01b038816331480610e0e57506001600160a01b038816600090815260026020908152604080832033845290915290205460ff1615156001145b610e2a5760405162461bcd60e51b81526004016103c390611ff6565b60005b85811015610eb4576000878783818110610e5757634e487b7160e01b600052603260045260246000fd5b9050602002013590506000868684818110610e8257634e487b7160e01b600052603260045260246000fd5b905060200201359050610e968b8383611469565b610ea18a83836112f6565b505080610ead9061239f565b9050610e2d565b50866001600160a01b0316886001600160a01b0316336001600160a01b03167f4a39dc06d4c0dbc64b70af90fd698a233a518aa5d07e595d983b8c0526c8f7fb89898989604051610f089493929190611e87565b60405180910390a4610f22876001600160a01b03166115b5565b15610fcb57610fcb33898989898080602002602001604051908101604052809392919081815260200183836020028082843760009201919091525050604080516020808d0282810182019093528c82529093508c92508b91829185019084908082843760009201919091525050604080516020601f8c018190048102820181019092528a815292508a91508990819084018382808284376000920191909152506115bb92505050565b5050505050505050565b60008181526001602090815260408083206001600160a01b0386168452909152902054611145576001600160a01b0382166000908152600760205260408120815b8154811461106a578382828154811061103f57634e487b7160e01b600052603260045260246000fd5b906000526020600020015414156110585780925061106a565b806110628161239f565b915050611016565b5080546001101561112157805460009061108690600190612345565b905060008282815481106110aa57634e487b7160e01b600052603260045260246000fd5b90600052602060002001549050808385815481106110d857634e487b7160e01b600052603260045260246000fd5b90600052602060002001819055508280548061110457634e487b7160e01b600052603160045260246000fd5b600190038181906000526020600020016000905590555050611142565b6001600160a01b038416600090815260076020526040812061114291611719565b50505b5050565b6001600160a01b038116600090815260076020526040812090805b825481146111b5578483828154811061118d57634e487b7160e01b600052603260045260246000fd5b906000526020600020015414156111a357600191505b806111ad8161239f565b915050611164565b50806111425781546001810183556000838152602090200184905550505050565b6000816111e4816001612319565b10156112025760405162461bcd60e51b81526004016103c390612141565b61120d826001612319565b8351101561122d5760405162461bcd60e51b81526004016103c39061216b565b50016001015190565b600081611244816008612319565b10156112625760405162461bcd60e51b81526004016103c390612218565b61126d826008612319565b8351101561128d5760405162461bcd60e51b81526004016103c390611f3a565b50016008015190565b6000816112a4816020612319565b10156112c25760405162461bcd60e51b81526004016103c390611edf565b6112cd826020612319565b835110156112ed5760405162461bcd60e51b81526004016103c390612045565b50016020015190565b60008281526001602090815260408083206001600160a01b038716845290915281208054839290611328908490612319565b9091555050505050565b6001600160a01b0385166113585760405162461bcd60e51b81526004016103c3906122c7565b6001600160a01b03861633148061139757506001600160a01b038616600090815260026020908152604080832033845290915290205460ff1615156001145b6113b35760405162461bcd60e51b81526004016103c390611ff6565b6113be868585611469565b6113c98585856112f6565b846001600160a01b0316866001600160a01b0316336001600160a01b031660008051602061244a83398151915287876040516114069291906122ff565b60405180910390a4611420856001600160a01b03166115b5565b15610c9657610c96338787878787878080601f01602080910402602001604051908101604052809392919081815260200183838082843760009201919091525061166a92505050565b60008281526001602090815260408083206001600160a01b038716845290915281208054839290611328908490612345565b6060826114c057506040805180820190915260018152600360fc1b6020820152610318565b8260005b81156114e957806114d48161239f565b91506114e290508483612331565b91506114c4565b60008167ffffffffffffffff81111561151257634e487b7160e01b600052604160045260246000fd5b6040519080825280601f01601f19166020018201604052801561153c576020820181803683370190505b508693509050815b83156106f45761155486856123ba565b61155f906030612319565b60f81b8261156c83612388565b9250828151811061158d57634e487b7160e01b600052603260045260246000fd5b60200101906001600160f81b031916908160001a9053506115ae8685612331565b9350611544565b3b151590565b60405163bc197c8160e01b808252906001600160a01b0386169063bc197c81906115f1908a908a90899089908990600401611db8565b602060405180830381600087803b15801561160b57600080fd5b505af115801561161f573d6000803e3d6000fd5b505050506040513d601f19601f820116820180604052508101906116439190611b36565b6001600160e01b03191614610c965760405162461bcd60e51b81526004016103c390612074565b60405163f23a6e6160e01b808252906001600160a01b0386169063f23a6e61906116a0908a908a90899089908990600401611e16565b602060405180830381600087803b1580156116ba57600080fd5b505af11580156116ce573d6000803e3d6000fd5b505050506040513d601f19601f820116820180604052508101906116f29190611b36565b6001600160e01b03191614610c965760405162461bcd60e51b81526004016103c39061226a565b5080546000825590600052602060002090810190611737919061173a565b50565b5b8082111561174f576000815560010161173b565b5090565b60008083601f840112611764578081fd5b50813567ffffffffffffffff81111561177b578182fd5b602083019150836020808302850101111561179557600080fd5b9250929050565b60008083601f8401126117ad578182fd5b50813567ffffffffffffffff8111156117c4578182fd5b60208301915083602082850101111561179557600080fd5b6000602082840312156117ed578081fd5b813561052e81612410565b600060208284031215611809578081fd5b815161052e81612410565b60008060408385031215611826578081fd5b823561183181612410565b9150602083013561184181612410565b809150509250929050565b60008060008060008060008060a0898b031215611867578384fd5b883561187281612410565b9750602089013561188281612410565b9650604089013567ffffffffffffffff8082111561189e578586fd5b6118aa8c838d01611753565b909850965060608b01359150808211156118c2578586fd5b6118ce8c838d01611753565b909650945060808b01359150808211156118e6578384fd5b506118f38b828c0161179c565b999c989b5096995094979396929594505050565b60008060008060008060a0878903121561191f578182fd5b863561192a81612410565b9550602087013561193a81612410565b94506040870135935060608701359250608087013567ffffffffffffffff811115611963578283fd5b61196f89828a0161179c565b979a9699509497509295939492505050565b60008060408385031215611993578182fd5b823561199e81612410565b9150602083013561184181612425565b600080604083850312156119c0578182fd5b82356119cb81612410565b946020939093013593505050565b600080600080606085870312156119ee578384fd5b84356119f981612410565b935060208501359250604085013567ffffffffffffffff811115611a1b578283fd5b611a278782880161179c565b95989497509550505050565b600080600060608486031215611a47578283fd5b8335611a5281612410565b95602085013595506040909401359392505050565b60008060008060808587031215611a7c578182fd5b8435611a8781612410565b966020860135965060408601359560600135945092505050565b60008060008060408587031215611ab6578182fd5b843567ffffffffffffffff80821115611acd578384fd5b611ad988838901611753565b90965094506020870135915080821115611af1578384fd5b50611a2787828801611753565b600060208284031215611b0f578081fd5b815161052e81612425565b600060208284031215611b2b578081fd5b813561052e81612433565b600060208284031215611b47578081fd5b815161052e81612433565b60006020808385031215611b64578182fd5b823567ffffffffffffffff80821115611b7b578384fd5b818501915085601f830112611b8e578384fd5b813581811115611ba057611ba06123fa565b604051601f8201601f1916810185018381118282101715611bc357611bc36123fa565b6040528181528382018501881015611bd9578586fd5b818585018683013790810190930193909352509392505050565b600060208284031215611c04578081fd5b5035919050565b60008060408385031215611c1d578182fd5b82359150602083013561184181612410565b81835260006001600160fb1b03831115611c47578081fd5b6020830280836020870137939093016020019283525090919050565b6000815180845260208085019450808401835b83811015611c9257815187529582019590820190600101611c76565b509495945050505050565b60008151808452611cb581602086016020860161235c565b601f01601f19169290920160200192915050565b60008151611cdb81856020860161235c565b9290920192915050565b64173539b7b760d91b815260050190565b8254600090819060028104600180831680611d1257607f831692505b6020808410821415611d3257634e487b7160e01b87526022600452602487fd5b818015611d465760018114611d5757611d83565b60ff19861689528489019650611d83565b611d608b61230d565b885b86811015611d7b5781548b820152908501908301611d62565b505084890196505b505050505050611d9b611d968286611cc9565b611ce5565b95945050505050565b6001600160a01b0391909116815260200190565b6001600160a01b0386811682528516602082015260a060408201819052600090611de490830186611c63565b8281036060840152611df68186611c63565b90508281036080840152611e0a8185611c9d565b98975050505050505050565b6001600160a01b03868116825285166020820152604081018490526060810183905260a060808201819052600090611e5090830184611c9d565b979650505050505050565b6001600160a01b0383168152604060208201819052600090611e7f90830184611c9d565b949350505050565b600060408252611e9b604083018688611c2f565b8281036020840152611e50818587611c2f565b60006020825261052e6020830184611c63565b901515815260200190565b60006020825261052e6020830184611c9d565b602080825260129082015271746f55696e743235365f6f766572666c6f7760701b604082015260600190565b6020808252601590820152746f776e6572206973207a65726f206164647265737360581b604082015260600190565b602080825260149082015273746f55696e7436345f6f75744f66426f756e647360601b604082015260600190565b6020808252600c908201526b496e76616c6964206461746160a01b604082015260600190565b60208082526025908201527f64657374696e6174696f6e2061646472657373206d757374206265206e6f6e2d6040820152643d32b9379760d91b606082015260800190565b6020808252600990820152681b9bc81c195c9b5a5d60ba1b604082015260600190565b6020808252602f908201527f4e656564206f70657261746f7220617070726f76616c20666f7220337264207060408201526e30b93a3c903a3930b739b332b9399760891b606082015260800190565b602080825260159082015274746f55696e743235365f6f75744f66426f756e647360581b604082015260600190565b6020808252603e908201527f636f6e74726163742072657475726e656420616e20756e6b6e6f776e2076616c60408201527f75652066726f6d206f6e45524331313535426174636852656365697665640000606082015260800190565b6020808252600c908201526b7a65726f206164647265737360a01b604082015260600190565b6020808252602a908201527f4e656564206f70657261746f7220617070726f76616c20666f7220337264207060408201526930b93a3c90313ab9371760b11b606082015260800190565b60208082526010908201526f746f55696e74385f6f766572666c6f7760801b604082015260600190565b602080825260139082015272746f55696e74385f6f75744f66426f756e647360681b604082015260600190565b60208082526029908201527f5f69647320616e64205f76616c756573206172726179206c656e677468206d7560408201526839ba1036b0ba31b41760b91b606082015260800190565b60208082526019908201527f6f6e6c7920616c6c6f7720636f6e7472616374206f776e657200000000000000604082015260600190565b602080825260119082015270746f55696e7436345f6f766572666c6f7760781b604082015260600190565b6020808252600d908201526c0d2dcecc2d8d2c840d2dcc8caf609b1b604082015260600190565b60208082526039908201527f636f6e74726163742072657475726e656420616e20756e6b6e6f776e2076616c60408201527f75652066726f6d206f6e45524331313535526563656976656400000000000000606082015260800190565b6020808252601590820152742fba379036bab9ba103132903737b716bd32b9379760591b604082015260600190565b90815260200190565b918252602082015260400190565b60009081526020902090565b6000821982111561232c5761232c6123ce565b500190565b600082612340576123406123e4565b500490565b600082821015612357576123576123ce565b500390565b60005b8381101561237757818101518382015260200161235f565b838111156111425750506000910152565b600081612397576123976123ce565b506000190190565b60006000198214156123b3576123b36123ce565b5060010190565b6000826123c9576123c96123e4565b500690565b634e487b7160e01b600052601160045260246000fd5b634e487b7160e01b600052601260045260246000fd5b634e487b7160e01b600052604160045260246000fd5b6001600160a01b038116811461173757600080fd5b801515811461173757600080fd5b6001600160e01b03198116811461173757600080fdfec3d58168c5ae7397731d063d5bbf3d657854427343f4c083240f7aacaa2d0f62a264697066735822122082c94f057e93a47a060e7492355ba6e2a15a70e681c22190f65f70c00967633d64736f6c6343000800003368747470733a2f2f736f757263652e6c6567656e646e66742e636f6d2f667261676d656e742f",
  "immutableReferences": {},
  "source": "pragma solidity ^0.8.0;\npragma abicoder v2;\n\n// SPDX-License-Identifier: MIT\n\nimport \"./lib/ERC1155.sol\";\nimport \"./lib/Utils.sol\";\nimport \"./include/ILockTokens.sol\";\nimport \"./lib/Permission.sol\";\nimport \"./lib/Uinteger.sol\";\nimport \"./include/IERC1155OP.sol\";\nimport \"./Structs.sol\";\nimport \"./include/IStoreOP.sol\";\n\ncontract Fragment is ERC1155, Permission, IERC1155OP, ILockTokens, IStoreOP {\n    // token id => token per fragment amount,Token\n    mapping(uint256 => uint256) public override lockTokens;\n\n    // token id => total supply\n    mapping(uint256 => uint256) public totalSupply;\n\n    // address => ids\n    mapping(address => uint256[]) internal ownerTokens;\n\n    constructor() {\n        uriPrefix = \"https://source.legendnft.com/fragment/\";\n    }\n\n    function getInfo(uint256 tokenId, address owner) public view returns (uint256 tokens, uint256 balance) {\n        tokens = lockTokens[tokenId];\n        balance = balanceOf(owner, tokenId);\n    }\n\n    function tokensOf(\n        address owner,\n        uint256 startIndex,\n        uint256 endIndex\n    ) public view returns (uint256[] memory) {\n        require(owner != address(0), \"owner is zero address\");\n\n        uint256[] storage tokens = ownerTokens[owner];\n        if (endIndex == 0) {\n            return tokens;\n        }\n\n        require(startIndex < endIndex, \"invalid index\");\n\n        uint256[] memory result = new uint256[](endIndex - startIndex);\n        for (uint256 i = startIndex; i != endIndex; ++i) {\n            result[i] = tokens[i];\n        }\n\n        return result;\n    }\n\n    function mint(\n        address to,\n        uint256 tokenId,\n        uint256 amount,\n        uint256 perTokens\n    ) public override CheckPermit(\"zoneMine\") {\n        lockTokens[tokenId] = perTokens;\n        totalSupply[tokenId] += amount;\n        _addTokenTo(to, tokenId, amount);\n        _addToIds(tokenId, to);\n        emit TransferSingle(address(0), address(0), to, tokenId, amount);\n    }\n\n    function _addToIds(uint256 tokenId, address owner) internal {\n        uint256[] storage tokens = ownerTokens[owner];\n        bool f;\n        for (uint256 i = 0; i != tokens.length; i++) {\n            if (tokens[i] == tokenId) f = true;\n        }\n        if (!f) tokens.push(tokenId);\n    }\n\n    function mint(\n        address to,\n        uint256 quantity,\n        bytes calldata data\n    ) public override CheckPermit(\"store\") {\n        require(data.length == 41, \"Invalid data\");\n        uint8 bigType = Utils.toUint8(data, 0);\n        uint64 smallType = Utils.toUint64(data, 1);\n        uint256 tokens = Utils.toUint256(data, 9); //token()()\n        uint256 tokenId = (uint256(bigType) << 248) | (uint256(smallType) << 184);\n        // assert(tokenId == 0);\n        lockTokens[tokenId] = tokens;\n        totalSupply[tokenId] += quantity;\n        _addTokenTo(to, tokenId, quantity);\n        _addToIds(tokenId, to);\n        emit TransferSingle(address(0), address(0), to, tokenId, quantity);\n    }\n\n    function _removeIdsFrom(address from, uint256 tokenId) private {\n        if (balances[tokenId][from] == 0) {\n            uint256 index;\n            uint256[] storage tokenIds = ownerTokens[from];\n            for (uint256 i = 0; i != tokenIds.length; i++) {\n                if (tokenIds[i] == tokenId) {\n                    index = i;\n                    break;\n                }\n            }\n            if (tokenIds.length > 1) {\n                uint256 indexLast = tokenIds.length - 1;\n                uint256 tokenIdLast = tokenIds[indexLast];\n                tokenIds[index] = tokenIdLast;\n                tokenIds.pop();\n            } else {\n                delete ownerTokens[from];\n            }\n        }\n    }\n\n    function burn(\n        address from,\n        uint256 tokenId,\n        uint256 amount\n    ) public override {\n        require(from == msg.sender || operatorApproval[from][msg.sender] == true, \"Need operator approval for 3rd party burn.\");\n        totalSupply[tokenId] -= amount;\n        _removeTokenFrom(from, tokenId, amount);\n        _removeIdsFrom(from, tokenId);\n        emit TransferSingle(msg.sender, from, address(0), tokenId, amount);\n    }\n\n    function safeTransferFrom(\n        address _from,\n        address _to,\n        uint256 _id,\n        uint256 _value,\n        bytes calldata _data\n    ) public virtual override {\n        super.safeTransferFrom(_from, _to, _id, _value, _data);\n        _removeIdsFrom(_from, _id);\n        _addToIds(_id, _to);\n    }\n\n    function safeBatchTransferFrom(\n        address _from,\n        address _to,\n        uint256[] calldata _ids,\n        uint256[] calldata _values,\n        bytes calldata _data\n    ) public virtual override {\n        super.safeBatchTransferFrom(_from, _to, _ids, _values, _data);\n        for (uint256 i = 0; i < _ids.length; ++i) {\n            uint256 id = _ids[i];\n            _removeIdsFrom(_from, id);\n            _addToIds(id, _to);\n        }\n    }\n}\n",
  "sourcePath": "/Users/necklace/work/Legend/Legend/contracts/Fragment.sol",
  "compiler": {
    "name": "solc",
    "version": "0.8.0+commit.c7dfd78e.Darwin.appleclang"
  },
  "schemaVersion": "3.4.3",
  "updatedAt": "2022-03-25T17:08:34.283Z",
  "networkType": "ethereum",
  "devdoc": {
    "kind": "dev",
    "methods": {
      "balanceOf(address,uint256)": {
        "params": {
          "_id": "ID of the Token",
          "_owner": "The address of the token holder"
        },
        "returns": {
          "_0": "The _owner's balance of the Token type requested"
        }
      },
      "balanceOfBatch(address[],uint256[])": {
        "params": {
          "_ids": "ID of the Tokens",
          "_owners": "The addresses of the token holders"
        },
        "returns": {
          "_0": "The _owner's balance of the Token types requested (i.e. balance for each (owner, id) pair)"
        }
      },
      "isApprovedForAll(address,address)": {
        "params": {
          "_operator": "Address of authorized operator",
          "_owner": "The owner of the Tokens"
        },
        "returns": {
          "_0": "True if the operator is approved, false if not"
        }
      },
      "safeBatchTransferFrom(address,address,uint256[],uint256[],bytes)": {
        "details": "Caller must be approved to manage the tokens being transferred out of the `_from` account (see \"Approval\" section of the standard). MUST revert if `_to` is the zero address. MUST revert if length of `_ids` is not the same as length of `_values`. MUST revert if any of the balance(s) of the holder(s) for token(s) in `_ids` is lower than the respective amount(s) in `_values` sent to the recipient. MUST revert on any other error. MUST emit `TransferSingle` or `TransferBatch` event(s) such that all the balance changes are reflected (see \"Safe Transfer Rules\" section of the standard). Balance changes and events MUST follow the ordering of the arrays (_ids[0]/_values[0] before _ids[1]/_values[1], etc). After the above conditions for the transfer(s) in the batch are met, this function MUST check if `_to` is a smart contract (e.g. code size > 0). If so, it MUST call the relevant `IERC1155TokenReceiver` hook(s) on `_to` and act appropriately (see \"Safe Transfer Rules\" section of the standard).",
        "params": {
          "_data": "Additional data with no specified format, MUST be sent unaltered in call to the `IERC1155TokenReceiver` hook(s) on `_to`",
          "_from": "Source address",
          "_ids": "IDs of each token type (order and length must match _values array)",
          "_to": "Target address",
          "_values": "Transfer amounts per token type (order and length must match _ids array)"
        }
      },
      "safeTransferFrom(address,address,uint256,uint256,bytes)": {
        "details": "Caller must be approved to manage the tokens being transferred out of the `_from` account (see \"Approval\" section of the standard). MUST revert if `_to` is the zero address. MUST revert if balance of holder for token `_id` is lower than the `_value` sent. MUST revert on any other error. MUST emit the `TransferSingle` event to reflect the balance change (see \"Safe Transfer Rules\" section of the standard). After the above conditions are met, this function MUST check if `_to` is a smart contract (e.g. code size > 0). If so, it MUST call `onERC1155Received` on `_to` and act appropriately (see \"Safe Transfer Rules\" section of the standard).",
        "params": {
          "_data": "Additional data with no specified format, MUST be sent unaltered in call to `onERC1155Received` on `_to`",
          "_from": "Source address",
          "_id": "ID of the token type",
          "_to": "Target address",
          "_value": "Transfer amount"
        }
      },
      "setApprovalForAll(address,bool)": {
        "details": "MUST emit the ApprovalForAll event on success.",
        "params": {
          "_approved": "True if the operator is approved, false to revoke approval",
          "_operator": "Address to add to the set of authorized operators"
        }
      },
      "supportsInterface(bytes4)": {
        "details": "Interface identification is specified in ERC-165. This function uses less than 30,000 gas.",
        "params": {
          "_interfaceId": "The interface identifier, as specified in ERC-165"
        }
      },
      "uri(uint256)": {
        "details": "URIs are defined in RFC 3986. The URI may point to a JSON file that conforms to the \"ERC-1155 Metadata URI JSON Schema\".",
        "returns": {
          "_0": "URI string"
        }
      }
    },
    "version": 1
  },
  "userdoc": {
    "kind": "user",
    "methods": {
      "balanceOf(address,uint256)": {
        "notice": "Get the balance of an account's Tokens."
      },
      "balanceOfBatch(address[],uint256[])": {
        "notice": "Get the balance of multiple account/token pairs"
      },
      "isApprovedForAll(address,address)": {
        "notice": "Queries the approval status of an operator for a given owner."
      },
      "safeBatchTransferFrom(address,address,uint256[],uint256[],bytes)": {
        "notice": "Transfers `_values` amount(s) of `_ids` from the `_from` address to the `_to` address specified (with safety call)."
      },
      "safeTransferFrom(address,address,uint256,uint256,bytes)": {
        "notice": "Transfers `_value` amount of an `_id` from the `_from` address to the `_to` address specified (with safety call)."
      },
      "setApprovalForAll(address,bool)": {
        "notice": "Enable or disable approval for a third party (\"operator\") to manage all of the caller's tokens."
      },
      "supportsInterface(bytes4)": {
        "notice": "Query if a contract implements an interface"
      },
      "uri(uint256)": {
        "notice": "A distinct Uniform Resource Identifier (URI) for a given token."
      }
    },
    "version": 1
  }
}