{
  "contractName": "Friend",
  "abi": [
    {
      "inputs": [],
      "name": "contractOwner",
      "outputs": [
        {
          "internalType": "address",
          "name": "",
          "type": "address"
        }
      ],
      "stateMutability": "view",
      "type": "function"
    },
    {
      "inputs": [
        {
          "internalType": "string",
          "name": "key",
          "type": "string"
        }
      ],
      "name": "getAddress",
      "outputs": [
        {
          "internalType": "address",
          "name": "",
          "type": "address"
        }
      ],
      "stateMutability": "view",
      "type": "function"
    },
    {
      "inputs": [],
      "name": "manager",
      "outputs": [
        {
          "internalType": "contract Manager",
          "name": "",
          "type": "address"
        }
      ],
      "stateMutability": "view",
      "type": "function"
    },
    {
      "inputs": [
        {
          "internalType": "address",
          "name": "addr",
          "type": "address"
        }
      ],
      "name": "setManager",
      "outputs": [],
      "stateMutability": "nonpayable",
      "type": "function"
    },
    {
      "inputs": [],
      "name": "getHandselFee",
      "outputs": [
        {
          "internalType": "uint256",
          "name": "",
          "type": "uint256"
        }
      ],
      "stateMutability": "view",
      "type": "function"
    },
    {
      "inputs": [
        {
          "internalType": "uint256",
          "name": "fee",
          "type": "uint256"
        }
      ],
      "name": "setHandselFee",
      "outputs": [],
      "stateMutability": "nonpayable",
      "type": "function"
    },
    {
      "inputs": [
        {
          "components": [
            {
              "internalType": "uint256",
              "name": "keyIndex",
              "type": "uint256"
            },
            {
              "internalType": "address",
              "name": "user",
              "type": "address"
            },
            {
              "internalType": "string",
              "name": "name",
              "type": "string"
            }
          ],
          "internalType": "struct FriendItem",
          "name": "item",
          "type": "tuple"
        }
      ],
      "name": "insert",
      "outputs": [
        {
          "internalType": "bool",
          "name": "replaced",
          "type": "bool"
        }
      ],
      "stateMutability": "nonpayable",
      "type": "function"
    },
    {
      "inputs": [
        {
          "internalType": "address",
          "name": "user",
          "type": "address"
        }
      ],
      "name": "remove",
      "outputs": [
        {
          "internalType": "bool",
          "name": "success",
          "type": "bool"
        }
      ],
      "stateMutability": "nonpayable",
      "type": "function"
    },
    {
      "inputs": [
        {
          "internalType": "address",
          "name": "owner",
          "type": "address"
        },
        {
          "internalType": "address",
          "name": "friend",
          "type": "address"
        }
      ],
      "name": "contains",
      "outputs": [
        {
          "internalType": "bool",
          "name": "",
          "type": "bool"
        }
      ],
      "stateMutability": "view",
      "type": "function"
    },
    {
      "inputs": [],
      "name": "istart",
      "outputs": [
        {
          "internalType": "uint256",
          "name": "keyIndex",
          "type": "uint256"
        }
      ],
      "stateMutability": "view",
      "type": "function"
    },
    {
      "inputs": [
        {
          "internalType": "uint256",
          "name": "keyIndex",
          "type": "uint256"
        }
      ],
      "name": "next",
      "outputs": [
        {
          "internalType": "uint256",
          "name": "r_keyIndex",
          "type": "uint256"
        }
      ],
      "stateMutability": "view",
      "type": "function"
    },
    {
      "inputs": [
        {
          "internalType": "uint256",
          "name": "keyIndex",
          "type": "uint256"
        }
      ],
      "name": "valid",
      "outputs": [
        {
          "internalType": "bool",
          "name": "",
          "type": "bool"
        }
      ],
      "stateMutability": "view",
      "type": "function"
    },
    {
      "inputs": [
        {
          "internalType": "uint256",
          "name": "keyIndex",
          "type": "uint256"
        }
      ],
      "name": "getFriend",
      "outputs": [
        {
          "components": [
            {
              "internalType": "uint256",
              "name": "keyIndex",
              "type": "uint256"
            },
            {
              "internalType": "address",
              "name": "user",
              "type": "address"
            },
            {
              "internalType": "string",
              "name": "name",
              "type": "string"
            }
          ],
          "internalType": "struct FriendItem",
          "name": "item",
          "type": "tuple"
        }
      ],
      "stateMutability": "view",
      "type": "function"
    },
    {
      "inputs": [],
      "name": "getFriends",
      "outputs": [
        {
          "components": [
            {
              "internalType": "uint256",
              "name": "keyIndex",
              "type": "uint256"
            },
            {
              "internalType": "address",
              "name": "user",
              "type": "address"
            },
            {
              "internalType": "string",
              "name": "name",
              "type": "string"
            }
          ],
          "internalType": "struct FriendItem[]",
          "name": "list",
          "type": "tuple[]"
        }
      ],
      "stateMutability": "view",
      "type": "function"
    }
  ],
  "bytecode": "0x6080604052600080546001600160a01b0319163317905534801561002257600080fd5b5061128a806100326000396000f3fe608060405234801561001057600080fd5b50600436106100ea5760003560e01c8063bf8712c51161008c578063e6ee04dd11610066578063e6ee04dd146101c0578063ed26cae8146101c8578063edbce89e146101db578063edd004e5146101fb576100ea565b8063bf8712c514610192578063ce606ee0146101a5578063d0ebdbe7146101ad576100ea565b80634abfe652116100c85780634abfe6521461014257806370f9c6961461015757806376c551771461016c578063bf40fac11461017f576100ea565b80631f8f7270146100ef57806329092d0e1461010d578063481c6a751461012d575b600080fd5b6100f761020e565b6040516101049190610ea8565b60405180910390f35b61012061011b366004610c6c565b61036c565b6040516101049190610f08565b610135610477565b6040516101049190610e70565b610155610150366004610ddc565b610486565b005b61015f61054d565b6040516101049190610fb9565b61012061017a366004610da4565b610553565b61013561018d366004610d03565b610854565b6101206101a0366004610ddc565b6108db565b610135610902565b6101556101bb366004610c6c565b610911565b61015f610983565b6101206101d6366004610cab565b610994565b6101ee6101e9366004610ddc565b610a2c565b6040516101049190610fa6565b61015f610209366004610ddc565b610b5e565b33600090815260026020819052604090912001546060901561036957336000908152600260208190526040909120015467ffffffffffffffff81111561026457634e487b7160e01b600052604160045260246000fd5b60405190808252806020026020018201604052801561029d57816020015b61028a610bee565b8152602001906001900390816102825790505b5090506000806102ab610983565b90505b6102b7816108db565b15610366573360009081526002602052604090206001908101906102db9083610fe6565b815481106102f957634e487b7160e01b600052603260045260246000fd5b600091825260209091200154600160a01b900460ff166103565761031c81610a2c565b83838151811061033c57634e487b7160e01b600052603260045260246000fd5b602002602001018190525081806103529061116d565b9250505b61035f81610b5e565b90506102ae565b50505b90565b3360009081526002602090815260408083206001600160a01b03851684529091528120548061039f576000915050610472565b3360009081526002602081815260408084206001600160a01b038816855290915282208281556001810180546001600160a01b031916905591906103e590830182610c18565b505033600090815260026020526040902060019081016104058284610fe6565b8154811061042357634e487b7160e01b600052603260045260246000fd5b600091825260208083209091018054931515600160a01b0260ff60a01b1990941693909317909255338152600291829052604081209091018054916104678361110e565b919050555060019150505b919050565b6001546001600160a01b031681565b604080518082018252600581526430b236b4b760d91b60208201526001549151637af32e3960e11b815290916001600160a01b03169063f5e65c72906104d29033908590600401610e84565b60206040518083038186803b1580156104ea57600080fd5b505afa1580156104fe573d6000803e3d6000fd5b505050506040513d601f19601f820116820180604052508101906105229190610ce3565b6105475760405162461bcd60e51b815260040161053e90610f26565b60405180910390fd5b50600355565b60035490565b336000908152600260209081526040808320839290918391610579918701908701610c6c565b6001600160a01b031681526020810191909152604001600020549050801561070f573360009081526002602090815260408083208693909290916105c291908501908501610c6c565b6001600160a01b0316815260208101919091526040016000206105e582826111b4565b505033600090815260026020908152604080832084939092909161060e91908801908801610c6c565b6001600160a01b0316815260208082019290925260409081016000209290925561063c918501908501610c6c565b33600090815260026020526040902060019081019061065b9084610fe6565b8154811061067957634e487b7160e01b600052603260045260246000fd5b600091825260208083209190910180546001600160a01b0319166001600160a01b0394909416939093179092553381526002909152604081206001908101906106c29084610fe6565b815481106106e057634e487b7160e01b600052603260045260246000fd5b60009182526020909120018054911515600160a01b0260ff60a01b199092169190911790555060019050610472565b5033600090815260026020908152604080832060018082018054918201905593869391929091610743918501908501610c6c565b6001600160a01b03168152602081019190915260400160002061076682826111b4565b506107749050816001610fce565b3360009081526002602090815260408083209291610796918801908801610c6c565b6001600160a01b031681526020808201929092526040908101600020929092556107c4918501908501610c6c565b3360009081526002602052604090206001018054839081106107f657634e487b7160e01b600052603260045260246000fd5b600091825260208083209190910180546001600160a01b0319166001600160a01b0394909416939093179092553381526002918290526040812090910180549161083f8361116d565b91905055506000915050610472565b50919050565b6001546040516334abd05960e11b81526000916001600160a01b031690636957a0b290610885908590600401610f13565b60206040518083038186803b15801561089d57600080fd5b505afa1580156108b1573d6000803e3d6000fd5b505050506040513d601f19601f820116820180604052508101906108d59190610c8f565b92915050565b336000908152600260205260408120600190810154906108fb9084610fe6565b1092915050565b6000546001600160a01b031681565b6000546001600160a01b0316331461093b5760405162461bcd60e51b815260040161053e90610f6f565b6001600160a01b0381166109615760405162461bcd60e51b815260040161053e90610f49565b600180546001600160a01b0319166001600160a01b0392909216919091179055565b600061098f6000610b5e565b905090565b6001600160a01b0380831660009081526002602090815260408083209385168352929052908120548015801590610a2457506001600160a01b03841660009081526002602052604090206001908101906109ee9083610fe6565b81548110610a0c57634e487b7160e01b600052603260045260246000fd5b600091825260209091200154600160a01b900460ff16155b949350505050565b610a34610bee565b336000908152600260205260408120600190810190610a539085610fe6565b81548110610a7157634e487b7160e01b600052603260045260246000fd5b6000918252602080832090910154338352600280835260408085206001600160a01b0393841680875290855294819020815160608101835281548152600182015490941694840194909452908301805494955091939084019190610ad490611125565b80601f0160208091040260200160405190810160405280929190818152602001828054610b0090611125565b8015610b4d5780601f10610b2257610100808354040283529160200191610b4d565b820191906000526020600020905b815481529060010190602001808311610b3057829003601f168201915b505050505081525050915050919050565b600081610b6a8161116d565b9250505b3360009081526002602052604090206001015482108015610bd35750336000908152600260205260409020600101805483908110610bbc57634e487b7160e01b600052603260045260246000fd5b600091825260209091200154600160a01b900460ff165b15610bea5781610be28161116d565b925050610b6e565b5090565b60405180606001604052806000815260200160006001600160a01b03168152602001606081525090565b508054610c2490611125565b6000825580601f10610c365750610c54565b601f016020900490600052602060002090810190610c549190610c57565b50565b5b80821115610bea5760008155600101610c58565b600060208284031215610c7d578081fd5b8135610c888161123f565b9392505050565b600060208284031215610ca0578081fd5b8151610c888161123f565b60008060408385031215610cbd578081fd5b8235610cc88161123f565b91506020830135610cd88161123f565b809150509250929050565b600060208284031215610cf4578081fd5b81518015158114610c88578182fd5b60006020808385031215610d15578182fd5b823567ffffffffffffffff80821115610d2c578384fd5b818501915085601f830112610d3f578384fd5b813581811115610d5157610d5161119e565b604051601f8201601f1916810185018381118282101715610d7457610d7461119e565b6040528181528382018501881015610d8a578586fd5b818585018683013790810190930193909352509392505050565b600060208284031215610db5578081fd5b813567ffffffffffffffff811115610dcb578182fd5b820160608185031215610c88578182fd5b600060208284031215610ded578081fd5b5035919050565b60008151808452815b81811015610e1957602081850181015186830182015201610dfd565b81811115610e2a5782602083870101525b50601f01601f19169290920160200192915050565b60008151835260018060a01b036020830151166020840152604082015160606040850152610a246060850182610df4565b6001600160a01b0391909116815260200190565b6001600160a01b0383168152604060208201819052600090610a2490830184610df4565b6000602080830181845280855180835260408601915060408482028701019250838701855b82811015610efb57603f19888603018452610ee9858351610e3f565b94509285019290850190600101610ecd565b5092979650505050505050565b901515815260200190565b600060208252610c886020830184610df4565b6020808252600990820152681b9bc81c195c9b5a5d60ba1b604082015260600190565b6020808252600c908201526b7a65726f206164647265737360a01b604082015260600190565b60208082526019908201527f6f6e6c7920616c6c6f7720636f6e7472616374206f776e657200000000000000604082015260600190565b600060208252610c886020830184610e3f565b90815260200190565b60009081526020902090565b60008219821115610fe157610fe1611188565b500190565b600082821015610ff857610ff8611188565b500390565b5b818110156110125760008155600101610ffe565b5050565b67ffffffffffffffff83111561102e5761102e61119e565b6110388154611125565b600080601f8611601f8411818117156110575761105486610fc2565b92505b8015611086576020601f890104830160208910156110725750825b6110846020601f880104850182610ffd565b505b5080600181146110b2576000945087156110a1578387013594505b6110ab888661115a565b8655611104565b601f198816945082845b868110156110dc57888601358255602095860195600190920191016110bc565b50888610156110f957878501356000196008601f8c16021c191681555b506001600289020186555b5050505050505050565b60008161111d5761111d611188565b506000190190565b60028104600182168061113957607f821691505b6020821081141561084e57634e487b7160e01b600052602260045260246000fd5b600019600883021c191660029091021790565b600060001982141561118157611181611188565b5060010190565b634e487b7160e01b600052601160045260246000fd5b634e487b7160e01b600052604160045260246000fd5b813581556001810160208301356111ca8161123f565b81546001600160a01b0319166001600160a01b0391909116179055604082013536839003601e190181126111fd57600080fd5b8201803567ffffffffffffffff81111561121657600080fd5b60208201915080360382131561122b57600080fd5b611239818360028601611016565b50505050565b6001600160a01b0381168114610c5457600080fdfea2646970667358221220ccbfdbe2ead1f8a275e52a3c21974df2976973f35c0a0e8ffeefa92b59b2ab3f64736f6c63430008000033",
  "immutableReferences": {},
  "source": "// SPDX-License-Identifier: MIT\n\npragma solidity ^0.8.0;\n\nimport \"./include/IFriend.sol\";\nimport \"./lib/Permission.sol\";\n\nstruct FriendItem {\n    uint256 keyIndex;\n    address user;\n    string name;\n}\nstruct KeyFlag {\n    address key;\n    bool deleted;\n}\n\nstruct itmap {\n    mapping(address => FriendItem) data;\n    KeyFlag[] keys;\n    uint256 size;\n}\n\ncontract Friend is Permission, IFriend {\n    mapping(address => itmap) private friends;\n\n    uint256 private handselFee;\n\n    function getHandselFee() public view override returns (uint256) {\n        return handselFee;\n    }\n\n    function setHandselFee(uint256 fee) public CheckPermit(\"admin\") {\n        handselFee = fee;\n    }\n\n    function insert(FriendItem calldata item) public returns (bool replaced) {\n        uint256 keyIndex = friends[msg.sender].data[item.user].keyIndex;\n        if (keyIndex > 0) {\n            friends[msg.sender].data[item.user] = item;\n            friends[msg.sender].data[item.user].keyIndex = keyIndex;\n            friends[msg.sender].keys[keyIndex - 1].key = item.user;\n            friends[msg.sender].keys[keyIndex - 1].deleted = false;\n            return true;\n        } else {\n            keyIndex = friends[msg.sender].keys.length;\n            friends[msg.sender].keys.push();\n            friends[msg.sender].data[item.user] = item;\n            friends[msg.sender].data[item.user].keyIndex = keyIndex + 1;\n            friends[msg.sender].keys[keyIndex].key = item.user;\n            friends[msg.sender].size++;\n            return false;\n        }\n    }\n\n    function remove(address user) public returns (bool success) {\n        uint256 keyIndex = friends[msg.sender].data[user].keyIndex;\n        if (keyIndex == 0) return false;\n        delete friends[msg.sender].data[user];\n        friends[msg.sender].keys[keyIndex - 1].deleted = true;\n        friends[msg.sender].size--;\n        return true;\n    }\n\n    function contains(address friend) internal view returns (bool) {\n        uint256 keyIndex = friends[msg.sender].data[friend].keyIndex;\n        return keyIndex > 0 && friends[msg.sender].keys[keyIndex - 1].deleted == false;\n    }\n\n    function contains(address owner, address friend) public view override returns (bool) {\n        uint256 keyIndex = friends[owner].data[friend].keyIndex;\n        return keyIndex > 0 && friends[owner].keys[keyIndex - 1].deleted == false;\n    }\n\n    function istart() public view returns (uint256 keyIndex) {\n        return next(0);\n    }\n\n    function next(uint256 keyIndex) public view returns (uint256 r_keyIndex) {\n        keyIndex++;\n        while (keyIndex < friends[msg.sender].keys.length && friends[msg.sender].keys[keyIndex].deleted) keyIndex++;\n        return keyIndex;\n    }\n\n    function valid(uint256 keyIndex) public view returns (bool) {\n        return (keyIndex - 1) < friends[msg.sender].keys.length;\n    }\n\n    function getFriend(uint256 keyIndex) public view returns (FriendItem memory item) {\n        address key = friends[msg.sender].keys[keyIndex - 1].key;\n        item = friends[msg.sender].data[key];\n    }\n\n    function getFriends() public view returns (FriendItem[] memory list) {\n        if (friends[msg.sender].size > 0) {\n            list = new FriendItem[](friends[msg.sender].size);\n            uint256 j;\n            for (uint256 i = istart(); valid(i); i = next(i)) {\n                if (friends[msg.sender].keys[i - 1].deleted == false) {\n                    list[j] = getFriend(i);\n                    j++;\n                }\n            }\n        }\n    }\n}\n",
  "sourcePath": "/Users/necklace/work/Legend/Legend/contracts/Friend.sol",
  "compiler": {
    "name": "solc",
    "version": "0.8.0+commit.c7dfd78e.Darwin.appleclang"
  },
  "schemaVersion": "3.4.3",
  "updatedAt": "2022-03-25T17:08:34.370Z",
  "networkType": "ethereum",
  "devdoc": {
    "kind": "dev",
    "methods": {},
    "version": 1
  },
  "userdoc": {
    "kind": "user",
    "methods": {},
    "version": 1
  }
}