{
  "contractName": "Hero",
  "abi": [
    {
      "inputs": [
        {
          "internalType": "string",
          "name": "_name",
          "type": "string"
        },
        {
          "internalType": "string",
          "name": "_symbol",
          "type": "string"
        }
      ],
      "stateMutability": "nonpayable",
      "type": "constructor"
    },
    {
      "anonymous": false,
      "inputs": [
        {
          "indexed": true,
          "internalType": "address",
          "name": "_owner",
          "type": "address"
        },
        {
          "indexed": true,
          "internalType": "address",
          "name": "_approved",
          "type": "address"
        },
        {
          "indexed": true,
          "internalType": "uint256",
          "name": "_tokenId",
          "type": "uint256"
        }
      ],
      "name": "Approval",
      "type": "event"
    },
    {
      "anonymous": false,
      "inputs": [
        {
          "indexed": true,
          "internalType": "address",
          "name": "_owner",
          "type": "address"
        },
        {
          "indexed": true,
          "internalType": "address",
          "name": "_operator",
          "type": "address"
        },
        {
          "indexed": false,
          "internalType": "bool",
          "name": "_approved",
          "type": "bool"
        }
      ],
      "name": "ApprovalForAll",
      "type": "event"
    },
    {
      "anonymous": false,
      "inputs": [
        {
          "indexed": true,
          "internalType": "address",
          "name": "_from",
          "type": "address"
        },
        {
          "indexed": true,
          "internalType": "address",
          "name": "_to",
          "type": "address"
        },
        {
          "indexed": true,
          "internalType": "uint256",
          "name": "_tokenId",
          "type": "uint256"
        }
      ],
      "name": "Transfer",
      "type": "event"
    },
    {
      "anonymous": false,
      "inputs": [
        {
          "indexed": true,
          "internalType": "address",
          "name": "owner",
          "type": "address"
        },
        {
          "indexed": false,
          "internalType": "uint256",
          "name": "heroId",
          "type": "uint256"
        },
        {
          "indexed": false,
          "internalType": "uint32",
          "name": "level",
          "type": "uint32"
        }
      ],
      "name": "Upgrade",
      "type": "event"
    },
    {
      "inputs": [
        {
          "internalType": "address",
          "name": "to",
          "type": "address"
        },
        {
          "internalType": "uint256",
          "name": "tokenId",
          "type": "uint256"
        }
      ],
      "name": "approve",
      "outputs": [],
      "stateMutability": "payable",
      "type": "function"
    },
    {
      "inputs": [
        {
          "internalType": "address",
          "name": "owner",
          "type": "address"
        }
      ],
      "name": "balanceOf",
      "outputs": [
        {
          "internalType": "uint256",
          "name": "",
          "type": "uint256"
        }
      ],
      "stateMutability": "view",
      "type": "function"
    },
    {
      "inputs": [],
      "name": "contractOwner",
      "outputs": [
        {
          "internalType": "address",
          "name": "",
          "type": "address"
        }
      ],
      "stateMutability": "view",
      "type": "function"
    },
    {
      "inputs": [
        {
          "internalType": "address",
          "name": "",
          "type": "address"
        }
      ],
      "name": "currentHeros",
      "outputs": [
        {
          "internalType": "uint256",
          "name": "tokenId",
          "type": "uint256"
        },
        {
          "internalType": "uint8",
          "name": "status",
          "type": "uint8"
        },
        {
          "internalType": "uint64",
          "name": "startTime",
          "type": "uint64"
        },
        {
          "internalType": "uint32",
          "name": "time",
          "type": "uint32"
        }
      ],
      "stateMutability": "view",
      "type": "function"
    },
    {
      "inputs": [
        {
          "internalType": "string",
          "name": "key",
          "type": "string"
        }
      ],
      "name": "getAddress",
      "outputs": [
        {
          "internalType": "address",
          "name": "",
          "type": "address"
        }
      ],
      "stateMutability": "view",
      "type": "function"
    },
    {
      "inputs": [
        {
          "internalType": "uint256",
          "name": "tokenId",
          "type": "uint256"
        }
      ],
      "name": "getApproved",
      "outputs": [
        {
          "internalType": "address",
          "name": "",
          "type": "address"
        }
      ],
      "stateMutability": "view",
      "type": "function"
    },
    {
      "inputs": [
        {
          "internalType": "uint256",
          "name": "",
          "type": "uint256"
        }
      ],
      "name": "heroAttrs",
      "outputs": [
        {
          "internalType": "uint8",
          "name": "profession",
          "type": "uint8"
        },
        {
          "internalType": "uint8",
          "name": "gender",
          "type": "uint8"
        },
        {
          "internalType": "string",
          "name": "name",
          "type": "string"
        },
        {
          "internalType": "uint32",
          "name": "exp",
          "type": "uint32"
        },
        {
          "internalType": "uint32",
          "name": "upExp",
          "type": "uint32"
        },
        {
          "internalType": "uint32",
          "name": "level",
          "type": "uint32"
        },
        {
          "internalType": "uint32",
          "name": "power",
          "type": "uint32"
        },
        {
          "components": [
            {
              "internalType": "uint32",
              "name": "attack",
              "type": "uint32"
            },
            {
              "internalType": "uint32",
              "name": "taoism",
              "type": "uint32"
            },
            {
              "internalType": "uint32",
              "name": "magic",
              "type": "uint32"
            },
            {
              "internalType": "uint32",
              "name": "defense",
              "type": "uint32"
            },
            {
              "internalType": "uint32",
              "name": "magicDefense",
              "type": "uint32"
            },
            {
              "internalType": "uint32",
              "name": "physicalPower",
              "type": "uint32"
            },
            {
              "internalType": "uint32",
              "name": "magicPower",
              "type": "uint32"
            }
          ],
          "internalType": "struct MainAttrs",
          "name": "mainAttrs",
          "type": "tuple"
        }
      ],
      "stateMutability": "view",
      "type": "function"
    },
    {
      "inputs": [
        {
          "internalType": "address",
          "name": "owner",
          "type": "address"
        },
        {
          "internalType": "address",
          "name": "operator",
          "type": "address"
        }
      ],
      "name": "isApprovedForAll",
      "outputs": [
        {
          "internalType": "bool",
          "name": "",
          "type": "bool"
        }
      ],
      "stateMutability": "view",
      "type": "function"
    },
    {
      "inputs": [],
      "name": "manager",
      "outputs": [
        {
          "internalType": "contract Manager",
          "name": "",
          "type": "address"
        }
      ],
      "stateMutability": "view",
      "type": "function"
    },
    {
      "inputs": [],
      "name": "name",
      "outputs": [
        {
          "internalType": "string",
          "name": "",
          "type": "string"
        }
      ],
      "stateMutability": "view",
      "type": "function"
    },
    {
      "inputs": [
        {
          "internalType": "uint256",
          "name": "tokenId",
          "type": "uint256"
        }
      ],
      "name": "ownerOf",
      "outputs": [
        {
          "internalType": "address",
          "name": "",
          "type": "address"
        }
      ],
      "stateMutability": "view",
      "type": "function"
    },
    {
      "inputs": [
        {
          "internalType": "address",
          "name": "to",
          "type": "address"
        },
        {
          "internalType": "bool",
          "name": "approved",
          "type": "bool"
        }
      ],
      "name": "setApprovalForAll",
      "outputs": [],
      "stateMutability": "nonpayable",
      "type": "function"
    },
    {
      "inputs": [
        {
          "internalType": "address",
          "name": "addr",
          "type": "address"
        }
      ],
      "name": "setManager",
      "outputs": [],
      "stateMutability": "nonpayable",
      "type": "function"
    },
    {
      "inputs": [],
      "name": "symbol",
      "outputs": [
        {
          "internalType": "string",
          "name": "",
          "type": "string"
        }
      ],
      "stateMutability": "view",
      "type": "function"
    },
    {
      "inputs": [
        {
          "internalType": "address",
          "name": "owner",
          "type": "address"
        },
        {
          "internalType": "uint256",
          "name": "startIndex",
          "type": "uint256"
        },
        {
          "internalType": "uint256",
          "name": "endIndex",
          "type": "uint256"
        }
      ],
      "name": "tokensOf",
      "outputs": [
        {
          "internalType": "uint256[]",
          "name": "",
          "type": "uint256[]"
        }
      ],
      "stateMutability": "view",
      "type": "function"
    },
    {
      "inputs": [],
      "name": "totalSupply",
      "outputs": [
        {
          "internalType": "uint256",
          "name": "",
          "type": "uint256"
        }
      ],
      "stateMutability": "view",
      "type": "function"
    },
    {
      "inputs": [],
      "name": "uriPrefix",
      "outputs": [
        {
          "internalType": "string",
          "name": "",
          "type": "string"
        }
      ],
      "stateMutability": "view",
      "type": "function"
    },
    {
      "inputs": [
        {
          "internalType": "address",
          "name": "roleAddr",
          "type": "address"
        }
      ],
      "name": "getHeroPower",
      "outputs": [
        {
          "internalType": "uint32",
          "name": "power",
          "type": "uint32"
        }
      ],
      "stateMutability": "view",
      "type": "function"
    },
    {
      "inputs": [
        {
          "internalType": "address",
          "name": "from",
          "type": "address"
        },
        {
          "internalType": "address",
          "name": "to",
          "type": "address"
        },
        {
          "internalType": "uint256",
          "name": "tokenId",
          "type": "uint256"
        },
        {
          "internalType": "bytes",
          "name": "data",
          "type": "bytes"
        }
      ],
      "name": "safeTransferFrom",
      "outputs": [],
      "stateMutability": "payable",
      "type": "function"
    },
    {
      "inputs": [
        {
          "internalType": "address",
          "name": "from",
          "type": "address"
        },
        {
          "internalType": "address",
          "name": "to",
          "type": "address"
        },
        {
          "internalType": "uint256",
          "name": "tokenId",
          "type": "uint256"
        }
      ],
      "name": "transferFrom",
      "outputs": [],
      "stateMutability": "payable",
      "type": "function"
    },
    {
      "inputs": [
        {
          "internalType": "uint256",
          "name": "_tokenId",
          "type": "uint256"
        }
      ],
      "name": "tokenURI",
      "outputs": [
        {
          "internalType": "string",
          "name": "",
          "type": "string"
        }
      ],
      "stateMutability": "view",
      "type": "function"
    },
    {
      "inputs": [
        {
          "internalType": "uint256",
          "name": "id",
          "type": "uint256"
        }
      ],
      "name": "getHeroInfo",
      "outputs": [
        {
          "components": [
            {
              "internalType": "uint256",
              "name": "tokenId",
              "type": "uint256"
            },
            {
              "internalType": "uint8",
              "name": "status",
              "type": "uint8"
            },
            {
              "internalType": "uint64",
              "name": "startTime",
              "type": "uint64"
            },
            {
              "internalType": "uint32",
              "name": "time",
              "type": "uint32"
            }
          ],
          "internalType": "struct CurrentHero",
          "name": "hero",
          "type": "tuple"
        },
        {
          "components": [
            {
              "internalType": "uint8",
              "name": "profession",
              "type": "uint8"
            },
            {
              "internalType": "uint8",
              "name": "gender",
              "type": "uint8"
            },
            {
              "internalType": "string",
              "name": "name",
              "type": "string"
            },
            {
              "internalType": "uint32",
              "name": "exp",
              "type": "uint32"
            },
            {
              "internalType": "uint32",
              "name": "upExp",
              "type": "uint32"
            },
            {
              "internalType": "uint32",
              "name": "level",
              "type": "uint32"
            },
            {
              "internalType": "uint32",
              "name": "power",
              "type": "uint32"
            },
            {
              "internalType": "uint256[]",
              "name": "equipmentSlot",
              "type": "uint256[]"
            },
            {
              "components": [
                {
                  "internalType": "uint32",
                  "name": "attack",
                  "type": "uint32"
                },
                {
                  "internalType": "uint32",
                  "name": "taoism",
                  "type": "uint32"
                },
                {
                  "internalType": "uint32",
                  "name": "magic",
                  "type": "uint32"
                },
                {
                  "internalType": "uint32",
                  "name": "defense",
                  "type": "uint32"
                },
                {
                  "internalType": "uint32",
                  "name": "magicDefense",
                  "type": "uint32"
                },
                {
                  "internalType": "uint32",
                  "name": "physicalPower",
                  "type": "uint32"
                },
                {
                  "internalType": "uint32",
                  "name": "magicPower",
                  "type": "uint32"
                }
              ],
              "internalType": "struct MainAttrs",
              "name": "mainAttrs",
              "type": "tuple"
            }
          ],
          "internalType": "struct HeroAttrs",
          "name": "attrs",
          "type": "tuple"
        }
      ],
      "stateMutability": "view",
      "type": "function"
    },
    {
      "inputs": [
        {
          "internalType": "address",
          "name": "addr",
          "type": "address"
        }
      ],
      "name": "getHeroInfo",
      "outputs": [
        {
          "components": [
            {
              "internalType": "uint256",
              "name": "tokenId",
              "type": "uint256"
            },
            {
              "internalType": "uint8",
              "name": "status",
              "type": "uint8"
            },
            {
              "internalType": "uint64",
              "name": "startTime",
              "type": "uint64"
            },
            {
              "internalType": "uint32",
              "name": "time",
              "type": "uint32"
            }
          ],
          "internalType": "struct CurrentHero",
          "name": "hero",
          "type": "tuple"
        },
        {
          "components": [
            {
              "internalType": "uint8",
              "name": "profession",
              "type": "uint8"
            },
            {
              "internalType": "uint8",
              "name": "gender",
              "type": "uint8"
            },
            {
              "internalType": "string",
              "name": "name",
              "type": "string"
            },
            {
              "internalType": "uint32",
              "name": "exp",
              "type": "uint32"
            },
            {
              "internalType": "uint32",
              "name": "upExp",
              "type": "uint32"
            },
            {
              "internalType": "uint32",
              "name": "level",
              "type": "uint32"
            },
            {
              "internalType": "uint32",
              "name": "power",
              "type": "uint32"
            },
            {
              "internalType": "uint256[]",
              "name": "equipmentSlot",
              "type": "uint256[]"
            },
            {
              "components": [
                {
                  "internalType": "uint32",
                  "name": "attack",
                  "type": "uint32"
                },
                {
                  "internalType": "uint32",
                  "name": "taoism",
                  "type": "uint32"
                },
                {
                  "internalType": "uint32",
                  "name": "magic",
                  "type": "uint32"
                },
                {
                  "internalType": "uint32",
                  "name": "defense",
                  "type": "uint32"
                },
                {
                  "internalType": "uint32",
                  "name": "magicDefense",
                  "type": "uint32"
                },
                {
                  "internalType": "uint32",
                  "name": "physicalPower",
                  "type": "uint32"
                },
                {
                  "internalType": "uint32",
                  "name": "magicPower",
                  "type": "uint32"
                }
              ],
              "internalType": "struct MainAttrs",
              "name": "mainAttrs",
              "type": "tuple"
            }
          ],
          "internalType": "struct HeroAttrs",
          "name": "attrs",
          "type": "tuple"
        }
      ],
      "stateMutability": "view",
      "type": "function"
    },
    {
      "inputs": [
        {
          "internalType": "address",
          "name": "user",
          "type": "address"
        }
      ],
      "name": "getRoleId",
      "outputs": [
        {
          "internalType": "uint256",
          "name": "roleId",
          "type": "uint256"
        }
      ],
      "stateMutability": "view",
      "type": "function"
    },
    {
      "inputs": [
        {
          "internalType": "address",
          "name": "user",
          "type": "address"
        },
        {
          "internalType": "uint256",
          "name": "time",
          "type": "uint256"
        }
      ],
      "name": "inMine",
      "outputs": [],
      "stateMutability": "nonpayable",
      "type": "function"
    },
    {
      "inputs": [
        {
          "internalType": "address",
          "name": "user",
          "type": "address"
        },
        {
          "internalType": "uint256",
          "name": "time",
          "type": "uint256"
        }
      ],
      "name": "inZone",
      "outputs": [],
      "stateMutability": "nonpayable",
      "type": "function"
    },
    {
      "inputs": [
        {
          "internalType": "address",
          "name": "user",
          "type": "address"
        },
        {
          "internalType": "uint32",
          "name": "exp",
          "type": "uint32"
        }
      ],
      "name": "stopWorking",
      "outputs": [],
      "stateMutability": "nonpayable",
      "type": "function"
    },
    {
      "inputs": [
        {
          "internalType": "string",
          "name": "name",
          "type": "string"
        },
        {
          "internalType": "uint8",
          "name": "gender",
          "type": "uint8"
        },
        {
          "internalType": "uint8",
          "name": "profession",
          "type": "uint8"
        },
        {
          "internalType": "uint32",
          "name": "tokenType",
          "type": "uint32"
        }
      ],
      "name": "create",
      "outputs": [],
      "stateMutability": "payable",
      "type": "function"
    },
    {
      "inputs": [
        {
          "internalType": "uint256",
          "name": "heroId",
          "type": "uint256"
        }
      ],
      "name": "packet",
      "outputs": [],
      "stateMutability": "nonpayable",
      "type": "function"
    },
    {
      "inputs": [
        {
          "internalType": "uint256",
          "name": "heroId",
          "type": "uint256"
        }
      ],
      "name": "activation",
      "outputs": [],
      "stateMutability": "nonpayable",
      "type": "function"
    },
    {
      "inputs": [
        {
          "internalType": "uint256",
          "name": "heroId",
          "type": "uint256"
        }
      ],
      "name": "upgrade",
      "outputs": [],
      "stateMutability": "nonpayable",
      "type": "function"
    },
    {
      "inputs": [
        {
          "internalType": "uint256",
          "name": "heroId",
          "type": "uint256"
        }
      ],
      "name": "burn",
      "outputs": [],
      "stateMutability": "nonpayable",
      "type": "function"
    },
    {
      "inputs": [
        {
          "internalType": "uint256",
          "name": "heroId",
          "type": "uint256"
        },
        {
          "internalType": "uint256[]",
          "name": "newIds",
          "type": "uint256[]"
        }
      ],
      "name": "equip",
      "outputs": [],
      "stateMutability": "nonpayable",
      "type": "function"
    },
    {
      "inputs": [
        {
          "internalType": "address",
          "name": "",
          "type": "address"
        },
        {
          "internalType": "address",
          "name": "from",
          "type": "address"
        },
        {
          "internalType": "uint256",
          "name": "value",
          "type": "uint256"
        },
        {
          "internalType": "bytes",
          "name": "data",
          "type": "bytes"
        }
      ],
      "name": "onTransferReceived",
      "outputs": [
        {
          "internalType": "bytes4",
          "name": "",
          "type": "bytes4"
        }
      ],
      "stateMutability": "nonpayable",
      "type": "function"
    },
    {
      "inputs": [
        {
          "internalType": "address",
          "name": "",
          "type": "address"
        },
        {
          "internalType": "address",
          "name": "",
          "type": "address"
        },
        {
          "internalType": "uint256",
          "name": "_id",
          "type": "uint256"
        },
        {
          "internalType": "uint256",
          "name": "_value",
          "type": "uint256"
        },
        {
          "internalType": "bytes",
          "name": "_data",
          "type": "bytes"
        }
      ],
      "name": "onERC1155Received",
      "outputs": [
        {
          "internalType": "bytes4",
          "name": "",
          "type": "bytes4"
        }
      ],
      "stateMutability": "nonpayable",
      "type": "function"
    },
    {
      "inputs": [
        {
          "internalType": "address",
          "name": "_operator",
          "type": "address"
        },
        {
          "internalType": "address",
          "name": "_from",
          "type": "address"
        },
        {
          "internalType": "uint256[]",
          "name": "_ids",
          "type": "uint256[]"
        },
        {
          "internalType": "uint256[]",
          "name": "_values",
          "type": "uint256[]"
        },
        {
          "internalType": "bytes",
          "name": "_data",
          "type": "bytes"
        }
      ],
      "name": "onERC1155BatchReceived",
      "outputs": [
        {
          "internalType": "bytes4",
          "name": "",
          "type": "bytes4"
        }
      ],
      "stateMutability": "nonpayable",
      "type": "function"
    },
    {
      "inputs": [
        {
          "internalType": "bytes4",
          "name": "interfaceId",
          "type": "bytes4"
        }
      ],
      "name": "supportsInterface",
      "outputs": [
        {
          "internalType": "bool",
          "name": "",
          "type": "bool"
        }
      ],
      "stateMutability": "pure",
      "type": "function"
    }
  ],
  "bytecode": "0x6000600755600880546001600160a01b0319163317905560e06040526022608081815290620053fa60a03980516200004091600a91602090910190620000ab565b503480156200004e57600080fd5b506040516200541c3803806200541c8339810160408190526200007191620001fc565b8151829082906200008a906000906020850190620000ab565b508051620000a0906001906020840190620000ab565b5050505050620002b6565b828054620000b99062000263565b90600052602060002090601f016020900481019282620000dd576000855562000128565b82601f10620000f857805160ff191683800117855562000128565b8280016001018555821562000128579182015b82811115620001285782518255916020019190600101906200010b565b50620001369291506200013a565b5090565b5b808211156200013657600081556001016200013b565b600082601f83011262000162578081fd5b81516001600160401b03808211156200017f576200017f620002a0565b6040516020601f8401601f1916820181018381118382101715620001a757620001a7620002a0565b6040528382528584018101871015620001be578485fd5b8492505b83831015620001e15785830181015182840182015291820191620001c2565b83831115620001f257848185840101525b5095945050505050565b600080604083850312156200020f578182fd5b82516001600160401b038082111562000226578384fd5b620002348683870162000151565b935060208501519150808211156200024a578283fd5b50620002598582860162000151565b9150509250929050565b6002810460018216806200027857607f821691505b602082108114156200029a57634e487b7160e01b600052602260045260246000fd5b50919050565b634e487b7160e01b600052604160045260246000fd5b61513480620002c66000396000f3fe60806040526004361061021a5760003560e01c806377b02a3811610123578063c87b56dd116100ab578063f168a9c71161006f578063f168a9c714610631578063f23a433114610651578063f23a6e6114610671578063f85ac9a614610691578063fbb1b25c146106b15761021a565b8063c87b56dd1461059c578063ce606ee0146105bc578063d0ebdbe7146105d1578063d29b6818146105f1578063e985e9c5146106115761021a565b8063a22cb465116100f2578063a22cb465146104fc578063a36f34321461051c578063b88d4fde14610549578063bc197c811461055c578063bf40fac11461057c5761021a565b806377b02a381461047a578063839ddba81461049a57806388a7ca5c146104ba57806395d89b41146104e75761021a565b8063381e8d71116101a657806348d2fc711161017557806348d2fc71146103c357806362b99ad4146103f75780636352211e1461040c57806370a082311461042c57806375e39f261461044c5761021a565b8063381e8d711461034e57806342966c681461036e57806345977d031461038e578063481c6a75146103ae5761021a565b8063095ea7b3116101ed578063095ea7b3146102b957806318160ddd146102cc57806318392f64146102ee57806323185dc91461030e57806323b872dd1461033b5761021a565b806301ffc9a71461021f57806302fbf92d1461025557806306fdde031461026a578063081812fc1461028c575b600080fd5b34801561022b57600080fd5b5061023f61023a366004613f2a565b6106e1565b60405161024c91906146a5565b60405180910390f35b610268610263366004613f62565b610729565b005b34801561027657600080fd5b5061027f610b2c565b60405161024c91906146d6565b34801561029857600080fd5b506102ac6102a736600461414a565b610bba565b60405161024c9190614529565b6102686102c7366004613e82565b610c0a565b3480156102d857600080fd5b506102e1610ccb565b60405161024c9190614de3565b3480156102fa57600080fd5b506102e1610309366004613b86565b610cd1565b34801561031a57600080fd5b5061032e610329366004613ead565b610cec565b60405161024c9190614692565b610268610349366004613cb0565b610e7c565b34801561035a57600080fd5b50610268610369366004613e82565b610ec4565b34801561037a57600080fd5b5061026861038936600461414a565b61103a565b34801561039a57600080fd5b506102686103a936600461414a565b611165565b3480156103ba57600080fd5b506102ac6111d8565b3480156103cf57600080fd5b506103e36103de36600461414a565b6111e7565b60405161024c989796959493929190614e2d565b34801561040357600080fd5b5061027f611327565b34801561041857600080fd5b506102ac61042736600461414a565b611334565b34801561043857600080fd5b506102e1610447366004613b86565b611369565b34801561045857600080fd5b5061046c61046736600461414a565b6113ad565b60405161024c929190614cd7565b34801561048657600080fd5b5061026861049536600461414a565b6115ed565b3480156104a657600080fd5b5061046c6104b5366004613b86565b61166e565b3480156104c657600080fd5b506104da6104d5366004613cf0565b6118bb565b60405161024c91906146b0565b3480156104f357600080fd5b5061027f6119a2565b34801561050857600080fd5b50610268610517366004613e55565b6119af565b34801561052857600080fd5b5061053c610537366004613b86565b611a1e565b60405161024c91906146c5565b610268610557366004613d60565b611a67565b34801561056857600080fd5b506104da610577366004613bf6565b611ab1565b34801561058857600080fd5b506102ac610597366004613fdc565b611abf565b3480156105a857600080fd5b5061027f6105b736600461414a565b611b40565b3480156105c857600080fd5b506102ac611b77565b3480156105dd57600080fd5b506102686105ec366004613b86565b611b86565b3480156105fd57600080fd5b5061026861060c36600461414a565b611bf8565b34801561061d57600080fd5b5061023f61062c366004613bbe565b611c69565b34801561063d57600080fd5b5061026861064c366004613e82565b611c99565b34801561065d57600080fd5b5061026861066c366004613ee1565b611db6565b34801561067d57600080fd5b506104da61068c366004613ddc565b611f88565b34801561069d57600080fd5b506102686106ac36600461417a565b6120d2565b3480156106bd57600080fd5b506106d16106cc366004613b86565b612545565b60405161024c9493929190614e00565b60006001600160e01b03198216632229f29760e21b148061071257506001600160e01b03198216630271189760e51b145b8061072157506107218261257f565b90505b919050565b8361074f5760405162461bcd60e51b8152600401610746906148ff565b60405180910390fd5b336000908152600c6020526040902080541561077d5760405162461bcd60e51b815260040161074690614b8e565b60006107a660405180604001604052806006815260200165436f6e66696760d01b815250611abf565b905060006107d1604051806040016040528060068152602001652a32b63632b960d11b815250611abf565b90506000826001600160a01b031663cbd90cd0866040518263ffffffff1660e01b815260040161080191906146c5565b60006040518083038186803b15801561081957600080fd5b505afa15801561082d573d6000803e3d6000fd5b505050506040513d6000823e601f3d908101601f191682016040526108559190810190614086565b80519091501561095d5763ffffffff85166108c657805134101561088b5760405162461bcd60e51b815260040161074690614891565b6040516001600160a01b038316903480156108fc02916000818181858888f193505050501580156108c0573d6000803e3d6000fd5b5061095d565b60006108d58260200151611abf565b82516040516323b872dd60e01b81529192506001600160a01b038316916323b872dd916109089133918891600401614556565b602060405180830381600087803b15801561092257600080fd5b505af1158015610936573d6000803e3d6000fd5b505050506040513d601f19601f8201168201806040525081019061095a9190613f0e565b50505b60075461096b906001614f0c565b6001600160401b03164260401b60f088901b60ff60f01b1660f88a901b6001600160f81b0319161717178085556109a39033906125cd565b604051630f5248cb60e11b81526000906001600160a01b03851690631ea49196906109d29084906004016146c5565b604080518083038186803b1580156109e957600080fd5b505afa1580156109fd573d6000803e3d6000fd5b505050506040513d601f19601f82011682018060405250810190610a219190614029565b85546000908152600b6020526040902090915060ff88166003811115610a5757634e487b7160e01b600052602160045260246000fd5b6003811115610a7657634e487b7160e01b600052602160045260246000fd5b815460ff191660ff91821617825589166001811115610aa557634e487b7160e01b600052602160045260246000fd5b6001811115610ac457634e487b7160e01b600052602160045260246000fd5b815460ff919091166101000261ff0019909116178155610ae8600182018c8c613799565b506020909101516002909101805463ffffffff60401b1963ffffffff909316600160201b0267ffffffff000000001990911617919091169055505050505050505050565b60008054610b3990614ffe565b80601f0160208091040260200160405190810160405280929190818152602001828054610b6590614ffe565b8015610bb25780601f10610b8757610100808354040283529160200191610bb2565b820191906000526020600020905b815481529060010190602001808311610b9557829003601f168201915b505050505081565b6000818152600460205260408120546001600160a01b0316610bee5760405162461bcd60e51b815260040161074690614a71565b506000908152600560205260409020546001600160a01b031690565b6000818152600460205260409020546001600160a01b031633811480610c5357506001600160a01b038116600090815260066020908152604080832033845290915290205460ff165b610c6f5760405162461bcd60e51b815260040161074690614798565b60008281526005602052604080822080546001600160a01b0319166001600160a01b0387811691821790925591518593918516917f8c5be1e5ebec7d5bd14f71427d1e84f3dd0314c0f7b2291e5b200ac8c7c3b92591a4505050565b60075481565b6001600160a01b03166000908152600c602052604090205490565b60606001600160a01b038416610d145760405162461bcd60e51b81526004016107469061480c565b6001600160a01b038416600090815260026020526040902082610d8557805460408051602080840282018101909252828152918391830182828015610d7857602002820191906000526020600020905b815481526020019060010190808311610d64575b5050505050915050610e75565b828410610da45760405162461bcd60e51b815260040161074690614cb0565b6000610db08585614f7f565b6001600160401b03811115610dd557634e487b7160e01b600052604160045260246000fd5b604051908082528060200260200182016040528015610dfe578160200160208202803683370190505b509050845b848114610e7057828181548110610e2a57634e487b7160e01b600052603260045260246000fd5b9060005260206000200154828281518110610e5557634e487b7160e01b600052603260045260246000fd5b6020908102919091010152610e6981615033565b9050610e03565b509150505b9392505050565b6001600160a01b0383166000908152600c6020526040902054811415610eb45760405162461bcd60e51b81526004016107469061499d565b610ebf838383612626565b505050565b6040805180820182526008815267726f6c654d696e6560c01b60208201526009549151637af32e3960e11b815290916001600160a01b03169063f5e65c7290610f1390339085906004016145ad565b60206040518083038186803b158015610f2b57600080fd5b505afa158015610f3f573d6000803e3d6000fd5b505050506040513d601f19601f82011682018060405250810190610f639190613f0e565b610f7f5760405162461bcd60e51b815260040161074690614936565b6001600160a01b0383166000908152600c602052604090208054610fb55760405162461bcd60e51b815260040161074690614b05565b600181015460ff1615610fda5760405162461bcd60e51b8152600401610746906148c8565b60015b600191909101805460ff191660ff909216919091176cffffffff0000000000000000001916600160481b63ffffffff94909416939093029290921768ffffffffffffffff001916610100426001600160401b031602179091555050565b6000818152600460205260409020546001600160a01b03163381148061107657506000828152600560205260409020546001600160a01b031633145b806110a457506001600160a01b038116600090815260066020908152604080832033845290915290205460ff165b6110c05760405162461bcd60e51b815260040161074690614959565b6001600160a01b0381166000908152600c60205260409020548214156110f85760405162461bcd60e51b81526004016107469061499d565b61110182612631565b6000828152600b60205260408120805461ffff1916815590611126600183018261381d565b6002820180546fffffffffffffffffffffffffffffffff1916905561114f600383016000613859565b5060040180546001600160e01b03191690555050565b61116e81611334565b6001600160a01b0316336001600160a01b03161461119e5760405162461bcd60e51b815260040161074690614c44565b336000908152600c602052604090205481146111cc5760405162461bcd60e51b815260040161074690614aa0565b6111d5816126c9565b50565b6009546001600160a01b031681565b600b602052600090815260409020805460018201805460ff808416946101009094041692919061121690614ffe565b80601f016020809104026020016040519081016040528092919081815260200182805461124290614ffe565b801561128f5780601f106112645761010080835404028352916020019161128f565b820191906000526020600020905b81548152906001019060200180831161127257829003601f168201915b50505060028401546040805160e08101825260049096015463ffffffff8181168852600160201b808304821660208a0152600160401b8084048316948a0194909452600160601b808404831660608b0152600160801b8404831660808b0152600160a01b8404831660a08b0152600160c01b909304821660c08a01529697818516978504821696509284048116945092049091169088565b600a8054610b3990614ffe565b6000818152600460205260408120546001600160a01b0316806107215760405162461bcd60e51b815260040161074690614ad7565b60006001600160a01b0382166113915760405162461bcd60e51b81526004016107469061480c565b506001600160a01b031660009081526002602052604090205490565b6113b5613877565b6113bd61389e565b336000908152600c60209081526040808320868452600b83529281902081516080810183528454815260019485015460ff808216838701526101008083046001600160401b031684870152600160481b90920463ffffffff1660608401528451610120810186528454808316825292909204169481019490945293810180549193928492908401919061144f90614ffe565b80601f016020809104026020016040519081016040528092919081815260200182805461147b90614ffe565b80156114c85780601f1061149d576101008083540402835291602001916114c8565b820191906000526020600020905b8154815290600101906020018083116114ab57829003601f168201915b5050509183525050600282015463ffffffff808216602080850191909152600160201b83048216604080860191909152600160401b840483166060860152600160601b909304909116608084015260038401805483518184028101840190945280845260a090940193909183018282801561156257602002820191906000526020600020905b81548152602001906001019080831161154e575b50505091835250506040805160e0810182526004939093015463ffffffff8082168552600160201b82048116602086810191909152600160401b8304821693860193909352600160601b820481166060860152600160801b820481166080860152600160a01b8204811660a0860152600160c01b9091041660c0840152015291935090915050915091565b6115f681611334565b6001600160a01b0316336001600160a01b0316146116265760405162461bcd60e51b815260040161074690614c44565b336000908152600c6020526040902080548214156116565760405162461bcd60e51b8152600401610746906149d4565b80541561166b5761166b338260000154612954565b55565b611676613877565b61167e61389e565b6001600160a01b0383166000908152600c602090815260408083208054808552600b845293829020825160808101845294855260018083015460ff808216888801526101008083046001600160401b031689880152600160481b90920463ffffffff16606089015285516101208101875284548083168252929092041695810195909552810180549295949193919284928401919061171c90614ffe565b80601f016020809104026020016040519081016040528092919081815260200182805461174890614ffe565b80156117955780601f1061176a57610100808354040283529160200191611795565b820191906000526020600020905b81548152906001019060200180831161177857829003601f168201915b5050509183525050600282015463ffffffff808216602080850191909152600160201b83048216604080860191909152600160401b840483166060860152600160601b909304909116608084015260038401805483518184028101840190945280845260a090940193909183018282801561182f57602002820191906000526020600020905b81548152602001906001019080831161181b575b50505091835250506040805160e0810182526004939093015463ffffffff8082168552600160201b82048116602086810191909152600160401b8304821693860193909352600160601b820481166060860152600160801b820481166080860152600160a01b8204811660a0860152600160c01b9091041660c084015201529194509092505050915091565b60006118e3604051806040016040528060058152602001642a37b5b2b760d91b815250611abf565b6001600160a01b0316336001600160a01b0316141561198f5760008383600081811061191f57634e487b7160e01b600052603260045260246000fd5b919091013560f81c9050600981111561194857634e487b7160e01b600052602160045260246000fd5b905080600981111561196a57634e487b7160e01b600052602160045260246000fd5b600714156119835761197e86868686612aa9565b61198d565b5060009050611999565b505b50632229f29760e21b5b95945050505050565b60018054610b3990614ffe565b3360008181526006602090815260408083206001600160a01b038716808552925291829020805460ff191685151517905590519091907f17307eab39ab6107e8899845ad3d59bd9653f200f220920489ca2b5937696c3190611a129085906146a5565b60405180910390a35050565b6001600160a01b0381166000908152600c60205260408120805415611a615780546000908152600b6020526040902060020154600160601b900463ffffffff1691505b50919050565b6001600160a01b0384166000908152600c6020526040902054821415611a9f5760405162461bcd60e51b81526004016107469061499d565b611aab84848484612f47565b50505050565b600098975050505050505050565b6009546040516334abd05960e11b81526000916001600160a01b031690636957a0b290611af09085906004016146d6565b60206040518083038186803b158015611b0857600080fd5b505afa158015611b1c573d6000803e3d6000fd5b505050506040513d601f19601f820116820180604052508101906107219190613ba2565b60606000600a611b4f84613016565b604051602001611b6092919061443f565b60408051808303601f190181529190529392505050565b6008546001600160a01b031681565b6008546001600160a01b03163314611bb05760405162461bcd60e51b815260040161074690614c79565b6001600160a01b038116611bd65760405162461bcd60e51b815260040161074690614b3c565b600980546001600160a01b0319166001600160a01b0392909216919091179055565b611c0181611334565b6001600160a01b0316336001600160a01b031614611c315760405162461bcd60e51b815260040161074690614c44565b336000908152600c60205260409020548114611c5f5760405162461bcd60e51b815260040161074690614aa0565b6111d53382612954565b6001600160a01b0380831660009081526006602090815260408083209385168352929052205460ff165b92915050565b60408051808201825260088152677a6f6e654d696e6560c01b60208201526009549151637af32e3960e11b815290916001600160a01b03169063f5e65c7290611ce890339085906004016145ad565b60206040518083038186803b158015611d0057600080fd5b505afa158015611d14573d6000803e3d6000fd5b505050506040513d601f19601f82011682018060405250810190611d389190613f0e565b611d545760405162461bcd60e51b815260040161074690614936565b6001600160a01b0383166000908152600c602052604090208054611d8a5760405162461bcd60e51b815260040161074690614b05565b600181015460ff1615611daf5760405162461bcd60e51b8152600401610746906148c8565b6002610fdd565b60408051608081018252600881830181815267726f6c654d696e6560c01b6060840152825282518084019093528252677a6f6e654d696e6560c01b6020838101919091528101919091526000805b60028114611ecf576009546001600160a01b031663f5e65c7233858460028110611e3e57634e487b7160e01b600052603260045260246000fd5b60200201516040518363ffffffff1660e01b8152600401611e609291906145ad565b60206040518083038186803b158015611e7857600080fd5b505afa158015611e8c573d6000803e3d6000fd5b505050506040513d601f19601f82011682018060405250810190611eb09190613f0e565b91508115611ebd57611ecf565b80611ec781615033565b915050611e04565b5080611eed5760405162461bcd60e51b815260040161074690614936565b6001600160a01b0384166000908152600c602052604090208054611f235760405162461bcd60e51b815260040161074690614b05565b60018101805468ffffffffffffffffff1916905580546000908152600b6020526040812060028101805491928792611f6290849063ffffffff16614f24565b92506101000a81548163ffffffff021916908363ffffffff160217905550505050505050565b6000611fb360405180604001604052806008815260200167119c9859db595b9d60c21b815250611abf565b6001600160a01b0316336001600160a01b031614156120be57600083836000818110611fef57634e487b7160e01b600052603260045260246000fd5b919091013560f81c9050600981111561201857634e487b7160e01b600052602160045260246000fd5b9050600061205e85858080601f01602080910402602001604051908101604052809392919081815260200183838082843760009201919091525060019250613023915050565b905081600981111561208057634e487b7160e01b600052602160045260246000fd5b600614801561209a57506803000000000000000360b81b87145b156120af576120aa818733613083565b6120bb565b50600091506120c89050565b50505b5063f23a6e6160e01b5b9695505050505050565b6000838152600460205260409020546001600160a01b03163381148061210e57506000848152600560205260409020546001600160a01b031633145b8061213c57506001600160a01b038116600090815260066020908152604080832033845290915290205460ff165b6121585760405162461bcd60e51b815260040161074690614959565b6001600160a01b0381166000908152600c6020526040902054841461218f5760405162461bcd60e51b81526004016107469061499d565b61219b83836001613170565b156121b85760405162461bcd60e51b815260040161074690614869565b60006121e460405180604001604052806009815260200168115c5d5a5c1b595b9d60ba1b815250611abf565b6000868152600b602052604081209192508291905b80861461244f5786868281811061222057634e487b7160e01b600052603260045260246000fd5b9050602002013560001461243d57600080846001600160a01b03166381dd2fa08a8a8681811061226057634e487b7160e01b600052603260045260246000fd5b905060200201356040518263ffffffff1660e01b81526004016122839190614de3565b6102a06040518083038186803b15801561229c57600080fd5b505afa1580156122b0573d6000803e3d6000fd5b505050506040513d601f19601f820116820180604052508101906122d491906141c3565b91509150806020015160ff16600014806122f957508354602082015160ff9081169116145b6123155760405162461bcd60e51b815260040161074690614a3a565b6000836123245750600161238b565b83600114156123355750600361238b565b83600214156123465750600261238b565b83600314156123575750600061238b565b83600414806123665750836005145b156123735750600561238b565b83600614806123825750836007145b1561238b575060045b816040015160ff1660058111156123b257634e487b7160e01b600052602160045260246000fd5b60058111156123d157634e487b7160e01b600052602160045260246000fd5b8160058111156123f157634e487b7160e01b600052602160045260246000fd5b146123fb84613016565b60405160200161240b91906144e4565b604051602081830303815290604052906124385760405162461bcd60e51b815260040161074691906146d6565b505050505b8061244781615033565b9150506121f9565b5060028101546040516394db160b60e01b81526001600160a01b038416916394db160b91612499913391600160401b90910463ffffffff16908b908b9060038901906004016145d1565b602060405180830381600087803b1580156124b357600080fd5b505af11580156124c7573d6000803e3d6000fd5b505050506040513d601f19601f820116820180604052508101906124eb91906142f5565b60028201805463ffffffff60601b1916600160601b63ffffffff938416810291909117918290559004161561252e576125286003820187876138f0565b5061253c565b61253c600382016000613859565b50505050505050565b600c602052600090815260409020805460019091015460ff81169061010081046001600160401b031690600160481b900463ffffffff1684565b60006001600160e01b031982166301ffc9a760e01b14806125b057506001600160e01b031982166380ac58cd60e01b145b806107215750506001600160e01b031916635b5e139f60e01b1490565b6125d782826132c0565b6007600081546125e690615033565b9091555060405181906001600160a01b038416906000907fddf252ad1be2c89b69c2b068fc378daa952ba7f163c4a11628f55a4df523b3ef908290a45050565b610ebf838383613319565b6000818152600460205260409020546001600160a01b031661265381836134a9565b6000828152600560205260409020546001600160a01b03161561268d57600082815260056020526040902080546001600160a01b03191690555b60405182906000906001600160a01b038416907fddf252ad1be2c89b69c2b068fc378daa952ba7f163c4a11628f55a4df523b3ef908390a45050565b6000600b60008381526020019081526020016000209050600061270960405180604001604052806006815260200165436f6e66696760d01b815250611abf565b90506000816001600160a01b031663cc06c3596040518163ffffffff1660e01b815260040160206040518083038186803b15801561274657600080fd5b505afa15801561275a573d6000803e3d6000fd5b505050506040513d601f19601f8201168201806040525081019061277e91906142f5565b90505b600283015463ffffffff600160201b820481169116108015906127b75750600283015463ffffffff808316600160401b90920416105b15611aab5760028301546000906001600160a01b03841690631ea49196906127ed90600160401b900463ffffffff166001614f24565b6040518263ffffffff1660e01b815260040161280991906146c5565b604080518083038186803b15801561282057600080fd5b505afa158015612834573d6000803e3d6000fd5b505050506040513d601f19601f820116820180604052508101906128589190614029565b905060018460020160088282829054906101000a900463ffffffff1661287e9190614f24565b82546101009290920a63ffffffff818102199093169183160217909155602083015160028701805467ffffffff000000001916600160201b92841692909202919091178082558451935090916000916128d991859116614f96565b92506101000a81548163ffffffff021916908363ffffffff160217905550336001600160a01b03167fa421d9fba6185cbcfe80f389c1b911f4100116b7ec741d22bd357ade097a539e868660020160089054906101000a900463ffffffff16604051612946929190614dec565b60405180910390a250612781565b6001600160a01b0382166000908152600c6020908152604080832083815560010180546cffffffffffffffffffffffffff19169055838352600b825280832060028101805463ffffffff60601b1916905581518083019092526009825268115c5d5a5c1b595b9d60ba1b928201929092529091906129d190611abf565b60408051600880825261012082019092529192506000919060208201610100803683370190505060028401546040516394db160b60e01b81529192506001600160a01b038416916394db160b91612a41913391600160401b900463ffffffff1690869060038a0190600401614645565b602060405180830381600087803b158015612a5b57600080fd5b505af1158015612a6f573d6000803e3d6000fd5b505050506040513d601f19601f82011682018060405250810190612a9391906142f5565b50612aa2600384016000613859565b5050505050565b600082826001818110612acc57634e487b7160e01b600052603260045260246000fd5b9050013560f81c60f81b60f81c90506000612b1f84848080601f016020809104026020016040519081016040528093929190818152602001838380828437600092019190915250600292506135ae915050565b90506000612b308460038188614ee4565b8080601f0160208091040260200160405190810160405280939291908181526020018383808284376000920191909152505082519293505050612b855760405162461bcd60e51b8152600401610746906148ff565b6001600160a01b0387166000908152600c60205260409020805415612bbc5760405162461bcd60e51b815260040161074690614b8e565b6000612be560405180604001604052806006815260200165436f6e66696760d01b815250611abf565b90506000612c10604051806040016040528060068152602001652a32b63632b960d11b815250611abf565b90506000826001600160a01b031663cbd90cd060016040518263ffffffff1660e01b8152600401612c4191906146c5565b60006040518083038186803b158015612c5957600080fd5b505afa158015612c6d573d6000803e3d6000fd5b505050506040513d6000823e601f3d908101601f19168201604052612c959190810190614086565b80519091508a1015612cb95760405162461bcd60e51b815260040161074690614c1c565b805115612d6f576000612ce8604051806040016040528060058152602001642a37b5b2b760d91b815250611abf565b825160405163a9059cbb60e01b81529192506001600160a01b0383169163a9059cbb91612d1a9187919060040161453d565b602060405180830381600087803b158015612d3457600080fd5b505af1158015612d48573d6000803e3d6000fd5b505050506040513d601f19601f82011682018060405250810190612d6c9190613f0e565b50505b600754612d7d906001614f0c565b6001600160401b03164260401b60f088901b60ff60f01b1660f88a901b6001600160f81b031916171717808555612db5908c906125cd565b604051630f5248cb60e11b81526000906001600160a01b03851690631ea4919690612de49084906004016146c5565b604080518083038186803b158015612dfb57600080fd5b505afa158015612e0f573d6000803e3d6000fd5b505050506040513d601f19601f82011682018060405250810190612e339190614029565b85546000908152600b6020526040902090915060ff88166003811115612e6957634e487b7160e01b600052602160045260246000fd5b6003811115612e8857634e487b7160e01b600052602160045260246000fd5b815460ff191660ff91821617825589166001811115612eb757634e487b7160e01b600052602160045260246000fd5b6001811115612ed657634e487b7160e01b600052602160045260246000fd5b815460ff919091166101000261ff00199091161781558651612f0190600183019060208a019061392a565b506020909101516002909101805463ffffffff60401b1963ffffffff909316600160201b0267ffffffff0000000019909116179190911690555050505050505050505050565b612f52848484613319565b612f64836001600160a01b031661360e565b15611aab57604051630a85bd0160e11b808252906001600160a01b0385169063150b7a0290612f9d90339089908890889060040161457a565b602060405180830381600087803b158015612fb757600080fd5b505af1158015612fcb573d6000803e3d6000fd5b505050506040513d601f19601f82011682018060405250810190612fef9190613f46565b6001600160e01b03191614611aab5760405162461bcd60e51b815260040161074690614757565b606061072182600a613614565b600081613031816020614f0c565b101561304f5760405162461bcd60e51b81526004016107469061472b565b61305a826020614f0c565b8351101561307a5760405162461bcd60e51b815260040161074690614a0b565b50016020015190565b8215610ebf57604051636e27d88960e01b81526000906001600160a01b03831690636e27d889906130c4906803000000000000000360b81b90600401614de3565b60206040518083038186803b1580156130dc57600080fd5b505afa1580156130f0573d6000803e3d6000fd5b505050506040513d601f19601f820116820180604052508101906131149190614162565b6000858152600b6020526040902090915061312f8285614f60565b60028201805460009061314990849063ffffffff16614f24565b92506101000a81548163ffffffff021916908363ffffffff160217905550612aa2856126c9565b600080836001600160401b0381111561319957634e487b7160e01b600052604160045260246000fd5b6040519080825280602002602001820160405280156131c2578160200160208202803683370190505b50905060005b848110156132b457613200828787848181106131f457634e487b7160e01b600052603260045260246000fd5b90506020020135613737565b158061323a575083801561323a575085858281811061322f57634e487b7160e01b600052603260045260246000fd5b905060200201356000145b156132975785858281811061325f57634e487b7160e01b600052603260045260246000fd5b9050602002013582828151811061328657634e487b7160e01b600052603260045260246000fd5b6020026020010181815250506132a2565b600192505050610e75565b806132ac81615033565b9150506131c8565b50600095945050505050565b6001600160a01b03909116600081815260026020908152604080832080548685526003845282852081905560018101825590845282842001859055938252600490529190912080546001600160a01b0319169091179055565b6001600160a01b03831661333f5760405162461bcd60e51b81526004016107469061483b565b6001600160a01b0382166133655760405162461bcd60e51b8152600401610746906147e0565b6000818152600460205260409020546001600160a01b0384811691161461339e5760405162461bcd60e51b815260040161074690614b62565b336001600160a01b03841614806133cb57506000818152600560205260409020546001600160a01b031633145b806133f957506001600160a01b038316600090815260066020908152604080832033845290915290205460ff165b6134155760405162461bcd60e51b8152600401610746906146e9565b6000818152600560205260409020546001600160a01b03161561344f57600081815260056020526040902080546001600160a01b03191690555b61345983826134a9565b61346382826132c0565b80826001600160a01b0316846001600160a01b03167fddf252ad1be2c89b69c2b068fc378daa952ba7f163c4a11628f55a4df523b3ef60405160405180910390a4505050565b6000818152600360209081526040808320546001600160a01b0386168452600290925282208054919290916134e090600190614f7f565b9050600082828154811061350457634e487b7160e01b600052603260045260246000fd5b906000526020600020015490508083858154811061353257634e487b7160e01b600052603260045260246000fd5b6000918252602080832090910192909255828152600390915260409020849055825483908061357157634e487b7160e01b600052603160045260246000fd5b60008281526020808220830160001990810183905590920190925595815260049095525050604090922080546001600160a01b0319169055505050565b6000816135bc816001614f0c565b10156135da5760405162461bcd60e51b815260040161074690614bc5565b6135e5826001614f0c565b835110156136055760405162461bcd60e51b815260040161074690614bef565b50016001015190565b3b151590565b60608261363957506040805180820190915260018152600360fc1b6020820152611c93565b8260005b8115613662578061364d81615033565b915061365b90508483614f4c565b915061363d565b6000816001600160401b0381111561368a57634e487b7160e01b600052604160045260246000fd5b6040519080825280601f01601f1916602001820160405280156136b4576020820181803683370190505b508693509050815b831561372d576136cc868561504e565b6136d7906030614f0c565b60f81b826136e483614fe7565b9250828151811061370557634e487b7160e01b600052603260045260246000fd5b60200101906001600160f81b031916908160001a9053506137268685614f4c565b93506136bc565b5095945050505050565b6000805b835181101561378f578284828151811061376557634e487b7160e01b600052603260045260246000fd5b6020026020010151141561377d576001915050611c93565b8061378781615033565b91505061373b565b5060009392505050565b8280546137a590614ffe565b90600052602060002090601f0160209004810192826137c7576000855561380d565b82601f106137e05782800160ff1982351617855561380d565b8280016001018555821561380d579182015b8281111561380d5782358255916020019190600101906137f2565b5061381992915061399e565b5090565b50805461382990614ffe565b6000825580601f1061383b57506111d5565b601f0160209004906000526020600020908101906111d5919061399e565b50805460008255906000526020600020908101906111d5919061399e565b60408051608081018252600080825260208201819052918101829052606081019190915290565b604080516101208101825260008082526020820181905260609282018390528282018190526080820181905260a0820181905260c082015260e081019190915261010081016138eb6139b3565b905290565b82805482825590600052602060002090810192821561380d579160200282018281111561380d5782358255916020019190600101906137f2565b82805461393690614ffe565b90600052602060002090601f016020900481019282613958576000855561380d565b82601f1061397157805160ff191683800117855561380d565b8280016001018555821561380d579182015b8281111561380d578251825591602001919060010190613983565b5b80821115613819576000815560010161399f565b6040805160e081018252600080825260208201819052918101829052606081018290526080810182905260a0810182905260c081019190915290565b6000613a026139fd84614eb1565b614e88565b9050828152838383011115613a1657600080fd5b828260208301376000602084830101529392505050565b60008083601f840112613a3e578182fd5b5081356001600160401b03811115613a54578182fd5b6020830191508360208083028501011115613a6e57600080fd5b9250929050565b8051610724816150b9565b60008083601f840112613a91578182fd5b5081356001600160401b03811115613aa7578182fd5b602083019150836020828501011115613a6e57600080fd5b600060e08284031215613ad0578081fd5b60405160e081018181106001600160401b0382111715613af257613af261508e565b604052905080613b0183613b70565b8152613b0f60208401613b70565b6020820152613b2060408401613b70565b6040820152613b3160608401613b70565b6060820152613b4260808401613b70565b6080820152613b5360a08401613b70565b60a0820152613b6460c08401613b70565b60c08201525092915050565b8051610724816150dd565b8051610724816150ef565b600060208284031215613b97578081fd5b8135610e75816150a4565b600060208284031215613bb3578081fd5b8151610e75816150a4565b60008060408385031215613bd0578081fd5b8235613bdb816150a4565b91506020830135613beb816150a4565b809150509250929050565b60008060008060008060008060a0898b031215613c11578384fd5b8835613c1c816150a4565b97506020890135613c2c816150a4565b965060408901356001600160401b0380821115613c47578586fd5b613c538c838d01613a2d565b909850965060608b0135915080821115613c6b578586fd5b613c778c838d01613a2d565b909650945060808b0135915080821115613c8f578384fd5b50613c9c8b828c01613a80565b999c989b5096995094979396929594505050565b600080600060608486031215613cc4578081fd5b8335613ccf816150a4565b92506020840135613cdf816150a4565b929592945050506040919091013590565b600080600080600060808688031215613d07578283fd5b8535613d12816150a4565b94506020860135613d22816150a4565b93506040860135925060608601356001600160401b03811115613d43578182fd5b613d4f88828901613a80565b969995985093965092949392505050565b60008060008060808587031215613d75578182fd5b8435613d80816150a4565b93506020850135613d90816150a4565b92506040850135915060608501356001600160401b03811115613db1578182fd5b8501601f81018713613dc1578182fd5b613dd0878235602084016139ef565b91505092959194509250565b60008060008060008060a08789031215613df4578384fd5b8635613dff816150a4565b95506020870135613e0f816150a4565b9450604087013593506060870135925060808701356001600160401b03811115613e37578283fd5b613e4389828a01613a80565b979a9699509497509295939492505050565b60008060408385031215613e67578182fd5b8235613e72816150a4565b91506020830135613beb816150b9565b60008060408385031215613e94578182fd5b8235613e9f816150a4565b946020939093013593505050565b600080600060608486031215613ec1578081fd5b8335613ecc816150a4565b95602085013595506040909401359392505050565b60008060408385031215613ef3578182fd5b8235613efe816150a4565b91506020830135613beb816150dd565b600060208284031215613f1f578081fd5b8151610e75816150b9565b600060208284031215613f3b578081fd5b8135610e75816150c7565b600060208284031215613f57578081fd5b8151610e75816150c7565b600080600080600060808688031215613f79578283fd5b85356001600160401b03811115613f8e578384fd5b613f9a88828901613a80565b9096509450506020860135613fae816150ef565b92506040860135613fbe816150ef565b91506060860135613fce816150dd565b809150509295509295909350565b600060208284031215613fed578081fd5b81356001600160401b03811115614002578182fd5b8201601f81018413614012578182fd5b614021848235602084016139ef565b949350505050565b60006040828403121561403a578081fd5b604051604081018181106001600160401b038211171561405c5761405c61508e565b604052825161406a816150dd565b8152602083015161407a816150dd565b60208201529392505050565b60006020808385031215614098578182fd5b82516001600160401b03808211156140ae578384fd5b90840190604082870312156140c1578384fd5b6040516040810181811083821117156140dc576140dc61508e565b6040528251815283830151828111156140f3578586fd5b80840193505086601f840112614107578485fd5b825191506141176139fd83614eb1565b828152878584860101111561412a578586fd5b61413983868301878701614fbb565b938101939093525090949350505050565b60006020828403121561415b578081fd5b5035919050565b600060208284031215614173578081fd5b5051919050565b60008060006040848603121561418e578081fd5b8335925060208401356001600160401b038111156141aa578182fd5b6141b686828701613a2d565b9497909650939450505050565b6000808284036102a08112156141d7578283fd5b83519250610280601f19820112156141ed578182fd5b506101c06141fa81614e88565b61420660208601613b70565b815261421460408601613b7b565b602082015261422560608601613b7b565b604082015261423660808601613b7b565b606082015261424760a08601613a75565b608082015261425860c08601613a75565b60a082015260e085015160c0820152610100614275818701613b70565b60e0830152610120614288818801613b70565b82840152610140915061429c828801613b70565b908301526101606142ae878201613b70565b8284015261018091506142c2828801613b70565b908301526101a06142d4878201613b70565b828401526142e488858901613abf565b908301525092959294509192505050565b600060208284031215614306578081fd5b8151610e75816150dd565b6000815180845260208085019450808401835b8381101561434057815187529582019590820190600101614324565b509495945050505050565b6000815480845260208085019450838352808320835b8381101561434057815487529582019560019182019101614361565b60008151808452614395816020860160208601614fbb565b601f01601f19169290920160200192915050565b600081516143bb818560208601614fbb565b9290920192915050565b64173539b7b760d91b815260050190565b63ffffffff8082511683528060208301511660208401528060408301511660408401528060608301511660608401528060808301511660808401528060a08301511660a08401528060c08301511660c0840152505050565b63ffffffff169052565b60ff169052565b825460009081906002810460018083168061445b57607f831692505b602080841082141561447b57634e487b7160e01b87526022600452602487fd5b81801561448f57600181146144a0576144cc565b60ff198616895284890196506144cc565b6144a98b614ed8565b885b868110156144c45781548b8201529085019083016144ab565b505084890196505b5050505050506119996144df82866143a9565b6143c5565b60007f496e76616c69642065717569706d656e742063617465676f72793a20000000008252825161451c81601c850160208701614fbb565b91909101601c0192915050565b6001600160a01b0391909116815260200190565b6001600160a01b03929092168252602082015260400190565b6001600160a01b039384168152919092166020820152604081019190915260600190565b6001600160a01b03858116825284166020820152604081018390526080606082018190526000906120c89083018461437d565b6001600160a01b03831681526040602082018190526000906140219083018461437d565b6001600160a01b038616815263ffffffff85166020820152608060408201819052810183905260006001600160fb1b0384111561460c578081fd5b60208402808660a0850137808301905060a0810182815260a0848303016060850152614638818661434b565b9998505050505050505050565b6001600160a01b038516815263ffffffff8416602082015260806040820181905260009061467590830185614311565b8281036060840152614687818561434b565b979650505050505050565b600060208252610e756020830184614311565b901515815260200190565b6001600160e01b031991909116815260200190565b63ffffffff91909116815260200190565b600060208252610e75602083018461437d565b60208082526022908201527f73656e646572206d757374206265206f776e6572206f7220617070726f76616c604082015261195960f21b606082015260800190565b602080825260129082015271746f55696e743235365f6f766572666c6f7760701b604082015260600190565b60208082526021908201527f6f6e455243373231526563656976656428292072657475726e20696e76616c696040820152601960fa1b606082015260800190565b60208082526028908201527f73656e646572206d757374206265206f776e6572206f7220617070726f76656460408201526708199bdc88185b1b60c21b606082015260800190565b602080825260129082015271746f206973207a65726f206164647265737360701b604082015260600190565b6020808252601590820152746f776e6572206973207a65726f206164647265737360581b604082015260600190565b60208082526014908201527366726f6d206973207a65726f206164647265737360601b604082015260600190565b6020808252600e908201526d496e76616c6964206e657749647360901b604082015260600190565b60208082526018908201527f546865207061796d656e7420697320746f6f20736d616c6c0000000000000000604082015260600190565b6020808252601b908201527f5468697320726f6c652063616e6e6f74206265206f7065726174650000000000604082015260600190565b60208082526019908201527f4865726f206e616d652063616e6e6f7420626520656d70747900000000000000604082015260600190565b6020808252600990820152681b9bc81c195c9b5a5d60ba1b604082015260600190565b60208082526024908201527f6d73672e73656e646572206d757374206265206f776e6572206f7220617070726040820152631bdd995960e21b606082015260800190565b6020808252601b908201527f54686520726f6c652069732063757272656e746c7920626f756e640000000000604082015260600190565b6020808252601c908201527f54686973206865726f20686173206265656e2061637469766174656400000000604082015260600190565b602080825260159082015274746f55696e743235365f6f75744f66426f756e647360581b604082015260600190565b6020808252601c908201527f496e76616c69642065717569706d656e742070726f66657373696f6e00000000604082015260600190565b6020808252601590820152743737b137b23c9037bbb7103a3432b7103a37b5b2b760591b604082015260600190565b60208082526017908201527f54686973206865726f206973206e6f7420616374697665000000000000000000604082015260600190565b6020808252601490820152733737b137b23c9037bbb7103a3432903a37b5b2b760611b604082015260600190565b60208082526018908201527f54686973206164647265737320686173206e6f20726f6c650000000000000000604082015260600190565b6020808252600c908201526b7a65726f206164647265737360a01b604082015260600190565b602080825260129082015271333937b69036bab9ba1031329037bbb732b960711b604082015260600190565b6020808252601e908201527f4865726f20616c72656164792065786973747320617420616464726573730000604082015260600190565b60208082526010908201526f746f55696e74385f6f766572666c6f7760801b604082015260600190565b602080825260139082015272746f55696e74385f6f75744f66426f756e647360681b604082015260600190565b6020808252600e908201526d08ccaca40dcdee840cadcdeeaced60931b604082015260600190565b6020808252818101527f54686973206865726f20646f6573206e6f742062656c6f6e6720746f20796f75604082015260600190565b60208082526019908201527f6f6e6c7920616c6c6f7720636f6e7472616374206f776e657200000000000000604082015260600190565b6020808252600d908201526c0d2dcecc2d8d2c840d2dcc8caf609b1b604082015260600190565b60008351825260ff60208501511660208301526001600160401b03604085015116604083015263ffffffff606085015116606083015260a06080830152614d2260a083018451614438565b6020830151614d3460c0840182614438565b5060408301516101e060e0840152614d5061028084018261437d565b90506060840151610100614d668186018361442e565b60808601519150614d7b61012086018361442e565b60a08601519150614d9061014086018361442e565b60c08601519150614da561016086018361442e565b60e0860151858403609f19016101808701529150614dc38383614311565b925080860151915050614dda6101a08501826143d6565b50949350505050565b90815260200190565b91825263ffffffff16602082015260400190565b93845260ff9290921660208401526001600160401b0316604083015263ffffffff16606082015260800190565b60006101c060ff8b16835260ff8a166020840152806040840152614e538184018a61437d565b63ffffffff8981166060860152888116608086015287811660a0860152861660c08501529150614638905060e08301846143d6565b6040518181016001600160401b0381118282101715614ea957614ea961508e565b604052919050565b60006001600160401b03821115614eca57614eca61508e565b50601f01601f191660200190565b60009081526020902090565b60008085851115614ef3578182fd5b83861115614eff578182fd5b5050820193919092039150565b60008219821115614f1f57614f1f615062565b500190565b600063ffffffff808316818516808303821115614f4357614f43615062565b01949350505050565b600082614f5b57614f5b615078565b500490565b6000816000190483118215151615614f7a57614f7a615062565b500290565b600082821015614f9157614f91615062565b500390565b600063ffffffff83811690831681811015614fb357614fb3615062565b039392505050565b60005b83811015614fd6578181015183820152602001614fbe565b83811115611aab5750506000910152565b600081614ff657614ff6615062565b506000190190565b60028104600182168061501257607f821691505b60208210811415611a6157634e487b7160e01b600052602260045260246000fd5b600060001982141561504757615047615062565b5060010190565b60008261505d5761505d615078565b500690565b634e487b7160e01b600052601160045260246000fd5b634e487b7160e01b600052601260045260246000fd5b634e487b7160e01b600052604160045260246000fd5b6001600160a01b03811681146111d557600080fd5b80151581146111d557600080fd5b6001600160e01b0319811681146111d557600080fd5b63ffffffff811681146111d557600080fd5b60ff811681146111d557600080fdfea2646970667358221220925b3687c7ac0685d1121d89cae987ef76658c2ecdfe01630c4d6a8164d457d964736f6c6343000800003368747470733a2f2f736f757263652e6c6567656e646e66742e636f6d2f6865726f2f",
  "immutableReferences": {},
  "source": "pragma solidity ^0.8.0;\npragma abicoder v2;\n\n// SPDX-License-Identifier: MIT\n\nimport \"./lib/Permission.sol\";\nimport \"./lib/ERC721.sol\";\nimport \"./include/IERC20.sol\";\nimport \"./lib/Uinteger.sol\";\nimport \"./Structs.sol\";\nimport \"./include/IConfig.sol\";\nimport \"./include/IRole.sol\";\nimport \"./include/IEquipment.sol\";\nimport \"./include/IERC721.sol\";\nimport \"./include/IERC1155TokenReceiver.sol\";\nimport \"./lib/Utils.sol\";\nimport \"./include/ILockTokens.sol\";\nimport \"./include/IERC1363Receiver.sol\";\nimport \"./lib/Array.sol\";\n\ncontract Hero is ERC721, Permission, IRole, IERC1155TokenReceiver, IERC1363Receiver {\n    using Uinteger for uint256;\n\n    //id\n    uint256 internal constant fragmentId = (uint256(3) << 248) | (uint256(3) << 184);\n\n    string public uriPrefix = \"https://source.legendnft.com/hero/\";\n\n    // hero id => Hero Attributes\n    mapping(uint256 => HeroAttrs) public heroAttrs;\n    // address => heroId,status\n    mapping(address => CurrentHero) public currentHeros;\n\n    /***********event ***********/\n    event Upgrade(address indexed owner, uint256 heroId, uint32 level);\n\n    constructor(string memory _name, string memory _symbol) ERC721(_name, _symbol) {}\n\n    function getHeroPower(address roleAddr) external view override returns (uint32 power) {\n        CurrentHero storage ch = currentHeros[roleAddr];\n        if (ch.tokenId != 0) {\n            power = heroAttrs[ch.tokenId].power;\n        }\n    }\n\n    function safeTransferFrom(\n        address from,\n        address to,\n        uint256 tokenId,\n        bytes memory data\n    ) public payable override {\n        require(currentHeros[from].tokenId != tokenId, \"The role is currently bound\");\n        super.safeTransferFrom(from, to, tokenId, data);\n    }\n\n    function transferFrom(\n        address from,\n        address to,\n        uint256 tokenId\n    ) public payable override {\n        require(currentHeros[from].tokenId != tokenId, \"The role is currently bound\");\n        super.transferFrom(from, to, tokenId);\n    }\n\n    function tokenURI(uint256 _tokenId) external view override returns (string memory) {\n        string memory uri = string(abi.encodePacked(uriPrefix, _tokenId.toString(), \".json\"));\n        return uri;\n    }\n\n    function getHeroInfo(uint256 id) external view override returns (CurrentHero memory hero, HeroAttrs memory attrs) {\n        return (currentHeros[msg.sender], heroAttrs[id]);\n    }\n\n    function getHeroInfo(address addr) external view override returns (CurrentHero memory hero, HeroAttrs memory attrs) {\n        CurrentHero storage ch = currentHeros[addr];\n        return (ch, heroAttrs[ch.tokenId]);\n    }\n\n    function getRoleId(address user) public view override returns (uint256 roleId) {\n        return currentHeros[user].tokenId;\n    }\n\n    function inMine(address user, uint256 time) external override CheckPermit(\"roleMine\") {\n        CurrentHero storage ch = currentHeros[user];\n        require(ch.tokenId != 0, \"This address has no role\");\n        require(ch.status == 0, \"This role cannot be operate\");\n        ch.status = uint8(HeroStatus.Mine);\n        ch.time = uint32(time);\n        ch.startTime = uint64(block.timestamp);\n    }\n\n    function inZone(address user, uint256 time) external override CheckPermit(\"zoneMine\") {\n        CurrentHero storage ch = currentHeros[user];\n        require(ch.tokenId != 0, \"This address has no role\");\n        require(ch.status == 0, \"This role cannot be operate\");\n        ch.status = uint8(HeroStatus.Zone);\n        ch.time = uint32(time);\n        ch.startTime = uint64(block.timestamp);\n    }\n\n    function stopWorking(address user, uint32 exp) external override CheckPermit2([\"roleMine\", \"zoneMine\"]) {\n        CurrentHero storage ch = currentHeros[user];\n        require(ch.tokenId != 0, \"This address has no role\");\n        ch.status = uint8(HeroStatus.None);\n        ch.startTime = uint64(0);\n        HeroAttrs storage ha = heroAttrs[ch.tokenId];\n        ha.exp += exp;\n    }\n\n    function _create(\n        address sender,\n        uint256 value,\n        bytes calldata _data\n    ) internal {\n        uint8 gender = uint8(_data[1]);//\n        uint8 profession = Utils.toUint8(_data, 2);//\n        string memory name = string(bytes(_data[3:]));\n\n        require(bytes(name).length > 0, \"Hero name cannot be empty\");\n        CurrentHero storage hero = currentHeros[sender];\n        require(hero.tokenId == 0, \"Hero already exists at address\");\n\n        IConfig cfg = IConfig(getAddress(\"Config\"));\n        address payable teller = payable(getAddress(\"Teller\"));\n        TokenInfo memory heroFeeInfo = cfg.getTokenInfo(1);\n        require(value >= heroFeeInfo.fee, \"Fee not enough\");\n\n        if (heroFeeInfo.fee > 0) {\n            //\n            IERC20 token = IERC20(getAddress(\"Token\"));\n            token.transfer(teller, heroFeeInfo.fee);\n        }\n\n        hero.tokenId = (uint256(gender) << 248) | (uint256(profession) << 240) | (block.timestamp << 64) | uint64(totalSupply + 1);\n        _mint(sender, hero.tokenId);\n\n        LevelInfo memory ma = cfg.getLevelInfo(0);\n        HeroAttrs storage heroAttr = heroAttrs[hero.tokenId];\n        heroAttr.profession = uint8(Profession(profession));\n        heroAttr.gender = uint8(Gender(gender));\n        heroAttr.name = name;\n        heroAttr.upExp = ma.nextExp;\n        heroAttr.level = 0;\n    }\n\n    function create(\n        string calldata name,\n        uint8 gender,\n        uint8 profession,\n        uint32 tokenType\n    ) external payable override {\n        require(bytes(name).length > 0, \"Hero name cannot be empty\");\n        CurrentHero storage hero = currentHeros[msg.sender];\n        require(hero.tokenId == 0, \"Hero already exists at address\");\n\n        IConfig cfg = IConfig(getAddress(\"Config\"));\n        address payable teller = payable(getAddress(\"Teller\"));\n        TokenInfo memory heroFeeInfo = cfg.getTokenInfo(tokenType);\n        if (heroFeeInfo.fee > 0) {\n            if (tokenType == 0) {\n                require(msg.value >= heroFeeInfo.fee, \"The payment is too small\");\n                teller.transfer(msg.value);\n            } else {\n                IERC20 token = IERC20(getAddress(heroFeeInfo.key));\n                token.transferFrom(msg.sender, teller, heroFeeInfo.fee);\n            }\n        }\n\n        hero.tokenId = (uint256(gender) << 248) | (uint256(profession) << 240) | (block.timestamp << 64) | uint64(totalSupply + 1);\n        _mint(msg.sender, hero.tokenId);\n\n        LevelInfo memory ma = cfg.getLevelInfo(0);\n        HeroAttrs storage heroAttr = heroAttrs[hero.tokenId];\n        heroAttr.profession = uint8(Profession(profession));\n        heroAttr.gender = uint8(Gender(gender));\n        heroAttr.name = name;\n        heroAttr.upExp = ma.nextExp;\n        heroAttr.level = 0;\n    }\n\n    function _packet(address sender, uint256 heroId) internal {\n        delete currentHeros[sender];\n        HeroAttrs storage hero = heroAttrs[heroId];\n        hero.power = 0;\n\n        IEquipment iEquip = IEquipment(getAddress(\"Equipment\"));\n        uint256[] memory newIds = new uint256[](8);\n        iEquip.equip(msg.sender, hero.level, newIds, hero.equipmentSlot);\n\n        delete hero.equipmentSlot;\n    }\n\n    function packet(uint256 heroId) external override {\n        // require(heroId != 0, \"Hero id cannot be 0\");\n        require(msg.sender == ownerOf(heroId), \"This hero does not belong to you\");\n        require(currentHeros[msg.sender].tokenId == heroId, \"This hero is not active\");\n        _packet(msg.sender, heroId);\n    }\n\n    function activation(uint256 heroId) external override {\n        // require(heroId != 0, \"Hero id cannot be 0\");\n        require(msg.sender == ownerOf(heroId), \"This hero does not belong to you\");\n        CurrentHero storage ch = currentHeros[msg.sender];\n        require(ch.tokenId != heroId, \"This hero has been activated\");\n        if (ch.tokenId != 0) {\n            _packet(msg.sender, ch.tokenId);\n        }\n        ch.tokenId = heroId;\n    }\n\n    function _upgrade(uint256 heroId) internal {\n        HeroAttrs storage heroAttr = heroAttrs[heroId];\n        IConfig cfg = IConfig(getAddress(\"Config\"));\n        uint32 maxLevel = cfg.maxLevel();\n        while (heroAttr.exp >= heroAttr.upExp && heroAttr.level < maxLevel) {\n            LevelInfo memory levelInfo = cfg.getLevelInfo(heroAttr.level + 1);\n            heroAttr.level += 1;\n            heroAttr.upExp = levelInfo.nextExp;\n            heroAttr.exp -= levelInfo.exp;\n            emit Upgrade(msg.sender, heroId, heroAttr.level);\n        }\n    }\n\n    function upgrade(uint256 heroId) external override {\n        require(msg.sender == ownerOf(heroId), \"This hero does not belong to you\");\n        require(currentHeros[msg.sender].tokenId == heroId, \"This hero is not active\");\n        _upgrade(heroId);\n    }\n\n    function burn(uint256 heroId) external override {\n        address owner = tokenOwners[heroId];\n        require(msg.sender == owner || msg.sender == tokenApprovals[heroId] || approvalForAlls[owner][msg.sender], \"msg.sender must be owner or approved\");\n        require(currentHeros[owner].tokenId != heroId, \"The role is currently bound\");\n        _burn(heroId);\n        delete heroAttrs[heroId];\n    }\n\n    function equip(uint256 heroId, uint256[] calldata newIds) external override {\n        address owner = tokenOwners[heroId];\n        require(msg.sender == owner || msg.sender == tokenApprovals[heroId] || approvalForAlls[owner][msg.sender], \"msg.sender must be owner or approved\");\n        require(currentHeros[owner].tokenId == heroId, \"The role is currently bound\");\n        //id\n        require(Array.checkRepeat(newIds, true) == false, \"Invalid newIds\");\n        \n        //\n        address _equip = getAddress(\"Equipment\");\n        IEquipment iEquip = IEquipment(_equip);\n        HeroAttrs storage heroAttr = heroAttrs[heroId];\n\n        //[,L,R,LR]\n        for(uint256 i = 0; i != newIds.length; i++){\n            if(newIds[i] != 0){\n                (uint256 id, EquipmentAttr memory attrs)=iEquip.getEquipment(newIds[i]);\n                require(attrs.profession == 0 || attrs.profession == heroAttr.profession, \"Invalid equipment profession\");\n                EquipmentType et;\n                if(i == 0){\n                    et = EquipmentType.Helmet;\n                }else if(i == 1){\n                    et = EquipmentType.Necklace;\n                }else if(i == 2){\n                    et = EquipmentType.Armor;\n                }else if(i == 3){\n                    et = EquipmentType.Arms;\n                }else if(i == 4 || i == 5){\n                    et = EquipmentType.Bracelet;\n                }else if(i == 6 || i == 7){\n                    et = EquipmentType.Ring;\n                }\n                require(et == EquipmentType(attrs.category), string(abi.encodePacked(\"Invalid equipment category: \", id.toString())));\n            }\n        }\n        \n        heroAttr.power = iEquip.equip(msg.sender, heroAttr.level, newIds, heroAttr.equipmentSlot);\n        if (heroAttr.power > 0) {\n            heroAttr.equipmentSlot = newIds;\n        } else {\n            delete heroAttr.equipmentSlot;\n        }\n    }\n\n    function expMedicine(\n        uint256 heroId,\n        uint256 amount,\n        address fragment\n    ) internal {\n        if (heroId != 0) {\n            uint256 perExp = ILockTokens(fragment).lockTokens(fragmentId); //tokens\n            HeroAttrs storage heroAttr = heroAttrs[heroId];\n            heroAttr.exp += uint32(amount * perExp);\n            _upgrade(heroId);\n        }\n    }\n\n    function onTransferReceived(\n        address,\n        address from,\n        uint256 value,\n        bytes calldata data\n    ) public override returns (bytes4) {\n        if(msg.sender == getAddress(\"Token\")){\n            Operate op = Operate(uint8(data[0]));\n            if (Operate.CreateHero == op) {\n                //\n                _create(from, value, data);\n            } else {\n                return 0;\n            }\n        }\n        return IERC1363Receiver(this).onTransferReceived.selector;\n    }\n\n    function onERC1155Received(\n        address,\n        address,\n        uint256 _id,\n        uint256 _value,\n        bytes calldata _data\n    ) external override returns (bytes4) {\n        if (msg.sender == getAddress(\"Fragment\")) {\n            Operate op = Operate(uint8(_data[0]));\n            uint256 heroId = Utils.toUint256(_data, 1);\n            if (Operate.ExpMedicine == op && fragmentId == _id) {\n                //\n                expMedicine(heroId, _value, msg.sender);\n            } else {\n                return 0;\n            }\n        }\n        return IERC1155TokenReceiver(this).onERC1155Received.selector;\n    }\n\n    function onERC1155BatchReceived(\n        address _operator,\n        address _from,\n        uint256[] calldata _ids,\n        uint256[] calldata _values,\n        bytes calldata _data\n    ) external override returns (bytes4) {}\n\n    function supportsInterface(bytes4 interfaceId) public pure override returns (bool) {\n        return interfaceId == type(IERC1363Receiver).interfaceId || interfaceId == type(IERC1155TokenReceiver).interfaceId || super.supportsInterface(interfaceId);\n    }\n}\n",
  "sourcePath": "/Users/necklace/work/Legend/Legend/contracts/Hero.sol",
  "compiler": {
    "name": "solc",
    "version": "0.8.0+commit.c7dfd78e.Darwin.appleclang"
  },
  "schemaVersion": "3.4.3",
  "updatedAt": "2022-03-25T17:08:34.057Z",
  "networkType": "ethereum",
  "devdoc": {
    "kind": "dev",
    "methods": {
      "create(string,uint8,uint8,uint32)": {
        "params": {
          "gender": "",
          "name": "",
          "profession": "",
          "tokenType": "token(1.USDT,2.LGC)"
        }
      },
      "equip(uint256,uint256[])": {
        "params": {
          "heroId": "id",
          "newIds": "id "
        }
      },
      "getHeroInfo(uint256)": {
        "params": {
          "id": "id"
        }
      },
      "getHeroPower(address)": {
        "params": {
          "roleAddr": "()"
        }
      },
      "getRoleId(address)": {
        "params": {
          "user": ""
        }
      },
      "inMine(address,uint256)": {
        "params": {
          "time": "()",
          "user": ""
        }
      },
      "inZone(address,uint256)": {
        "params": {
          "time": "()",
          "user": ""
        }
      },
      "onERC1155BatchReceived(address,address,uint256[],uint256[],bytes)": {
        "details": "An ERC1155-compliant smart contract MUST call this function on the token recipient contract, at the end of a `safeBatchTransferFrom` after the balances have been updated. This function MUST return `bytes4(keccak256(\"onERC1155BatchReceived(address,address,uint256[],uint256[],bytes)\"))` (i.e. 0xbc197c81) if it accepts the transfer(s). This function MUST revert if it rejects the transfer(s). Return of any other value than the prescribed keccak256 generated value MUST result in the transaction being reverted by the caller.",
        "params": {
          "_data": "Additional data with no specified format",
          "_from": "The address which previously owned the token",
          "_ids": "An array containing ids of each token being transferred (order and length must match _values array)",
          "_operator": "The address which initiated the batch transfer (i.e. msg.sender)",
          "_values": "An array containing amounts of each token being transferred (order and length must match _ids array)"
        },
        "returns": {
          "_0": "`bytes4(keccak256(\"onERC1155BatchReceived(address,address,uint256[],uint256[],bytes)\"))`"
        }
      },
      "stopWorking(address,uint32)": {
        "params": {
          "exp": "",
          "user": ""
        }
      },
      "tokenURI(uint256)": {
        "details": "Throws if `_tokenId` is not a valid NFT. URIs are defined in RFC  3986. The URI may point to a JSON file that conforms to the \"ERC721  Metadata JSON Schema\". {\"name\":\"\",\"description\":\"\",\"image\":\"\"}"
      }
    },
    "version": 1
  },
  "userdoc": {
    "kind": "user",
    "methods": {
      "create(string,uint8,uint8,uint32)": {
        "notice": ""
      },
      "equip(uint256,uint256[])": {
        "notice": ""
      },
      "getHeroInfo(uint256)": {
        "notice": ""
      },
      "getHeroPower(address)": {
        "notice": "()"
      },
      "getRoleId(address)": {
        "notice": "id"
      },
      "inMine(address,uint256)": {
        "notice": ""
      },
      "inZone(address,uint256)": {
        "notice": ""
      },
      "name()": {
        "notice": "A descriptive name for a collection of NFTs in this contract"
      },
      "onERC1155BatchReceived(address,address,uint256[],uint256[],bytes)": {
        "notice": "Handle the receipt of multiple ERC1155 token types."
      },
      "stopWorking(address,uint32)": {
        "notice": ""
      },
      "symbol()": {
        "notice": "An abbreviated name for NFTs in this contract"
      },
      "tokenURI(uint256)": {
        "notice": "A distinct Uniform Resource Identifier (URI) for a given asset."
      }
    },
    "version": 1
  }
}