{
  "contractName": "LGC",
  "abi": [
    {
      "inputs": [
        {
          "internalType": "string",
          "name": "_name",
          "type": "string"
        },
        {
          "internalType": "string",
          "name": "_symbol",
          "type": "string"
        },
        {
          "internalType": "uint8",
          "name": "_decimals",
          "type": "uint8"
        },
        {
          "internalType": "uint256",
          "name": "_maxSupply",
          "type": "uint256"
        }
      ],
      "stateMutability": "nonpayable",
      "type": "constructor"
    },
    {
      "anonymous": false,
      "inputs": [
        {
          "indexed": true,
          "internalType": "address",
          "name": "owner",
          "type": "address"
        },
        {
          "indexed": true,
          "internalType": "address",
          "name": "spender",
          "type": "address"
        },
        {
          "indexed": false,
          "internalType": "uint256",
          "name": "value",
          "type": "uint256"
        }
      ],
      "name": "Approval",
      "type": "event"
    },
    {
      "anonymous": false,
      "inputs": [
        {
          "indexed": true,
          "internalType": "address",
          "name": "from",
          "type": "address"
        },
        {
          "indexed": true,
          "internalType": "address",
          "name": "to",
          "type": "address"
        },
        {
          "indexed": false,
          "internalType": "uint256",
          "name": "value",
          "type": "uint256"
        }
      ],
      "name": "Transfer",
      "type": "event"
    },
    {
      "inputs": [],
      "name": "activity",
      "outputs": [
        {
          "internalType": "uint256",
          "name": "",
          "type": "uint256"
        }
      ],
      "stateMutability": "view",
      "type": "function"
    },
    {
      "inputs": [
        {
          "internalType": "address",
          "name": "",
          "type": "address"
        },
        {
          "internalType": "address",
          "name": "",
          "type": "address"
        }
      ],
      "name": "allowance",
      "outputs": [
        {
          "internalType": "uint256",
          "name": "",
          "type": "uint256"
        }
      ],
      "stateMutability": "view",
      "type": "function"
    },
    {
      "inputs": [
        {
          "internalType": "address",
          "name": "spender",
          "type": "address"
        },
        {
          "internalType": "uint256",
          "name": "amount",
          "type": "uint256"
        }
      ],
      "name": "approve",
      "outputs": [
        {
          "internalType": "bool",
          "name": "",
          "type": "bool"
        }
      ],
      "stateMutability": "nonpayable",
      "type": "function"
    },
    {
      "inputs": [
        {
          "internalType": "address",
          "name": "",
          "type": "address"
        }
      ],
      "name": "balanceOf",
      "outputs": [
        {
          "internalType": "uint256",
          "name": "",
          "type": "uint256"
        }
      ],
      "stateMutability": "view",
      "type": "function"
    },
    {
      "inputs": [
        {
          "internalType": "address",
          "name": "from",
          "type": "address"
        },
        {
          "internalType": "uint256",
          "name": "amount",
          "type": "uint256"
        }
      ],
      "name": "burnFrom",
      "outputs": [],
      "stateMutability": "nonpayable",
      "type": "function"
    },
    {
      "inputs": [],
      "name": "contractOwner",
      "outputs": [
        {
          "internalType": "address",
          "name": "",
          "type": "address"
        }
      ],
      "stateMutability": "view",
      "type": "function"
    },
    {
      "inputs": [],
      "name": "decimals",
      "outputs": [
        {
          "internalType": "uint8",
          "name": "",
          "type": "uint8"
        }
      ],
      "stateMutability": "view",
      "type": "function"
    },
    {
      "inputs": [
        {
          "internalType": "string",
          "name": "key",
          "type": "string"
        }
      ],
      "name": "getAddress",
      "outputs": [
        {
          "internalType": "address",
          "name": "",
          "type": "address"
        }
      ],
      "stateMutability": "view",
      "type": "function"
    },
    {
      "inputs": [],
      "name": "manager",
      "outputs": [
        {
          "internalType": "contract Manager",
          "name": "",
          "type": "address"
        }
      ],
      "stateMutability": "view",
      "type": "function"
    },
    {
      "inputs": [],
      "name": "name",
      "outputs": [
        {
          "internalType": "string",
          "name": "",
          "type": "string"
        }
      ],
      "stateMutability": "view",
      "type": "function"
    },
    {
      "inputs": [],
      "name": "remainedSupply",
      "outputs": [
        {
          "internalType": "uint256",
          "name": "",
          "type": "uint256"
        }
      ],
      "stateMutability": "view",
      "type": "function"
    },
    {
      "inputs": [
        {
          "internalType": "address",
          "name": "addr",
          "type": "address"
        }
      ],
      "name": "setManager",
      "outputs": [],
      "stateMutability": "nonpayable",
      "type": "function"
    },
    {
      "inputs": [],
      "name": "symbol",
      "outputs": [
        {
          "internalType": "string",
          "name": "",
          "type": "string"
        }
      ],
      "stateMutability": "view",
      "type": "function"
    },
    {
      "inputs": [],
      "name": "team",
      "outputs": [
        {
          "internalType": "uint256",
          "name": "",
          "type": "uint256"
        }
      ],
      "stateMutability": "view",
      "type": "function"
    },
    {
      "inputs": [],
      "name": "totalSupply",
      "outputs": [
        {
          "internalType": "uint256",
          "name": "",
          "type": "uint256"
        }
      ],
      "stateMutability": "view",
      "type": "function"
    },
    {
      "inputs": [
        {
          "internalType": "address",
          "name": "to",
          "type": "address"
        },
        {
          "internalType": "uint256",
          "name": "amount",
          "type": "uint256"
        }
      ],
      "name": "transfer",
      "outputs": [
        {
          "internalType": "bool",
          "name": "",
          "type": "bool"
        }
      ],
      "stateMutability": "nonpayable",
      "type": "function"
    },
    {
      "inputs": [
        {
          "internalType": "address",
          "name": "from",
          "type": "address"
        },
        {
          "internalType": "address",
          "name": "to",
          "type": "address"
        },
        {
          "internalType": "uint256",
          "name": "amount",
          "type": "uint256"
        }
      ],
      "name": "transferFrom",
      "outputs": [
        {
          "internalType": "bool",
          "name": "",
          "type": "bool"
        }
      ],
      "stateMutability": "nonpayable",
      "type": "function"
    },
    {
      "inputs": [
        {
          "internalType": "address",
          "name": "to",
          "type": "address"
        },
        {
          "internalType": "uint256",
          "name": "amount",
          "type": "uint256"
        }
      ],
      "name": "mint",
      "outputs": [],
      "stateMutability": "nonpayable",
      "type": "function"
    },
    {
      "inputs": [
        {
          "internalType": "address",
          "name": "to",
          "type": "address"
        },
        {
          "internalType": "uint256",
          "name": "amount",
          "type": "uint256"
        }
      ],
      "name": "teamClaim",
      "outputs": [],
      "stateMutability": "nonpayable",
      "type": "function"
    },
    {
      "inputs": [
        {
          "internalType": "address",
          "name": "to",
          "type": "address"
        },
        {
          "internalType": "uint256",
          "name": "amount",
          "type": "uint256"
        }
      ],
      "name": "activityClaim",
      "outputs": [],
      "stateMutability": "nonpayable",
      "type": "function"
    },
    {
      "inputs": [
        {
          "internalType": "uint256",
          "name": "amount",
          "type": "uint256"
        }
      ],
      "name": "burn",
      "outputs": [],
      "stateMutability": "nonpayable",
      "type": "function"
    },
    {
      "inputs": [
        {
          "internalType": "bytes4",
          "name": "interfaceId",
          "type": "bytes4"
        }
      ],
      "name": "supportsInterface",
      "outputs": [
        {
          "internalType": "bool",
          "name": "",
          "type": "bool"
        }
      ],
      "stateMutability": "pure",
      "type": "function"
    },
    {
      "inputs": [
        {
          "internalType": "address",
          "name": "recipient",
          "type": "address"
        },
        {
          "internalType": "uint256",
          "name": "amount",
          "type": "uint256"
        }
      ],
      "name": "transferAndCall",
      "outputs": [
        {
          "internalType": "bool",
          "name": "",
          "type": "bool"
        }
      ],
      "stateMutability": "nonpayable",
      "type": "function"
    },
    {
      "inputs": [
        {
          "internalType": "address",
          "name": "recipient",
          "type": "address"
        },
        {
          "internalType": "uint256",
          "name": "amount",
          "type": "uint256"
        },
        {
          "internalType": "bytes",
          "name": "data",
          "type": "bytes"
        }
      ],
      "name": "transferAndCall",
      "outputs": [
        {
          "internalType": "bool",
          "name": "",
          "type": "bool"
        }
      ],
      "stateMutability": "nonpayable",
      "type": "function"
    },
    {
      "inputs": [
        {
          "internalType": "address",
          "name": "sender",
          "type": "address"
        },
        {
          "internalType": "address",
          "name": "recipient",
          "type": "address"
        },
        {
          "internalType": "uint256",
          "name": "amount",
          "type": "uint256"
        },
        {
          "internalType": "bytes",
          "name": "data",
          "type": "bytes"
        }
      ],
      "name": "transferFromAndCall",
      "outputs": [
        {
          "internalType": "bool",
          "name": "",
          "type": "bool"
        }
      ],
      "stateMutability": "nonpayable",
      "type": "function"
    },
    {
      "inputs": [
        {
          "internalType": "address",
          "name": "sender",
          "type": "address"
        },
        {
          "internalType": "address",
          "name": "recipient",
          "type": "address"
        },
        {
          "internalType": "uint256",
          "name": "amount",
          "type": "uint256"
        }
      ],
      "name": "transferFromAndCall",
      "outputs": [
        {
          "internalType": "bool",
          "name": "",
          "type": "bool"
        }
      ],
      "stateMutability": "nonpayable",
      "type": "function"
    },
    {
      "inputs": [
        {
          "internalType": "address",
          "name": "spender",
          "type": "address"
        },
        {
          "internalType": "uint256",
          "name": "amount",
          "type": "uint256"
        }
      ],
      "name": "approveAndCall",
      "outputs": [
        {
          "internalType": "bool",
          "name": "",
          "type": "bool"
        }
      ],
      "stateMutability": "nonpayable",
      "type": "function"
    },
    {
      "inputs": [
        {
          "internalType": "address",
          "name": "spender",
          "type": "address"
        },
        {
          "internalType": "uint256",
          "name": "amount",
          "type": "uint256"
        },
        {
          "internalType": "bytes",
          "name": "data",
          "type": "bytes"
        }
      ],
      "name": "approveAndCall",
      "outputs": [
        {
          "internalType": "bool",
          "name": "",
          "type": "bool"
        }
      ],
      "stateMutability": "nonpayable",
      "type": "function"
    }
  ],
  "bytecode": "0x6080604052600180546001600160a01b031916331790553480156200002357600080fd5b5060405162001bd138038062001bd1833981016040819052620000469162000232565b60016000558351849084908490849062000068906002906020870190620000e1565b5082516200007e906003906020860190620000e1565b506004805460ff191660ff93909316929092179091556006555060649050620000a982600a620002da565b620000b59190620002b9565b600a556064620000c7826019620002da565b620000d39190620002b9565b600b55506200035992505050565b828054620000ef9062000306565b90600052602060002090601f0160209004810192826200011357600085556200015e565b82601f106200012e57805160ff19168380011785556200015e565b828001600101855582156200015e579182015b828111156200015e57825182559160200191906001019062000141565b506200016c92915062000170565b5090565b5b808211156200016c576000815560010162000171565b600082601f83011262000198578081fd5b81516001600160401b0380821115620001b557620001b562000343565b6040516020601f8401601f1916820181018381118382101715620001dd57620001dd62000343565b6040528382528584018101871015620001f4578485fd5b8492505b83831015620002175785830181015182840182015291820191620001f8565b838311156200022857848185840101525b5095945050505050565b6000806000806080858703121562000248578384fd5b84516001600160401b03808211156200025f578586fd5b6200026d8883890162000187565b9550602087015191508082111562000283578485fd5b50620002928782880162000187565b935050604085015160ff81168114620002a9578283fd5b6060959095015193969295505050565b600082620002d557634e487b7160e01b81526012600452602481fd5b500490565b60008160001904831182151516156200030157634e487b7160e01b81526011600452602481fd5b500290565b6002810460018216806200031b57607f821691505b602082108114156200033d57634e487b7160e01b600052602260045260246000fd5b50919050565b634e487b7160e01b600052604160045260246000fd5b61186880620003696000396000f3fe608060405234801561001057600080fd5b50600436106101c45760003560e01c80635d9c7a16116100f9578063c1d34b8911610097578063d0ebdbe711610071578063d0ebdbe714610385578063d8fbe99414610398578063dd62ed3e146103ab578063e3b38aa5146103be576101c4565b8063c1d34b8914610357578063cae9ca511461036a578063ce606ee01461037d576101c4565b806385f2aef2116100d357806385f2aef21461032157806395d89b4114610329578063a9059cbb14610331578063bf40fac114610344576101c4565b80635d9c7a16146102f357806370a08231146102fb57806379cc67901461030e576101c4565b80633177029f1161016657806341afee0c1161014057806341afee0c146102a557806342966c68146102b8578063481c6a75146102cb5780634e7f8248146102e0576101c4565b80633177029f1461026a5780634000aea01461027d57806340c10f1914610290576101c4565b80631296ee62116101a25780631296ee621461021a57806318160ddd1461022d57806323b872dd14610242578063313ce56714610255576101c4565b806301ffc9a7146101c957806306fdde03146101f2578063095ea7b314610207575b600080fd5b6101dc6101d73660046113b8565b6103c6565b6040516101e9919061153e565b60405180910390f35b6101fa6103df565b6040516101e99190611549565b6101dc610215366004611316565b61046d565b6101dc610228366004611316565b610509565b61023561052c565b6040516101e9919061171f565b6101dc61025036600461126c565b610532565b61025d6105c3565b6040516101e99190611728565b6101dc610278366004611316565b6105cc565b6101dc61028b366004611341565b6105e8565b6102a361029e366004611316565b61061d565b005b6102a36102b3366004611316565b610861565b6102a36102c6366004611436565b610a0e565b6102d3610a1b565b6040516101e99190611499565b6102a36102ee366004611316565b610a2a565b610235610b3a565b6102356103093660046111fc565b610b40565b6102a361031c366004611316565b610b52565b610235610bdc565b6101fa610be2565b6101dc61033f366004611316565b610bef565b6102d36103523660046113f0565b610c05565b6101dc6103653660046112ac565b610c8c565b6101dc610378366004611341565b610ccd565b6102d3610d01565b6102a36103933660046111fc565b610d10565b6101dc6103a636600461126c565b610d82565b6102356103b9366004611234565b610da7565b610235610dc4565b6001600160e01b0319811663b0202a1160e01b14919050565b600280546103ec90611765565b80601f016020809104026020016040519081016040528092919081815260200182805461041890611765565b80156104655780601f1061043a57610100808354040283529160200191610465565b820191906000526020600020905b81548152906001019060200180831161044857829003601f168201915b505050505081565b60006001600160a01b03831661049e5760405162461bcd60e51b815260040161049590611636565b60405180910390fd5b3360008181526008602090815260408083206001600160a01b03881680855292529182902085905590519091907f8c5be1e5ebec7d5bd14f71427d1e84f3dd0314c0f7b2291e5b200ac8c7c3b925906104f890869061171f565b60405180910390a350600192915050565b60006105258383604051806020016040528060008152506105e8565b9392505050565b60055481565b6001600160a01b03831660009081526008602090815260408083203384529091528120548211156105755760405162461bcd60e51b81526004016104959061165c565b6001600160a01b0384166000908152600860209081526040808320338452909152812080548492906105a890849061174e565b909155506105b99050848484610dca565b5060019392505050565b60045460ff1681565b6000610525838360405180602001604052806000815250610ccd565b60006105f48484610bef565b5061060133858585610eb5565b6105b95760405162461bcd60e51b8152600401610495906115cd565b604051806060016040528060405180604001604052806009815260200168195c5d5a5c1b595b9d60ba1b815250815260200160405180604001604052806005815260200164626f6e757360d81b815250815260200160405180604001604052806007815260200166617274776f726b60c81b8152508152506000805b60038114610764576009546001600160a01b031663f5e65c72338584600381106106d357634e487b7160e01b600052603260045260246000fd5b60200201516040518363ffffffff1660e01b81526004016106f59291906114ea565b60206040518083038186803b15801561070d57600080fd5b505afa158015610721573d6000803e3d6000fd5b505050506040513d601f19601f820116820180604052508101906107459190611398565b9150811561075257610764565b8061075c816117a0565b915050610699565b50806107825760405162461bcd60e51b815260040161049590611613565b6001600160a01b0384166107a85760405162461bcd60e51b815260040161049590611636565b8260065410156107ca5760405162461bcd60e51b81526004016104959061168a565b82600660008282546107dc919061174e565b9250508190555082600560008282546107f59190611736565b90915550506001600160a01b03841660009081526007602052604081208054859290610822908490611736565b90915550506040516001600160a01b038516906000906000805160206118138339815191529061085390879061171f565b60405180910390a350505050565b6040805180820182526004808252637465616d60e01b60208301526009549251637af32e3960e11b815291926001600160a01b03169163f5e65c72916108ab9133918691016114ea565b60206040518083038186803b1580156108c357600080fd5b505afa1580156108d7573d6000803e3d6000fd5b505050506040513d601f19601f820116820180604052508101906108fb9190611398565b6109175760405162461bcd60e51b815260040161049590611613565b6001600160a01b03831661093d5760405162461bcd60e51b815260040161049590611636565b81600b54101561095f5760405162461bcd60e51b81526004016104959061168a565b81600b6000828254610971919061174e565b92505081905550816006600082825461098a919061174e565b9250508190555081600560008282546109a39190611736565b90915550506001600160a01b038316600090815260076020526040812080548492906109d0908490611736565b90915550506040516001600160a01b0384169060009060008051602061181383398151915290610a0190869061171f565b60405180910390a3505050565b610a183382610fa8565b50565b6009546001600160a01b031681565b6040805180820182526004808252637465616d60e01b60208301526009549251637af32e3960e11b815291926001600160a01b03169163f5e65c7291610a749133918691016114ea565b60206040518083038186803b158015610a8c57600080fd5b505afa158015610aa0573d6000803e3d6000fd5b505050506040513d601f19601f82011682018060405250810190610ac49190611398565b610ae05760405162461bcd60e51b815260040161049590611613565b6001600160a01b038316610b065760405162461bcd60e51b815260040161049590611636565b81600a541015610b285760405162461bcd60e51b81526004016104959061168a565b81600a6000828254610971919061174e565b600b5481565b60076020526000908152604090205481565b6001600160a01b0382166000908152600860209081526040808320338452909152902054811115610b955760405162461bcd60e51b81526004016104959061165c565b6001600160a01b038216600090815260086020908152604080832033845290915281208054839290610bc890849061174e565b90915550610bd890508282610fa8565b5050565b600a5481565b600380546103ec90611765565b6000610bfc338484610dca565b50600192915050565b6009546040516334abd05960e11b81526000916001600160a01b031690636957a0b290610c36908590600401611549565b60206040518083038186803b158015610c4e57600080fd5b505afa158015610c62573d6000803e3d6000fd5b505050506040513d601f19601f82011682018060405250810190610c869190611218565b92915050565b6000610c99858585610532565b50610ca685858585610eb5565b610cc25760405162461bcd60e51b8152600401610495906115cd565b506001949350505050565b6000610cd9848461046d565b50610ce5848484611077565b6105b95760405162461bcd60e51b815260040161049590611588565b6001546001600160a01b031681565b6001546001600160a01b03163314610d3a5760405162461bcd60e51b8152600401610495906116b1565b6001600160a01b038116610d605760405162461bcd60e51b815260040161049590611636565b600980546001600160a01b0319166001600160a01b0392909216919091179055565b6000610d9f84848460405180602001604052806000815250610c8c565b949350505050565b600860209081526000928352604080842090915290825290205481565b60065481565b6001600160a01b038216610df05760405162461bcd60e51b815260040161049590611636565b6001600160a01b038316600090815260076020526040902054811115610e285760405162461bcd60e51b81526004016104959061155c565b6001600160a01b03831660009081526007602052604081208054839290610e5090849061174e565b90915550506001600160a01b03821660009081526007602052604081208054839290610e7d908490611736565b92505081905550816001600160a01b0316836001600160a01b031660008051602061181383398151915283604051610a01919061171f565b600060026000541415610eda5760405162461bcd60e51b8152600401610495906116e8565b6002600055610ef16001600160a01b038516611167565b610efd57506000610f9b565b604051632229f29760e21b81526000906001600160a01b038616906388a7ca5c90610f329033908a90899089906004016114ad565b602060405180830381600087803b158015610f4c57600080fd5b505af1158015610f60573d6000803e3d6000fd5b505050506040513d601f19601f82011682018060405250810190610f8491906113d4565b6001600160e01b031916632229f29760e21b149150505b6001600055949350505050565b6001600160a01b038216600090815260076020526040902054811115610fe05760405162461bcd60e51b81526004016104959061155c565b6001600160a01b0382166000908152600760205260408120805483929061100890849061174e565b925050819055508060056000828254611021919061174e565b92505081905550806006600082825461103a9190611736565b90915550506040516000906001600160a01b038416906000805160206118138339815191529061106b90859061171f565b60405180910390a35050565b60006002600054141561109c5760405162461bcd60e51b8152600401610495906116e8565b60026000556110b36001600160a01b038516611167565b6110bf5750600061115b565b6040516307b04a2d60e41b81526000906001600160a01b03861690637b04a2d0906110f29033908890889060040161150e565b602060405180830381600087803b15801561110c57600080fd5b505af1158015611120573d6000803e3d6000fd5b505050506040513d601f19601f8201168201806040525081019061114491906113d4565b6001600160e01b0319166307b04a2d60e41b149150505b60016000559392505050565b3b151590565b600067ffffffffffffffff80841115611188576111886117d1565b604051601f8501601f1916810160200182811182821017156111ac576111ac6117d1565b6040528481529150818385018610156111c457600080fd5b8484602083013760006020868301015250509392505050565b600082601f8301126111ed578081fd5b6105258383356020850161116d565b60006020828403121561120d578081fd5b8135610525816117e7565b600060208284031215611229578081fd5b8151610525816117e7565b60008060408385031215611246578081fd5b8235611251816117e7565b91506020830135611261816117e7565b809150509250929050565b600080600060608486031215611280578081fd5b833561128b816117e7565b9250602084013561129b816117e7565b929592945050506040919091013590565b600080600080608085870312156112c1578081fd5b84356112cc816117e7565b935060208501356112dc816117e7565b925060408501359150606085013567ffffffffffffffff8111156112fe578182fd5b61130a878288016111dd565b91505092959194509250565b60008060408385031215611328578182fd5b8235611333816117e7565b946020939093013593505050565b600080600060608486031215611355578283fd5b8335611360816117e7565b925060208401359150604084013567ffffffffffffffff811115611382578182fd5b61138e868287016111dd565b9150509250925092565b6000602082840312156113a9578081fd5b81518015158114610525578182fd5b6000602082840312156113c9578081fd5b8135610525816117fc565b6000602082840312156113e5578081fd5b8151610525816117fc565b600060208284031215611401578081fd5b813567ffffffffffffffff811115611417578182fd5b8201601f81018413611427578182fd5b610d9f8482356020840161116d565b600060208284031215611447578081fd5b5035919050565b60008151808452815b8181101561147357602081850181015186830182015201611457565b818111156114845782602083870101525b50601f01601f19169290920160200192915050565b6001600160a01b0391909116815260200190565b6001600160a01b03858116825284166020820152604081018390526080606082018190526000906114e09083018461144e565b9695505050505050565b6001600160a01b0383168152604060208201819052600090610d9f9083018461144e565b600060018060a01b038516825283602083015260606040830152611535606083018461144e565b95945050505050565b901515815260200190565b600060208252610525602083018461144e565b6020808252601290820152710c4c2d8c2dcc6ca40dcdee840cadcdeeaced60731b604082015260600190565b60208082526025908201527f455243313336333a205f636865636b416e6443616c6c417070726f7665207265604082015264766572747360d81b606082015260800190565b60208082526026908201527f455243313336333a205f636865636b416e6443616c6c5472616e73666572207260408201526565766572747360d01b606082015260800190565b6020808252600990820152681b9bc81c195c9b5a5d60ba1b604082015260600190565b6020808252600c908201526b7a65726f206164647265737360a01b604082015260600190565b6020808252601490820152730c2d8d8deeec2dcc6ca40dcdee840cadcdeeaced60631b604082015260600190565b6020808252600d908201526c0dad2dce840e8dede40daeac6d609b1b604082015260600190565b60208082526019908201527f6f6e6c7920616c6c6f7720636f6e7472616374206f776e657200000000000000604082015260600190565b6020808252601f908201527f5265656e7472616e637947756172643a207265656e7472616e742063616c6c00604082015260600190565b90815260200190565b60ff91909116815260200190565b60008219821115611749576117496117bb565b500190565b600082821015611760576117606117bb565b500390565b60028104600182168061177957607f821691505b6020821081141561179a57634e487b7160e01b600052602260045260246000fd5b50919050565b60006000198214156117b4576117b46117bb565b5060010190565b634e487b7160e01b600052601160045260246000fd5b634e487b7160e01b600052604160045260246000fd5b6001600160a01b0381168114610a1857600080fd5b6001600160e01b031981168114610a1857600080fdfeddf252ad1be2c89b69c2b068fc378daa952ba7f163c4a11628f55a4df523b3efa2646970667358221220dca7c33107ec6ce1a15ec74fb9afb0c100302484af0b0a2168425eba0aee2b7064736f6c63430008000033",
  "immutableReferences": {},
  "source": "// SPDX-License-Identifier: MIT\npragma solidity ^0.8.0;\n\nimport \"./lib/ERC20.sol\";\nimport \"./lib/Permission.sol\";\nimport \"./include/IERC20OP.sol\";\nimport \"./include/IERC165.sol\";\nimport \"./include/IERC1363Receiver.sol\";\nimport \"./include/IERC1363Spender.sol\";\nimport \"./include/IERC1363.sol\";\nimport \"./lib/Address.sol\";\nimport \"./lib/ReentrancyGuard.sol\";\n\ncontract LGC is ReentrancyGuard, ERC20, Permission, IERC20OP, IERC165, IERC1363 {\n    using Address for address;\n\n    //\n    uint256 public team;\n    //\n    uint256 public activity;\n\n    constructor(\n        string memory _name,\n        string memory _symbol,\n        uint8 _decimals,\n        uint256 _maxSupply\n    ) ERC20(_name, _symbol, _decimals, _maxSupply) {\n        team = (_maxSupply * 10) / 100;\n        activity = (_maxSupply * 25) / 100;\n    }\n\n    function mint(address to, uint256 amount) public override CheckPermit3([\"equipment\", \"bonus\", \"artwork\"]) {\n        require(to != address(0), \"zero address\");\n        require(remainedSupply >= amount, \"mint too much\");\n\n        remainedSupply -= amount;\n        totalSupply += amount;\n        balanceOf[to] += amount;\n\n        emit Transfer(address(0), to, amount);\n    }\n\n    function teamClaim(address to, uint256 amount) public CheckPermit(\"team\") {\n        require(to != address(0), \"zero address\");\n        require(team >= amount, \"mint too much\");\n\n        team -= amount;\n        remainedSupply -= amount;\n        totalSupply += amount;\n        balanceOf[to] += amount;\n\n        emit Transfer(address(0), to, amount);\n    }\n\n    function activityClaim(address to, uint256 amount) public CheckPermit(\"team\") {\n        require(to != address(0), \"zero address\");\n        require(activity >= amount, \"mint too much\");\n\n        activity -= amount;\n        remainedSupply -= amount;\n        totalSupply += amount;\n        balanceOf[to] += amount;\n\n        emit Transfer(address(0), to, amount);\n    }\n\n    function burn(uint256 amount) public override {\n        _burn(msg.sender, amount);\n    }\n\n    function supportsInterface(bytes4 interfaceId) public pure override returns (bool) {\n        return interfaceId == type(IERC1363).interfaceId;\n    }\n\n    function transferAndCall(address recipient, uint256 amount) public override returns (bool) {\n        return transferAndCall(recipient, amount, \"\");\n    }\n\n    function transferAndCall(\n        address recipient,\n        uint256 amount,\n        bytes memory data\n    ) public override returns (bool) {\n        transfer(recipient, amount);\n        require(_checkAndCallTransfer(msg.sender, recipient, amount, data), \"ERC1363: _checkAndCallTransfer reverts\");\n        return true;\n    }\n\n    function transferFromAndCall(\n        address sender,\n        address recipient,\n        uint256 amount\n    ) public override returns (bool) {\n        return transferFromAndCall(sender, recipient, amount, \"\");\n    }\n\n    function transferFromAndCall(\n        address sender,\n        address recipient,\n        uint256 amount,\n        bytes memory data\n    ) public override returns (bool) {\n        transferFrom(sender, recipient, amount);\n        require(_checkAndCallTransfer(sender, recipient, amount, data), \"ERC1363: _checkAndCallTransfer reverts\");\n        return true;\n    }\n\n    function approveAndCall(address spender, uint256 amount) public override returns (bool) {\n        return approveAndCall(spender, amount, \"\");\n    }\n\n    function approveAndCall(\n        address spender,\n        uint256 amount,\n        bytes memory data\n    ) public override returns (bool) {\n        approve(spender, amount);\n        require(_checkAndCallApprove(spender, amount, data), \"ERC1363: _checkAndCallApprove reverts\");\n        return true;\n    }\n\n    function _checkAndCallTransfer(\n        address sender,\n        address recipient,\n        uint256 amount,\n        bytes memory data\n    ) internal nonReentrant virtual returns (bool) {\n        if (!recipient.isContract()) {\n            return false;\n        }\n        bytes4 retval = IERC1363Receiver(recipient).onTransferReceived(msg.sender, sender, amount, data);\n        return (retval == IERC1363Receiver(recipient).onTransferReceived.selector);\n    }\n\n    function _checkAndCallApprove(\n        address spender,\n        uint256 amount,\n        bytes memory data\n    ) internal nonReentrant virtual returns (bool) {\n        if (!spender.isContract()) {\n            return false;\n        }\n        bytes4 retval = IERC1363Spender(spender).onApprovalReceived(msg.sender, amount, data);\n        return (retval == IERC1363Spender(spender).onApprovalReceived.selector);\n    }\n}\n",
  "sourcePath": "/Users/necklace/work/Legend/Legend/contracts/LGC.sol",
  "compiler": {
    "name": "solc",
    "version": "0.8.0+commit.c7dfd78e.Darwin.appleclang"
  },
  "schemaVersion": "3.4.3",
  "updatedAt": "2022-03-25T17:08:33.965Z",
  "networkType": "ethereum",
  "devdoc": {
    "kind": "dev",
    "methods": {},
    "version": 1
  },
  "userdoc": {
    "kind": "user",
    "methods": {},
    "version": 1
  }
}