{
  "contractName": "Manager",
  "abi": [
    {
      "inputs": [],
      "name": "contractOwner",
      "outputs": [
        {
          "internalType": "address",
          "name": "",
          "type": "address"
        }
      ],
      "stateMutability": "view",
      "type": "function"
    },
    {
      "inputs": [
        {
          "internalType": "string",
          "name": "",
          "type": "string"
        }
      ],
      "name": "members",
      "outputs": [
        {
          "internalType": "address",
          "name": "",
          "type": "address"
        }
      ],
      "stateMutability": "view",
      "type": "function"
    },
    {
      "inputs": [
        {
          "internalType": "address",
          "name": "",
          "type": "address"
        },
        {
          "internalType": "string",
          "name": "",
          "type": "string"
        }
      ],
      "name": "permits",
      "outputs": [
        {
          "internalType": "bool",
          "name": "",
          "type": "bool"
        }
      ],
      "stateMutability": "view",
      "type": "function"
    },
    {
      "inputs": [
        {
          "internalType": "string",
          "name": "name",
          "type": "string"
        },
        {
          "internalType": "address",
          "name": "member",
          "type": "address"
        }
      ],
      "name": "setMember",
      "outputs": [],
      "stateMutability": "nonpayable",
      "type": "function"
    },
    {
      "inputs": [
        {
          "internalType": "address",
          "name": "addr",
          "type": "address"
        },
        {
          "internalType": "string",
          "name": "permit",
          "type": "string"
        },
        {
          "internalType": "bool",
          "name": "enable",
          "type": "bool"
        }
      ],
      "name": "setPermit",
      "outputs": [],
      "stateMutability": "nonpayable",
      "type": "function"
    }
  ],
  "bytecode": "0x6080604052600080546001600160a01b0319163317905534801561002257600080fd5b506104da806100326000396000f3fe608060405234801561001057600080fd5b50600436106100575760003560e01c8063540e26171461005c5780635bc45ef7146100715780636957a0b214610084578063ce606ee0146100ad578063f5e65c72146100b5575b600080fd5b61006f61006a3660046103b3565b6100d5565b005b61006f61007f366004610314565b61014c565b610097610092366004610378565b6101c5565b6040516100a49190610438565b60405180910390f35b6100976101eb565b6100c86100c33660046102c8565b6101fa565b6040516100a4919061044c565b6000546001600160a01b031633146101085760405162461bcd60e51b81526004016100ff90610457565b60405180910390fd5b8060018360405161011991906103ff565b90815260405190819003602001902080546001600160a01b03929092166001600160a01b03199092169190911790555050565b6000546001600160a01b031633146101765760405162461bcd60e51b81526004016100ff90610457565b6001600160a01b0383166000908152600260205260409081902090518291906101a09085906103ff565b908152604051908190036020019020805491151560ff19909216919091179055505050565b80516020818301810180516001825292820191909301209152546001600160a01b031681565b6000546001600160a01b031681565b6002602090815260009283526040909220815180830184018051928152908401929093019190912091525460ff1681565b80356001600160a01b038116811461024257600080fd5b919050565b600082601f830112610257578081fd5b813567ffffffffffffffff808211156102725761027261048e565b604051601f8301601f1916810160200182811182821017156102965761029661048e565b6040528281528483016020018610156102ad578384fd5b82602086016020830137918201602001929092529392505050565b600080604083850312156102da578182fd5b6102e38361022b565b9150602083013567ffffffffffffffff8111156102fe578182fd5b61030a85828601610247565b9150509250929050565b600080600060608486031215610328578081fd5b6103318461022b565b9250602084013567ffffffffffffffff81111561034c578182fd5b61035886828701610247565b9250506040840135801515811461036d578182fd5b809150509250925092565b600060208284031215610389578081fd5b813567ffffffffffffffff81111561039f578182fd5b6103ab84828501610247565b949350505050565b600080604083850312156103c5578182fd5b823567ffffffffffffffff8111156103db578283fd5b6103e785828601610247565b9250506103f66020840161022b565b90509250929050565b60008251815b8181101561041f5760208186018101518583015201610405565b8181111561042d5782828501525b509190910192915050565b6001600160a01b0391909116815260200190565b901515815260200190565b60208082526019908201527f6f6e6c7920616c6c6f7720636f6e7472616374206f776e657200000000000000604082015260600190565b634e487b7160e01b600052604160045260246000fdfea264697066735822122035f5dd3124666b58f82c382d1f6bba0374317c365f4d8b0915f34d98e567513264736f6c63430008000033",
  "immutableReferences": {},
  "source": "pragma solidity ^0.8.0;\n\n// SPDX-License-Identifier: MIT\n\nimport \"./ContractOwner.sol\";\n\ncontract Manager is ContractOwner {\n    mapping(string => address) public members;\n\n    mapping(address => mapping(string => bool)) public permits;\n\n    function setMember(string memory name, address member) external OwnerOnly {\n        members[name] = member;\n    }\n\n    function setPermit(\n        address addr,\n        string memory permit,\n        bool enable\n    ) external OwnerOnly {\n        permits[addr][permit] = enable;\n    }\n\n}\n",
  "sourcePath": "/Users/necklace/work/Legend/Legend/contracts/lib/Manager.sol",
  "compiler": {
    "name": "solc",
    "version": "0.8.0+commit.c7dfd78e.Darwin.appleclang"
  },
  "schemaVersion": "3.4.3",
  "updatedAt": "2022-03-25T17:08:33.987Z",
  "networkType": "ethereum",
  "devdoc": {
    "kind": "dev",
    "methods": {},
    "version": 1
  },
  "userdoc": {
    "kind": "user",
    "methods": {},
    "version": 1
  }
}