{
  "contractName": "Market",
  "abi": [
    {
      "anonymous": false,
      "inputs": [
        {
          "indexed": true,
          "internalType": "address",
          "name": "seller",
          "type": "address"
        },
        {
          "indexed": true,
          "internalType": "address",
          "name": "buyer",
          "type": "address"
        },
        {
          "indexed": false,
          "internalType": "uint256",
          "name": "goodsId",
          "type": "uint256"
        }
      ],
      "name": "BuyGoods",
      "type": "event"
    },
    {
      "anonymous": false,
      "inputs": [
        {
          "indexed": true,
          "internalType": "address",
          "name": "seller",
          "type": "address"
        },
        {
          "indexed": false,
          "internalType": "uint256",
          "name": "goodsId",
          "type": "uint256"
        }
      ],
      "name": "PullOff",
      "type": "event"
    },
    {
      "anonymous": false,
      "inputs": [
        {
          "indexed": true,
          "internalType": "address",
          "name": "seller",
          "type": "address"
        },
        {
          "indexed": false,
          "internalType": "uint256",
          "name": "goodsId",
          "type": "uint256"
        }
      ],
      "name": "PutOn",
      "type": "event"
    },
    {
      "inputs": [],
      "name": "chargeRatio",
      "outputs": [
        {
          "internalType": "uint256",
          "name": "",
          "type": "uint256"
        }
      ],
      "stateMutability": "view",
      "type": "function"
    },
    {
      "inputs": [],
      "name": "contractOwner",
      "outputs": [
        {
          "internalType": "address",
          "name": "",
          "type": "address"
        }
      ],
      "stateMutability": "view",
      "type": "function"
    },
    {
      "inputs": [],
      "name": "fee",
      "outputs": [
        {
          "internalType": "uint256",
          "name": "",
          "type": "uint256"
        }
      ],
      "stateMutability": "view",
      "type": "function"
    },
    {
      "inputs": [
        {
          "internalType": "string",
          "name": "key",
          "type": "string"
        }
      ],
      "name": "getAddress",
      "outputs": [
        {
          "internalType": "address",
          "name": "",
          "type": "address"
        }
      ],
      "stateMutability": "view",
      "type": "function"
    },
    {
      "inputs": [],
      "name": "manager",
      "outputs": [
        {
          "internalType": "contract Manager",
          "name": "",
          "type": "address"
        }
      ],
      "stateMutability": "view",
      "type": "function"
    },
    {
      "inputs": [
        {
          "internalType": "address",
          "name": "addr",
          "type": "address"
        }
      ],
      "name": "setManager",
      "outputs": [],
      "stateMutability": "nonpayable",
      "type": "function"
    },
    {
      "inputs": [
        {
          "internalType": "address",
          "name": "",
          "type": "address"
        }
      ],
      "name": "supportCoin",
      "outputs": [
        {
          "internalType": "bool",
          "name": "",
          "type": "bool"
        }
      ],
      "stateMutability": "view",
      "type": "function"
    },
    {
      "inputs": [
        {
          "internalType": "address",
          "name": "_contract",
          "type": "address"
        }
      ],
      "name": "setSupportCoin",
      "outputs": [],
      "stateMutability": "nonpayable",
      "type": "function"
    },
    {
      "inputs": [
        {
          "internalType": "address",
          "name": "_contract",
          "type": "address"
        }
      ],
      "name": "delSupportCoin",
      "outputs": [],
      "stateMutability": "nonpayable",
      "type": "function"
    },
    {
      "inputs": [
        {
          "internalType": "uint256",
          "name": "_fee",
          "type": "uint256"
        }
      ],
      "name": "setFee",
      "outputs": [],
      "stateMutability": "nonpayable",
      "type": "function"
    },
    {
      "inputs": [
        {
          "internalType": "uint256",
          "name": "rate",
          "type": "uint256"
        }
      ],
      "name": "setChargeRatio",
      "outputs": [],
      "stateMutability": "nonpayable",
      "type": "function"
    },
    {
      "inputs": [
        {
          "internalType": "uint256",
          "name": "goodsId",
          "type": "uint256"
        }
      ],
      "name": "contains",
      "outputs": [
        {
          "internalType": "bool",
          "name": "",
          "type": "bool"
        }
      ],
      "stateMutability": "view",
      "type": "function"
    },
    {
      "inputs": [
        {
          "internalType": "uint256",
          "name": "goodsId",
          "type": "uint256"
        }
      ],
      "name": "next",
      "outputs": [
        {
          "internalType": "uint256",
          "name": "",
          "type": "uint256"
        }
      ],
      "stateMutability": "view",
      "type": "function"
    },
    {
      "inputs": [
        {
          "internalType": "uint256",
          "name": "goodsId",
          "type": "uint256"
        }
      ],
      "name": "valid",
      "outputs": [
        {
          "internalType": "bool",
          "name": "",
          "type": "bool"
        }
      ],
      "stateMutability": "view",
      "type": "function"
    },
    {
      "inputs": [
        {
          "internalType": "uint256",
          "name": "goodsId",
          "type": "uint256"
        }
      ],
      "name": "getGoods",
      "outputs": [
        {
          "components": [
            {
              "internalType": "uint256",
              "name": "id",
              "type": "uint256"
            },
            {
              "internalType": "uint8",
              "name": "class",
              "type": "uint8"
            },
            {
              "internalType": "uint8",
              "name": "status",
              "type": "uint8"
            },
            {
              "internalType": "uint256",
              "name": "price",
              "type": "uint256"
            },
            {
              "internalType": "uint32",
              "name": "amount",
              "type": "uint32"
            },
            {
              "internalType": "address",
              "name": "seller",
              "type": "address"
            },
            {
              "internalType": "address",
              "name": "buyer",
              "type": "address"
            },
            {
              "internalType": "uint256",
              "name": "contentId",
              "type": "uint256"
            },
            {
              "internalType": "address",
              "name": "payContract",
              "type": "address"
            }
          ],
          "internalType": "struct Market.Goods",
          "name": "goods",
          "type": "tuple"
        }
      ],
      "stateMutability": "view",
      "type": "function"
    },
    {
      "inputs": [
        {
          "internalType": "uint8",
          "name": "class",
          "type": "uint8"
        },
        {
          "internalType": "uint256",
          "name": "goodsId",
          "type": "uint256"
        },
        {
          "internalType": "uint32",
          "name": "count",
          "type": "uint32"
        }
      ],
      "name": "searchGoods",
      "outputs": [
        {
          "internalType": "bool",
          "name": "more",
          "type": "bool"
        },
        {
          "components": [
            {
              "internalType": "uint256",
              "name": "id",
              "type": "uint256"
            },
            {
              "internalType": "uint8",
              "name": "class",
              "type": "uint8"
            },
            {
              "internalType": "uint8",
              "name": "status",
              "type": "uint8"
            },
            {
              "internalType": "uint256",
              "name": "price",
              "type": "uint256"
            },
            {
              "internalType": "uint32",
              "name": "amount",
              "type": "uint32"
            },
            {
              "internalType": "address",
              "name": "seller",
              "type": "address"
            },
            {
              "internalType": "address",
              "name": "buyer",
              "type": "address"
            },
            {
              "internalType": "uint256",
              "name": "contentId",
              "type": "uint256"
            },
            {
              "internalType": "address",
              "name": "payContract",
              "type": "address"
            }
          ],
          "internalType": "struct Market.Goods[]",
          "name": "list",
          "type": "tuple[]"
        }
      ],
      "stateMutability": "view",
      "type": "function"
    },
    {
      "inputs": [
        {
          "internalType": "uint256",
          "name": "goodsId",
          "type": "uint256"
        }
      ],
      "name": "pullOff",
      "outputs": [],
      "stateMutability": "nonpayable",
      "type": "function"
    },
    {
      "inputs": [
        {
          "internalType": "uint256",
          "name": "goodsId",
          "type": "uint256"
        }
      ],
      "name": "buy",
      "outputs": [],
      "stateMutability": "nonpayable",
      "type": "function"
    },
    {
      "inputs": [
        {
          "internalType": "address",
          "name": "",
          "type": "address"
        },
        {
          "internalType": "address",
          "name": "from",
          "type": "address"
        },
        {
          "internalType": "uint256",
          "name": "value",
          "type": "uint256"
        },
        {
          "internalType": "bytes",
          "name": "data",
          "type": "bytes"
        }
      ],
      "name": "onTransferReceived",
      "outputs": [
        {
          "internalType": "bytes4",
          "name": "",
          "type": "bytes4"
        }
      ],
      "stateMutability": "nonpayable",
      "type": "function"
    },
    {
      "inputs": [
        {
          "internalType": "address",
          "name": "",
          "type": "address"
        },
        {
          "internalType": "address",
          "name": "_from",
          "type": "address"
        },
        {
          "internalType": "uint256",
          "name": "_tokenId",
          "type": "uint256"
        },
        {
          "internalType": "bytes",
          "name": "_data",
          "type": "bytes"
        }
      ],
      "name": "onERC721Received",
      "outputs": [
        {
          "internalType": "bytes4",
          "name": "",
          "type": "bytes4"
        }
      ],
      "stateMutability": "nonpayable",
      "type": "function"
    },
    {
      "inputs": [
        {
          "internalType": "address",
          "name": "",
          "type": "address"
        },
        {
          "internalType": "address",
          "name": "_from",
          "type": "address"
        },
        {
          "internalType": "uint256",
          "name": "_id",
          "type": "uint256"
        },
        {
          "internalType": "uint256",
          "name": "_value",
          "type": "uint256"
        },
        {
          "internalType": "bytes",
          "name": "_data",
          "type": "bytes"
        }
      ],
      "name": "onERC1155Received",
      "outputs": [
        {
          "internalType": "bytes4",
          "name": "",
          "type": "bytes4"
        }
      ],
      "stateMutability": "nonpayable",
      "type": "function"
    },
    {
      "inputs": [
        {
          "internalType": "address",
          "name": "",
          "type": "address"
        },
        {
          "internalType": "address",
          "name": "",
          "type": "address"
        },
        {
          "internalType": "uint256[]",
          "name": "",
          "type": "uint256[]"
        },
        {
          "internalType": "uint256[]",
          "name": "",
          "type": "uint256[]"
        },
        {
          "internalType": "bytes",
          "name": "",
          "type": "bytes"
        }
      ],
      "name": "onERC1155BatchReceived",
      "outputs": [
        {
          "internalType": "bytes4",
          "name": "",
          "type": "bytes4"
        }
      ],
      "stateMutability": "nonpayable",
      "type": "function"
    },
    {
      "inputs": [
        {
          "internalType": "bytes4",
          "name": "interfaceId",
          "type": "bytes4"
        }
      ],
      "name": "supportsInterface",
      "outputs": [
        {
          "internalType": "bool",
          "name": "",
          "type": "bool"
        }
      ],
      "stateMutability": "pure",
      "type": "function"
    }
  ],
  "bytecode": "0x6080604052600080546001600160a01b031916331790556014600681905560075534801561002c57600080fd5b506130c88061003c6000396000f3fe608060405234801561001057600080fd5b506004361061014d5760003560e01c8063bf40fac1116100c3578063d96a094a1161007c578063d96a094a146102cc578063ddca3f43146102df578063edd004e5146102f4578063f23a6e6114610307578063f26b013a1461031a578063faa01bca146103225761014d565b8063bf40fac114610265578063bf8712c514610278578063c34052e01461028b578063ce606ee01461029e578063d0ebdbe7146102a6578063d5f6e1ba146102b95761014d565b806349f749d01161011557806349f749d0146101e457806369fe0e2d146101f957806388a7ca5c1461020c578063953bf8a21461021f578063b259003314610232578063bc197c81146102525761014d565b806301ffc9a714610152578063150b7a021461017b578063172109c21461019b5780633ad7bab0146101bc578063481c6a75146101cf575b600080fd5b610165610160366004612722565b610335565b6040516101729190612bf5565b60405180910390f35b61018e6101893660046125de565b610389565b6040516101729190612c5a565b6101ae6101a936600461295b565b610565565b604051610172929190612c00565b6101656101ca36600461247a565b610727565b6101d761073c565b6040516101729190612aa5565b6101f76101f236600461247a565b61074b565b005b6101f7610207366004612790565b610828565b61018e61021a36600461256d565b610914565b6101f761022d366004612790565b6109a5565b610245610240366004612790565b610a63565b6040516101729190612f45565b61018e6102603660046124b2565b610b05565b6101d761027336600461274a565b610b19565b610165610286366004612790565b610b9a565b610165610299366004612790565b610bb2565b6101d7610c16565b6101f76102b436600461247a565b610c25565b6101f76102c7366004612790565b610c97565b6101f76102da366004612790565b610fef565b6102e76110bd565b6040516101729190612f5a565b6102e7610302366004612790565b6110c3565b61018e61031536600461265b565b61113d565b6102e7611337565b6101f761033036600461247a565b61133d565b60006001600160e01b03198216630271189760e51b148061036657506001600160e01b03198216630a85bd0160e11b145b8061038157506001600160e01b03198216632229f29760e21b145b90505b919050565b60006103b560405180604001604052806009815260200168115c5d5a5c1b595b9d60ba1b815250610b19565b6001600160a01b0316336001600160a01b0316148061040c57506103f760405180604001604052806007815260200166417274776f726b60c81b815250610b19565b6001600160a01b0316336001600160a01b0316145b1561055357600080838060200190518101906104289190612874565b915091508160ff16600281111561044f57634e487b7160e01b600052602160045260246000fd5b600281111561046e57634e487b7160e01b600052602160045260246000fd5b60011415610544576001816020015160ff16600381111561049f57634e487b7160e01b600052602160045260246000fd5b60038111156104be57634e487b7160e01b600052602160045260246000fd5b148061050f57506003816020015160ff1660038111156104ee57634e487b7160e01b600052602160045260246000fd5b600381111561050d57634e487b7160e01b600052602160045260246000fd5b145b6105345760405162461bcd60e51b815260040161052b90612eb4565b60405180910390fd5b61053f86868361143b565b610550565b506000915061055d9050565b50505b50630a85bd0160e11b5b949350505050565b600060608263ffffffff1667ffffffffffffffff81111561059657634e487b7160e01b600052604160045260246000fd5b6040519080825280602002602001820160405280156105cf57816020015b6105bc61230b565b8152602001906001900390816105b45790505b509050600084806105e7576105e460006110c3565b90505b60005b8563ffffffff168311158015610604575061060482610b9a565b1561071c5750600081815260036020526040902060ff881615806106315750600181015460ff8981169116145b1561070c578563ffffffff1683101561070757604080516101208101825282548152600183015460ff808216602084015261010091829004169282019290925260028301546060820152600383015463ffffffff811660808301526001600160a01b03640100000000909104811660a08301526004840154811660c0830152600584015460e08301526006840154169181019190915284518590859081106106e957634e487b7160e01b600052603260045260246000fd5b602002602001018190525082806106ff90613012565b93505061070c565b600194505b610715826110c3565b91506105ea565b505050935093915050565b60026020526000908152604090205460ff1681565b6001546001600160a01b031681565b604080518082018252600581526430b236b4b760d91b60208201526001549151637af32e3960e11b815290916001600160a01b03169063f5e65c72906107979033908590600401612bb8565b60206040518083038186803b1580156107af57600080fd5b505afa1580156107c3573d6000803e3d6000fd5b505050506040513d601f19601f820116820180604052508101906107e79190612702565b6108035760405162461bcd60e51b815260040161052b90612dc5565b506001600160a01b03166000908152600260205260409020805460ff19166001179055565b604080518082018252600581526430b236b4b760d91b60208201526001549151637af32e3960e11b815290916001600160a01b03169063f5e65c72906108749033908590600401612bb8565b60206040518083038186803b15801561088c57600080fd5b505afa1580156108a0573d6000803e3d6000fd5b505050506040513d601f19601f820116820180604052508101906108c49190612702565b6108e05760405162461bcd60e51b815260040161052b90612dc5565b6000821180156108f257506103e88211155b61090e5760405162461bcd60e51b815260040161052b90612de8565b50600655565b6000808061092484860186612930565b915091508160ff16600281111561094b57634e487b7160e01b600052602160045260246000fd5b600281111561096a57634e487b7160e01b600052602160045260246000fd5b600214156109835761097e3382888a611553565b61098f565b506000915061099c9050565b50632229f29760e21b9150505b95945050505050565b604080518082018252600581526430b236b4b760d91b60208201526001549151637af32e3960e11b815290916001600160a01b03169063f5e65c72906109f19033908590600401612bb8565b60206040518083038186803b158015610a0957600080fd5b505afa158015610a1d573d6000803e3d6000fd5b505050506040513d601f19601f82011682018060405250810190610a419190612702565b610a5d5760405162461bcd60e51b815260040161052b90612dc5565b50600755565b610a6b61230b565b5060009081526003602081815260409283902083516101208101855281548152600182015460ff808216948301949094526101009081900490931694810194909452600281015460608501529182015463ffffffff811660808501526001600160a01b03640100000000909104811660a08501526004830154811660c0850152600583015460e08501526006909201549091169082015290565b63bc197c8160e01b98975050505050505050565b6001546040516334abd05960e11b81526000916001600160a01b031690636957a0b290610b4a908590600401612c6f565b60206040518083038186803b158015610b6257600080fd5b505afa158015610b76573d6000803e3d6000fd5b505050506040513d601f19601f820116820180604052508101906103819190612496565b600454600090610bab600184612fe4565b1092915050565b6000818152600360205260408120548015801590610c0f57506004610bd8600183612fe4565b81548110610bf657634e487b7160e01b600052603260045260246000fd5b600091825260209091206001600290920201015460ff16155b9392505050565b6000546001600160a01b031681565b6000546001600160a01b03163314610c4f5760405162461bcd60e51b815260040161052b90612f0e565b6001600160a01b038116610c755760405162461bcd60e51b815260040161052b90612e64565b600180546001600160a01b0319166001600160a01b0392909216919091179055565b60008181526003602081905260409091209081015464010000000090046001600160a01b03163314610cdb5760405162461bcd60e51b815260040161052b90612cad565b8054610cf95760405162461bcd60e51b815260040161052b90612e3b565b600180820154610100900460ff166003811115610d2657634e487b7160e01b600052602160045260246000fd5b6003811115610d4557634e487b7160e01b600052602160045260246000fd5b14610d625760405162461bcd60e51b815260040161052b90612ce2565b600181015460009060ff166003811115610d8c57634e487b7160e01b600052602160045260246000fd5b6005830154600384015460018501805461ff0019166103001790559192509063ffffffff16610dba85611f41565b506001836003811115610ddd57634e487b7160e01b600052602160045260246000fd5b1415610e7357610e0d60405180604001604052806009815260200168115c5d5a5c1b595b9d60ba1b815250610b19565b6001600160a01b031663b88d4fde3033856040518463ffffffff1660e01b8152600401610e3c93929190612b0f565b600060405180830381600087803b158015610e5657600080fd5b505af1158015610e6a573d6000803e3d6000fd5b50505050610fa7565b6002836003811115610e9557634e487b7160e01b600052602160045260246000fd5b1415610ef557610ec460405180604001604052806008815260200167119c9859db595b9d60c21b815250610b19565b6001600160a01b031663f242432a303385856040518563ffffffff1660e01b8152600401610e3c9493929190612b41565b6003836003811115610f1757634e487b7160e01b600052602160045260246000fd5b1415610fa757610f4560405180604001604052806007815260200166417274776f726b60c81b815250610b19565b6001600160a01b031663b88d4fde3033856040518463ffffffff1660e01b8152600401610f7493929190612b0f565b600060405180830381600087803b158015610f8e57600080fd5b505af1158015610fa2573d6000803e3d6000fd5b505050505b336001600160a01b03167feabe0260d71507f9deae5a337ef80a519ee722d2674613ef09d0ff5f7e9b9fcd86604051610fe09190612f5a565b60405180910390a25050505050565b6000818152600360205260408082206006810154600282015492516323b872dd60e01b81529193926001600160a01b03909116916323b872dd916110399133913091600401612ab9565b602060405180830381600087803b15801561105357600080fd5b505af1158015611067573d6000803e3d6000fd5b505050506040513d601f19601f8201168201806040525081019061108b9190612702565b9050600181151514156110b857600682015460028301546110b8916001600160a01b031690859033611553565b505050565b60065481565b6000816110cf81613012565b9250505b60045482108015611122575060046110ec600184612fe4565b8154811061110a57634e487b7160e01b600052603260045260246000fd5b600091825260209091206001600290920201015460ff165b15611139578161113181613012565b9250506110d3565b5090565b600061116860405180604001604052806008815260200167119c9859db595b9d60c21b815250610b19565b6001600160a01b0316336001600160a01b0316141561132357600080611190848601866127a8565b915091508160ff1660028111156111b757634e487b7160e01b600052602160045260246000fd5b60028111156111d657634e487b7160e01b600052602160045260246000fd5b6001141561131457600060f888901c600281111561120457634e487b7160e01b600052602160045260246000fd5b9050600181600281111561122857634e487b7160e01b600052602160045260246000fd5b14806112535750600281600281111561125157634e487b7160e01b600052602160045260246000fd5b145b61126f5760405162461bcd60e51b815260040161052b90612d6e565b8160e0015188146112925760405162461bcd60e51b815260040161052b90612d10565b6002826020015160ff1660038111156112bb57634e487b7160e01b600052602160045260246000fd5b60038111156112da57634e487b7160e01b600052602160045260246000fd5b146112f75760405162461bcd60e51b815260040161052b90612eb4565b63ffffffff8716608083015261130e89898461143b565b50611320565b506000915061132d9050565b50505b5063f23a6e6160e01b5b9695505050505050565b60075481565b604080518082018252600581526430b236b4b760d91b60208201526001549151637af32e3960e11b815290916001600160a01b03169063f5e65c72906113899033908590600401612bb8565b60206040518083038186803b1580156113a157600080fd5b505afa1580156113b5573d6000803e3d6000fd5b505050506040513d601f19601f820116820180604052508101906113d99190612702565b6113f55760405162461bcd60e51b815260040161052b90612dc5565b6001600160a01b03821660009081526002602052604090205460ff1615611437576001600160a01b0382166000908152600260205260409020805460ff191690555b5050565b8060e00151821461145e5760405162461bcd60e51b815260040161052b90612d10565b60008160600151116114825760405162461bcd60e51b815260040161052b90612ee1565b6000816080015163ffffffff16116114ac5760405162461bcd60e51b815260040161052b90612e0d565b6101008101516001600160a01b031660009081526002602052604090205460ff166114e95760405162461bcd60e51b815260040161052b90612e8a565b6001600160a01b03831660a0820152600160408201526115088161202b565b50826001600160a01b03167f744e0612211f869664579012e5bfbfe48fb0bfff8a0152d46f1e3323b43fb7d282600001516040516115469190612f5a565b60405180910390a2505050565b6000838152600360205260409020805461157f5760405162461bcd60e51b815260040161052b90612d9b565b60068101546001600160a01b038681169116146115ae5760405162461bcd60e51b815260040161052b90612d47565b806002015483146115d15760405162461bcd60e51b815260040161052b90612c82565b600180820154610100900460ff1660038111156115fe57634e487b7160e01b600052602160045260246000fd5b600381111561161d57634e487b7160e01b600052602160045260246000fd5b1461163a5760405162461bcd60e51b815260040161052b90612ce2565b600181015460009060ff16600381111561166457634e487b7160e01b600052602160045260246000fd5b6001838101805461ff0019166102001790556004840180546001600160a01b0319166001600160a01b0387161790559091508160038111156116b657634e487b7160e01b600052602160045260246000fd5b1415611750576116e660405180604001604052806009815260200168115c5d5a5c1b595b9d60ba1b815250610b19565b6001600160a01b031663b88d4fde308585600501546040518463ffffffff1660e01b815260040161171993929190612add565b600060405180830381600087803b15801561173357600080fd5b505af1158015611747573d6000803e3d6000fd5b50505050611899565b600281600381111561177257634e487b7160e01b600052602160045260246000fd5b14156117e3576117a160405180604001604052806008815260200167119c9859db595b9d60c21b815250610b19565b60058301546003840154604051637921219560e11b81526001600160a01b03939093169263f242432a9261171992309289929163ffffffff1690600401612b7a565b600381600381111561180557634e487b7160e01b600052602160045260246000fd5b14156118995761183360405180604001604052806007815260200166417274776f726b60c81b815250610b19565b6001600160a01b031663b88d4fde308585600501546040518463ffffffff1660e01b815260040161186693929190612add565b600060405180830381600087803b15801561188057600080fd5b505af1158015611894573d6000803e3d6000fd5b505050505b60006103e860065484600201546118b09190612fc5565b6118ba9190612fa5565b905060006064600754836118ce9190612fc5565b6118d89190612fa5565b90506000611902604051806040016040528060058152602001642a37b5b2b760d91b815250610b19565b6001600160a01b0316896001600160a01b0316141561197e57604051630852cd8d60e31b81526001600160a01b038a16906342966c6890611947908690600401612f5a565b600060405180830381600087803b15801561196157600080fd5b505af1158015611975573d6000803e3d6000fd5b50505050611e2a565b6119a3604051806040016040528060048152602001631554d11560e21b815250610b19565b6001600160a01b0316896001600160a01b03161415611d795760006119e760405180604001604052806008815260200167149959995c9c985b60c21b815250610b19565b90506001600160a01b03811615611b3757600080826001600160a01b031663967ee1218a886040518363ffffffff1660e01b8152600401611a29929190612bdc565b6040805180830381600087803b158015611a4257600080fd5b505af1158015611a56573d6000803e3d6000fd5b505050506040513d601f19601f82011682018060405250810190611a7a91906126d5565b945091508390506001600160a01b03821615801590611a995750600081115b8015611aad5750611aaa8587612fe4565b81105b15611b345760405163a9059cbb60e01b81526001600160a01b038d169063a9059cbb90611ae09085908890600401612bdc565b602060405180830381600087803b158015611afa57600080fd5b505af1158015611b0e573d6000803e3d6000fd5b505050506040513d601f19601f82011682018060405250810190611b329190612702565b505b50505b6002860154604051634c0967a160e11b81526001600160a01b03831691639812cf4291611b68913391600401612bdc565b600060405180830381600087803b158015611b8257600080fd5b505af1158015611b96573d6000803e3d6000fd5b50505050896001600160a01b031663a9059cbb611bd0604051806040016040528060068152602001652a32b63632b960d11b815250610b19565b856040518363ffffffff1660e01b8152600401611bee929190612bdc565b602060405180830381600087803b158015611c0857600080fd5b505af1158015611c1c573d6000803e3d6000fd5b505050506040513d601f19601f82011682018060405250810190611c409190612702565b506000611c6960405180604001604052806005815260200164426f6e757360d81b815250610b19565b90506001600160a01b038b1663095ea7b38285611c86888a612fe4565b611c909190612fe4565b6040518363ffffffff1660e01b8152600401611cad929190612bdc565b602060405180830381600087803b158015611cc757600080fd5b505af1158015611cdb573d6000803e3d6000fd5b505050506040513d601f19601f82011682018060405250810190611cff9190612702565b506001600160a01b038116635ecc751284611d1a8789612fe4565b611d249190612fe4565b6040518263ffffffff1660e01b8152600401611d409190612f5a565b600060405180830381600087803b158015611d5a57600080fd5b505af1158015611d6e573d6000803e3d6000fd5b505050505050611e2a565b886001600160a01b031663a9059cbb611daf604051806040016040528060068152602001652a32b63632b960d11b815250610b19565b611db98487612fe4565b6040518363ffffffff1660e01b8152600401611dd6929190612bdc565b602060405180830381600087803b158015611df057600080fd5b505af1158015611e04573d6000803e3d6000fd5b505050506040513d601f19601f82011682018060405250810190611e289190612702565b505b886001600160a01b031663a9059cbb8660030160049054906101000a90046001600160a01b0316858860020154611e619190612fe4565b6040518363ffffffff1660e01b8152600401611e7e929190612bdc565b602060405180830381600087803b158015611e9857600080fd5b505af1158015611eac573d6000803e3d6000fd5b505050506040513d601f19601f82011682018060405250810190611ed09190612702565b50600485015460038601546040516001600160a01b0392831692640100000000909204909116907f2b20b4ead303052d309961138ca1e62e49551073b0d8cfb856245892e7f77b7890611f24908c90612f5a565b60405180910390a3611f3588611f41565b50505050505050505050565b60008181526003602052604081205480611f5f576000915050610384565b600083815260036020819052604082208281556001808201805461ffff191690556002820184905591810180546001600160c01b0319169055600480820180546001600160a01b031990811690915560058301949094556006909101805490931690925590611fce8284612fe4565b81548110611fec57634e487b7160e01b600052603260045260246000fd5b60009182526020822060029190910201600101805460ff191692151592909217909155600580549161201d83612ffb565b909155506001949350505050565b805160009081526003602052604081205480156121bf578251600090815260036020818152604080842087518082559288015160018083018054858c015160ff1990911660ff9485161761ff00191661010094909116840217905560608a0151600284015560808a0151958301805460a08c015163ffffffff1990911663ffffffff90981697909717640100000000600160c01b0319166401000000006001600160a01b039889160217905560c08a0151600480850180546001600160a01b0319908116938a1693909317905560e08c01516005860155928b01516006909401805490911693909616929092179094559184529092208390558451916121319084612fe4565b8154811061214f57634e487b7160e01b600052603260045260246000fd5b60009182526020822060029091020191909155600461216f600184612fe4565b8154811061218d57634e487b7160e01b600052603260045260246000fd5b906000526020600020906002020160010160006101000a81548160ff0219169083151502179055506001915050610384565b506004805460018181018355600092909252906121dd908290612f8d565b8084526000908152600360208181526040928390208651808255918701516001820180549589015160ff1990961660ff9283161761ff00191661010092909616820295909517909455606087015160028201556080870151928101805460a089015163ffffffff1990911663ffffffff90951694909417640100000000600160c01b0319166401000000006001600160a01b039586160217905560c0870151600480830180546001600160a01b031990811693871693909317905560e08901516005840155948801516006909201805490911691909316179091558154909190839081106122db57634e487b7160e01b600052603260045260246000fd5b6000918252602082206002909102019190915560058054916122fc83613012565b91905055506000915050610384565b6040805161012081018252600080825260208201819052918101829052606081018290526080810182905260a0810182905260c0810182905260e0810182905261010081019190915290565b600067ffffffffffffffff83111561237157612371613043565b612384601f8401601f1916602001612f63565b905082815283838301111561239857600080fd5b828260208301376000602084830101529392505050565b803561038481613059565b805161038481613059565b60008083601f8401126123d6578182fd5b50813567ffffffffffffffff8111156123ed578182fd5b602083019150836020808302850101111561240757600080fd5b9250929050565b60008083601f84011261241f578182fd5b50813567ffffffffffffffff811115612436578182fd5b60208301915083602082850101111561240757600080fd5b803561038481613071565b805161038481613071565b803561038481613083565b805161038481613083565b60006020828403121561248b578081fd5b8135610c0f81613059565b6000602082840312156124a7578081fd5b8151610c0f81613059565b60008060008060008060008060a0898b0312156124cd578384fd5b88356124d881613059565b975060208901356124e881613059565b9650604089013567ffffffffffffffff80821115612504578586fd5b6125108c838d016123c5565b909850965060608b0135915080821115612528578586fd5b6125348c838d016123c5565b909650945060808b013591508082111561254c578384fd5b506125598b828c0161240e565b999c989b5096995094979396929594505050565b600080600080600060808688031215612584578081fd5b853561258f81613059565b9450602086013561259f81613059565b935060408601359250606086013567ffffffffffffffff8111156125c1578182fd5b6125cd8882890161240e565b969995985093965092949392505050565b600080600080608085870312156125f3578182fd5b84356125fe81613059565b9350602085013561260e81613059565b925060408501359150606085013567ffffffffffffffff811115612630578182fd5b8501601f81018713612640578182fd5b61264f87823560208401612357565b91505092959194509250565b60008060008060008060a08789031215612673578384fd5b863561267e81613059565b9550602087013561268e81613059565b94506040870135935060608701359250608087013567ffffffffffffffff8111156126b7578283fd5b6126c389828a0161240e565b979a9699509497509295939492505050565b600080604083850312156126e7578182fd5b82516126f281613059565b6020939093015192949293505050565b600060208284031215612713578081fd5b81518015158114610c0f578182fd5b600060208284031215612733578081fd5b81356001600160e01b031981168114610c0f578182fd5b60006020828403121561275b578081fd5b813567ffffffffffffffff811115612771578182fd5b8201601f81018413612781578182fd5b61055d84823560208401612357565b6000602082840312156127a1578081fd5b5035919050565b6000808284036101408112156127bc578283fd5b83356127c781613083565b9250610120601f1982018113156127dc578283fd5b6127e581612f63565b9150602085013582526127fa60408601612464565b602083015261280b60608601612464565b60408301526080850135606083015261282660a0860161244e565b608083015261283760c086016123af565b60a083015261284860e086016123af565b60c08301526101008086013560e08401526128648287016123af565b9083015250919491935090915050565b600080828403610140811215612888578283fd5b835161289381613083565b9250610120601f1982018113156128a8578283fd5b6128b181612f63565b9150602085015182526128c66040860161246f565b60208301526128d76060860161246f565b6040830152608085015160608301526128f260a08601612459565b608083015261290360c086016123ba565b60a083015261291460e086016123ba565b60c08301526101008086015160e08401526128648287016123ba565b60008060408385031215612942578182fd5b823561294d81613083565b946020939093013593505050565b60008060006060848603121561296f578081fd5b833561297a81613083565b925060208401359150604084013561299181613071565b809150509250925092565b6001600160a01b03169052565b60008151808452815b818110156129ce576020818501810151868301820152016129b2565b818111156129df5782602083870101525b50601f01601f19169290920160200192915050565b600381526262757960e81b602082015260400190565b6007815266383ab63627b33360c91b602082015260400190565b8051825260ff602082015116602083015260ff60408201511660408301526060810151606083015263ffffffff608082015116608083015260a0810151612a6e60a084018261299c565b5060c0810151612a8160c084018261299c565b5060e081015160e083015261010080820151612a9f8285018261299c565b50505050565b6001600160a01b0391909116815260200190565b6001600160a01b039384168152919092166020820152604081019190915260600190565b6001600160a01b038481168252831660208201526040810182905260806060820181905260009061099c9083016129f4565b6001600160a01b038481168252831660208201526040810182905260806060820181905260009061099c908301612a0a565b6001600160a01b03858116825284166020820152604081018390526060810182905260a06080820181905260009061132d908301612a0a565b6001600160a01b038581168252841660208201526040810183905263ffffffff8216606082015260a06080820181905260009061132d9083016129f4565b6001600160a01b038316815260406020820181905260009061055d908301846129a9565b6001600160a01b03929092168252602082015260400190565b901515815260200190565b600060408201841515835260206040818501528185518084526060860191508287019350845b81811015612c4d57612c39838651612a24565b938301936101209290920191600101612c26565b5090979650505050505050565b6001600160e01b031991909116815260200190565b600060208252610c0f60208301846129a9565b602080825260119082015270496e76616c69642070617920707269636560781b604082015260600190565b6020808252818101527f54686520676f6f647320646f6573206e6f742062656c6f6e6720746f20796f75604082015260600190565b602080825260149082015273496e76616c696420676f6f64732073746174757360601b604082015260600190565b60208082526017908201527f496e76616c696420676f6f647320636f6e74656e744964000000000000000000604082015260600190565b6020808252600d908201526c24b73b30b634b2103a37b5b2b760991b604082015260600190565b602080825260139082015272125b9d985b1a5908199c9859db595b9d081a59606a1b604082015260600190565b60208082526010908201526f125b9d985b1a590819dbdbd91cc81a5960821b604082015260600190565b6020808252600990820152681b9bc81c195c9b5a5d60ba1b604082015260600190565b6020808252600b908201526a496e76616c69642066656560a81b604082015260600190565b602080825260149082015273125b9d985b1a590819dbdbd91cc8185b5bdd5b9d60621b604082015260600190565b6020808252600f908201526e125b9d985b1a590819dbdbd91cd259608a1b604082015260600190565b6020808252600c908201526b7a65726f206164647265737360a01b604082015260600190565b60208082526010908201526f496e76616c696420706179206d6f646560801b604082015260600190565b602080825260139082015272496e76616c696420676f6f647320636c61737360681b604082015260600190565b602080825260139082015272496e76616c696420676f6f647320707269636560681b604082015260600190565b60208082526019908201527f6f6e6c7920616c6c6f7720636f6e7472616374206f776e657200000000000000604082015260600190565b6101208101612f548284612a24565b92915050565b90815260200190565b60405181810167ffffffffffffffff81118282101715612f8557612f85613043565b604052919050565b60008219821115612fa057612fa061302d565b500190565b600082612fc057634e487b7160e01b81526012600452602481fd5b500490565b6000816000190483118215151615612fdf57612fdf61302d565b500290565b600082821015612ff657612ff661302d565b500390565b60008161300a5761300a61302d565b506000190190565b60006000198214156130265761302661302d565b5060010190565b634e487b7160e01b600052601160045260246000fd5b634e487b7160e01b600052604160045260246000fd5b6001600160a01b038116811461306e57600080fd5b50565b63ffffffff8116811461306e57600080fd5b60ff8116811461306e57600080fdfea26469706673582212207ab7185cd7ff8b759790161d68317c329a5fd8a03612c96460fafb234d9d9b1d64736f6c63430008000033",
  "immutableReferences": {},
  "source": "pragma solidity ^0.8.0;\npragma abicoder v2;\n\n// SPDX-License-Identifier: MIT\n\nimport \"./lib/Permission.sol\";\nimport \"./Structs.sol\";\nimport \"./include/IERC721.sol\";\nimport \"./include/IERC20.sol\";\nimport \"./include/IERC1155.sol\";\nimport \"./include/IERC1155TokenReceiver.sol\";\nimport \"./include/IERC721TokenReceiver.sol\";\nimport \"./include/IERC1363Receiver.sol\";\nimport \"./include/IERC165.sol\";\nimport \"./include/IEquipment.sol\";\nimport \"./include/IERC20OP.sol\";\nimport \"./include/IBonusPool.sol\";\nimport \"./include/IReferral.sol\";\nimport \"./include/IReferralUpdate.sol\";\n\ncontract Market is Permission, IERC1155TokenReceiver, IERC721TokenReceiver, IERC1363Receiver, IERC165 {\n    enum MarketOperate {\n        None,\n        //\n        putOn,\n        //\n        buy\n    }\n    enum GoodsClass {\n        None,\n        //\n        Equipment,\n        //\n        Fragment,\n        //\n        Artwork\n    }\n    enum GoodsStatus {\n        //\n        None,\n        //\n        Normal,\n        //\n        Deal,\n        //\n        Close\n    }\n    struct Goods {\n        //id\n        uint256 id;\n        //(1,2,3)\n        uint8 class;\n        //GoodsStatus(1,2,3)\n        uint8 status;\n        //()\n        uint256 price;\n        //\n        uint32 amount;\n        //\n        address seller;\n        //\n        address buyer;\n        //id(ididid)\n        uint256 contentId;\n        //\n        address payContract;\n    }\n    struct KeyFlag {\n        uint256 key;\n        bool deleted;\n    }\n    struct listGoods {\n        mapping(uint256 => Goods) data;\n        KeyFlag[] keys;\n        uint256 size;\n    }\n\n    event PutOn(address indexed seller, uint256 goodsId);\n    event PullOff(address indexed seller, uint256 goodsId);\n    event BuyGoods(address indexed seller, address indexed buyer, uint256 goodsId);\n\n    mapping(address => bool) public supportCoin;\n\n    //\n    listGoods private _listGoods;\n\n    //(20,2%,1000,100%)\n    uint256 public fee = 20;\n    //(usdt)\n    uint256 public chargeRatio = 20;\n\n    function setSupportCoin(address _contract) public CheckPermit(\"admin\") {\n        supportCoin[_contract] = true;\n    }\n\n    function delSupportCoin(address _contract) public CheckPermit(\"admin\") {\n        if (supportCoin[_contract]) {\n            delete supportCoin[_contract];\n        }\n    }\n\n    //\n    function setFee(uint256 _fee) public CheckPermit(\"admin\") {\n        require(_fee > 0 && _fee <= 1000, \"Invalid fee\");\n        fee = _fee;\n    }\n\n    function setChargeRatio(uint256 rate) public CheckPermit(\"admin\") {\n        chargeRatio = rate;\n    }\n\n    function insert(Goods memory item) internal returns (bool replaced) {\n        uint256 goodsId = _listGoods.data[item.id].id;\n        if (goodsId > 0) {\n            _listGoods.data[item.id] = item;\n            _listGoods.data[item.id].id = goodsId;\n            _listGoods.keys[goodsId - 1].key = item.id;\n            _listGoods.keys[goodsId - 1].deleted = false;\n            return true;\n        } else {\n            goodsId = _listGoods.keys.length;\n            _listGoods.keys.push();\n            item.id = goodsId + 1;\n            _listGoods.data[item.id] = item;\n            _listGoods.keys[goodsId].key = item.id;\n            _listGoods.size++;\n            return false;\n        }\n    }\n\n    function remove(uint256 goodsId) internal returns (bool success) {\n        uint256 keyIndex = _listGoods.data[goodsId].id;\n        if (keyIndex == 0) return false;\n        delete _listGoods.data[goodsId];\n        _listGoods.keys[keyIndex - 1].deleted = true;\n        _listGoods.size--;\n        return true;\n    }\n\n    function contains(uint256 goodsId) public view returns (bool) {\n        uint256 keyIndex = _listGoods.data[goodsId].id;\n        return keyIndex > 0 && _listGoods.keys[keyIndex - 1].deleted == false;\n    }\n\n    function next(uint256 goodsId) public view returns (uint256) {\n        goodsId++;\n        while (goodsId < _listGoods.keys.length && _listGoods.keys[goodsId - 1].deleted) goodsId++;\n        return goodsId;\n    }\n\n    function valid(uint256 goodsId) public view returns (bool) {\n        return (goodsId - 1) < _listGoods.keys.length;\n    }\n\n    function getGoods(uint256 goodsId) public view returns (Goods memory goods) {\n        goods = _listGoods.data[goodsId];\n    }\n\n    function searchGoods(\n        uint8 class,\n        uint256 goodsId,\n        uint32 count\n    ) public view returns (bool more, Goods[] memory list) {\n        list = new Goods[](count);\n        uint256 j;\n        uint256 i = goodsId;\n        if (i == 0) i = next(0);\n        Goods storage goods;\n        for (; j <= count && valid(i); i = next(i)) {\n            goods = _listGoods.data[i];\n            if (class == 0 || goods.class == class) {\n                if (j < count) {\n                    list[j] = goods;\n                    j++;\n                } else {\n                    more = true;\n                }\n            }\n        }\n    }\n\n    //\n    function putOn(\n        address from,\n        uint256 tokenId,\n        Goods memory goods\n    ) internal virtual {\n        require(tokenId == goods.contentId, \"Invalid goods contentId\");\n        require(goods.price > 0, \"Invalid goods price\");\n        require(goods.amount > 0, \"Invalid goods amount\");\n        require(supportCoin[goods.payContract], \"Invalid pay mode\");\n        goods.seller = from;\n        goods.status = uint8(GoodsStatus.Normal);\n        insert(goods);\n        emit PutOn(from, goods.id);\n    }\n\n    //\n    function pullOff(uint256 goodsId) public virtual {\n        Goods storage goods = _listGoods.data[goodsId];\n        require(goods.seller == msg.sender, \"The goods does not belong to you\");\n        require(goods.id > 0, \"Invalid goodsId\");\n        require(GoodsStatus(goods.status) == GoodsStatus.Normal, \"Invalid goods status\");\n\n        GoodsClass gc = GoodsClass(goods.class);\n        uint256 tokenId = goods.contentId;\n        uint256 value = goods.amount;\n        goods.status = uint8(GoodsStatus.Close);\n        remove(goodsId);\n        if (gc == GoodsClass.Equipment) {\n            IERC721(getAddress(\"Equipment\")).safeTransferFrom(address(this), msg.sender, tokenId, \"pullOff\");\n        } else if (gc == GoodsClass.Fragment) {\n            IERC1155(getAddress(\"Fragment\")).safeTransferFrom(address(this), msg.sender, tokenId, value, \"pullOff\");\n        } else if (gc == GoodsClass.Artwork) {\n            IERC721(getAddress(\"Artwork\")).safeTransferFrom(address(this), msg.sender, tokenId, \"pullOff\");\n        }\n        emit PullOff(msg.sender, goodsId);\n    }\n\n    //erc20\n    function buy(uint256 goodsId) public virtual {\n        Goods storage goods = _listGoods.data[goodsId];\n        // require(goods.id != 0, \"Invalid goods id\");\n        // require(goods.price > 0, \"Invalid pay price\");\n        // require(GoodsStatus(goods.status) == GoodsStatus.Normal, \"Invalid goods status\");\n        //\n        bool success = IERC20(goods.payContract).transferFrom(msg.sender, address(this), goods.price);\n        if (success == true) {\n            _buy(goods.payContract, goodsId, goods.price, msg.sender);\n        }\n    }\n\n    //\n    function _buy(\n        address payContract,\n        uint256 goodsId,\n        uint256 value,\n        address to\n    ) internal virtual {\n        Goods storage goods = _listGoods.data[goodsId];\n        require(goods.id != 0, \"Invalid goods id\");\n        require(payContract == goods.payContract, \"Invalid token\");\n        require(value == goods.price, \"Invalid pay price\");\n        require(GoodsStatus(goods.status) == GoodsStatus.Normal, \"Invalid goods status\");\n\n        GoodsClass gc = GoodsClass(goods.class);\n        goods.status = uint8(GoodsStatus.Deal);\n        goods.buyer = to;\n\n        if (gc == GoodsClass.Equipment) {\n            IERC721(getAddress(\"Equipment\")).safeTransferFrom(address(this), to, goods.contentId, \"buy\");\n        } else if (gc == GoodsClass.Fragment) {\n            IERC1155(getAddress(\"Fragment\")).safeTransferFrom(address(this), to, goods.contentId, goods.amount, \"buy\");\n        } else if (gc == GoodsClass.Artwork) {\n            IERC721(getAddress(\"Artwork\")).safeTransferFrom(address(this), to, goods.contentId, \"buy\");\n        }\n        uint256 totalFee = (goods.price * fee) / 1000;\n        //\n        uint256 chargeFee = (totalFee * chargeRatio) / 100;\n        //\n        uint256 comm;\n        if (payContract == getAddress(\"Token\")) {\n            //\n            IERC20OP(payContract).burn(totalFee);\n        } else if (payContract == getAddress(\"USDT\")) {\n            address refAddr = getAddress(\"Referral\");\n            if (refAddr != address(0)) {\n                (address ref, uint256 commission) = IReferral(refAddr).getCommission(to, totalFee);\n                comm = commission;\n                if (ref != address(0) && commission > 0 && commission < totalFee - chargeFee) {\n                    //\n                    IERC20(payContract).transfer(ref, comm);\n                }\n            }\n            //\n            IReferralUpdate(refAddr).updateConsume(msg.sender, goods.price);\n            //\n            IERC20(payContract).transfer(getAddress(\"Teller\"), chargeFee);\n            //\n            address bonus = getAddress(\"Bonus\");\n            IERC20(payContract).approve(bonus, totalFee - chargeFee - comm);\n            IBonusPool(bonus).injectCapital(totalFee - chargeFee - comm);\n        } else {\n            //\n            IERC20(payContract).transfer(getAddress(\"Teller\"), totalFee - comm);\n        }\n        //\n        IERC20(payContract).transfer(goods.seller, goods.price - totalFee);\n        emit BuyGoods(goods.seller, goods.buyer, goodsId);\n        remove(goodsId);\n    }\n\n    //LGC1363\n    function onTransferReceived(\n        address,\n        address from,\n        uint256 value,\n        bytes calldata data\n    ) public override returns (bytes4) {\n        (uint8 op, uint256 goodsId) = abi.decode(data, (uint8, uint256));\n        if (MarketOperate.buy == MarketOperate(op)) {\n            _buy(msg.sender, goodsId, value, from);\n        } else {\n            return 0;\n        }\n        return IERC1363Receiver(this).onTransferReceived.selector;\n    }\n\n    ///\n    function onERC721Received(\n        address,\n        address _from,\n        uint256 _tokenId,\n        bytes memory _data\n    ) public virtual override returns (bytes4) {\n        if (msg.sender == getAddress(\"Equipment\") || msg.sender == getAddress(\"Artwork\")) {\n            (uint8 op, Goods memory goods) = abi.decode(_data, (uint8, Goods));\n            if (MarketOperate.putOn == MarketOperate(op)) {\n                //\n                require(GoodsClass(goods.class) == GoodsClass.Equipment || GoodsClass(goods.class) == GoodsClass.Artwork, \"Invalid goods class\");\n                putOn(_from, _tokenId, goods);\n            } else {\n                return 0;\n            }\n        }\n        return IERC721TokenReceiver(this).onERC721Received.selector;\n    }\n\n    //\n    function onERC1155Received(\n        address,\n        address _from,\n        uint256 _id,\n        uint256 _value,\n        bytes calldata _data\n    ) public virtual override returns (bytes4) {\n        if (msg.sender == getAddress(\"Fragment\")) {\n            (uint8 op, Goods memory goods) = abi.decode(_data, (uint8, Goods));\n            if (MarketOperate.putOn == MarketOperate(op)) {\n                //\n                FragmentType ftype = FragmentType(_id >> 248);\n                //\n                require(ftype == FragmentType.BonusPool || ftype == FragmentType.ArtworkPool, \"Invalid fragment id\");\n\n                require(_id == goods.contentId, \"Invalid goods contentId\");\n                require(GoodsClass(goods.class) == GoodsClass.Fragment, \"Invalid goods class\");\n                goods.amount = uint32(_value);\n                putOn(_from, _id, goods);\n            } else {\n                return 0;\n            }\n        }\n        return IERC1155TokenReceiver(this).onERC1155Received.selector;\n    }\n\n    function onERC1155BatchReceived(\n        address,\n        address,\n        uint256[] calldata,\n        uint256[] calldata,\n        bytes calldata\n    ) public virtual override returns (bytes4) {\n        return IERC1155TokenReceiver(this).onERC1155BatchReceived.selector;\n    }\n\n    function supportsInterface(bytes4 interfaceId) public pure override returns (bool) {\n        return interfaceId == type(IERC1155TokenReceiver).interfaceId || interfaceId == type(IERC721TokenReceiver).interfaceId || interfaceId == type(IERC1363Receiver).interfaceId;\n    }\n}\n",
  "sourcePath": "/Users/necklace/work/Legend/Legend/contracts/Market.sol",
  "compiler": {
    "name": "solc",
    "version": "0.8.0+commit.c7dfd78e.Darwin.appleclang"
  },
  "schemaVersion": "3.4.3",
  "updatedAt": "2022-03-25T17:08:34.392Z",
  "networkType": "ethereum",
  "devdoc": {
    "kind": "dev",
    "methods": {},
    "version": 1
  },
  "userdoc": {
    "kind": "user",
    "methods": {},
    "version": 1
  }
}