{
  "contractName": "PreSale",
  "abi": [
    {
      "inputs": [
        {
          "components": [
            {
              "internalType": "address",
              "name": "settlementCurrency",
              "type": "address"
            },
            {
              "internalType": "address",
              "name": "contractAddress",
              "type": "address"
            },
            {
              "internalType": "uint32",
              "name": "quantityCount",
              "type": "uint32"
            },
            {
              "internalType": "uint32",
              "name": "quantitySold",
              "type": "uint32"
            },
            {
              "internalType": "uint256",
              "name": "unitPrice",
              "type": "uint256"
            },
            {
              "internalType": "bytes",
              "name": "data",
              "type": "bytes"
            }
          ],
          "internalType": "struct Store.GoodsInfo",
          "name": "goodsInfo",
          "type": "tuple"
        },
        {
          "internalType": "uint256",
          "name": "goodsId",
          "type": "uint256"
        }
      ],
      "name": "addGoods",
      "outputs": [],
      "stateMutability": "nonpayable",
      "type": "function"
    },
    {
      "inputs": [],
      "name": "chargeRatio",
      "outputs": [
        {
          "internalType": "uint256",
          "name": "",
          "type": "uint256"
        }
      ],
      "stateMutability": "view",
      "type": "function"
    },
    {
      "inputs": [],
      "name": "contractOwner",
      "outputs": [
        {
          "internalType": "address",
          "name": "",
          "type": "address"
        }
      ],
      "stateMutability": "view",
      "type": "function"
    },
    {
      "inputs": [
        {
          "internalType": "uint256",
          "name": "goodsId",
          "type": "uint256"
        }
      ],
      "name": "delGoods",
      "outputs": [],
      "stateMutability": "nonpayable",
      "type": "function"
    },
    {
      "inputs": [
        {
          "internalType": "string",
          "name": "key",
          "type": "string"
        }
      ],
      "name": "getAddress",
      "outputs": [
        {
          "internalType": "address",
          "name": "",
          "type": "address"
        }
      ],
      "stateMutability": "view",
      "type": "function"
    },
    {
      "inputs": [
        {
          "internalType": "uint256",
          "name": "",
          "type": "uint256"
        }
      ],
      "name": "goods",
      "outputs": [
        {
          "internalType": "address",
          "name": "settlementCurrency",
          "type": "address"
        },
        {
          "internalType": "address",
          "name": "contractAddress",
          "type": "address"
        },
        {
          "internalType": "uint32",
          "name": "quantityCount",
          "type": "uint32"
        },
        {
          "internalType": "uint32",
          "name": "quantitySold",
          "type": "uint32"
        },
        {
          "internalType": "uint256",
          "name": "unitPrice",
          "type": "uint256"
        },
        {
          "internalType": "bytes",
          "name": "data",
          "type": "bytes"
        }
      ],
      "stateMutability": "view",
      "type": "function"
    },
    {
      "inputs": [],
      "name": "manager",
      "outputs": [
        {
          "internalType": "contract Manager",
          "name": "",
          "type": "address"
        }
      ],
      "stateMutability": "view",
      "type": "function"
    },
    {
      "inputs": [
        {
          "internalType": "address",
          "name": "",
          "type": "address"
        },
        {
          "internalType": "address",
          "name": "from",
          "type": "address"
        },
        {
          "internalType": "uint256",
          "name": "value",
          "type": "uint256"
        },
        {
          "internalType": "bytes",
          "name": "data",
          "type": "bytes"
        }
      ],
      "name": "onTransferReceived",
      "outputs": [
        {
          "internalType": "bytes4",
          "name": "",
          "type": "bytes4"
        }
      ],
      "stateMutability": "nonpayable",
      "type": "function"
    },
    {
      "inputs": [
        {
          "internalType": "uint256",
          "name": "rate",
          "type": "uint256"
        }
      ],
      "name": "setChargeRatio",
      "outputs": [],
      "stateMutability": "nonpayable",
      "type": "function"
    },
    {
      "inputs": [
        {
          "internalType": "address",
          "name": "addr",
          "type": "address"
        }
      ],
      "name": "setManager",
      "outputs": [],
      "stateMutability": "nonpayable",
      "type": "function"
    },
    {
      "inputs": [
        {
          "internalType": "bytes4",
          "name": "interfaceId",
          "type": "bytes4"
        }
      ],
      "name": "supportsInterface",
      "outputs": [
        {
          "internalType": "bool",
          "name": "",
          "type": "bool"
        }
      ],
      "stateMutability": "pure",
      "type": "function"
    },
    {
      "inputs": [
        {
          "internalType": "uint256",
          "name": "limit",
          "type": "uint256"
        }
      ],
      "name": "setBuyLimit",
      "outputs": [],
      "stateMutability": "nonpayable",
      "type": "function"
    },
    {
      "inputs": [
        {
          "internalType": "uint256",
          "name": "time",
          "type": "uint256"
        }
      ],
      "name": "setEndTime",
      "outputs": [],
      "stateMutability": "nonpayable",
      "type": "function"
    },
    {
      "inputs": [],
      "name": "getInfo",
      "outputs": [
        {
          "internalType": "uint256",
          "name": "limit",
          "type": "uint256"
        },
        {
          "internalType": "uint256",
          "name": "count",
          "type": "uint256"
        },
        {
          "internalType": "uint256",
          "name": "time",
          "type": "uint256"
        }
      ],
      "stateMutability": "view",
      "type": "function"
    },
    {
      "inputs": [
        {
          "internalType": "uint256",
          "name": "goodsId",
          "type": "uint256"
        },
        {
          "internalType": "uint256",
          "name": "quantity",
          "type": "uint256"
        }
      ],
      "name": "buy",
      "outputs": [],
      "stateMutability": "nonpayable",
      "type": "function"
    }
  ],
  "bytecode": "0x6080604052600080546001600160a01b031916331781556014600355600a60045560055534801561002f57600080fd5b50611f218061003f6000396000f3fe608060405234801561001057600080fd5b50600436106100f55760003560e01c8063bf40fac111610097578063d6febde811610066578063d6febde8146101fd578063dd31ee2d14610210578063eb8d6a9614610223578063f26b013a14610236576100f5565b8063bf40fac1146101bc578063ccb98ffc146101cf578063ce606ee0146101e2578063d0ebdbe7146101ea576100f5565b8063481c6a75116100d3578063481c6a751461015d5780635a9b0b891461017257806388a7ca5c14610189578063953bf8a2146101a9576100f5565b806301ffc9a7146100fa5780632f724394146101235780633fe5b20b14610148575b600080fd5b61010d61010836600461161a565b61024b565b60405161011a9190611916565b60405180910390f35b61013661013136600461172a565b610264565b60405161011a969594939291906117e6565b61015b6101563660046116e3565b61033d565b005b61016561043f565b60405161011a91906117ae565b61017a61044e565b60405161011a93929190611b5a565b61019c610197366004611533565b61046b565b60405161011a9190611921565b61015b6101b736600461172a565b610553565b6101656101ca366004611642565b610611565b61015b6101dd36600461172a565b610698565b610165610756565b61015b6101f83660046114f4565b610765565b61015b61020b366004611742565b6107d7565b61015b61021e36600461172a565b610888565b61015b61023136600461172a565b610946565b61023e610a68565b60405161011a9190611b51565b6001600160e01b03198116632229f29760e21b14919050565b600260208190526000918252604090912080546001820154928201546003830180546001600160a01b03938416959384169463ffffffff600160a01b8604811695600160c01b900416939290916102ba90611d44565b80601f01602080910402602001604051908101604052809291908181526020018280546102e690611d44565b80156103335780601f1061030857610100808354040283529160200191610333565b820191906000526020600020905b81548152906001019060200180831161031657829003601f168201915b5050505050905086565b604080518082018252600581526430b236b4b760d91b60208201526001549151637af32e3960e11b815290916001600160a01b03169063f5e65c72906103899033908590600401611839565b60206040518083038186803b1580156103a157600080fd5b505afa1580156103b5573d6000803e3d6000fd5b505050506040513d601f19601f820116820180604052508101906103d991906115fa565b6103fe5760405162461bcd60e51b81526004016103f5906119d6565b60405180910390fd5b6000821161041e5760405162461bcd60e51b81526004016103f590611a28565b600082815260026020526040902083906104388282611df3565b5050505050565b6001546001600160a01b031681565b600454336000908152600660205260409020546005549192909190565b6000610493604051806040016040528060058152602001642a37b5b2b760d91b815250610611565b6001600160a01b0316336001600160a01b03161415610540576000838360008181106104cf57634e487b7160e01b600052603260045260246000fd5b919091013560f81c905060098111156104f857634e487b7160e01b600052602160045260246000fd5b905080600981111561051a57634e487b7160e01b600052602160045260246000fd5b600814156105345761052f8686338787610a6e565b61053e565b506000905061054a565b505b50632229f29760e21b5b95945050505050565b604080518082018252600581526430b236b4b760d91b60208201526001549151637af32e3960e11b815290916001600160a01b03169063f5e65c729061059f9033908590600401611839565b60206040518083038186803b1580156105b757600080fd5b505afa1580156105cb573d6000803e3d6000fd5b505050506040513d601f19601f820116820180604052508101906105ef91906115fa565b61060b5760405162461bcd60e51b81526004016103f5906119d6565b50600355565b6001546040516334abd05960e11b81526000916001600160a01b031690636957a0b290610642908590600401611936565b60206040518083038186803b15801561065a57600080fd5b505afa15801561066e573d6000803e3d6000fd5b505050506040513d601f19601f820116820180604052508101906106929190611517565b92915050565b604080518082018252600581526430b236b4b760d91b60208201526001549151637af32e3960e11b815290916001600160a01b03169063f5e65c72906106e49033908590600401611839565b60206040518083038186803b1580156106fc57600080fd5b505afa158015610710573d6000803e3d6000fd5b505050506040513d601f19601f8201168201806040525081019061073491906115fa565b6107505760405162461bcd60e51b81526004016103f5906119d6565b50600555565b6000546001600160a01b031681565b6000546001600160a01b0316331461078f5760405162461bcd60e51b81526004016103f590611aae565b6001600160a01b0381166107b55760405162461bcd60e51b81526004016103f590611a51565b600180546001600160a01b0319166001600160a01b0392909216919091179055565b600081116107f75760405162461bcd60e51b81526004016103f5906119ac565b6005544211156108195760405162461bcd60e51b81526004016103f590611a77565b336000908152600660205260409020546004546108369190611bfb565b8111156108555760405162461bcd60e51b81526004016103f590611ae5565b3360009081526006602052604081208054839290610874908490611b7c565b9091555061088490508282610cf9565b5050565b604080518082018252600581526430b236b4b760d91b60208201526001549151637af32e3960e11b815290916001600160a01b03169063f5e65c72906108d49033908590600401611839565b60206040518083038186803b1580156108ec57600080fd5b505afa158015610900573d6000803e3d6000fd5b505050506040513d601f19601f8201168201806040525081019061092491906115fa565b6109405760405162461bcd60e51b81526004016103f5906119d6565b50600455565b604080518082018252600581526430b236b4b760d91b60208201526001549151637af32e3960e11b815290916001600160a01b03169063f5e65c72906109929033908590600401611839565b60206040518083038186803b1580156109aa57600080fd5b505afa1580156109be573d6000803e3d6000fd5b505050506040513d601f19601f820116820180604052508101906109e291906115fa565b6109fe5760405162461bcd60e51b81526004016103f5906119d6565b60008211610a1e5760405162461bcd60e51b81526004016103f590611a28565b6000828152600260208190526040822080546001600160a01b03191681556001810180546001600160e01b031916905590810182905590610a62600383018261149c565b50505050565b60035481565b6000610ab283838080601f0160208091040260200160405190810160405280939291908181526020018383808284376000920191909152506001925061143c915050565b90506000610af884848080601f0160208091040260200160405190810160405280939291908181526020018383808284376000920191909152506021925061143c915050565b600083815260026020526040902060010154909150610b2d9063ffffffff600160c01b8204811691600160a01b900416611c12565b63ffffffff16811115610b525760405162461bcd60e51b81526004016103f5906119ac565b6000828152600260205260409020546001600160a01b03868116911614610b8b5760405162461bcd60e51b81526004016103f590611975565b600082815260026020819052604082200154610ba8908390611bdc565b905080871015610bca5760405162461bcd60e51b81526004016103f590611b1a565b604051630852cd8d60e31b81526001600160a01b038716906342966c6890610bf6908490600401611b51565b600060405180830381600087803b158015610c1057600080fd5b505af1158015610c24573d6000803e3d6000fd5b50505060008481526002602052604090819020600181015491516394d008ef60e01b81526001600160a01b0390921692506394d008ef91610c6f918c9187916003019060040161187e565b600060405180830381600087803b158015610c8957600080fd5b505af1158015610c9d573d6000803e3d6000fd5b50505060008481526002602052604090206001018054849250601890610cd1908490600160c01b900463ffffffff16611b94565b92506101000a81548163ffffffff021916908363ffffffff1602179055505050505050505050565b600082815260026020526040902060010154610d2b9063ffffffff600160c01b8204811691600160a01b900416611c12565b63ffffffff16811115610d505760405162461bcd60e51b81526004016103f5906119ac565b6000828152600260208190526040822080549101546001600160a01b03909116918291610d7e908590611bdc565b90506000610da8604051806040016040528060058152602001642a37b5b2b760d91b815250610611565b6001600160a01b0316846001600160a01b03161415610f76576040516323b872dd60e01b81526001600160a01b038416906323b872dd90610df1903390309087906004016117c2565b602060405180830381600087803b158015610e0b57600080fd5b505af1158015610e1f573d6000803e3d6000fd5b505050506040513d601f19601f82011682018060405250810190610e4391906115fa565b90508015610f7157604051630852cd8d60e31b81526001600160a01b038516906342966c6890610e77908590600401611b51565b600060405180830381600087803b158015610e9157600080fd5b505af1158015610ea5573d6000803e3d6000fd5b50505060008781526002602052604090819020600181015491516394d008ef60e01b81526001600160a01b0390921692506394d008ef91610ef09133918a916003019060040161187e565b600060405180830381600087803b158015610f0a57600080fd5b505af1158015610f1e573d6000803e3d6000fd5b50505060008781526002602052604090206001018054879250601890610f52908490600160c01b900463ffffffff16611b94565b92506101000a81548163ffffffff021916908363ffffffff1602179055505b611434565b6000610f9e60405180604001604052806005815260200164426f6e757360d81b815250610611565b9050600080606460035486610fb39190611bdc565b610fbd9190611bbc565b9050856001600160a01b03166323b872dd33610ff6604051806040016040528060068152602001652a32b63632b960d11b815250610611565b846040518463ffffffff1660e01b8152600401611015939291906117c2565b602060405180830381600087803b15801561102f57600080fd5b505af1158015611043573d6000803e3d6000fd5b505050506040513d601f19601f8201168201806040525081019061106791906115fa565b9350831561143057600061109a60405180604001604052806008815260200167149959995c9c985b60c21b815250610611565b90506001600160a01b038116156111ee57600080826001600160a01b031663967ee121338a6040518363ffffffff1660e01b81526004016110dc929190611865565b6040805180830381600087803b1580156110f557600080fd5b505af1158015611109573d6000803e3d6000fd5b505050506040513d601f19601f8201168201806040525081019061112d91906115cd565b90925090506001600160a01b0382161580159061114a5750600081115b801561115e575061115b8489611bfb565b81105b156111eb57809450886001600160a01b03166323b872dd3384846040518463ffffffff1660e01b8152600401611196939291906117c2565b602060405180830381600087803b1580156111b057600080fd5b505af11580156111c4573d6000803e3d6000fd5b505050506040513d601f19601f820116820180604052508101906111e891906115fa565b96505b50505b841561142e576001600160a01b0387166323b872dd338686611210878c611bfb565b61121a9190611bfb565b6040518463ffffffff1660e01b8152600401611238939291906117c2565b602060405180830381600087803b15801561125257600080fd5b505af1158015611266573d6000803e3d6000fd5b505050506040513d601f19601f8201168201806040525081019061128a91906115fa565b9450841561142e57604051634c0967a160e11b81526001600160a01b03821690639812cf42906112c09033908a90600401611865565b600060405180830381600087803b1580156112da57600080fd5b505af11580156112ee573d6000803e3d6000fd5b50505050836001600160a01b0316635ecc751284848961130e9190611bfb565b6113189190611bfb565b6040518263ffffffff1660e01b81526004016113349190611b51565b600060405180830381600087803b15801561134e57600080fd5b505af1158015611362573d6000803e3d6000fd5b50505060008b81526002602052604090819020600181015491516394d008ef60e01b81526001600160a01b0390921692506394d008ef916113ad9133918e916003019060040161187e565b600060405180830381600087803b1580156113c757600080fd5b505af11580156113db573d6000803e3d6000fd5b50505060008b815260026020526040902060010180548b925060189061140f908490600160c01b900463ffffffff16611b94565b92506101000a81548163ffffffff021916908363ffffffff1602179055505b505b5050505b505050505050565b60008161144a816020611b7c565b10156114685760405162461bcd60e51b81526004016103f590611949565b611473826020611b7c565b835110156114935760405162461bcd60e51b81526004016103f5906119f9565b50016020015190565b5080546114a890611d44565b6000825580601f106114ba57506114d8565b601f0160209004906000526020600020908101906114d891906114db565b50565b5b808211156114f057600081556001016114dc565b5090565b600060208284031215611505578081fd5b813561151081611ed6565b9392505050565b600060208284031215611528578081fd5b815161151081611ed6565b60008060008060006080868803121561154a578081fd5b853561155581611ed6565b9450602086013561156581611ed6565b935060408601359250606086013567ffffffffffffffff80821115611588578283fd5b818801915088601f83011261159b578283fd5b8135818111156115a9578384fd5b8960208285010111156115ba578384fd5b9699959850939650602001949392505050565b600080604083850312156115df578182fd5b82516115ea81611ed6565b6020939093015192949293505050565b60006020828403121561160b578081fd5b81518015158114611510578182fd5b60006020828403121561162b578081fd5b81356001600160e01b031981168114611510578182fd5b60006020808385031215611654578182fd5b823567ffffffffffffffff8082111561166b578384fd5b818501915085601f83011261167e578384fd5b81358181111561169057611690611da8565b604051601f8201601f19168101850183811182821017156116b3576116b3611da8565b60405281815283820185018810156116c9578586fd5b818585018683013790810190930193909352509392505050565b600080604083850312156116f5578182fd5b823567ffffffffffffffff81111561170b578283fd5b830160c0818603121561171c578283fd5b946020939093013593505050565b60006020828403121561173b578081fd5b5035919050565b60008060408385031215611754578182fd5b50508035926020909101359150565b60008151808452815b818110156117885760208185018101518683018201520161176c565b818111156117995782602083870101525b50601f01601f19169290920160200192915050565b6001600160a01b0391909116815260200190565b6001600160a01b039384168152919092166020820152604081019190915260600190565b6001600160a01b0387811682528616602082015263ffffffff8581166040830152841660608201526080810183905260c060a0820181905260009061182d90830184611763565b98975050505050505050565b6001600160a01b038316815260406020820181905260009061185d90830184611763565b949350505050565b6001600160a01b03929092168252602082015260400190565b600060018060a01b038516825260208481840152606060408401528184546118a581611d44565b80606087015260806001808416600081146118c757600181146118db57611906565b60ff1985168984015260a089019550611906565b898852868820885b858110156118fe5781548b82018601529083019088016118e3565b8a0184019650505b50939a9950505050505050505050565b901515815260200190565b6001600160e01b031991909116815260200190565b6000602082526115106020830184611763565b602080825260129082015271746f55696e743235365f6f766572666c6f7760701b604082015260600190565b60208082526017908201527f496e76616c696420746f6b656e20666f7220676f6f6473000000000000000000604082015260600190565b60208082526010908201526f496e76616c6964207175616e7469747960801b604082015260600190565b6020808252600990820152681b9bc81c195c9b5a5d60ba1b604082015260600190565b602080825260159082015274746f55696e743235365f6f75744f66426f756e647360581b604082015260600190565b6020808252600f908201526e125b9d985b1a590819dbdbd91cd259608a1b604082015260600190565b6020808252600c908201526b7a65726f206164647265737360a01b604082015260600190565b6020808252601e908201527f54686520707572636861736520706572696f6420686173207061737365640000604082015260600190565b60208082526019908201527f6f6e6c7920616c6c6f7720636f6e7472616374206f776e657200000000000000604082015260600190565b6020808252818101527f5075726368617365206c696d697420686173206265656e206578636565646564604082015260600190565b60208082526019908201527f496e73756666696369656e7420616d6f756e7420746f6b656e00000000000000604082015260600190565b90815260200190565b9283526020830191909152604082015260600190565b60009081526020902090565b60008219821115611b8f57611b8f611d92565b500190565b600063ffffffff808316818516808303821115611bb357611bb3611d92565b01949350505050565b600082611bd757634e487b7160e01b81526012600452602481fd5b500490565b6000816000190483118215151615611bf657611bf6611d92565b500290565b600082821015611c0d57611c0d611d92565b500390565b600063ffffffff83811690831681811015611c2f57611c2f611d92565b039392505050565b5b818110156108845760008155600101611c38565b67ffffffffffffffff831115611c6457611c64611da8565b611c6e8154611d44565b600080601f8611601f841181811715611c8d57611c8a86611b70565b92505b8015611cbc576020601f89010483016020891015611ca85750825b611cba6020601f880104850182611c37565b505b508060018114611ce857600094508715611cd7578387013594505b611ce18886611d7f565b8655611d3a565b601f198816945082845b86811015611d125788860135825560209586019560019092019101611cf2565b5088861015611d2f57878501356000196008601f8c16021c191681555b506001600289020186555b5050505050505050565b600281046001821680611d5857607f821691505b60208210811415611d7957634e487b7160e01b600052602260045260246000fd5b50919050565b600019600883021c191660029091021790565b634e487b7160e01b600052601160045260246000fd5b634e487b7160e01b600052604160045260246000fd5b6000813563ffffffff81168114610692578182fd5b80546001600160a01b0319166001600160a01b0392909216919091179055565b8135611dfe81611ed6565b611e088183611dd3565b50600181016020830135611e1b81611ed6565b611e258183611dd3565b50611e3260408401611dbe565b815463ffffffff60a01b191660a09190911b63ffffffff60a01b161780825563ffffffff60c01b611e6560608601611dbe565b60c01b1663ffffffff60c01b19821617825550506080820135600282015560a0820135601e19833603018112611e9a57600080fd5b8201803567ffffffffffffffff811115611eb357600080fd5b602082019150803603821315611ec857600080fd5b610a62818360038601611c4c565b6001600160a01b03811681146114d857600080fdfea26469706673582212209a44d26bb30c9bed26b04d4e63097dfdcb6c99cb01e50f47b9a8768ea95f0dea64736f6c63430008000033",
  "immutableReferences": {},
  "source": "// SPDX-License-Identifier: MIT\npragma solidity ^0.8.0;\npragma abicoder v2;\n\nimport \"./Store.sol\";\n\ncontract PreSale is Store {\n    // \n    uint256 private buyLimit = 10;\n\n    uint256 private endTime = 0;\n\n    //\n    mapping(address => uint256) private addrBuyCount;\n\n    // \n    function setBuyLimit(uint256 limit) public CheckPermit(\"admin\") {\n        buyLimit = limit;\n    }\n\n    function setEndTime(uint256 time) public CheckPermit(\"admin\") {\n        endTime = time;\n    }\n\n    // \n    function getInfo()\n        public\n        view\n        returns (\n            uint256 limit,\n            uint256 count,\n            uint256 time\n        )\n    {\n        limit = buyLimit;\n        count = addrBuyCount[msg.sender];\n        time = endTime;\n    }\n\n    function buy(uint256 goodsId, uint256 quantity) public override {\n        require(quantity > 0, \"Invalid quantity\");\n        require(block.timestamp <= endTime, \"The purchase period has passed\");\n        require(quantity <= buyLimit - addrBuyCount[msg.sender], \"Purchase limit has been exceeded\");\n        addrBuyCount[msg.sender] += quantity;\n        super.buy(goodsId, quantity);\n    }\n}\n",
  "sourcePath": "/Users/necklace/work/Legend/Legend/contracts/PreSale.sol",
  "compiler": {
    "name": "solc",
    "version": "0.8.0+commit.c7dfd78e.Darwin.appleclang"
  },
  "schemaVersion": "3.4.3",
  "updatedAt": "2022-03-25T17:08:34.360Z",
  "networkType": "ethereum",
  "devdoc": {
    "kind": "dev",
    "methods": {},
    "version": 1
  },
  "userdoc": {
    "kind": "user",
    "methods": {},
    "version": 1
  }
}