{
  "contractName": "Random",
  "abi": [
    {
      "anonymous": false,
      "inputs": [
        {
          "indexed": false,
          "internalType": "uint256",
          "name": "blockNumber",
          "type": "uint256"
        }
      ],
      "name": "Register",
      "type": "event"
    },
    {
      "inputs": [],
      "name": "contractOwner",
      "outputs": [
        {
          "internalType": "address",
          "name": "",
          "type": "address"
        }
      ],
      "stateMutability": "view",
      "type": "function"
    },
    {
      "inputs": [
        {
          "internalType": "uint256",
          "name": "",
          "type": "uint256"
        }
      ],
      "name": "randoms",
      "outputs": [
        {
          "internalType": "bytes32",
          "name": "",
          "type": "bytes32"
        }
      ],
      "stateMutability": "view",
      "type": "function"
    },
    {
      "inputs": [
        {
          "internalType": "uint256",
          "name": "blockNumber",
          "type": "uint256"
        }
      ],
      "name": "register",
      "outputs": [],
      "stateMutability": "nonpayable",
      "type": "function"
    },
    {
      "inputs": [
        {
          "internalType": "uint256",
          "name": "blockNumber",
          "type": "uint256"
        }
      ],
      "name": "getRandom",
      "outputs": [
        {
          "internalType": "bytes32",
          "name": "",
          "type": "bytes32"
        }
      ],
      "stateMutability": "view",
      "type": "function"
    },
    {
      "inputs": [
        {
          "internalType": "uint256",
          "name": "blockNumber",
          "type": "uint256"
        },
        {
          "internalType": "bytes32",
          "name": "blockHash",
          "type": "bytes32"
        }
      ],
      "name": "feed",
      "outputs": [],
      "stateMutability": "nonpayable",
      "type": "function"
    },
    {
      "inputs": [
        {
          "internalType": "address",
          "name": "newOwner",
          "type": "address"
        }
      ],
      "name": "setOwner",
      "outputs": [],
      "stateMutability": "nonpayable",
      "type": "function"
    }
  ],
  "bytecode": "0x6080604052600080546001600160a01b0319163317905534801561002257600080fd5b50610489806100326000396000f3fe608060405234801561001057600080fd5b50600436106100625760003560e01c806313af4035146100675780633f16adc11461007c578063c0d0ed7c1461008f578063cd4b6914146100b8578063ce606ee0146100cb578063f207564e146100e0575b600080fd5b61007a6100753660046102cb565b6100f3565b005b61007a61008a366004610311565b61016e565b6100a261009d3660046102f9565b6101e4565b6040516100af9190610346565b60405180910390f35b6100a26100c63660046102f9565b6101f6565b6100d3610270565b6040516100af9190610332565b61007a6100ee3660046102f9565b61027f565b6000546001600160a01b031633146101265760405162461bcd60e51b815260040161011d906103d7565b60405180910390fd5b6001600160a01b03811661014c5760405162461bcd60e51b815260040161011d90610386565b600080546001600160a01b0319166001600160a01b0392909216919091179055565b6000546001600160a01b031633146101985760405162461bcd60e51b815260040161011d906103d7565b816101b55760405162461bcd60e51b815260040161011d906103ac565b806101d25760405162461bcd60e51b815260040161011d9061035d565b60009182526001602052604090912055565b60016020526000908152604090205481565b6000818152600160205260408120548061023f575081408061023f5761022360ff84164360ff191661040e565b925043831061023b5761023861010084610426565b92505b5081405b808360405160200161025292919061034f565b60405160208183030381529060405280519060200120915050919050565b6000546001600160a01b031681565b60008181526001602052604080822091909155517fa18caf81bead264fa1872fa13294e57db41fcbee753dce1d88d33ef5f595a29d906102c0908390610346565b60405180910390a150565b6000602082840312156102dc578081fd5b81356001600160a01b03811681146102f2578182fd5b9392505050565b60006020828403121561030a578081fd5b5035919050565b60008060408385031215610323578081fd5b50508035926020909101359150565b6001600160a01b0391909116815260200190565b90815260200190565b918252602082015260400190565b6020808252600f908201526e0f4cae4de40c4d8dec6d640d0c2e6d608b1b604082015260600190565b6020808252600c908201526b7a65726f206164647265737360a01b604082015260600190565b6020808252601190820152703d32b93790313637b1b590373ab6b132b960791b604082015260600190565b60208082526019908201527f6f6e6c7920616c6c6f7720636f6e7472616374206f776e657200000000000000604082015260600190565b600082198211156104215761042161043d565b500190565b6000828210156104385761043861043d565b500390565b634e487b7160e01b600052601160045260246000fdfea2646970667358221220a6d34d9708d35e031e1cfad5b61fab51ab210b6ae86364b34f5bf3d50a7476f364736f6c63430008000033",
  "immutableReferences": {},
  "source": "pragma solidity ^0.8.0;\n\n// SPDX-License-Identifier: Apache-2.0\n\nimport \"../include/IRandom.sol\";\nimport \"./ContractOwner.sol\";\n\n/**\n * Utility library of inline functions on addresses\n */\ncontract Random is IRandom, ContractOwner {\n    uint256 internal constant maskLast8Bits = uint256(0x00000000000000000000000000000000000000000000000000000000000000FF);\n    uint256 internal constant maskFirst248Bits = uint256(0xFFFFFFFFFFFFFFFFFFFFFFFFFFFFFFFFFFFFFFFFFFFFFFFFFFFFFFFFFFFFFF00);\n\n    mapping(uint256 => bytes32) public randoms;\n\n    event Register(uint256 blockNumber);\n\n    function register(uint256 blockNumber) external override {\n        randoms[blockNumber] = bytes32(0);\n        emit Register(blockNumber);\n    }\n\n    function getRandom(uint256 blockNumber) external view override returns (bytes32) {\n        bytes32 randomN = randoms[blockNumber];\n        if (randomN == 0) {\n            randomN = blockhash(blockNumber);\n            if (randomN == 0) {\n                blockNumber = (block.number & maskFirst248Bits) + (blockNumber & maskLast8Bits);\n                if (blockNumber >= block.number) blockNumber -= 256;\n                randomN = blockhash(blockNumber);\n            }\n            // randoms[data] = randomN;\n        }\n        return keccak256(abi.encode(randomN, blockNumber));\n    }\n\n    function feed(uint256 blockNumber, bytes32 blockHash) external OwnerOnly {\n        require(blockNumber != 0, \"zero block number\");\n        require(blockHash != 0, \"zero block hash\");\n        randoms[blockNumber] = blockHash;\n    }\n\n    function setOwner(address newOwner) external OwnerOnly {\n        require(newOwner != address(0), \"zero address\");\n        contractOwner = newOwner;\n    }\n}\n",
  "sourcePath": "/Users/necklace/work/Legend/Legend/contracts/lib/Random.sol",
  "compiler": {
    "name": "solc",
    "version": "0.8.0+commit.c7dfd78e.Darwin.appleclang"
  },
  "schemaVersion": "3.4.3",
  "updatedAt": "2022-03-25T17:08:33.953Z",
  "networkType": "ethereum",
  "devdoc": {
    "kind": "dev",
    "methods": {},
    "version": 1
  },
  "userdoc": {
    "kind": "user",
    "methods": {},
    "notice": "Utility library of inline functions on addresses",
    "version": 1
  }
}