{
  "contractName": "Referral",
  "abi": [
    {
      "inputs": [],
      "name": "contractOwner",
      "outputs": [
        {
          "internalType": "address",
          "name": "",
          "type": "address"
        }
      ],
      "stateMutability": "view",
      "type": "function"
    },
    {
      "inputs": [
        {
          "internalType": "string",
          "name": "key",
          "type": "string"
        }
      ],
      "name": "getAddress",
      "outputs": [
        {
          "internalType": "address",
          "name": "",
          "type": "address"
        }
      ],
      "stateMutability": "view",
      "type": "function"
    },
    {
      "inputs": [],
      "name": "manager",
      "outputs": [
        {
          "internalType": "contract Manager",
          "name": "",
          "type": "address"
        }
      ],
      "stateMutability": "view",
      "type": "function"
    },
    {
      "inputs": [
        {
          "internalType": "uint256",
          "name": "",
          "type": "uint256"
        }
      ],
      "name": "refCode",
      "outputs": [
        {
          "internalType": "address",
          "name": "",
          "type": "address"
        }
      ],
      "stateMutability": "view",
      "type": "function"
    },
    {
      "inputs": [
        {
          "internalType": "uint256",
          "name": "",
          "type": "uint256"
        }
      ],
      "name": "refConfig",
      "outputs": [
        {
          "internalType": "uint32",
          "name": "id",
          "type": "uint32"
        },
        {
          "internalType": "uint32",
          "name": "level",
          "type": "uint32"
        },
        {
          "internalType": "uint16",
          "name": "ratio",
          "type": "uint16"
        },
        {
          "internalType": "uint16",
          "name": "boxType",
          "type": "uint16"
        },
        {
          "internalType": "uint32",
          "name": "boxAmount",
          "type": "uint32"
        },
        {
          "internalType": "uint256",
          "name": "validAmount",
          "type": "uint256"
        },
        {
          "internalType": "uint32",
          "name": "validUserCount",
          "type": "uint32"
        }
      ],
      "stateMutability": "view",
      "type": "function"
    },
    {
      "inputs": [],
      "name": "refConfigCount",
      "outputs": [
        {
          "internalType": "uint256",
          "name": "",
          "type": "uint256"
        }
      ],
      "stateMutability": "view",
      "type": "function"
    },
    {
      "inputs": [
        {
          "internalType": "uint256",
          "name": "",
          "type": "uint256"
        }
      ],
      "name": "refUserConfig",
      "outputs": [
        {
          "internalType": "uint32",
          "name": "id",
          "type": "uint32"
        },
        {
          "internalType": "uint8",
          "name": "condition",
          "type": "uint8"
        },
        {
          "internalType": "uint256",
          "name": "consumeAmount",
          "type": "uint256"
        },
        {
          "internalType": "uint32",
          "name": "level",
          "type": "uint32"
        },
        {
          "internalType": "uint16",
          "name": "boxType",
          "type": "uint16"
        },
        {
          "internalType": "uint32",
          "name": "boxAmount",
          "type": "uint32"
        }
      ],
      "stateMutability": "view",
      "type": "function"
    },
    {
      "inputs": [],
      "name": "refUserConfigCount",
      "outputs": [
        {
          "internalType": "uint256",
          "name": "",
          "type": "uint256"
        }
      ],
      "stateMutability": "view",
      "type": "function"
    },
    {
      "inputs": [
        {
          "internalType": "address",
          "name": "addr",
          "type": "address"
        }
      ],
      "name": "setManager",
      "outputs": [],
      "stateMutability": "nonpayable",
      "type": "function"
    },
    {
      "inputs": [],
      "name": "validAmount",
      "outputs": [
        {
          "internalType": "uint256",
          "name": "",
          "type": "uint256"
        }
      ],
      "stateMutability": "view",
      "type": "function"
    },
    {
      "inputs": [],
      "name": "validLevel",
      "outputs": [
        {
          "internalType": "uint256",
          "name": "",
          "type": "uint256"
        }
      ],
      "stateMutability": "view",
      "type": "function"
    },
    {
      "inputs": [
        {
          "internalType": "address",
          "name": "addr",
          "type": "address"
        }
      ],
      "name": "getReferral",
      "outputs": [
        {
          "components": [
            {
              "internalType": "address",
              "name": "user",
              "type": "address"
            },
            {
              "internalType": "uint32",
              "name": "level",
              "type": "uint32"
            },
            {
              "internalType": "uint32",
              "name": "count",
              "type": "uint32"
            },
            {
              "internalType": "uint32",
              "name": "validCount",
              "type": "uint32"
            },
            {
              "internalType": "uint256",
              "name": "amount",
              "type": "uint256"
            },
            {
              "internalType": "uint32[]",
              "name": "withdraw",
              "type": "uint32[]"
            }
          ],
          "internalType": "struct Referral.RefParent",
          "name": "ref",
          "type": "tuple"
        }
      ],
      "stateMutability": "view",
      "type": "function"
    },
    {
      "inputs": [
        {
          "internalType": "address",
          "name": "addr",
          "type": "address"
        }
      ],
      "name": "getUser",
      "outputs": [
        {
          "components": [
            {
              "internalType": "address",
              "name": "parent",
              "type": "address"
            },
            {
              "internalType": "uint256",
              "name": "parentCode",
              "type": "uint256"
            },
            {
              "internalType": "bool",
              "name": "isValid",
              "type": "bool"
            },
            {
              "internalType": "uint256",
              "name": "consumeAmount",
              "type": "uint256"
            },
            {
              "internalType": "uint32[]",
              "name": "withdraw",
              "type": "uint32[]"
            }
          ],
          "internalType": "struct Referral.RefUser",
          "name": "user",
          "type": "tuple"
        }
      ],
      "stateMutability": "view",
      "type": "function"
    },
    {
      "inputs": [],
      "name": "getAllRefConfig",
      "outputs": [
        {
          "components": [
            {
              "internalType": "uint32",
              "name": "id",
              "type": "uint32"
            },
            {
              "internalType": "uint32",
              "name": "level",
              "type": "uint32"
            },
            {
              "internalType": "uint16",
              "name": "ratio",
              "type": "uint16"
            },
            {
              "internalType": "uint16",
              "name": "boxType",
              "type": "uint16"
            },
            {
              "internalType": "uint32",
              "name": "boxAmount",
              "type": "uint32"
            },
            {
              "internalType": "uint256",
              "name": "validAmount",
              "type": "uint256"
            },
            {
              "internalType": "uint32",
              "name": "validUserCount",
              "type": "uint32"
            }
          ],
          "internalType": "struct Referral.RefConfig[]",
          "name": "",
          "type": "tuple[]"
        }
      ],
      "stateMutability": "view",
      "type": "function"
    },
    {
      "inputs": [],
      "name": "getAllRefUserConfig",
      "outputs": [
        {
          "components": [
            {
              "internalType": "uint32",
              "name": "id",
              "type": "uint32"
            },
            {
              "internalType": "uint8",
              "name": "condition",
              "type": "uint8"
            },
            {
              "internalType": "uint256",
              "name": "consumeAmount",
              "type": "uint256"
            },
            {
              "internalType": "uint32",
              "name": "level",
              "type": "uint32"
            },
            {
              "internalType": "uint16",
              "name": "boxType",
              "type": "uint16"
            },
            {
              "internalType": "uint32",
              "name": "boxAmount",
              "type": "uint32"
            }
          ],
          "internalType": "struct Referral.RefUserConfig[]",
          "name": "",
          "type": "tuple[]"
        }
      ],
      "stateMutability": "view",
      "type": "function"
    },
    {
      "inputs": [
        {
          "internalType": "uint256",
          "name": "level",
          "type": "uint256"
        },
        {
          "internalType": "uint256",
          "name": "amount",
          "type": "uint256"
        }
      ],
      "name": "setValid",
      "outputs": [],
      "stateMutability": "nonpayable",
      "type": "function"
    },
    {
      "inputs": [
        {
          "components": [
            {
              "internalType": "uint32",
              "name": "id",
              "type": "uint32"
            },
            {
              "internalType": "uint32",
              "name": "level",
              "type": "uint32"
            },
            {
              "internalType": "uint16",
              "name": "ratio",
              "type": "uint16"
            },
            {
              "internalType": "uint16",
              "name": "boxType",
              "type": "uint16"
            },
            {
              "internalType": "uint32",
              "name": "boxAmount",
              "type": "uint32"
            },
            {
              "internalType": "uint256",
              "name": "validAmount",
              "type": "uint256"
            },
            {
              "internalType": "uint32",
              "name": "validUserCount",
              "type": "uint32"
            }
          ],
          "internalType": "struct Referral.RefConfig",
          "name": "config",
          "type": "tuple"
        }
      ],
      "name": "setRefConfig",
      "outputs": [],
      "stateMutability": "nonpayable",
      "type": "function"
    },
    {
      "inputs": [
        {
          "components": [
            {
              "internalType": "uint32",
              "name": "id",
              "type": "uint32"
            },
            {
              "internalType": "uint8",
              "name": "condition",
              "type": "uint8"
            },
            {
              "internalType": "uint256",
              "name": "consumeAmount",
              "type": "uint256"
            },
            {
              "internalType": "uint32",
              "name": "level",
              "type": "uint32"
            },
            {
              "internalType": "uint16",
              "name": "boxType",
              "type": "uint16"
            },
            {
              "internalType": "uint32",
              "name": "boxAmount",
              "type": "uint32"
            }
          ],
          "internalType": "struct Referral.RefUserConfig",
          "name": "config",
          "type": "tuple"
        }
      ],
      "name": "setRefUserConfig",
      "outputs": [],
      "stateMutability": "nonpayable",
      "type": "function"
    },
    {
      "inputs": [
        {
          "internalType": "address",
          "name": "user",
          "type": "address"
        },
        {
          "internalType": "uint256",
          "name": "total",
          "type": "uint256"
        }
      ],
      "name": "getCommission",
      "outputs": [
        {
          "internalType": "address",
          "name": "to",
          "type": "address"
        },
        {
          "internalType": "uint256",
          "name": "amount",
          "type": "uint256"
        }
      ],
      "stateMutability": "view",
      "type": "function"
    },
    {
      "inputs": [
        {
          "internalType": "uint256",
          "name": "_code",
          "type": "uint256"
        }
      ],
      "name": "create",
      "outputs": [],
      "stateMutability": "nonpayable",
      "type": "function"
    },
    {
      "inputs": [
        {
          "internalType": "uint256",
          "name": "code",
          "type": "uint256"
        }
      ],
      "name": "bind",
      "outputs": [],
      "stateMutability": "nonpayable",
      "type": "function"
    },
    {
      "inputs": [
        {
          "internalType": "address",
          "name": "userAddr",
          "type": "address"
        },
        {
          "internalType": "uint256",
          "name": "amount",
          "type": "uint256"
        }
      ],
      "name": "updateConsume",
      "outputs": [],
      "stateMutability": "nonpayable",
      "type": "function"
    },
    {
      "inputs": [
        {
          "internalType": "uint256",
          "name": "rewardId",
          "type": "uint256"
        }
      ],
      "name": "refClaim",
      "outputs": [],
      "stateMutability": "nonpayable",
      "type": "function"
    },
    {
      "inputs": [
        {
          "internalType": "uint256",
          "name": "configId",
          "type": "uint256"
        }
      ],
      "name": "userClaim",
      "outputs": [],
      "stateMutability": "nonpayable",
      "type": "function"
    }
  ],
  "bytecode": "0x6080604052600080546001600160a01b031916331781556005600955600a5534801561002a57600080fd5b506129328061003a6000396000f3fe608060405234801561001057600080fd5b50600436106101585760003560e01c8063983c4342116100c3578063d0ebdbe71161007c578063d0ebdbe7146102de578063e237fddc146102f1578063e28ed50814610316578063e527828c14610329578063e7f62d2e14610331578063fe43efda1461034657610158565b8063983c43421461028d578063a3bceca9146102a0578063b68f2139146102b3578063bf40fac1146102bb578063bf6ecdca146102ce578063ce606ee0146102d657610158565b8063613df73c11610115578063613df73c146101fe5780636f77926b1461021157806373930ce214610231578063780900dc14610246578063967ee121146102595780639812cf421461027a57610158565b80631b1aeae61461015d5780631fb8b00e1461018c5780633b0f0f2f146101a1578063481c6a75146101c15780634a25faa4146101d657806353775407146101e9575b600080fd5b61017061016b366004612003565b610359565b6040516101839796959493929190612504565b60405180910390f35b61019f61019a366004612003565b6103af565b005b6101b46101af366004611e2d565b610489565b604051610183919061244b565b6101c9610580565b60405161018391906120ce565b61019f6101e4366004611ff2565b61058f565b6101f1610713565b60405161018391906121fc565b61019f61020c366004611fdb565b610847565b61022461021f366004611e2d565b6109f9565b60405161018391906124ae565b610239610aaf565b60405161018391906124fb565b61019f610254366004612003565b610ab5565b61026c610267366004611e6c565b610b27565b604051610183929190612106565b61019f610288366004611e6c565b610b7c565b61019f61029b366004612003565b610e90565b6101c96102ae366004612003565b611133565b61023961114e565b6101c96102c9366004611eb7565b611154565b6102396111dd565b6101c96111e3565b61019f6102ec366004611e2d565b6111f2565b6103046102ff366004612003565b611264565b60405161018396959493929190612547565b61019f61032436600461201b565b6112af565b610239611373565b610339611379565b6040516101839190612158565b61019f610354366004612003565b6114b6565b60056020526000908152604090208054600182015460029092015463ffffffff80831693600160201b840482169361ffff600160401b8204811694600160501b830490911693600160601b909204821692911687565b6000818152600260205260409020546001600160a01b031680158015906103df57506001600160a01b0381163314155b6104045760405162461bcd60e51b81526004016103fb9061228c565b60405180910390fd5b33600090815260046020908152604080832080546001600160a01b0319166001600160a01b038616908117825560018083018890559085526003909352922080549091908290601890610465908490600160c01b900463ffffffff166125ed565b92506101000a81548163ffffffff021916908363ffffffff16021790555050505050565b610491611aac565b6001600160a01b03808316600090815260036020908152604091829020825160c0810184528154948516815263ffffffff600160a01b8604811682850152600160c01b8604811682860152600160e01b909504909416606085015260018101546080850152600281018054845181850281018501909552808552919360a086019390929083018282801561057057602002820191906000526020600020906000905b82829054906101000a900463ffffffff1663ffffffff16815260200190600401906020826003010492830192600103820291508084116105335790505b5050505050815250509050919050565b6001546001600160a01b031681565b604080518082018252600581526430b236b4b760d91b60208201526001549151637af32e3960e11b815290916001600160a01b03169063f5e65c72906105db90339085906004016120e2565b60206040518083038186803b1580156105f357600080fd5b505afa158015610607573d6000803e3d6000fd5b505050506040513d601f19601f8201168201806040525081019061062b9190611e97565b6106475760405162461bcd60e51b81526004016103fb906122fd565b60076000610658602085018561203c565b63ffffffff9081168252602082019290925260400160002054166106da5760016008600082825461068991906125d5565b9091555050600854600090815260076020526040902082906106ab82826127c8565b50506008546000818152600760205260409020805463ffffffff191663ffffffff90921691909117905561070f565b81600760006106ec602084018461203c565b63ffffffff168152602001908152602001600020818161070c91906127c8565b50505b5050565b6060600060085467ffffffffffffffff81111561074057634e487b7160e01b600052604160045260246000fd5b60405190808252806020026020018201604052801561077957816020015b610766611afd565b81526020019060019003908161075e5790505b50905060015b600854811161084157600081815260076020908152604091829020825160c081018452815463ffffffff8082168352600160201b9182900460ff169483019490945260018084015495830195909552600290920154808416606083015291820461ffff166080820152600160301b90910490911660a08201529083906108059084612654565b8151811061082357634e487b7160e01b600052603260045260246000fd5b6020026020010181905250808061083990612697565b91505061077f565b50905090565b604080518082018252600581526430b236b4b760d91b60208201526001549151637af32e3960e11b815290916001600160a01b03169063f5e65c729061089390339085906004016120e2565b60206040518083038186803b1580156108ab57600080fd5b505afa1580156108bf573d6000803e3d6000fd5b505050506040513d601f19601f820116820180604052508101906108e39190611e97565b6108ff5760405162461bcd60e51b81526004016103fb906122fd565b6000610911604084016020850161203c565b63ffffffff16116109345760405162461bcd60e51b81526004016103fb90612320565b60056000610945602085018561203c565b63ffffffff9081168252602082019290925260400160002054166109c75760016006600082825461097691906125d5565b9091555050600654600090815260056020526040902082906109988282612704565b50506006546000818152600560205260409020805463ffffffff191663ffffffff90921691909117905561070f565b81600560006109d9602084018461203c565b63ffffffff168152602001908152602001600020818161070c9190612704565b610a01611b32565b6001600160a01b03808316600090815260046020818152604092839020835160a08101855281549095168552600181015485830152600281015460ff16151585850152600381015460608601529182018054845181840281018401909552808552929360808601939092830182828015610570576000918252602091829020805463ffffffff1684529082028301929091600491018084116105335790505050505050815250509050919050565b600a5481565b600081610ac8575063ffffffff3360801c165b6000818152600260205260409020546001600160a01b0316610b0357600081815260026020526040902080546001600160a01b031916331790555b505033600081815260036020526040902080546001600160a01b0319169091179055565b6001600160a01b038083166000908152600460205260408120549091169080610b4f8561193d565b90506103e8816040015161ffff1685610b689190612635565b610b729190612615565b9150509250929050565b604080518082018252600581526473746f726560d81b60208201526001549151637af32e3960e11b815290916001600160a01b03169063f5e65c7290610bc890339085906004016120e2565b60206040518083038186803b158015610be057600080fd5b505afa158015610bf4573d6000803e3d6000fd5b505050506040513d601f19601f82011682018060405250810190610c189190611e97565b610c345760405162461bcd60e51b81526004016103fb906122fd565b6001600160a01b038316600090815260046020526040812060038101805491928592610c619084906125d5565b909155505080546001600160a01b03166000908152600360205260409020600282015460ff16610dd75760095460009015610d63576000610cbd60405180604001604052806004815260200163526f6c6560e01b815250611154565b90506000816001600160a01b031663839ddba8896040518263ffffffff1660e01b8152600401610ced91906120ce565b60006040518083038186803b158015610d0557600080fd5b505afa158015610d19573d6000803e3d6000fd5b505050506040513d6000823e601f3d908101601f19168201604052610d419190810190611f2b565b9150506009548160a0015163ffffffff1610610d5c57600192505b5050610d7d565b600a5415610d7d57600a5483600301541115610d7d575060015b8015610dd55781546001908390601c90610da5908490600160e01b900463ffffffff166125ed565b825463ffffffff9182166101009390930a92830291909202199091161790555060028301805460ff191660011790555b505b600060015b6006548111610e4257600081815260056020526040902060020154835463ffffffff918216600160e01b90910490911610610e3057600081815260056020526040902054600160201b900463ffffffff1691505b80610e3a81612697565b915050610ddc565b50815463ffffffff60a01b1916600160a01b63ffffffff8316021782556000610e6b8787610b27565b91505080836001016000828254610e8291906125d5565b909155505050505050505050565b336000908152600360209081526040918290206002810180548451818502810185019095528085529193610f2993869391929190830182828015610f1f57602002820191906000526020600020906000905b82829054906101000a900463ffffffff1663ffffffff1681526020019060040190602082600301049283019260010382029150808411610ee25790505b5050505050611a48565b15610f465760405162461bcd60e51b81526004016103fb906123c1565b600082815260056020526040902080548254600160201b90910463ffffffff908116600160a01b909204161015610f8f5760405162461bcd60e51b81526004016103fb906122b2565b600282810180546001810182556000918252602082206008820401805463ffffffff88811660046007909516949094026101000a93840293021916919091179055604080518381528082019091529091602082018180368337019050508254909150600160501b900460f01b6001600160f01b03191660001a60f81b8160008151811061102c57634e487b7160e01b600052603260045260246000fd5b60200101906001600160f81b031916908160001a9053508154600160501b900460f01b6001600160f01b03191660011a60f81b8160018151811061108057634e487b7160e01b600052603260045260246000fd5b60200101906001600160f81b031916908160001a9053506110bb60405180604001604052806003815260200162084def60eb1b815250611154565b82546040516394d008ef60e01b81526001600160a01b0392909216916394d008ef916110fb913391600160601b900463ffffffff1690869060040161211f565b600060405180830381600087803b15801561111557600080fd5b505af1158015611129573d6000803e3d6000fd5b5050505050505050565b6002602052600090815260409020546001600160a01b031681565b60065481565b6001546040516334abd05960e11b81526000916001600160a01b031690636957a0b290611185908590600401612279565b60206040518083038186803b15801561119d57600080fd5b505afa1580156111b1573d6000803e3d6000fd5b505050506040513d601f19601f820116820180604052508101906111d59190611e50565b90505b919050565b60085481565b6000546001600160a01b031681565b6000546001600160a01b0316331461121c5760405162461bcd60e51b81526004016103fb906123e7565b6001600160a01b0381166112425760405162461bcd60e51b81526004016103fb9061239b565b600180546001600160a01b0319166001600160a01b0392909216919091179055565b60076020526000908152604090208054600182015460029092015463ffffffff80831693600160201b9384900460ff169390928281169291810461ffff1691600160301b9091041686565b604080518082018252600581526430b236b4b760d91b60208201526001549151637af32e3960e11b815290916001600160a01b03169063f5e65c72906112fb90339085906004016120e2565b60206040518083038186803b15801561131357600080fd5b505afa158015611327573d6000803e3d6000fd5b505050506040513d601f19601f8201168201806040525081019061134b9190611e97565b6113675760405162461bcd60e51b81526004016103fb906122fd565b50600991909155600a55565b60095481565b6060600060065467ffffffffffffffff8111156113a657634e487b7160e01b600052604160045260246000fd5b6040519080825280602002602001820160405280156113df57816020015b6113cc611b6c565b8152602001906001900390816113c45790505b50905060015b600654811161084157600081815260056020908152604091829020825160e081018452815463ffffffff8082168352600160201b820481169483019490945261ffff600160401b8204811695830195909552600160501b81049094166060820152600160601b9093048216608084015260018082015460a085015260029091015490911660c0830152839061147a9084612654565b8151811061149857634e487b7160e01b600052603260045260246000fd5b602002602001018190525080806114ae90612697565b9150506113e5565b3360009081526004602081815260409283902091820180548451818402810184019095528085529293611526938693919291830182828015610f1f576000918252602091829020805463ffffffff168452908202830192909160049101808411610ee25790505050505050611a48565b156115435760405162461bcd60e51b81526004016103fb906123c1565b60018101546115645760405162461bcd60e51b81526004016103fb9061241e565b60008281526007602052604081208054909190600160201b900460ff1660028111156115a057634e487b7160e01b600052602160045260246000fd5b905060006115c960405180604001604052806004815260200163526f6c6560e01b815250611154565b90506000816001600160a01b031663839ddba8336040518263ffffffff1660e01b81526004016115f991906120ce565b60006040518083038186803b15801561161157600080fd5b505afa158015611625573d6000803e3d6000fd5b505050506040513d6000823e601f3d908101601f1916820160405261164d9190810190611f2b565b91506000905083600281111561167357634e487b7160e01b600052602160045260246000fd5b14156116b057600284015460a082015163ffffffff918216911610156116ab5760405162461bcd60e51b81526004016103fb906122b2565b61178c565b60018360028111156116d257634e487b7160e01b600052602160045260246000fd5b1415611700578360010154856003015410156116ab5760405162461bcd60e51b81526004016103fb90612347565b600283600281111561172257634e487b7160e01b600052602160045260246000fd5b141561178257600284015460a082015163ffffffff9182169116101561175a5760405162461bcd60e51b81526004016103fb906122b2565b8360010154856003015410156116ab5760405162461bcd60e51b81526004016103fb90612347565b505050505061193a565b60048581018054600181018255600091825260208083206008830401805460079093169094026101000a63ffffffff81810219909316928b160291909117909255604080516002808252818301909252919282018180368337019050506002860154909150600160201b900460f01b6001600160f01b03191660001a60f81b8160008151811061182c57634e487b7160e01b600052603260045260246000fd5b60200101906001600160f81b031916908160001a9053506002850154600160201b900460f01b6001600160f01b03191660011a60f81b8160018151811061188357634e487b7160e01b600052603260045260246000fd5b60200101906001600160f81b031916908160001a9053506118be60405180604001604052806003815260200162084def60eb1b815250611154565b60028601546040516394d008ef60e01b81526001600160a01b0392909216916394d008ef91611901913391600160301b900463ffffffff1690869060040161211f565b600060405180830381600087803b15801561191b57600080fd5b505af115801561192f573d6000803e3d6000fd5b505050505050505050505b50565b611945611b6c565b6001600160a01b038281166000908152600460209081526040808320549093168252600390522054600160a01b900463ffffffff1660015b600654811015611a415760008181526005602052604090205463ffffffff838116600160201b909204161415611a2f57600081815260056020908152604091829020825160e081018452815463ffffffff8082168352600160201b820481169483019490945261ffff600160401b8204811695830195909552600160501b81049094166060820152600160601b90930482166080840152600181015460a0840152600201541660c08201529250611a41565b80611a3981612697565b91505061197d565b5050919050565b6000805b8251811015611aa557828181518110611a7557634e487b7160e01b600052603260045260246000fd5b602002602001015163ffffffff16841415611a935760019150611aa5565b80611a9d81612697565b915050611a4c565b5092915050565b6040518060c0016040528060006001600160a01b03168152602001600063ffffffff168152602001600063ffffffff168152602001600063ffffffff16815260200160008152602001606081525090565b6040805160c081018252600080825260208201819052918101829052606081018290526080810182905260a081019190915290565b6040518060a0016040528060006001600160a01b031681526020016000815260200160001515815260200160008152602001606081525090565b6040805160e081018252600080825260208201819052918101829052606081018290526080810182905260a0810182905260c081019190915290565b600082601f830112611bb8578081fd5b8151602067ffffffffffffffff821115611bd457611bd46126c8565b808202611be2828201612583565b838152828101908684018388018501891015611bfc578687fd5b8693505b85841015611c1e578051835260019390930192918401918401611c00565b50979650505050505050565b600082601f830112611c3a578081fd5b8151611c4d611c48826125ad565b612583565b818152846020838601011115611c61578283fd5b611c7282602083016020870161266b565b949350505050565b60006101e08284031215611c8c578081fd5b611c97610120612583565b9050611ca282611e22565b8152611cb060208301611e22565b6020820152604082015167ffffffffffffffff80821115611cd057600080fd5b611cdc85838601611c2a565b6040840152611ced60608501611e17565b6060840152611cfe60808501611e17565b6080840152611d0f60a08501611e17565b60a0840152611d2060c08501611e17565b60c084015260e0840151915080821115611d3957600080fd5b50611d4684828501611ba8565b60e083015250610100611d5b84828501611d65565b9082015292915050565b600060e08284031215611d76578081fd5b60405160e0810181811067ffffffffffffffff82111715611d9957611d996126c8565b604052905080611da883611e17565b8152611db660208401611e17565b6020820152611dc760408401611e17565b6040820152611dd860608401611e17565b6060820152611de960808401611e17565b6080820152611dfa60a08401611e17565b60a0820152611e0b60c08401611e17565b60c08201525092915050565b80516111d8816128db565b80516111d8816128ed565b600060208284031215611e3e578081fd5b8135611e49816128c6565b9392505050565b600060208284031215611e61578081fd5b8151611e49816128c6565b60008060408385031215611e7e578081fd5b8235611e89816128c6565b946020939093013593505050565b600060208284031215611ea8578081fd5b81518015158114611e49578182fd5b600060208284031215611ec8578081fd5b813567ffffffffffffffff811115611ede578182fd5b8201601f81018413611eee578182fd5b8035611efc611c48826125ad565b818152856020838501011115611f10578384fd5b81602084016020830137908101602001929092525092915050565b60008082840360a0811215611f3e578283fd5b6080811215611f4b578283fd5b506040516080810167ffffffffffffffff8282108183111715611f7057611f706126c8565b816040528551835260208601519150611f88826128ed565b816020840152604086015191508082168214611fa2578485fd5b816040840152611fb460608701611e17565b6060840152608086015192945080831115611fcd578384fd5b5050610b7285828601611c7a565b600060e08284031215611fec578081fd5b50919050565b600060c08284031215611fec578081fd5b600060208284031215612014578081fd5b5035919050565b6000806040838503121561202d578182fd5b50508035926020909101359150565b60006020828403121561204d578081fd5b8135611e49816128db565b6000815180845260208085019450808401835b8381101561208d57815163ffffffff168752958201959082019060010161206b565b509495945050505050565b600081518084526120b081602086016020860161266b565b601f01601f19169290920160200192915050565b63ffffffff169052565b6001600160a01b0391909116815260200190565b6001600160a01b0383168152604060208201819052600090611c7290830184612098565b6001600160a01b03929092168252602082015260400190565b6001600160a01b038416815263ffffffff8316602082015260606040820181905260009061214f90830184612098565b95945050505050565b602080825282518282018190526000919060409081850190868401855b828110156121ef578151805163ffffffff9081168652878201518116888701528682015161ffff90811688880152606080840151909116908701526080808301519091169086015260a0808201519086015260c090810151906121da818701836120c4565b505060e0939093019290850190600101612175565b5091979650505050505050565b602080825282518282018190526000919060409081850190868401855b828110156121ef578151805163ffffffff90811686528782015160ff1688870152868201518787015260608083015182169087015260808083015161ffff169087015260a091820151169085015260c09093019290850190600101612219565b600060208252611e496020830184612098565b6020808252600c908201526b496e76616c696420636f646560a01b604082015260600190565b6020808252602b908201527f556e61626c6520746f20636c61696d20696620746865206c6576656c2069732060408201526a1b9bdd081c995858da195960aa1b606082015260800190565b6020808252600990820152681b9bc81c195c9b5a5d60ba1b604082015260600190565b6020808252600d908201526c125b9d985b1a59081b195d995b609a1b604082015260600190565b60208082526034908201527f556e61626c6520746f20636c61696d2069662074686520636f6e73756d6520616040820152731b5bdd5b9d081a5cc81b9bdd081c995858da195960621b606082015260800190565b6020808252600c908201526b7a65726f206164647265737360a01b604082015260600190565b6020808252600c908201526b616c7265616479206472617760a01b604082015260600190565b60208082526019908201527f6f6e6c7920616c6c6f7720636f6e7472616374206f776e657200000000000000604082015260600190565b602080825260139082015272139bc81a5b9d9a5d195c881a5cc8189bdd5b99606a1b604082015260600190565b60006020825260018060a01b038351166020830152602083015163ffffffff80821660408501528060408601511660608501528060608601511660808501525050608083015160a083015260a083015160c080840152611c7260e0840182612058565b60006020825260018060a01b0383511660208301526020830151604083015260408301511515606083015260608301516080830152608083015160a080840152611c7260c0840182612058565b90815260200190565b63ffffffff9788168152958716602087015261ffff94851660408701529290931660608501528416608084015260a083019190915290911660c082015260e00190565b63ffffffff968716815260ff9590951660208601526040850193909352908416606084015261ffff16608083015290911660a082015260c00190565b60405181810167ffffffffffffffff811182821017156125a5576125a56126c8565b604052919050565b600067ffffffffffffffff8211156125c7576125c76126c8565b50601f01601f191660200190565b600082198211156125e8576125e86126b2565b500190565b600063ffffffff80831681851680830382111561260c5761260c6126b2565b01949350505050565b60008261263057634e487b7160e01b81526012600452602481fd5b500490565b600081600019048311821515161561264f5761264f6126b2565b500290565b600082821015612666576126666126b2565b500390565b60005b8381101561268657818101518382015260200161266e565b8381111561070c5750506000910152565b60006000198214156126ab576126ab6126b2565b5060010190565b634e487b7160e01b600052601160045260246000fd5b634e487b7160e01b600052604160045260246000fd5b6000813561ffff811681146126f1578182fd5b92915050565b600081356126f1816128db565b813561270f816128db565b612719818361288c565b506020820135612728816128db565b815467ffffffff00000000191660209190911b67ffffffff00000000161780825561ffff60401b61275b604085016126de565b60401b1661ffff60401b19821617905080825561ffff60501b612780606085016126de565b60501b1661ffff60501b198216178255506127a66127a0608084016126f7565b826128a3565b60a0820135600182015561070f6127bf60c084016126f7565b6002830161288c565b81356127d3816128db565b6127dd818361288c565b5060208201356127ec816128ed565b815464ff00000000191660209190911b64ff000000001617815560408201356001820155600281016060830135612822816128db565b61282c818361288c565b50612839608084016126de565b815465ffff00000000191660209190911b65ffff00000000161780825560a0840135612864816128db565b69ffffffff0000000000008160301b1669ffffffff0000000000001983161783555050505050565b63ffffffff821663ffffffff198254161781555050565b805463ffffffff60601b191660609290921b63ffffffff60601b16919091179055565b6001600160a01b038116811461193a57600080fd5b63ffffffff8116811461193a57600080fd5b60ff8116811461193a57600080fdfea2646970667358221220c163b1da585fb514d59fb8c4ed12b25510dcae6556193c27ba960e9a5e344ce364736f6c63430008000033",
  "immutableReferences": {},
  "source": "pragma solidity ^0.8.0;\npragma abicoder v2;\n\n// SPDX-License-Identifier: MIT\n\nimport \"./lib/Permission.sol\";\nimport \"./include/IReferral.sol\";\nimport \"./include/IReferralUpdate.sol\";\nimport \"./include/IStoreOP.sol\";\nimport \"./include/IRole.sol\";\nimport \"./Structs.sol\";\n\ncontract Referral is Permission, IReferral, IReferralUpdate {\n    //\n    enum RewardConditions {\n        //\n        Level,\n        //\n        Amount,\n        //+\n        LevelAmount\n    }\n\n    //\n    struct RefConfig {\n        uint32 id;\n        // \n        uint32 level;\n        // 1000100%,10.1%\n        uint16 ratio;\n        //type\n        uint16 boxType;\n        //\n        uint32 boxAmount;\n        //(,)\n        uint256 validAmount;\n        //()\n        uint32 validUserCount;\n    }\n\n    //\n    struct RefUserConfig {\n        uint32 id;\n        //()\n        uint8 condition;\n        //\n        uint256 consumeAmount;\n        //\n        uint32 level;\n        //type\n        uint16 boxType;\n        //\n        uint32 boxAmount;\n    }\n\n    //\n    struct RefParent {\n        //\n        address user;\n        //\n        uint32 level;\n        //\n        uint32 count;\n        //\n        uint32 validCount;\n        //usdt\n        uint256 amount;\n        //\n        uint32[] withdraw;\n    }\n\n    //\n    struct RefUser {\n        //\n        address parent;\n        //()\n        uint256 parentCode;\n        //\n        bool isValid;\n        //(Hero)\n        // uint32 roleLevel;\n        //\n        uint256 consumeAmount;\n        //\n        uint32[] withdraw;\n    }\n\n    // => \n    mapping(uint256 => address) public refCode;\n    //=>\n    mapping(address => RefParent) internal refParent;\n    //(=>)\n    mapping(address => RefUser) internal refUser;\n    // =>\n    mapping(uint256 => RefConfig) public refConfig;\n    //\n    uint256 public refConfigCount;\n    // =>\n    mapping(uint256 => RefUserConfig) public refUserConfig;\n    //\n    uint256 public refUserConfigCount;\n    //\n    uint256 public validLevel = 5;\n    //\n    uint256 public validAmount = 0;\n\n    function getReferral(address addr) public view returns (RefParent memory ref) {\n        ref = refParent[addr];\n    }\n\n    function getUser(address addr) public view returns (RefUser memory user) {\n        user = refUser[addr];\n    }\n\n    //\n    function getAllRefConfig() public view returns (RefConfig[] memory) {\n        RefConfig[] memory configs = new RefConfig[](refConfigCount);\n        for (uint256 id = 1; id <= refConfigCount; id++) {\n            configs[id - 1] = refConfig[id];\n        }\n        return configs;\n    }\n\n    //\n    function getAllRefUserConfig() public view returns (RefUserConfig[] memory) {\n        RefUserConfig[] memory configs = new RefUserConfig[](refUserConfigCount);\n        for (uint256 id = 1; id <= refUserConfigCount; id++) {\n            configs[id - 1] = refUserConfig[id];\n        }\n        return configs;\n    }\n\n    //\n    function setValid(uint256 level, uint256 amount) public CheckPermit(\"admin\") {\n        validLevel = level;\n        validAmount = amount;\n    }\n\n    //\n    function setRefConfig(RefConfig calldata config) public CheckPermit(\"admin\") {\n        require(config.level > 0, \"Invalid level\");\n        if (refConfig[config.id].id == 0) {\n            refConfigCount += 1;\n            refConfig[refConfigCount] = config;\n            refConfig[refConfigCount].id = uint32(refConfigCount);\n        } else {\n            refConfig[config.id] = config;\n        }\n    }\n\n    //\n    function setRefUserConfig(RefUserConfig calldata config) public CheckPermit(\"admin\") {\n        if (refUserConfig[config.id].id == 0) {\n            refUserConfigCount += 1;\n            refUserConfig[refUserConfigCount] = config;\n            refUserConfig[refUserConfigCount].id = uint32(refUserConfigCount);\n        } else {\n            refUserConfig[config.id] = config;\n        }\n    }\n\n    function getCommission(address user, uint256 total) public view override returns (address to, uint256 amount) {\n        to = refUser[user].parent;\n        RefConfig memory rc = _getRefConfig(user);\n        amount = (total * rc.ratio) / 1000;\n    }\n\n    //\n    function _getRefConfig(address user) internal view returns (RefConfig memory rc) {\n        uint32 level = refParent[refUser[user].parent].level;\n        for (uint256 i = 1; i < refConfigCount; i++) {\n            if (level == refConfig[i].level) {\n                rc = refConfig[i];\n                break;\n            }\n        }\n    }\n\n    //\n    function create(uint256 _code) public {\n        require(_code >= 0, \"Invalid code\");\n        uint256 code;\n        if (_code == 0) {\n            code = uint32(bytes4(bytes20(msg.sender)));\n        }\n        if (refCode[code] == address(0)) {\n            refCode[code] = msg.sender;\n        }\n        RefParent storage ref = refParent[msg.sender];\n        ref.user = msg.sender;\n    }\n\n    //\n    function bind(uint256 code) public {\n        address addr = refCode[code];\n        require(addr != address(0) && addr != msg.sender, \"Invalid code\");\n        RefUser storage user = refUser[msg.sender];\n        user.parent = addr;\n        user.parentCode = code;\n\n        RefParent storage parent = refParent[addr];\n        parent.count += 1;\n    }\n\n    //()\n    function updateConsume(address userAddr, uint256 amount) public override CheckPermit(\"store\") {\n        RefUser storage user = refUser[userAddr];\n        //\n        user.consumeAmount += amount;\n\n        RefParent storage parent = refParent[user.parent];\n        //\n        if (user.isValid == false) {\n            bool isValid;\n            if (validLevel > 0) {\n                IRole role = IRole(getAddress(\"Role\"));\n                (, HeroAttrs memory attrs) = role.getHeroInfo(userAddr);\n                if (attrs.level >= validLevel) isValid = true;\n            } else if (validAmount > 0) {\n                if (user.consumeAmount > validAmount) isValid = true;\n            }\n            if (isValid) {\n                parent.validCount += 1;\n                user.isValid = true;\n            }\n        }\n        //\n        uint32 level;\n        for (uint256 i = 1; i <= refConfigCount; i++) {\n            if (parent.validCount >= refConfig[i].validUserCount) {\n                level = refConfig[i].level;\n            }\n        }\n        parent.level = level;\n        //\n        (, uint256 comm) = getCommission(userAddr, amount);\n        parent.amount += comm;\n    }\n\n    function checkDraw(uint256 configId, uint32[] memory withdraw) internal pure returns (bool already) {\n        for (uint256 i = 0; i < withdraw.length; i++) {\n            if (configId == withdraw[i]) {\n                already = true;\n                break;\n            }\n        }\n    }\n\n    //\n    function refClaim(uint256 rewardId) public {\n        RefParent storage parent = refParent[msg.sender];\n        require(checkDraw(rewardId, parent.withdraw) == false, \"already draw\");\n\n        RefConfig storage config = refConfig[rewardId];\n        require(parent.level >= config.level, \"Unable to claim if the level is not reached\");\n        parent.withdraw.push(uint32(rewardId));\n\n        //\n        bytes memory data = new bytes(2);\n        data[0] = bytes2(config.boxType)[0];\n        data[1] = bytes2(config.boxType)[1];\n        IStoreOP(getAddress(\"Box\")).mint(msg.sender, config.boxAmount, data);\n    }\n\n    //\n    function userClaim(uint256 configId) public {\n        RefUser storage user = refUser[msg.sender];\n        require(checkDraw(configId, user.withdraw) == false, \"already draw\");\n        require(user.parentCode != 0, \"No inviter is bound\");\n\n        RefUserConfig storage config = refUserConfig[configId];\n        RewardConditions rc = RewardConditions(config.condition);\n        IRole role = IRole(getAddress(\"Role\"));\n        (, HeroAttrs memory attrs) = role.getHeroInfo(msg.sender);\n        if (rc == RewardConditions.Level) {\n            require(attrs.level >= config.level, \"Unable to claim if the level is not reached\");\n        } else if (rc == RewardConditions.Amount) {\n            require(user.consumeAmount >= config.consumeAmount, \"Unable to claim if the consume amount is not reached\");\n        } else if (rc == RewardConditions.LevelAmount) {\n            require(attrs.level >= config.level, \"Unable to claim if the level is not reached\");\n            require(user.consumeAmount >= config.consumeAmount, \"Unable to claim if the consume amount is not reached\");\n        } else {\n            return;\n        }\n        user.withdraw.push(uint32(configId));\n\n        //\n        bytes memory data = new bytes(2);\n        data[0] = bytes2(config.boxType)[0];\n        data[1] = bytes2(config.boxType)[1];\n        IStoreOP(getAddress(\"Box\")).mint(msg.sender, config.boxAmount, data);\n    }\n}\n",
  "sourcePath": "/Users/necklace/work/Legend/Legend/contracts/Referral.sol",
  "compiler": {
    "name": "solc",
    "version": "0.8.0+commit.c7dfd78e.Darwin.appleclang"
  },
  "schemaVersion": "3.4.3",
  "updatedAt": "2022-03-25T17:08:34.426Z",
  "networkType": "ethereum",
  "devdoc": {
    "kind": "dev",
    "methods": {},
    "version": 1
  },
  "userdoc": {
    "kind": "user",
    "methods": {},
    "version": 1
  }
}