{
  "contractName": "RoleMine",
  "abi": [
    {
      "anonymous": false,
      "inputs": [
        {
          "indexed": true,
          "internalType": "address",
          "name": "user",
          "type": "address"
        },
        {
          "indexed": true,
          "internalType": "uint256",
          "name": "roleId",
          "type": "uint256"
        }
      ],
      "name": "InMine",
      "type": "event"
    },
    {
      "anonymous": false,
      "inputs": [
        {
          "indexed": true,
          "internalType": "address",
          "name": "user",
          "type": "address"
        },
        {
          "indexed": true,
          "internalType": "uint256",
          "name": "roleId",
          "type": "uint256"
        },
        {
          "indexed": false,
          "internalType": "uint256",
          "name": "power",
          "type": "uint256"
        },
        {
          "indexed": false,
          "internalType": "uint256",
          "name": "reward",
          "type": "uint256"
        }
      ],
      "name": "StopMine",
      "type": "event"
    },
    {
      "inputs": [
        {
          "internalType": "address",
          "name": "_poolAddr",
          "type": "address"
        },
        {
          "internalType": "address",
          "name": "_token",
          "type": "address"
        },
        {
          "internalType": "uint64",
          "name": "_startTime",
          "type": "uint64"
        },
        {
          "internalType": "uint64",
          "name": "_duration",
          "type": "uint64"
        },
        {
          "internalType": "uint256",
          "name": "_reward",
          "type": "uint256"
        }
      ],
      "name": "addPool",
      "outputs": [],
      "stateMutability": "nonpayable",
      "type": "function"
    },
    {
      "inputs": [
        {
          "internalType": "address",
          "name": "poolAddr",
          "type": "address"
        },
        {
          "internalType": "address",
          "name": "owner",
          "type": "address"
        },
        {
          "internalType": "uint256",
          "name": "endTime",
          "type": "uint256"
        }
      ],
      "name": "calcReward",
      "outputs": [
        {
          "internalType": "int256",
          "name": "",
          "type": "int256"
        }
      ],
      "stateMutability": "view",
      "type": "function"
    },
    {
      "inputs": [],
      "name": "contractOwner",
      "outputs": [
        {
          "internalType": "address",
          "name": "",
          "type": "address"
        }
      ],
      "stateMutability": "view",
      "type": "function"
    },
    {
      "inputs": [
        {
          "internalType": "address",
          "name": "poolAddr",
          "type": "address"
        }
      ],
      "name": "deletePool",
      "outputs": [],
      "stateMutability": "nonpayable",
      "type": "function"
    },
    {
      "inputs": [
        {
          "internalType": "string",
          "name": "key",
          "type": "string"
        }
      ],
      "name": "getAddress",
      "outputs": [
        {
          "internalType": "address",
          "name": "",
          "type": "address"
        }
      ],
      "stateMutability": "view",
      "type": "function"
    },
    {
      "inputs": [
        {
          "internalType": "address",
          "name": "poolAddr",
          "type": "address"
        },
        {
          "internalType": "address",
          "name": "owner",
          "type": "address"
        }
      ],
      "name": "getMineInfo",
      "outputs": [
        {
          "components": [
            {
              "internalType": "uint64",
              "name": "startTime",
              "type": "uint64"
            },
            {
              "internalType": "uint64",
              "name": "duration",
              "type": "uint64"
            },
            {
              "internalType": "uint256",
              "name": "totalReward",
              "type": "uint256"
            },
            {
              "internalType": "int256",
              "name": "totalAmount",
              "type": "int256"
            },
            {
              "internalType": "int256",
              "name": "totalAdjust",
              "type": "int256"
            },
            {
              "internalType": "int256",
              "name": "stakingAmounts",
              "type": "int256"
            },
            {
              "internalType": "int256",
              "name": "stakingAdjusts",
              "type": "int256"
            }
          ],
          "internalType": "struct MultiStakeBase.MineInfo",
          "name": "mineInfo",
          "type": "tuple"
        }
      ],
      "stateMutability": "view",
      "type": "function"
    },
    {
      "inputs": [],
      "name": "manager",
      "outputs": [
        {
          "internalType": "contract Manager",
          "name": "",
          "type": "address"
        }
      ],
      "stateMutability": "view",
      "type": "function"
    },
    {
      "inputs": [],
      "name": "roleCount",
      "outputs": [
        {
          "internalType": "uint256",
          "name": "",
          "type": "uint256"
        }
      ],
      "stateMutability": "view",
      "type": "function"
    },
    {
      "inputs": [
        {
          "internalType": "address",
          "name": "",
          "type": "address"
        }
      ],
      "name": "roleInfo",
      "outputs": [
        {
          "internalType": "address",
          "name": "",
          "type": "address"
        }
      ],
      "stateMutability": "view",
      "type": "function"
    },
    {
      "inputs": [
        {
          "internalType": "address",
          "name": "addr",
          "type": "address"
        }
      ],
      "name": "setManager",
      "outputs": [],
      "stateMutability": "nonpayable",
      "type": "function"
    },
    {
      "inputs": [
        {
          "internalType": "address",
          "name": "pool",
          "type": "address"
        },
        {
          "internalType": "int256",
          "name": "max",
          "type": "int256"
        }
      ],
      "name": "setStakingMax",
      "outputs": [],
      "stateMutability": "nonpayable",
      "type": "function"
    },
    {
      "inputs": [
        {
          "internalType": "address",
          "name": "poolAddr",
          "type": "address"
        }
      ],
      "name": "stopStaking",
      "outputs": [],
      "stateMutability": "nonpayable",
      "type": "function"
    },
    {
      "inputs": [
        {
          "internalType": "address",
          "name": "poolAddr",
          "type": "address"
        }
      ],
      "name": "withdraw",
      "outputs": [],
      "stateMutability": "nonpayable",
      "type": "function"
    },
    {
      "inputs": [
        {
          "internalType": "address",
          "name": "",
          "type": "address"
        },
        {
          "internalType": "address",
          "name": "_from",
          "type": "address"
        },
        {
          "internalType": "uint256",
          "name": "_id",
          "type": "uint256"
        },
        {
          "internalType": "uint256",
          "name": "_value",
          "type": "uint256"
        },
        {
          "internalType": "bytes",
          "name": "_data",
          "type": "bytes"
        }
      ],
      "name": "onERC1155Received",
      "outputs": [
        {
          "internalType": "bytes4",
          "name": "",
          "type": "bytes4"
        }
      ],
      "stateMutability": "nonpayable",
      "type": "function"
    },
    {
      "inputs": [
        {
          "internalType": "address",
          "name": "_operator",
          "type": "address"
        },
        {
          "internalType": "address",
          "name": "_from",
          "type": "address"
        },
        {
          "internalType": "uint256[]",
          "name": "_ids",
          "type": "uint256[]"
        },
        {
          "internalType": "uint256[]",
          "name": "_values",
          "type": "uint256[]"
        },
        {
          "internalType": "bytes",
          "name": "_data",
          "type": "bytes"
        }
      ],
      "name": "onERC1155BatchReceived",
      "outputs": [
        {
          "internalType": "bytes4",
          "name": "",
          "type": "bytes4"
        }
      ],
      "stateMutability": "nonpayable",
      "type": "function"
    }
  ],
  "bytecode": "0x6080604052600080546001600160a01b0319163317905534801561002257600080fd5b5061263b806100326000396000f3fe608060405234801561001057600080fd5b50600436106100f55760003560e01c806397b0f20511610097578063ce606ee011610066578063ce606ee0146101ff578063d0ebdbe714610207578063ddf963581461021a578063f23a6e6114610222576100f5565b806397b0f20514610199578063a9f4c3e2146101ac578063bc197c81146101cc578063bf40fac1146101ec576100f5565b806351cff8d9116100d357806351cff8d9146101405780636066493e146101535780637c6967dc146101665780637ed2732f14610179576100f5565b806324f13320146100fa578063481c6a75146101235780634fc62da01461012b575b600080fd5b61010d610108366004611b20565b610235565b60405161011a9190611f3a565b60405180910390f35b61010d610250565b61013e610139366004611d03565b61025f565b005b61013e61014e366004611b20565b6103ed565b61013e610161366004611d66565b6108e3565b61013e610174366004611b20565b610a00565b61018c610187366004611c4a565b610d4d565b60405161011a9190612025565b61013e6101a7366004611b20565b610ea7565b6101bf6101ba366004611b58565b611036565b60405161011a9190612249565b6101df6101da366004611b90565b6110f8565b60405161011a9190612010565b61010d6101fa366004611db1565b611106565b61010d61118f565b61013e610215366004611b20565b61119e565b61018c611210565b6101df610230366004611c8a565b611216565b6004602052600090815260409020546001600160a01b031681565b6001546001600160a01b031681565b604080518082018252600581526430b236b4b760d91b60208201526001549151637af32e3960e11b815290916001600160a01b03169063f5e65c72906102ab9033908590600401611fb2565b60206040518083038186803b1580156102c357600080fd5b505afa1580156102d7573d6000803e3d6000fd5b505050506040513d601f19601f820116820180604052508101906102fb9190611d91565b6103205760405162461bcd60e51b81526004016103179061219d565b60405180910390fd5b6001600160a01b038616600090815260026020526040902054600160a01b90046001600160401b0316156103665760405162461bcd60e51b81526004016103179061206d565b506001600160a01b039485166000908152600260208190526040909120805460018201805467ffffffffffffffff19166001600160401b03968716179055918101929092556c0c9f2c9cd04674edea40000000600383015567ffffffffffffffff60a01b1916600160a01b9390921692909202176001600160a01b03191691909216179055565b60006103f7611301565b9050600080826001600160a01b031663839ddba8336040518263ffffffff1660e01b81526004016104289190611f3a565b60006040518083038186803b15801561044057600080fd5b505afa158015610454573d6000803e3d6000fd5b505050506040513d6000823e601f3d908101601f1916820160405261047c9190810190611e24565b8151919350915061049f5760405162461bcd60e51b81526004016103179061209a565b6001826020015160ff1660028111156104c857634e487b7160e01b600052602160045260246000fd5b60028111156104e757634e487b7160e01b600052602160045260246000fd5b146105045760405162461bcd60e51b81526004016103179061209a565b60405163f23a433160e01b81526001600160a01b0384169063f23a433190610533903390600090600401611f93565b600060405180830381600087803b15801561054d57600080fd5b505af1158015610561573d6000803e3d6000fd5b505033600090815260046020526040812080546001600160a01b0319169055606085015190925061059b915063ffffffff16610e10612472565b6001600160401b031683604001516001600160401b03166105bc919061234b565b90506000836060015163ffffffff16905060006105f860405180604001604052806008815260200167119c9859db595b9d60c21b815250611106565b905082421015610739574292506000610e1086604001516001600160401b03168561062391906124e0565b61062d9190612559565b1161063957600061063c565b60015b60ff16610e1086604001516001600160401b03168561065b91906124e0565b61066591906123bc565b61066f919061234b565b9150600082866060015163ffffffff1661068991906124e0565b11156107395760608501516001600160a01b0382169063f242432a90309033906803000000000000000160b81b906106c890889063ffffffff166124e0565b6040516020016106d790611f22565b6040516020818303038152906040526040518663ffffffff1660e01b8152600401610706959493929190611f4e565b600060405180830381600087803b15801561072057600080fd5b505af1158015610734573d6000803e3d6000fd5b505050505b604051637a94c56560e11b81526001600160a01b0382169063f5298aca906107759030906803000000000000000160b81b908790600401611fef565b600060405180830381600087803b15801561078f57600080fd5b505af11580156107a3573d6000803e3d6000fd5b5050505060006107b3888561132d565b905060006107c18933611036565b90506107db89338360a001516107d69061256d565b611394565b610801604051806040016040528060058152602001642a37b5b2b760d91b815250611106565b6001600160a01b031663a9059cbb33846040518363ffffffff1660e01b815260040161082e929190611fd6565b602060405180830381600087803b15801561084857600080fd5b505af115801561085c573d6000803e3d6000fd5b505050506040513d601f19601f820116820180604052508101906108809190611d91565b506003805490600061089183612527565b9091555050865160c087015160405133917f1024143f9436db2b918f401d977d716c45ff12119ff69b960ef55c77423d2933916108d0919087906122a4565b60405180910390a3505050505050505050565b604080518082018252600581526430b236b4b760d91b60208201526001549151637af32e3960e11b815290916001600160a01b03169063f5e65c729061092f9033908590600401611fb2565b60206040518083038186803b15801561094757600080fd5b505afa15801561095b573d6000803e3d6000fd5b505050506040513d601f19601f8201168201806040525081019061097f9190611d91565b61099b5760405162461bcd60e51b81526004016103179061219d565b6001600160a01b038316600090815260026020526040902054600160a01b90046001600160401b03166109e05760405162461bcd60e51b8152600401610317906120f9565b506001600160a01b03909116600090815260026020526040902060030155565b604080518082018252600581526430b236b4b760d91b60208201526001549151637af32e3960e11b815290916001600160a01b03169063f5e65c7290610a4c9033908590600401611fb2565b60206040518083038186803b158015610a6457600080fd5b505afa158015610a78573d6000803e3d6000fd5b505050506040513d601f19601f82011682018060405250810190610a9c9190611d91565b610ab85760405162461bcd60e51b81526004016103179061219d565b6001600160a01b038216600090815260026020526040902060018101548154429291610af8916001600160401b0391821691600160a01b90910416612363565b6001600160401b03168210610b1f5760405162461bcd60e51b815260040161031790612126565b8054600090600160a01b90046001600160401b0316831015610b63575060028101805460009091556001808301805467ffffffffffffffff19169091179055610c02565b600182015482546000916001600160401b0390811691610b8c91600160a01b90910416866124e0565b8460020154610b9b9190612453565b610ba591906123bc565b9050808360020154610bb791906124e0565b600284018290558354909250610bdd90600160a01b90046001600160401b0316856124e0565b60018401805467ffffffffffffffff19166001600160401b0392909216919091179055505b6001600160a01b038516610c79576000610c39604051806040016040528060068152602001652a32b63632b960d11b815250611106565b6040519091506001600160a01b0382169083156108fc029084906000818181858888f19350505050158015610c72573d6000803e3d6000fd5b5050610d46565b610c9f604051806040016040528060058152602001642a37b5b2b760d91b815250611106565b6001600160a01b031663a9059cbb610cd4604051806040016040528060068152602001652a32b63632b960d11b815250611106565b836040518363ffffffff1660e01b8152600401610cf2929190611fd6565b602060405180830381600087803b158015610d0c57600080fd5b505af1158015610d20573d6000803e3d6000fd5b505050506040513d601f19601f82011682018060405250810190610d449190611d91565b505b5050505050565b6001600160a01b03831660009081526002602052604081208054600160a01b90046001600160401b03164211610d87576000915050610ea0565b6001600160a01b0384166000908152600682016020908152604080832054600785019092529091205481610dc857610dbe8161256d565b9350505050610ea0565b84610dd1574294505b60018301548354600091610df9916001600160401b0391821691600160a01b90910416612363565b6001600160401b0316861015610e5d576005840154600185015485546001600160401b0391821691610e3391600160a01b900416896124e0565b8660020154610e429190612453565b610e4c91906123bc565b610e56919061230a565b9050610e74565b83600501548460020154610e71919061230a565b90505b60048401548290610e8585846123d0565b610e8f919061238e565b610e9991906124a1565b9450505050505b9392505050565b604080518082018252600581526430b236b4b760d91b60208201526001549151637af32e3960e11b815290916001600160a01b03169063f5e65c7290610ef39033908590600401611fb2565b60206040518083038186803b158015610f0b57600080fd5b505afa158015610f1f573d6000803e3d6000fd5b505050506040513d601f19601f82011682018060405250810190610f439190611d91565b610f5f5760405162461bcd60e51b81526004016103179061219d565b6001600160a01b038216600090815260026020526040902054600160a01b90046001600160401b0316610fa45760405162461bcd60e51b8152600401610317906120f9565b6001600160a01b03821660009081526002602081905260409091209081015415610fe05760405162461bcd60e51b81526004016103179061214c565b50506001600160a01b03166000908152600260208190526040822080546001600160e01b031916815560018101805467ffffffffffffffff19169055908101829055600381018290556004810182905560050155565b61103e6117bf565b6001600160a01b038316600090815260026020526040902054600160a01b90046001600160401b0316156110f2576001600160a01b0380841660009081526002602081815260408084209487168085526006860183528185205460a08801528452600785018252928390205460c08601526005840154608086015260048401546060860152908301549184019190915260018201546001600160401b03908116918401919091529054600160a01b90041681525b92915050565b600098975050505050505050565b6001546040516334abd05960e11b81526000916001600160a01b031690636957a0b29061113790859060040161202e565b60206040518083038186803b15801561114f57600080fd5b505afa158015611163573d6000803e3d6000fd5b505050506040513d601f19601f820116820180604052508101906111879190611b3c565b90505b919050565b6000546001600160a01b031681565b6000546001600160a01b031633146111c85760405162461bcd60e51b815260040161031790612212565b6001600160a01b0381166111ee5760405162461bcd60e51b8152600401610317906121c0565b600180546001600160a01b0319166001600160a01b0392909216919091179055565b60035481565b600061124160405180604001604052806008815260200167119c9859db595b9d60c21b815250611106565b6001600160a01b0316336001600160a01b031614156112ed5760008061126984860186611ed9565b915091508160ff16600981111561129057634e487b7160e01b600052602160045260246000fd5b60098111156112af57634e487b7160e01b600052602160045260246000fd5b60041480156112c957506803000000000000000160b81b87145b156112de576112d98882886115ab565b6112ea565b50600091506112f79050565b50505b5063f23a6e6160e01b5b9695505050505050565b600061132860405180604001604052806004815260200163526f6c6560e01b815250611106565b905090565b60008061133b843385610d4d565b9050600081131561138a576001600160a01b03841660009081526002602090815260408083203384526007019091528120805483929061137c90849061230a565b909155509091506110f29050565b5060009392505050565b6001600160a01b03831660009081526002602052604090208054600160a01b90046001600160401b03166113da5760405162461bcd60e51b8152600401610317906120f9565b6001600160a01b038316600090815260068201602052604081205461140090849061230a565b9050600081121580156114165750816003015481125b6114325760405162461bcd60e51b8152600401610317906120d1565b81544290600160a01b90046001600160401b0316811180156114575750600483015415155b1561156d5760018301548354600091611484916001600160401b0391821691600160a01b90910416612363565b6001600160401b03168210156114e8576005840154600185015485546001600160401b03918216916114be91600160a01b900416856124e0565b86600201546114cd9190612453565b6114d791906123bc565b6114e1919061230a565b90506114ff565b836005015484600201546114fc919061230a565b90505b600484015460009061151187846123d0565b61151b919061238e565b6001600160a01b038816600090815260078701602052604081208054929350839290919061154a90849061230a565b9250508190555080856005016000828254611565919061230a565b909155505050505b6001600160a01b0385166000908152600684016020526040812083905560048401805486929061159e90849061230a565b9091555050505050505050565b80156117ba5760006115bb611301565b9050600080826001600160a01b031663839ddba8876040518263ffffffff1660e01b81526004016115ec9190611f3a565b60006040518083038186803b15801561160457600080fd5b505afa158015611618573d6000803e3d6000fd5b505050506040513d6000823e601f3d908101601f191682016040526116409190810190611e24565b90925090506000826020015160ff16600281111561166e57634e487b7160e01b600052602160045260246000fd5b600281111561168d57634e487b7160e01b600052602160045260246000fd5b146116aa5760405162461bcd60e51b8152600401610317906121e6565b60008160c0015163ffffffff16116116d45760405162461bcd60e51b815260040161031790612041565b6001600160a01b0386811660009081526004602081905260409182902080546001600160a01b031916898516179055905163381e8d7160e01b81529185169163381e8d7191611727918a91899101611fd6565b600060405180830381600087803b15801561174157600080fd5b505af1158015611755573d6000803e3d6000fd5b5050505061176b85878360c0015160030b611394565b6003805490600061177b8361253e565b909155505081516040516001600160a01b038816907f1c406feb04cfc5008985db31c4b72a24d12671eec54cd262680621d926dad8f690600090a35050505b505050565b6040518060e0016040528060006001600160401b0316815260200160006001600160401b0316815260200160008152602001600081526020016000815260200160008152602001600081525090565b60008083601f84011261181f578182fd5b5081356001600160401b03811115611835578182fd5b602083019150836020808302850101111561184f57600080fd5b9250929050565b600082601f830112611866578081fd5b815160206001600160401b03821115611881576118816125b3565b80820261188f8282016122ba565b8381528281019086840183880185018910156118a9578687fd5b8693505b858410156118cb5780518352600193909301929184019184016118ad565b50979650505050505050565b60008083601f8401126118e8578182fd5b5081356001600160401b038111156118fe578182fd5b60208301915083602082850101111561184f57600080fd5b600082601f830112611926578081fd5b8151611939611934826122e3565b6122ba565b81815284602083860101111561194d578283fd5b61195e8260208301602087016124f7565b949350505050565b60006101e08284031215611978578081fd5b6119836101206122ba565b905061198e82611b15565b815261199c60208301611b15565b602082015260408201516001600160401b03808211156119bb57600080fd5b6119c785838601611916565b60408401526119d860608501611b01565b60608401526119e960808501611b01565b60808401526119fa60a08501611b01565b60a0840152611a0b60c08501611b01565b60c084015260e0840151915080821115611a2457600080fd5b50611a3184828501611856565b60e083015250610100611a4684828501611a50565b9082015292915050565b600060e08284031215611a61578081fd5b60405160e081018181106001600160401b0382111715611a8357611a836125b3565b604052905080611a9283611b01565b8152611aa060208401611b01565b6020820152611ab160408401611b01565b6040820152611ac260608401611b01565b6060820152611ad360808401611b01565b6080820152611ae460a08401611b01565b60a0820152611af560c08401611b01565b60c08201525092915050565b805163ffffffff8116811461118a57600080fd5b805161118a816125f6565b600060208284031215611b31578081fd5b8135610ea0816125c9565b600060208284031215611b4d578081fd5b8151610ea0816125c9565b60008060408385031215611b6a578081fd5b8235611b75816125c9565b91506020830135611b85816125c9565b809150509250929050565b60008060008060008060008060a0898b031215611bab578384fd5b8835611bb6816125c9565b97506020890135611bc6816125c9565b965060408901356001600160401b0380821115611be1578586fd5b611bed8c838d0161180e565b909850965060608b0135915080821115611c05578586fd5b611c118c838d0161180e565b909650945060808b0135915080821115611c29578384fd5b50611c368b828c016118d7565b999c989b5096995094979396929594505050565b600080600060608486031215611c5e578081fd5b8335611c69816125c9565b92506020840135611c79816125c9565b929592945050506040919091013590565b60008060008060008060a08789031215611ca2578384fd5b8635611cad816125c9565b95506020870135611cbd816125c9565b9450604087013593506060870135925060808701356001600160401b03811115611ce5578283fd5b611cf189828a016118d7565b979a9699509497509295939492505050565b600080600080600060a08688031215611d1a578283fd5b8535611d25816125c9565b94506020860135611d35816125c9565b93506040860135611d45816125e1565b92506060860135611d55816125e1565b949793965091946080013592915050565b60008060408385031215611d78578182fd5b8235611d83816125c9565b946020939093013593505050565b600060208284031215611da2578081fd5b81518015158114610ea0578182fd5b600060208284031215611dc2578081fd5b81356001600160401b03811115611dd7578182fd5b8201601f81018413611de7578182fd5b8035611df5611934826122e3565b818152856020838501011115611e09578384fd5b81602084016020830137908101602001929092525092915050565b60008082840360a0811215611e37578283fd5b6080811215611e44578283fd5b50604051608081016001600160401b038282108183111715611e6857611e686125b3565b816040528551835260208601519150611e80826125f6565b81602084015260408601519150611e96826125e1565b816040840152611ea860608701611b01565b6060840152608086015192945080831115611ec1578384fd5b5050611ecf85828601611966565b9150509250929050565b60008060408385031215611eeb578182fd5b8235611b75816125f6565b60008151808452611f0e8160208601602086016124f7565b601f01601f19169290920160200192915050565b6b52657475726e206974656d7360a01b8152600c0190565b6001600160a01b0391909116815260200190565b6001600160a01b03868116825285166020820152604081018490526060810183905260a060808201819052600090611f8890830184611ef6565b979650505050505050565b6001600160a01b0392909216825263ffffffff16602082015260400190565b6001600160a01b038316815260406020820181905260009061195e90830184611ef6565b6001600160a01b03929092168252602082015260400190565b6001600160a01b039390931683526020830191909152604082015260600190565b6001600160e01b031991909116815260200190565b90815260200190565b600060208252610ea06020830184611ef6565b60208082526012908201527124b739bab33334b1b4b2b73a103837bbb2b960711b604082015260600190565b602080825260139082015272506f6f6c20616c72656164792065786973747360681b604082015260600190565b6020808252601a908201527f596f7520646964206e6f7420656e74657220746865206d696e65000000000000604082015260600190565b6020808252600e908201526d1a5b9d985b1a5908185b5bdd5b9d60921b604082015260600190565b602080825260139082015272141bdbdb08191bd95cc81b9bdd08195e1a5cdd606a1b604082015260600190565b6020808252600c908201526b39ba30b5b4b7339037bb32b960a11b604082015260600190565b60208082526031908201527f506f6f6c732074686174206861766520616c726561647920737461727465642060408201527018d85b9b9bdd0818994819195b195d1959607a1b606082015260800190565b6020808252600990820152681b9bc81c195c9b5a5d60ba1b604082015260600190565b6020808252600c908201526b7a65726f206164647265737360a01b604082015260600190565b6020808252601290820152714e6f2074696d6520666f72206865726f657360701b604082015260600190565b60208082526019908201527f6f6e6c7920616c6c6f7720636f6e7472616374206f776e657200000000000000604082015260600190565b600060e0820190506001600160401b038084511683528060208501511660208401525060408301516040830152606083015160608301526080830151608083015260a083015160a083015260c083015160c083015292915050565b63ffffffff929092168252602082015260400190565b6040518181016001600160401b03811182821017156122db576122db6125b3565b604052919050565b60006001600160401b038211156122fc576122fc6125b3565b50601f01601f191660200190565b600080821280156001600160ff1b038490038513161561232c5761232c612587565b600160ff1b839003841281161561234557612345612587565b50500190565b6000821982111561235e5761235e612587565b500190565b60006001600160401b0380831681851680830382111561238557612385612587565b01949350505050565b60008261239d5761239d61259d565b600160ff1b8214600019841416156123b7576123b7612587565b500590565b6000826123cb576123cb61259d565b500490565b60006001600160ff1b03818413828413808216868404861116156123f6576123f6612587565b600160ff1b8487128281168783058912161561241457612414612587565b85871292508782058712848416161561242f5761242f612587565b8785058712818416161561244557612445612587565b505050929093029392505050565b600081600019048311821515161561246d5761246d612587565b500290565b60006001600160401b038083168185168183048111821515161561249857612498612587565b02949350505050565b60008083128015600160ff1b8501841216156124bf576124bf612587565b6001600160ff1b03840183138116156124da576124da612587565b50500390565b6000828210156124f2576124f2612587565b500390565b60005b838110156125125781810151838201526020016124fa565b83811115612521576000848401525b50505050565b60008161253657612536612587565b506000190190565b600060001982141561255257612552612587565b5060010190565b6000826125685761256861259d565b500690565b6000600160ff1b82141561258357612583612587565b0390565b634e487b7160e01b600052601160045260246000fd5b634e487b7160e01b600052601260045260246000fd5b634e487b7160e01b600052604160045260246000fd5b6001600160a01b03811681146125de57600080fd5b50565b6001600160401b03811681146125de57600080fd5b60ff811681146125de57600080fdfea26469706673582212200d0cc4570bf37c2dc2c776e64c3b2217901e014b0cb348575210be6e928f662b64736f6c63430008000033",
  "immutableReferences": {},
  "source": "pragma solidity ^0.8.0;\n\n// SPDX-License-Identifier: MIT\n\nimport \"./include/IERC20.sol\";\nimport \"./include/IRole.sol\";\nimport \"./lib/MultiStakeBase.sol\";\nimport \"./include/IERC1155TokenReceiver.sol\";\nimport \"./include/IERC1155OP.sol\";\nimport \"./include/IERC1155.sol\";\n\ncontract RoleMine is MultiStakeBase, IERC1155TokenReceiver {\n    //id\n    uint256 internal constant fragmentId = (uint256(3) << 248) | (uint256(1) << 184);\n\n    uint256 public roleCount;\n\n    //=>\n    mapping(address => address) public roleInfo;\n\n    event InMine(address indexed user, uint256 indexed roleId);\n    event StopMine(address indexed user, uint256 indexed roleId, uint256 power, uint256 reward);\n\n    function _getRoleContract() internal view returns (IRole) {\n        return IRole(getAddress(\"Role\"));\n    }\n\n    function staking(\n        address _from,\n        address poolAddr,\n        uint256 time\n    ) internal {\n        if (time > 0) {\n            IRole roleContract = _getRoleContract();\n            (CurrentHero memory hero, HeroAttrs memory attrs) = roleContract.getHeroInfo(_from);\n            require(HeroStatus(hero.status) == HeroStatus.None, \"No time for heroes\");\n            require(attrs.power > 0, \"Insufficient power\");\n\n            roleInfo[_from] = poolAddr;\n            roleContract.inMine(_from, time);\n            _staking(poolAddr, _from, int32(attrs.power));\n            roleCount++;\n            emit InMine(_from, hero.tokenId);\n        }\n    }\n\n    function withdraw(address poolAddr) public {\n        IRole roleContract = _getRoleContract();\n        (CurrentHero memory hero, HeroAttrs memory attrs) = roleContract.getHeroInfo(msg.sender);\n        require(hero.tokenId != 0, \"You did not enter the mine\");\n        require(HeroStatus(hero.status) == HeroStatus.Mine, \"You did not enter the mine\");\n\n        roleContract.stopWorking(msg.sender, 0);\n        delete roleInfo[msg.sender];\n\n        uint256 endTime = hero.startTime + uint256(uint64(hero.time) * 3600);\n        uint256 burnTokens = hero.time;\n        address fragmentAddr = getAddress(\"Fragment\");\n        if (block.timestamp < endTime) {\n            endTime = block.timestamp;\n            //\n            burnTokens = ((endTime - hero.startTime) / 3600) + (((endTime - hero.startTime) % 3600) > 0 ? 1 : 0);\n            if (hero.time - burnTokens > 0) {\n                IERC1155(fragmentAddr).safeTransferFrom(address(this), msg.sender, fragmentId, hero.time - burnTokens, abi.encodePacked(\"Return items\"));\n            }\n        }\n        //\n        IERC1155OP(fragmentAddr).burn(address(this), fragmentId, burnTokens);\n        uint256 reward = _withdraw(poolAddr, endTime);\n        //\n        MineInfo memory mineInfo = getMineInfo(poolAddr, msg.sender);\n        _staking(poolAddr, msg.sender, -(mineInfo.stakingAmounts));\n        //\n        IERC20(getAddress(\"Token\")).transfer(msg.sender, reward);\n        roleCount--;\n        emit StopMine(msg.sender, hero.tokenId, attrs.power, reward);\n    }\n\n    function onERC1155Received(\n        address,\n        address _from,\n        uint256 _id,\n        uint256 _value,\n        bytes calldata _data\n    ) external override returns (bytes4) {\n        if (msg.sender == getAddress(\"Fragment\")) {\n            (uint8 op, address poolAddr) = abi.decode(_data, (uint8, address));\n            if (Operate.RoleMine == Operate(op) && fragmentId == _id) {\n                //\n                staking(_from, poolAddr, _value);\n            } else {\n                return 0;\n            }\n        }\n        return IERC1155TokenReceiver(this).onERC1155Received.selector;\n    }\n\n    function onERC1155BatchReceived(\n        address _operator,\n        address _from,\n        uint256[] calldata _ids,\n        uint256[] calldata _values,\n        bytes calldata _data\n    ) external override returns (bytes4) {\n        //\n        // return ERC1155_BATCH_ACCEPTED;\n    }\n}\n",
  "sourcePath": "/Users/necklace/work/Legend/Legend/contracts/RoleMine.sol",
  "compiler": {
    "name": "solc",
    "version": "0.8.0+commit.c7dfd78e.Darwin.appleclang"
  },
  "schemaVersion": "3.4.3",
  "updatedAt": "2022-03-25T17:08:34.150Z",
  "networkType": "ethereum",
  "devdoc": {
    "kind": "dev",
    "methods": {
      "onERC1155BatchReceived(address,address,uint256[],uint256[],bytes)": {
        "details": "An ERC1155-compliant smart contract MUST call this function on the token recipient contract, at the end of a `safeBatchTransferFrom` after the balances have been updated. This function MUST return `bytes4(keccak256(\"onERC1155BatchReceived(address,address,uint256[],uint256[],bytes)\"))` (i.e. 0xbc197c81) if it accepts the transfer(s). This function MUST revert if it rejects the transfer(s). Return of any other value than the prescribed keccak256 generated value MUST result in the transaction being reverted by the caller.",
        "params": {
          "_data": "Additional data with no specified format",
          "_from": "The address which previously owned the token",
          "_ids": "An array containing ids of each token being transferred (order and length must match _values array)",
          "_operator": "The address which initiated the batch transfer (i.e. msg.sender)",
          "_values": "An array containing amounts of each token being transferred (order and length must match _ids array)"
        },
        "returns": {
          "_0": "`bytes4(keccak256(\"onERC1155BatchReceived(address,address,uint256[],uint256[],bytes)\"))`"
        }
      }
    },
    "version": 1
  },
  "userdoc": {
    "kind": "user",
    "methods": {
      "onERC1155BatchReceived(address,address,uint256[],uint256[],bytes)": {
        "notice": "Handle the receipt of multiple ERC1155 token types."
      }
    },
    "version": 1
  }
}