{
  "contractName": "StakeMine",
  "abi": [
    {
      "inputs": [
        {
          "internalType": "address",
          "name": "_poolAddr",
          "type": "address"
        },
        {
          "internalType": "address",
          "name": "_token",
          "type": "address"
        },
        {
          "internalType": "uint64",
          "name": "_startTime",
          "type": "uint64"
        },
        {
          "internalType": "uint64",
          "name": "_duration",
          "type": "uint64"
        },
        {
          "internalType": "uint256",
          "name": "_reward",
          "type": "uint256"
        }
      ],
      "name": "addPool",
      "outputs": [],
      "stateMutability": "nonpayable",
      "type": "function"
    },
    {
      "inputs": [
        {
          "internalType": "address",
          "name": "poolAddr",
          "type": "address"
        },
        {
          "internalType": "address",
          "name": "owner",
          "type": "address"
        },
        {
          "internalType": "uint256",
          "name": "endTime",
          "type": "uint256"
        }
      ],
      "name": "calcReward",
      "outputs": [
        {
          "internalType": "int256",
          "name": "",
          "type": "int256"
        }
      ],
      "stateMutability": "view",
      "type": "function"
    },
    {
      "inputs": [],
      "name": "contractOwner",
      "outputs": [
        {
          "internalType": "address",
          "name": "",
          "type": "address"
        }
      ],
      "stateMutability": "view",
      "type": "function"
    },
    {
      "inputs": [
        {
          "internalType": "address",
          "name": "poolAddr",
          "type": "address"
        }
      ],
      "name": "deletePool",
      "outputs": [],
      "stateMutability": "nonpayable",
      "type": "function"
    },
    {
      "inputs": [
        {
          "internalType": "string",
          "name": "key",
          "type": "string"
        }
      ],
      "name": "getAddress",
      "outputs": [
        {
          "internalType": "address",
          "name": "",
          "type": "address"
        }
      ],
      "stateMutability": "view",
      "type": "function"
    },
    {
      "inputs": [
        {
          "internalType": "address",
          "name": "poolAddr",
          "type": "address"
        },
        {
          "internalType": "address",
          "name": "owner",
          "type": "address"
        }
      ],
      "name": "getMineInfo",
      "outputs": [
        {
          "components": [
            {
              "internalType": "uint64",
              "name": "startTime",
              "type": "uint64"
            },
            {
              "internalType": "uint64",
              "name": "duration",
              "type": "uint64"
            },
            {
              "internalType": "uint256",
              "name": "totalReward",
              "type": "uint256"
            },
            {
              "internalType": "int256",
              "name": "totalAmount",
              "type": "int256"
            },
            {
              "internalType": "int256",
              "name": "totalAdjust",
              "type": "int256"
            },
            {
              "internalType": "int256",
              "name": "stakingAmounts",
              "type": "int256"
            },
            {
              "internalType": "int256",
              "name": "stakingAdjusts",
              "type": "int256"
            }
          ],
          "internalType": "struct MultiStakeBase.MineInfo",
          "name": "mineInfo",
          "type": "tuple"
        }
      ],
      "stateMutability": "view",
      "type": "function"
    },
    {
      "inputs": [],
      "name": "manager",
      "outputs": [
        {
          "internalType": "contract Manager",
          "name": "",
          "type": "address"
        }
      ],
      "stateMutability": "view",
      "type": "function"
    },
    {
      "inputs": [
        {
          "internalType": "address",
          "name": "addr",
          "type": "address"
        }
      ],
      "name": "setManager",
      "outputs": [],
      "stateMutability": "nonpayable",
      "type": "function"
    },
    {
      "inputs": [
        {
          "internalType": "address",
          "name": "pool",
          "type": "address"
        },
        {
          "internalType": "int256",
          "name": "max",
          "type": "int256"
        }
      ],
      "name": "setStakingMax",
      "outputs": [],
      "stateMutability": "nonpayable",
      "type": "function"
    },
    {
      "inputs": [
        {
          "internalType": "address",
          "name": "poolAddr",
          "type": "address"
        }
      ],
      "name": "stopStaking",
      "outputs": [],
      "stateMutability": "nonpayable",
      "type": "function"
    },
    {
      "inputs": [
        {
          "internalType": "address",
          "name": "poolAddr",
          "type": "address"
        },
        {
          "internalType": "address",
          "name": "tokenAddr",
          "type": "address"
        },
        {
          "internalType": "int256",
          "name": "amount",
          "type": "int256"
        }
      ],
      "name": "staking",
      "outputs": [],
      "stateMutability": "nonpayable",
      "type": "function"
    },
    {
      "inputs": [
        {
          "internalType": "int256",
          "name": "amount",
          "type": "int256"
        }
      ],
      "name": "staking",
      "outputs": [],
      "stateMutability": "payable",
      "type": "function"
    },
    {
      "inputs": [
        {
          "internalType": "address",
          "name": "poolAddr",
          "type": "address"
        }
      ],
      "name": "withdraw",
      "outputs": [],
      "stateMutability": "nonpayable",
      "type": "function"
    }
  ],
  "bytecode": "0x6080604052600080546001600160a01b0319163317905534801561002257600080fd5b506001600355611b58806100376000396000f3fe6080604052600436106100c25760003560e01c80637ed2732f1161007f578063bf40fac111610059578063bf40fac11461020e578063c86090ee1461022e578063ce606ee014610241578063d0ebdbe714610256576100c2565b80637ed2732f1461019457806397b0f205146101c1578063a9f4c3e2146101e1576100c2565b8063481c6a75146100c75780634fc62da0146100f257806351cff8d9146101145780636066493e146101345780637c6967dc146101545780637e5c0ac614610174575b600080fd5b3480156100d357600080fd5b506100dc610276565b6040516100e991906115e6565b60405180910390f35b3480156100fe57600080fd5b5061011261010d366004611439565b610285565b005b34801561012057600080fd5b5061011261012f366004611375565b610413565b34801561014057600080fd5b5061011261014f366004611498565b610511565b34801561016057600080fd5b5061011261016f366004611375565b61062e565b34801561018057600080fd5b5061011261018f3660046113e5565b61097b565b3480156101a057600080fd5b506101b46101af366004611425565b610b3a565b6040516100e99190611663565b3480156101cd57600080fd5b506101126101dc366004611375565b610c94565b3480156101ed57600080fd5b506102016101fc3660046113ad565b610e23565b6040516100e991906118ad565b34801561021a57600080fd5b506100dc6102293660046114fb565b610ee5565b61011261023c3660046114e3565b610f6e565b34801561024d57600080fd5b506100dc611010565b34801561026257600080fd5b50610112610271366004611375565b61101f565b6001546001600160a01b031681565b604080518082018252600581526430b236b4b760d91b60208201526001549151637af32e3960e11b815290916001600160a01b03169063f5e65c72906102d1903390859060040161161e565b60206040518083038186803b1580156102e957600080fd5b505afa1580156102fd573d6000803e3d6000fd5b505050506040513d601f19601f8201168201806040525081019061032191906114c3565b6103465760405162461bcd60e51b815260040161033d906117a3565b60405180910390fd5b6001600160a01b038616600090815260026020526040902054600160a01b90046001600160401b03161561038c5760405162461bcd60e51b815260040161033d9061167f565b506001600160a01b039485166000908152600260208190526040909120805460018201805467ffffffffffffffff19166001600160401b03968716179055918101929092556c0c9f2c9cd04674edea40000000600383015567ffffffffffffffff60a01b1916600160a01b9390921692909202176001600160a01b03191691909216179055565b6000610420826000611091565b90506001600160a01b038216610466576040513390819083156108fc029084906000818181858888f1935050505015801561045f573d6000803e3d6000fd5b505061050d565b61048c604051806040016040528060058152602001642a37b5b2b760d91b815250610ee5565b6001600160a01b031663a9059cbb33836040518363ffffffff1660e01b81526004016104b992919061164a565b602060405180830381600087803b1580156104d357600080fd5b505af11580156104e7573d6000803e3d6000fd5b505050506040513d601f19601f8201168201806040525081019061050b91906114c3565b505b5050565b604080518082018252600581526430b236b4b760d91b60208201526001549151637af32e3960e11b815290916001600160a01b03169063f5e65c729061055d903390859060040161161e565b60206040518083038186803b15801561057557600080fd5b505afa158015610589573d6000803e3d6000fd5b505050506040513d601f19601f820116820180604052508101906105ad91906114c3565b6105c95760405162461bcd60e51b815260040161033d906117a3565b6001600160a01b038316600090815260026020526040902054600160a01b90046001600160401b031661060e5760405162461bcd60e51b815260040161033d906116ff565b506001600160a01b03909116600090815260026020526040902060030155565b604080518082018252600581526430b236b4b760d91b60208201526001549151637af32e3960e11b815290916001600160a01b03169063f5e65c729061067a903390859060040161161e565b60206040518083038186803b15801561069257600080fd5b505afa1580156106a6573d6000803e3d6000fd5b505050506040513d601f19601f820116820180604052508101906106ca91906114c3565b6106e65760405162461bcd60e51b815260040161033d906117a3565b6001600160a01b038216600090815260026020526040902060018101548154429291610726916001600160401b0391821691600160a01b90910416611949565b6001600160401b0316821061074d5760405162461bcd60e51b815260040161033d9061172c565b8054600090600160a01b90046001600160401b0316831015610791575060028101805460009091556001808301805467ffffffffffffffff19169091179055610830565b600182015482546000916001600160401b03908116916107ba91600160a01b9091041686611a97565b84600201546107c99190611a39565b6107d391906119a2565b90508083600201546107e59190611a97565b60028401829055835490925061080b90600160a01b90046001600160401b031685611a97565b60018401805467ffffffffffffffff19166001600160401b0392909216919091179055505b6001600160a01b0385166108a7576000610867604051806040016040528060068152602001652a32b63632b960d11b815250610ee5565b6040519091506001600160a01b0382169083156108fc029084906000818181858888f193505050501580156108a0573d6000803e3d6000fd5b5050610974565b6108cd604051806040016040528060058152602001642a37b5b2b760d91b815250610ee5565b6001600160a01b031663a9059cbb610902604051806040016040528060068152602001652a32b63632b960d11b815250610ee5565b836040518363ffffffff1660e01b815260040161092092919061164a565b602060405180830381600087803b15801561093a57600080fd5b505af115801561094e573d6000803e3d6000fd5b505050506040513d601f19601f8201168201806040525081019061097291906114c3565b505b5050505050565b6002600354141561099e5760405162461bcd60e51b815260040161033d90611876565b600260038190556001600160a01b0384811660009081526020929092526040909120805490918481169116146109e65760405162461bcd60e51b815260040161033d906116ac565b60008381841315610a7a576040516323b872dd60e01b81526001600160a01b038216906323b872dd90610a21903390309089906004016115fa565b602060405180830381600087803b158015610a3b57600080fd5b505af1158015610a4f573d6000803e3d6000fd5b505050506040513d601f19601f82011682018060405250810190610a7391906114c3565b9150610b05565b6001600160a01b03811663a9059cbb33610a9387611aae565b6040518363ffffffff1660e01b8152600401610ab092919061164a565b602060405180830381600087803b158015610aca57600080fd5b505af1158015610ade573d6000803e3d6000fd5b505050506040513d601f19601f82011682018060405250810190610b0291906114c3565b91505b81610b225760405162461bcd60e51b815260040161033d906117c6565b610b2d8633866110f8565b5050600160035550505050565b6001600160a01b03831660009081526002602052604081208054600160a01b90046001600160401b03164211610b74576000915050610c8d565b6001600160a01b0384166000908152600682016020908152604080832054600785019092529091205481610bb557610bab81611aae565b9350505050610c8d565b84610bbe574294505b60018301548354600091610be6916001600160401b0391821691600160a01b90910416611949565b6001600160401b0316861015610c4a576005840154600185015485546001600160401b0391821691610c2091600160a01b90041689611a97565b8660020154610c2f9190611a39565b610c3991906119a2565b610c439190611908565b9050610c61565b83600501548460020154610c5e9190611908565b90505b60048401548290610c7285846119b6565b610c7c9190611974565b610c869190611a58565b9450505050505b9392505050565b604080518082018252600581526430b236b4b760d91b60208201526001549151637af32e3960e11b815290916001600160a01b03169063f5e65c7290610ce0903390859060040161161e565b60206040518083038186803b158015610cf857600080fd5b505afa158015610d0c573d6000803e3d6000fd5b505050506040513d601f19601f82011682018060405250810190610d3091906114c3565b610d4c5760405162461bcd60e51b815260040161033d906117a3565b6001600160a01b038216600090815260026020526040902054600160a01b90046001600160401b0316610d915760405162461bcd60e51b815260040161033d906116ff565b6001600160a01b03821660009081526002602081905260409091209081015415610dcd5760405162461bcd60e51b815260040161033d90611752565b50506001600160a01b03166000908152600260208190526040822080546001600160e01b031916815560018101805467ffffffffffffffff19169055908101829055600381018290556004810182905560050155565b610e2b61130f565b6001600160a01b038316600090815260026020526040902054600160a01b90046001600160401b031615610edf576001600160a01b0380841660009081526002602081815260408084209487168085526006860183528185205460a08801528452600785018252928390205460c08601526005840154608086015260048401546060860152908301549184019190915260018201546001600160401b03908116918401919091529054600160a01b90041681525b92915050565b6001546040516334abd05960e11b81526000916001600160a01b031690636957a0b290610f1690859060040161166c565b60206040518083038186803b158015610f2e57600080fd5b505afa158015610f42573d6000803e3d6000fd5b505050506040513d601f19601f82011682018060405250810190610f669190611391565b90505b919050565b60026003541415610f915760405162461bcd60e51b815260040161033d90611876565b60026003556000811315610fc357803414610fbe5760405162461bcd60e51b815260040161033d9061184b565b610ffc565b33806108fc610fd184611aae565b6040518115909202916000818181858888f19350505050158015610ff9573d6000803e3d6000fd5b50505b611008600033836110f8565b506001600355565b6000546001600160a01b031681565b6000546001600160a01b031633146110495760405162461bcd60e51b815260040161033d90611814565b6001600160a01b03811661106f5760405162461bcd60e51b815260040161033d906117ee565b600180546001600160a01b0319166001600160a01b0392909216919091179055565b60008061109f843385610b3a565b905060008113156110ee576001600160a01b0384166000908152600260209081526040808320338452600701909152812080548392906110e0908490611908565b90915550909150610edf9050565b5060009392505050565b6001600160a01b03831660009081526002602052604090208054600160a01b90046001600160401b031661113e5760405162461bcd60e51b815260040161033d906116ff565b6001600160a01b0383166000908152600682016020526040812054611164908490611908565b90506000811215801561117a5750816003015481125b6111965760405162461bcd60e51b815260040161033d906116d7565b81544290600160a01b90046001600160401b0316811180156111bb5750600483015415155b156112d157600183015483546000916111e8916001600160401b0391821691600160a01b90910416611949565b6001600160401b031682101561124c576005840154600185015485546001600160401b039182169161122291600160a01b90041685611a97565b86600201546112319190611a39565b61123b91906119a2565b6112459190611908565b9050611263565b836005015484600201546112609190611908565b90505b600484015460009061127587846119b6565b61127f9190611974565b6001600160a01b03881660009081526007870160205260408120805492935083929091906112ae908490611908565b92505081905550808560050160008282546112c99190611908565b909155505050505b6001600160a01b03851660009081526006840160205260408120839055600484018054869290611302908490611908565b9091555050505050505050565b6040518060e0016040528060006001600160401b0316815260200160006001600160401b0316815260200160008152602001600081526020016000815260200160008152602001600081525090565b80356001600160401b0381168114610f6957600080fd5b600060208284031215611386578081fd5b8135610c8d81611b0a565b6000602082840312156113a2578081fd5b8151610c8d81611b0a565b600080604083850312156113bf578081fd5b82356113ca81611b0a565b915060208301356113da81611b0a565b809150509250929050565b6000806000606084860312156113f9578081fd5b833561140481611b0a565b9250602084013561141481611b0a565b929592945050506040919091013590565b6000806000606084860312156113f9578283fd5b600080600080600060a08688031215611450578081fd5b853561145b81611b0a565b9450602086013561146b81611b0a565b93506114796040870161135e565b92506114876060870161135e565b949793965091946080013592915050565b600080604083850312156114aa578182fd5b82356114b581611b0a565b946020939093013593505050565b6000602082840312156114d4578081fd5b81518015158114610c8d578182fd5b6000602082840312156114f4578081fd5b5035919050565b6000602080838503121561150d578182fd5b82356001600160401b0380821115611523578384fd5b818501915085601f830112611536578384fd5b81358181111561154857611548611af4565b604051601f8201601f191681018501838111828210171561156b5761156b611af4565b6040528181528382018501881015611581578586fd5b818585018683013790810190930193909352509392505050565b60008151808452815b818110156115c0576020818501810151868301820152016115a4565b818111156115d15782602083870101525b50601f01601f19169290920160200192915050565b6001600160a01b0391909116815260200190565b6001600160a01b039384168152919092166020820152604081019190915260600190565b6001600160a01b03831681526040602082018190526000906116429083018461159b565b949350505050565b6001600160a01b03929092168252602082015260400190565b90815260200190565b600060208252610c8d602083018461159b565b602080825260139082015272506f6f6c20616c72656164792065786973747360681b604082015260600190565b60208082526011908201527024b73b30b634b2103a37b5b2b720b2323960791b604082015260600190565b6020808252600e908201526d1a5b9d985b1a5908185b5bdd5b9d60921b604082015260600190565b602080825260139082015272141bdbdb08191bd95cc81b9bdd08195e1a5cdd606a1b604082015260600190565b6020808252600c908201526b39ba30b5b4b7339037bb32b960a11b604082015260600190565b60208082526031908201527f506f6f6c732074686174206861766520616c726561647920737461727465642060408201527018d85b9b9bdd0818994819195b195d1959607a1b606082015260800190565b6020808252600990820152681b9bc81c195c9b5a5d60ba1b604082015260600190565b6020808252600e908201526d14185e5b595b9d0819985a5b195960921b604082015260600190565b6020808252600c908201526b7a65726f206164647265737360a01b604082015260600190565b60208082526019908201527f6f6e6c7920616c6c6f7720636f6e7472616374206f776e657200000000000000604082015260600190565b602080825260119082015270696e76616c6964206d73672e76616c756560781b604082015260600190565b6020808252601f908201527f5265656e7472616e637947756172643a207265656e7472616e742063616c6c00604082015260600190565b600060e0820190506001600160401b038084511683528060208501511660208401525060408301516040830152606083015160608301526080830151608083015260a083015160a083015260c083015160c083015292915050565b600080821280156001600160ff1b038490038513161561192a5761192a611ac8565b600160ff1b839003841281161561194357611943611ac8565b50500190565b60006001600160401b0380831681851680830382111561196b5761196b611ac8565b01949350505050565b60008261198357611983611ade565b600160ff1b82146000198414161561199d5761199d611ac8565b500590565b6000826119b1576119b1611ade565b500490565b60006001600160ff1b03818413828413808216868404861116156119dc576119dc611ac8565b600160ff1b848712828116878305891216156119fa576119fa611ac8565b858712925087820587128484161615611a1557611a15611ac8565b87850587128184161615611a2b57611a2b611ac8565b505050929093029392505050565b6000816000190483118215151615611a5357611a53611ac8565b500290565b60008083128015600160ff1b850184121615611a7657611a76611ac8565b6001600160ff1b0384018313811615611a9157611a91611ac8565b50500390565b600082821015611aa957611aa9611ac8565b500390565b6000600160ff1b821415611ac457611ac4611ac8565b0390565b634e487b7160e01b600052601160045260246000fd5b634e487b7160e01b600052601260045260246000fd5b634e487b7160e01b600052604160045260246000fd5b6001600160a01b0381168114611b1f57600080fd5b5056fea2646970667358221220b1d6b9fd0a6bf74d5c6a83fa9425b53d266379d586b9b1909a859f0f2373b2b064736f6c63430008000033",
  "immutableReferences": {},
  "source": "pragma solidity ^0.8.0;\n\n// SPDX-License-Identifier: MIT\n\nimport \"./include/IERC20.sol\";\nimport \"./lib/MultiStakeBase.sol\";\nimport \"./lib/ReentrancyGuard.sol\";\n\ncontract StakeMine is MultiStakeBase, ReentrancyGuard {\n    function staking(int256 amount) external nonReentrant payable {\n        if (amount > 0) {\n            require(msg.value == uint256(amount), \"invalid msg.value\");\n        } else {\n            address payable recipient = payable(msg.sender);\n            recipient.transfer(uint256(-amount));\n        }\n        _staking(address(0), msg.sender, amount);\n    }\n\n    function staking(\n        address poolAddr,\n        address tokenAddr,\n        int256 amount\n    ) external nonReentrant {\n        Pool storage pool = pools[poolAddr];\n        require(pool.token == tokenAddr, \"Invalid tokenAddr\");\n        bool success;\n        IERC20 token = IERC20(tokenAddr);\n        if (amount > 0) {\n            success = token.transferFrom(msg.sender, address(this), uint256(amount));\n        } else {\n            success = token.transfer(msg.sender, uint256(-amount));\n        }\n        require(success, \"Payment failed\");\n        _staking(poolAddr, msg.sender, amount);\n    }\n\n    function withdraw(address poolAddr) external {\n        uint256 reward = _withdraw(poolAddr, 0);\n        if (poolAddr == address(0)) {\n            address payable recipient = payable(msg.sender);\n            recipient.transfer(reward);\n        } else {\n            IERC20(getAddress(\"Token\")).transfer(msg.sender, reward);\n        }\n    }\n}\n",
  "sourcePath": "/Users/necklace/work/Legend/Legend/contracts/StakeMine.sol",
  "compiler": {
    "name": "solc",
    "version": "0.8.0+commit.c7dfd78e.Darwin.appleclang"
  },
  "schemaVersion": "3.4.3",
  "updatedAt": "2022-03-25T17:08:34.135Z",
  "networkType": "ethereum",
  "devdoc": {
    "kind": "dev",
    "methods": {},
    "version": 1
  },
  "userdoc": {
    "kind": "user",
    "methods": {},
    "version": 1
  }
}