{
  "contractName": "Store",
  "abi": [
    {
      "inputs": [],
      "name": "chargeRatio",
      "outputs": [
        {
          "internalType": "uint256",
          "name": "",
          "type": "uint256"
        }
      ],
      "stateMutability": "view",
      "type": "function"
    },
    {
      "inputs": [],
      "name": "contractOwner",
      "outputs": [
        {
          "internalType": "address",
          "name": "",
          "type": "address"
        }
      ],
      "stateMutability": "view",
      "type": "function"
    },
    {
      "inputs": [
        {
          "internalType": "string",
          "name": "key",
          "type": "string"
        }
      ],
      "name": "getAddress",
      "outputs": [
        {
          "internalType": "address",
          "name": "",
          "type": "address"
        }
      ],
      "stateMutability": "view",
      "type": "function"
    },
    {
      "inputs": [
        {
          "internalType": "uint256",
          "name": "",
          "type": "uint256"
        }
      ],
      "name": "goods",
      "outputs": [
        {
          "internalType": "address",
          "name": "settlementCurrency",
          "type": "address"
        },
        {
          "internalType": "address",
          "name": "contractAddress",
          "type": "address"
        },
        {
          "internalType": "uint32",
          "name": "quantityCount",
          "type": "uint32"
        },
        {
          "internalType": "uint32",
          "name": "quantitySold",
          "type": "uint32"
        },
        {
          "internalType": "uint256",
          "name": "unitPrice",
          "type": "uint256"
        },
        {
          "internalType": "bytes",
          "name": "data",
          "type": "bytes"
        }
      ],
      "stateMutability": "view",
      "type": "function"
    },
    {
      "inputs": [],
      "name": "manager",
      "outputs": [
        {
          "internalType": "contract Manager",
          "name": "",
          "type": "address"
        }
      ],
      "stateMutability": "view",
      "type": "function"
    },
    {
      "inputs": [
        {
          "internalType": "address",
          "name": "addr",
          "type": "address"
        }
      ],
      "name": "setManager",
      "outputs": [],
      "stateMutability": "nonpayable",
      "type": "function"
    },
    {
      "inputs": [
        {
          "internalType": "uint256",
          "name": "rate",
          "type": "uint256"
        }
      ],
      "name": "setChargeRatio",
      "outputs": [],
      "stateMutability": "nonpayable",
      "type": "function"
    },
    {
      "inputs": [
        {
          "components": [
            {
              "internalType": "address",
              "name": "settlementCurrency",
              "type": "address"
            },
            {
              "internalType": "address",
              "name": "contractAddress",
              "type": "address"
            },
            {
              "internalType": "uint32",
              "name": "quantityCount",
              "type": "uint32"
            },
            {
              "internalType": "uint32",
              "name": "quantitySold",
              "type": "uint32"
            },
            {
              "internalType": "uint256",
              "name": "unitPrice",
              "type": "uint256"
            },
            {
              "internalType": "bytes",
              "name": "data",
              "type": "bytes"
            }
          ],
          "internalType": "struct Store.GoodsInfo",
          "name": "goodsInfo",
          "type": "tuple"
        },
        {
          "internalType": "uint256",
          "name": "goodsId",
          "type": "uint256"
        }
      ],
      "name": "addGoods",
      "outputs": [],
      "stateMutability": "nonpayable",
      "type": "function"
    },
    {
      "inputs": [
        {
          "internalType": "uint256",
          "name": "goodsId",
          "type": "uint256"
        }
      ],
      "name": "delGoods",
      "outputs": [],
      "stateMutability": "nonpayable",
      "type": "function"
    },
    {
      "inputs": [
        {
          "internalType": "uint256",
          "name": "goodsId",
          "type": "uint256"
        },
        {
          "internalType": "uint256",
          "name": "quantity",
          "type": "uint256"
        }
      ],
      "name": "buy",
      "outputs": [],
      "stateMutability": "nonpayable",
      "type": "function"
    },
    {
      "inputs": [
        {
          "internalType": "address",
          "name": "",
          "type": "address"
        },
        {
          "internalType": "address",
          "name": "from",
          "type": "address"
        },
        {
          "internalType": "uint256",
          "name": "value",
          "type": "uint256"
        },
        {
          "internalType": "bytes",
          "name": "data",
          "type": "bytes"
        }
      ],
      "name": "onTransferReceived",
      "outputs": [
        {
          "internalType": "bytes4",
          "name": "",
          "type": "bytes4"
        }
      ],
      "stateMutability": "nonpayable",
      "type": "function"
    },
    {
      "inputs": [
        {
          "internalType": "bytes4",
          "name": "interfaceId",
          "type": "bytes4"
        }
      ],
      "name": "supportsInterface",
      "outputs": [
        {
          "internalType": "bool",
          "name": "",
          "type": "bool"
        }
      ],
      "stateMutability": "pure",
      "type": "function"
    }
  ],
  "bytecode": "0x6080604052600080546001600160a01b03191633179055601460035534801561002757600080fd5b50611bdb806100376000396000f3fe608060405234801561001057600080fd5b50600436106100b45760003560e01c8063bf40fac111610071578063bf40fac114610164578063ce606ee014610177578063d0ebdbe71461017f578063d6febde814610192578063eb8d6a96146101a5578063f26b013a146101b8576100b4565b806301ffc9a7146100b95780632f724394146100e25780633fe5b20b14610107578063481c6a751461011c57806388a7ca5c14610131578063953bf8a214610151575b600080fd5b6100cc6100c7366004611352565b6101cd565b6040516100d9919061164e565b60405180910390f35b6100f56100f0366004611462565b6101e6565b6040516100d99695949392919061151e565b61011a61011536600461141b565b6102bf565b005b6101246103c1565b6040516100d991906114e6565b61014461013f36600461126b565b6103d0565b6040516100d99190611659565b61011a61015f366004611462565b6104b8565b61012461017236600461137a565b610576565b6101246105fd565b61011a61018d36600461122c565b61060c565b61011a6101a036600461147a565b61067e565b61011a6101b3366004611462565b610dc1565b6101c0610ee3565b6040516100d9919061181d565b6001600160e01b03198116632229f29760e21b14919050565b600260208190526000918252604090912080546001820154928201546003830180546001600160a01b03938416959384169463ffffffff600160a01b8604811695600160c01b9004169392909161023c906119fe565b80601f0160208091040260200160405190810160405280929190818152602001828054610268906119fe565b80156102b55780601f1061028a576101008083540402835291602001916102b5565b820191906000526020600020905b81548152906001019060200180831161029857829003601f168201915b5050505050905086565b604080518082018252600581526430b236b4b760d91b60208201526001549151637af32e3960e11b815290916001600160a01b03169063f5e65c729061030b9033908590600401611571565b60206040518083038186803b15801561032357600080fd5b505afa158015610337573d6000803e3d6000fd5b505050506040513d601f19601f8201168201806040525081019061035b9190611332565b6103805760405162461bcd60e51b81526004016103779061170e565b60405180910390fd5b600082116103a05760405162461bcd60e51b815260040161037790611760565b600082815260026020526040902083906103ba8282611aad565b5050505050565b6001546001600160a01b031681565b60006103f8604051806040016040528060058152602001642a37b5b2b760d91b815250610576565b6001600160a01b0316336001600160a01b031614156104a55760008383600081811061043457634e487b7160e01b600052603260045260246000fd5b919091013560f81c9050600981111561045d57634e487b7160e01b600052602160045260246000fd5b905080600981111561047f57634e487b7160e01b600052602160045260246000fd5b60081415610499576104948686338787610ee9565b6104a3565b50600090506104af565b505b50632229f29760e21b5b95945050505050565b604080518082018252600581526430b236b4b760d91b60208201526001549151637af32e3960e11b815290916001600160a01b03169063f5e65c72906105049033908590600401611571565b60206040518083038186803b15801561051c57600080fd5b505afa158015610530573d6000803e3d6000fd5b505050506040513d601f19601f820116820180604052508101906105549190611332565b6105705760405162461bcd60e51b81526004016103779061170e565b50600355565b6001546040516334abd05960e11b81526000916001600160a01b031690636957a0b2906105a790859060040161166e565b60206040518083038186803b1580156105bf57600080fd5b505afa1580156105d3573d6000803e3d6000fd5b505050506040513d601f19601f820116820180604052508101906105f7919061124f565b92915050565b6000546001600160a01b031681565b6000546001600160a01b031633146106365760405162461bcd60e51b8152600401610377906117af565b6001600160a01b03811661065c5760405162461bcd60e51b815260040161037790611789565b600180546001600160a01b0319166001600160a01b0392909216919091179055565b6000828152600260205260409020600101546106b09063ffffffff600160c01b8204811691600160a01b9004166118c8565b63ffffffff168111156106d55760405162461bcd60e51b8152600401610377906116e4565b6000828152600260208190526040822080549101546001600160a01b03909116918291610703908590611892565b9050600061072d604051806040016040528060058152602001642a37b5b2b760d91b815250610576565b6001600160a01b0316846001600160a01b031614156108fb576040516323b872dd60e01b81526001600160a01b038416906323b872dd90610776903390309087906004016114fa565b602060405180830381600087803b15801561079057600080fd5b505af11580156107a4573d6000803e3d6000fd5b505050506040513d601f19601f820116820180604052508101906107c89190611332565b905080156108f657604051630852cd8d60e31b81526001600160a01b038516906342966c68906107fc90859060040161181d565b600060405180830381600087803b15801561081657600080fd5b505af115801561082a573d6000803e3d6000fd5b50505060008781526002602052604090819020600181015491516394d008ef60e01b81526001600160a01b0390921692506394d008ef916108759133918a91600301906004016115b6565b600060405180830381600087803b15801561088f57600080fd5b505af11580156108a3573d6000803e3d6000fd5b505050600087815260026020526040902060010180548792506018906108d7908490600160c01b900463ffffffff1661184a565b92506101000a81548163ffffffff021916908363ffffffff1602179055505b610db9565b600061092360405180604001604052806005815260200164426f6e757360d81b815250610576565b90506000806064600354866109389190611892565b6109429190611872565b9050856001600160a01b03166323b872dd3361097b604051806040016040528060068152602001652a32b63632b960d11b815250610576565b846040518463ffffffff1660e01b815260040161099a939291906114fa565b602060405180830381600087803b1580156109b457600080fd5b505af11580156109c8573d6000803e3d6000fd5b505050506040513d601f19601f820116820180604052508101906109ec9190611332565b93508315610db5576000610a1f60405180604001604052806008815260200167149959995c9c985b60c21b815250610576565b90506001600160a01b03811615610b7357600080826001600160a01b031663967ee121338a6040518363ffffffff1660e01b8152600401610a6192919061159d565b6040805180830381600087803b158015610a7a57600080fd5b505af1158015610a8e573d6000803e3d6000fd5b505050506040513d601f19601f82011682018060405250810190610ab29190611305565b90925090506001600160a01b03821615801590610acf5750600081115b8015610ae35750610ae084896118b1565b81105b15610b7057809450886001600160a01b03166323b872dd3384846040518463ffffffff1660e01b8152600401610b1b939291906114fa565b602060405180830381600087803b158015610b3557600080fd5b505af1158015610b49573d6000803e3d6000fd5b505050506040513d601f19601f82011682018060405250810190610b6d9190611332565b96505b50505b8415610db3576001600160a01b0387166323b872dd338686610b95878c6118b1565b610b9f91906118b1565b6040518463ffffffff1660e01b8152600401610bbd939291906114fa565b602060405180830381600087803b158015610bd757600080fd5b505af1158015610beb573d6000803e3d6000fd5b505050506040513d601f19601f82011682018060405250810190610c0f9190611332565b94508415610db357604051634c0967a160e11b81526001600160a01b03821690639812cf4290610c459033908a9060040161159d565b600060405180830381600087803b158015610c5f57600080fd5b505af1158015610c73573d6000803e3d6000fd5b50505050836001600160a01b0316635ecc7512848489610c9391906118b1565b610c9d91906118b1565b6040518263ffffffff1660e01b8152600401610cb9919061181d565b600060405180830381600087803b158015610cd357600080fd5b505af1158015610ce7573d6000803e3d6000fd5b50505060008b81526002602052604090819020600181015491516394d008ef60e01b81526001600160a01b0390921692506394d008ef91610d329133918e91600301906004016115b6565b600060405180830381600087803b158015610d4c57600080fd5b505af1158015610d60573d6000803e3d6000fd5b50505060008b815260026020526040902060010180548b9250601890610d94908490600160c01b900463ffffffff1661184a565b92506101000a81548163ffffffff021916908363ffffffff1602179055505b505b5050505b505050505050565b604080518082018252600581526430b236b4b760d91b60208201526001549151637af32e3960e11b815290916001600160a01b03169063f5e65c7290610e0d9033908590600401611571565b60206040518083038186803b158015610e2557600080fd5b505afa158015610e39573d6000803e3d6000fd5b505050506040513d601f19601f82011682018060405250810190610e5d9190611332565b610e795760405162461bcd60e51b81526004016103779061170e565b60008211610e995760405162461bcd60e51b815260040161037790611760565b6000828152600260208190526040822080546001600160a01b03191681556001810180546001600160e01b031916905590810182905590610edd60038301826111d4565b50505050565b60035481565b6000610f2d83838080601f01602080910402602001604051908101604052809392919081815260200183838082843760009201919091525060019250611174915050565b90506000610f7384848080601f01602080910402602001604051908101604052809392919081815260200183838082843760009201919091525060219250611174915050565b600083815260026020526040902060010154909150610fa89063ffffffff600160c01b8204811691600160a01b9004166118c8565b63ffffffff16811115610fcd5760405162461bcd60e51b8152600401610377906116e4565b6000828152600260205260409020546001600160a01b038681169116146110065760405162461bcd60e51b8152600401610377906116ad565b600082815260026020819052604082200154611023908390611892565b9050808710156110455760405162461bcd60e51b8152600401610377906117e6565b604051630852cd8d60e31b81526001600160a01b038716906342966c689061107190849060040161181d565b600060405180830381600087803b15801561108b57600080fd5b505af115801561109f573d6000803e3d6000fd5b50505060008481526002602052604090819020600181015491516394d008ef60e01b81526001600160a01b0390921692506394d008ef916110ea918c918791600301906004016115b6565b600060405180830381600087803b15801561110457600080fd5b505af1158015611118573d6000803e3d6000fd5b5050506000848152600260205260409020600101805484925060189061114c908490600160c01b900463ffffffff1661184a565b92506101000a81548163ffffffff021916908363ffffffff1602179055505050505050505050565b600081611182816020611832565b10156111a05760405162461bcd60e51b815260040161037790611681565b6111ab826020611832565b835110156111cb5760405162461bcd60e51b815260040161037790611731565b50016020015190565b5080546111e0906119fe565b6000825580601f106111f25750611210565b601f0160209004906000526020600020908101906112109190611213565b50565b5b808211156112285760008155600101611214565b5090565b60006020828403121561123d578081fd5b813561124881611b90565b9392505050565b600060208284031215611260578081fd5b815161124881611b90565b600080600080600060808688031215611282578081fd5b853561128d81611b90565b9450602086013561129d81611b90565b935060408601359250606086013567ffffffffffffffff808211156112c0578283fd5b818801915088601f8301126112d3578283fd5b8135818111156112e1578384fd5b8960208285010111156112f2578384fd5b9699959850939650602001949392505050565b60008060408385031215611317578182fd5b825161132281611b90565b6020939093015192949293505050565b600060208284031215611343578081fd5b81518015158114611248578182fd5b600060208284031215611363578081fd5b81356001600160e01b031981168114611248578182fd5b6000602080838503121561138c578182fd5b823567ffffffffffffffff808211156113a3578384fd5b818501915085601f8301126113b6578384fd5b8135818111156113c8576113c8611a62565b604051601f8201601f19168101850183811182821017156113eb576113eb611a62565b6040528181528382018501881015611401578586fd5b818585018683013790810190930193909352509392505050565b6000806040838503121561142d578182fd5b823567ffffffffffffffff811115611443578283fd5b830160c08186031215611454578283fd5b946020939093013593505050565b600060208284031215611473578081fd5b5035919050565b6000806040838503121561148c578182fd5b50508035926020909101359150565b60008151808452815b818110156114c0576020818501810151868301820152016114a4565b818111156114d15782602083870101525b50601f01601f19169290920160200192915050565b6001600160a01b0391909116815260200190565b6001600160a01b039384168152919092166020820152604081019190915260600190565b6001600160a01b0387811682528616602082015263ffffffff8581166040830152841660608201526080810183905260c060a082018190526000906115659083018461149b565b98975050505050505050565b6001600160a01b03831681526040602082018190526000906115959083018461149b565b949350505050565b6001600160a01b03929092168252602082015260400190565b600060018060a01b038516825260208481840152606060408401528184546115dd816119fe565b80606087015260806001808416600081146115ff57600181146116135761163e565b60ff1985168984015260a08901955061163e565b898852868820885b858110156116365781548b820186015290830190880161161b565b8a0184019650505b50939a9950505050505050505050565b901515815260200190565b6001600160e01b031991909116815260200190565b600060208252611248602083018461149b565b602080825260129082015271746f55696e743235365f6f766572666c6f7760701b604082015260600190565b60208082526017908201527f496e76616c696420746f6b656e20666f7220676f6f6473000000000000000000604082015260600190565b60208082526010908201526f496e76616c6964207175616e7469747960801b604082015260600190565b6020808252600990820152681b9bc81c195c9b5a5d60ba1b604082015260600190565b602080825260159082015274746f55696e743235365f6f75744f66426f756e647360581b604082015260600190565b6020808252600f908201526e125b9d985b1a590819dbdbd91cd259608a1b604082015260600190565b6020808252600c908201526b7a65726f206164647265737360a01b604082015260600190565b60208082526019908201527f6f6e6c7920616c6c6f7720636f6e7472616374206f776e657200000000000000604082015260600190565b60208082526019908201527f496e73756666696369656e7420616d6f756e7420746f6b656e00000000000000604082015260600190565b90815260200190565b60009081526020902090565b6000821982111561184557611845611a4c565b500190565b600063ffffffff80831681851680830382111561186957611869611a4c565b01949350505050565b60008261188d57634e487b7160e01b81526012600452602481fd5b500490565b60008160001904831182151516156118ac576118ac611a4c565b500290565b6000828210156118c3576118c3611a4c565b500390565b600063ffffffff838116908316818110156118e5576118e5611a4c565b039392505050565b5b8181101561190257600081556001016118ee565b5050565b67ffffffffffffffff83111561191e5761191e611a62565b61192881546119fe565b600080601f8611601f8411818117156119475761194486611826565b92505b8015611976576020601f890104830160208910156119625750825b6119746020601f8801048501826118ed565b505b5080600181146119a257600094508715611991578387013594505b61199b8886611a39565b86556119f4565b601f198816945082845b868110156119cc57888601358255602095860195600190920191016119ac565b50888610156119e957878501356000196008601f8c16021c191681555b506001600289020186555b5050505050505050565b600281046001821680611a1257607f821691505b60208210811415611a3357634e487b7160e01b600052602260045260246000fd5b50919050565b600019600883021c191660029091021790565b634e487b7160e01b600052601160045260246000fd5b634e487b7160e01b600052604160045260246000fd5b6000813563ffffffff811681146105f7578182fd5b80546001600160a01b0319166001600160a01b0392909216919091179055565b8135611ab881611b90565b611ac28183611a8d565b50600181016020830135611ad581611b90565b611adf8183611a8d565b50611aec60408401611a78565b815463ffffffff60a01b191660a09190911b63ffffffff60a01b161780825563ffffffff60c01b611b1f60608601611a78565b60c01b1663ffffffff60c01b19821617825550506080820135600282015560a0820135601e19833603018112611b5457600080fd5b8201803567ffffffffffffffff811115611b6d57600080fd5b602082019150803603821315611b8257600080fd5b610edd818360038601611906565b6001600160a01b038116811461121057600080fdfea26469706673582212208710168addf6bb793db5350c8913ae38334ca8bacf0b9458a02df5b3fbb3df5264736f6c63430008000033",
  "immutableReferences": {},
  "source": "// SPDX-License-Identifier: MIT\npragma solidity ^0.8.0;\npragma abicoder v2;\n\nimport \"./lib/Permission.sol\";\nimport \"./include/IERC20.sol\";\nimport \"./include/IERC20OP.sol\";\nimport \"./include/IBonusPool.sol\";\nimport \"./include/IStoreOP.sol\";\nimport \"./include/IERC1363Receiver.sol\";\nimport \"./include/IERC165.sol\";\nimport \"./lib/Utils.sol\";\nimport \"./include/IReferral.sol\";\nimport \"./include/IReferralUpdate.sol\";\n\ncontract Store is Permission, IERC1363Receiver, IERC165 {\n    struct GoodsInfo {\n        //\n        address settlementCurrency;\n        //\n        address contractAddress;\n        //\n        uint32 quantityCount;\n        //\n        uint32 quantitySold;\n        //\n        uint256 unitPrice;\n        //\n        bytes data;\n    }\n\n    // id => \n    mapping(uint256 => GoodsInfo) public goods;\n\n    //\n    uint256 public chargeRatio = 20;\n\n    function setChargeRatio(uint256 rate) public CheckPermit(\"admin\") {\n        chargeRatio = rate;\n    }\n\n    function addGoods(GoodsInfo calldata goodsInfo, uint256 goodsId) external CheckPermit(\"admin\") {\n        require(goodsId > 0, \"Invalid goodsId\");\n        goods[goodsId] = goodsInfo;\n    }\n\n    function delGoods(uint256 goodsId) external CheckPermit(\"admin\") {\n        require(goodsId > 0, \"Invalid goodsId\");\n        delete goods[goodsId];\n    }\n\n    function buy(uint256 goodsId, uint256 quantity) public virtual {\n        require(quantity <= goods[goodsId].quantityCount - goods[goodsId].quantitySold, \"Invalid quantity\");\n        address tokenAddress = goods[goodsId].settlementCurrency;\n        IERC20 token = IERC20(tokenAddress);\n        uint256 amount = goods[goodsId].unitPrice * quantity;\n        bool success;\n        if (tokenAddress == getAddress(\"Token\")) {\n            success = token.transferFrom(msg.sender, address(this), amount);\n            if (success) {\n                //\n                IERC20OP(tokenAddress).burn(amount);\n                //\n                IStoreOP(goods[goodsId].contractAddress).mint(msg.sender, quantity, goods[goodsId].data);\n                goods[goodsId].quantitySold += uint32(quantity);\n            }\n        } else {\n            address bonus = getAddress(\"Bonus\");\n            //\n            uint256 comm;\n            //\n            uint256 fee = (amount * chargeRatio) / 100;\n            success = token.transferFrom(msg.sender, getAddress(\"Teller\"), fee);\n            if (success) {\n                //\n                address refAddr = getAddress(\"Referral\");\n                if (refAddr != address(0)) {\n                    (address ref, uint256 commission) = IReferral(refAddr).getCommission(msg.sender, amount);\n                    if (ref != address(0) && commission > 0 && commission < amount - fee) {\n                        comm = commission;\n                        //\n                        success = token.transferFrom(msg.sender, ref, commission);\n                    }\n                }\n                if (success) {\n                    //\n                    success = token.transferFrom(msg.sender, bonus, amount - fee - comm);\n                    if (success) {\n                        //\n                        IReferralUpdate(refAddr).updateConsume(msg.sender, amount);\n                        //\n                        IBonusPool(bonus).injectCapital(amount - fee - comm);\n                        //\n                        IStoreOP(goods[goodsId].contractAddress).mint(msg.sender, quantity, goods[goodsId].data);\n                        goods[goodsId].quantitySold += uint32(quantity);\n                    }\n                }\n            }\n        }\n    }\n\n    function _buy(\n        address sender,\n        uint256 value,\n        address tokenAddr,\n        bytes calldata data\n    ) internal virtual {\n        uint256 goodsId = Utils.toUint256(data, 1);\n        uint256 quantity = Utils.toUint256(data, 33);\n        require(quantity <= goods[goodsId].quantityCount - goods[goodsId].quantitySold, \"Invalid quantity\");\n        require(tokenAddr == goods[goodsId].settlementCurrency, \"Invalid token for goods\");\n\n        uint256 amount = goods[goodsId].unitPrice * quantity;\n        require(value >= amount, \"Insufficient amount token\");\n\n        //\n        IERC20OP(tokenAddr).burn(amount);\n        //\n        IStoreOP(goods[goodsId].contractAddress).mint(sender, quantity, goods[goodsId].data);\n        goods[goodsId].quantitySold += uint32(quantity);\n    }\n\n    function onTransferReceived(\n        address,\n        address from,\n        uint256 value,\n        bytes calldata data\n    ) public override returns (bytes4) {\n        if (msg.sender == getAddress(\"Token\")) {\n            Operate op = Operate(uint8(data[0]));\n            if (Operate.BuyProps == op) {\n                //\n                _buy(from, value, msg.sender, data);\n            } else {\n                return 0;\n            }\n        }\n        return IERC1363Receiver(this).onTransferReceived.selector;\n    }\n\n    function supportsInterface(bytes4 interfaceId) public pure override returns (bool) {\n        return interfaceId == type(IERC1363Receiver).interfaceId;\n    }\n}\n",
  "sourcePath": "/Users/necklace/work/Legend/Legend/contracts/Store.sol",
  "compiler": {
    "name": "solc",
    "version": "0.8.0+commit.c7dfd78e.Darwin.appleclang"
  },
  "schemaVersion": "3.4.3",
  "updatedAt": "2022-03-25T17:08:34.315Z",
  "networkType": "ethereum",
  "devdoc": {
    "kind": "dev",
    "methods": {},
    "version": 1
  },
  "userdoc": {
    "kind": "user",
    "methods": {},
    "version": 1
  }
}