{
  "contractName": "Totem",
  "abi": [
    {
      "inputs": [
        {
          "internalType": "string",
          "name": "name",
          "type": "string"
        },
        {
          "internalType": "string",
          "name": "symbol",
          "type": "string"
        }
      ],
      "stateMutability": "nonpayable",
      "type": "constructor"
    },
    {
      "anonymous": false,
      "inputs": [
        {
          "indexed": true,
          "internalType": "address",
          "name": "_owner",
          "type": "address"
        },
        {
          "indexed": true,
          "internalType": "address",
          "name": "_approved",
          "type": "address"
        },
        {
          "indexed": true,
          "internalType": "uint256",
          "name": "_tokenId",
          "type": "uint256"
        }
      ],
      "name": "Approval",
      "type": "event"
    },
    {
      "anonymous": false,
      "inputs": [
        {
          "indexed": true,
          "internalType": "address",
          "name": "_owner",
          "type": "address"
        },
        {
          "indexed": true,
          "internalType": "address",
          "name": "_operator",
          "type": "address"
        },
        {
          "indexed": false,
          "internalType": "bool",
          "name": "_approved",
          "type": "bool"
        }
      ],
      "name": "ApprovalForAll",
      "type": "event"
    },
    {
      "anonymous": false,
      "inputs": [
        {
          "indexed": true,
          "internalType": "address",
          "name": "_from",
          "type": "address"
        },
        {
          "indexed": true,
          "internalType": "address",
          "name": "_to",
          "type": "address"
        },
        {
          "indexed": true,
          "internalType": "uint256",
          "name": "_tokenId",
          "type": "uint256"
        }
      ],
      "name": "Transfer",
      "type": "event"
    },
    {
      "inputs": [
        {
          "internalType": "address",
          "name": "to",
          "type": "address"
        },
        {
          "internalType": "uint256",
          "name": "tokenId",
          "type": "uint256"
        }
      ],
      "name": "approve",
      "outputs": [],
      "stateMutability": "payable",
      "type": "function",
      "payable": true
    },
    {
      "inputs": [
        {
          "internalType": "address",
          "name": "owner",
          "type": "address"
        }
      ],
      "name": "balanceOf",
      "outputs": [
        {
          "internalType": "uint256",
          "name": "",
          "type": "uint256"
        }
      ],
      "stateMutability": "view",
      "type": "function",
      "constant": true
    },
    {
      "inputs": [],
      "name": "contractOwner",
      "outputs": [
        {
          "internalType": "address",
          "name": "",
          "type": "address"
        }
      ],
      "stateMutability": "view",
      "type": "function",
      "constant": true
    },
    {
      "inputs": [
        {
          "internalType": "string",
          "name": "key",
          "type": "string"
        }
      ],
      "name": "getAddress",
      "outputs": [
        {
          "internalType": "address",
          "name": "",
          "type": "address"
        }
      ],
      "stateMutability": "view",
      "type": "function",
      "constant": true
    },
    {
      "inputs": [
        {
          "internalType": "uint256",
          "name": "tokenId",
          "type": "uint256"
        }
      ],
      "name": "getApproved",
      "outputs": [
        {
          "internalType": "address",
          "name": "",
          "type": "address"
        }
      ],
      "stateMutability": "view",
      "type": "function",
      "constant": true
    },
    {
      "inputs": [
        {
          "internalType": "address",
          "name": "owner",
          "type": "address"
        },
        {
          "internalType": "address",
          "name": "operator",
          "type": "address"
        }
      ],
      "name": "isApprovedForAll",
      "outputs": [
        {
          "internalType": "bool",
          "name": "",
          "type": "bool"
        }
      ],
      "stateMutability": "view",
      "type": "function",
      "constant": true
    },
    {
      "inputs": [
        {
          "internalType": "uint256",
          "name": "",
          "type": "uint256"
        }
      ],
      "name": "lockTokens",
      "outputs": [
        {
          "internalType": "uint256",
          "name": "",
          "type": "uint256"
        }
      ],
      "stateMutability": "view",
      "type": "function",
      "constant": true
    },
    {
      "inputs": [],
      "name": "manager",
      "outputs": [
        {
          "internalType": "contract Manager",
          "name": "",
          "type": "address"
        }
      ],
      "stateMutability": "view",
      "type": "function",
      "constant": true
    },
    {
      "inputs": [],
      "name": "name",
      "outputs": [
        {
          "internalType": "string",
          "name": "",
          "type": "string"
        }
      ],
      "stateMutability": "view",
      "type": "function",
      "constant": true
    },
    {
      "inputs": [
        {
          "internalType": "uint256",
          "name": "tokenId",
          "type": "uint256"
        }
      ],
      "name": "ownerOf",
      "outputs": [
        {
          "internalType": "address",
          "name": "",
          "type": "address"
        }
      ],
      "stateMutability": "view",
      "type": "function",
      "constant": true
    },
    {
      "inputs": [
        {
          "internalType": "address",
          "name": "from",
          "type": "address"
        },
        {
          "internalType": "address",
          "name": "to",
          "type": "address"
        },
        {
          "internalType": "uint256",
          "name": "tokenId",
          "type": "uint256"
        },
        {
          "internalType": "bytes",
          "name": "data",
          "type": "bytes"
        }
      ],
      "name": "safeTransferFrom",
      "outputs": [],
      "stateMutability": "payable",
      "type": "function",
      "payable": true
    },
    {
      "inputs": [
        {
          "internalType": "address",
          "name": "to",
          "type": "address"
        },
        {
          "internalType": "bool",
          "name": "approved",
          "type": "bool"
        }
      ],
      "name": "setApprovalForAll",
      "outputs": [],
      "stateMutability": "nonpayable",
      "type": "function"
    },
    {
      "inputs": [
        {
          "internalType": "address",
          "name": "addr",
          "type": "address"
        }
      ],
      "name": "setManager",
      "outputs": [],
      "stateMutability": "nonpayable",
      "type": "function"
    },
    {
      "inputs": [
        {
          "internalType": "bytes4",
          "name": "interfaceID",
          "type": "bytes4"
        }
      ],
      "name": "supportsInterface",
      "outputs": [
        {
          "internalType": "bool",
          "name": "",
          "type": "bool"
        }
      ],
      "stateMutability": "pure",
      "type": "function",
      "constant": true
    },
    {
      "inputs": [],
      "name": "symbol",
      "outputs": [
        {
          "internalType": "string",
          "name": "",
          "type": "string"
        }
      ],
      "stateMutability": "view",
      "type": "function",
      "constant": true
    },
    {
      "inputs": [
        {
          "internalType": "address",
          "name": "owner",
          "type": "address"
        },
        {
          "internalType": "uint256",
          "name": "startIndex",
          "type": "uint256"
        },
        {
          "internalType": "uint256",
          "name": "endIndex",
          "type": "uint256"
        }
      ],
      "name": "tokensOf",
      "outputs": [
        {
          "internalType": "uint256[]",
          "name": "",
          "type": "uint256[]"
        }
      ],
      "stateMutability": "view",
      "type": "function",
      "constant": true
    },
    {
      "inputs": [],
      "name": "totalSupply",
      "outputs": [
        {
          "internalType": "uint256",
          "name": "",
          "type": "uint256"
        }
      ],
      "stateMutability": "view",
      "type": "function",
      "constant": true
    },
    {
      "inputs": [
        {
          "internalType": "address",
          "name": "from",
          "type": "address"
        },
        {
          "internalType": "address",
          "name": "to",
          "type": "address"
        },
        {
          "internalType": "uint256",
          "name": "tokenId",
          "type": "uint256"
        }
      ],
      "name": "transferFrom",
      "outputs": [],
      "stateMutability": "payable",
      "type": "function",
      "payable": true
    },
    {
      "inputs": [],
      "name": "uriPrefix",
      "outputs": [
        {
          "internalType": "string",
          "name": "",
          "type": "string"
        }
      ],
      "stateMutability": "view",
      "type": "function",
      "constant": true
    },
    {
      "inputs": [
        {
          "internalType": "uint256",
          "name": "tokenId",
          "type": "uint256"
        }
      ],
      "name": "tokenURI",
      "outputs": [
        {
          "internalType": "string",
          "name": "",
          "type": "string"
        }
      ],
      "stateMutability": "view",
      "type": "function",
      "constant": true
    },
    {
      "inputs": [
        {
          "internalType": "uint256",
          "name": "tokenId",
          "type": "uint256"
        }
      ],
      "name": "burn",
      "outputs": [],
      "stateMutability": "nonpayable",
      "type": "function"
    },
    {
      "inputs": [
        {
          "internalType": "address",
          "name": "to",
          "type": "address"
        },
        {
          "internalType": "uint256",
          "name": "tokenId",
          "type": "uint256"
        },
        {
          "internalType": "uint256",
          "name": "tokens",
          "type": "uint256"
        }
      ],
      "name": "mint",
      "outputs": [],
      "stateMutability": "nonpayable",
      "type": "function"
    }
  ],
  "bytecode": "0x6000600755600880546001600160a01b0319163317905560e0604052602360808181529062001e1b60a03980516200004091600a91602090910190620000ab565b503480156200004e57600080fd5b5060405162001e3e38038062001e3e8339810160408190526200007191620001fc565b8151829082906200008a906000906020850190620000ab565b508051620000a0906001906020840190620000ab565b5050505050620002b6565b828054620000b99062000263565b90600052602060002090601f016020900481019282620000dd576000855562000128565b82601f10620000f857805160ff191683800117855562000128565b8280016001018555821562000128579182015b82811115620001285782518255916020019190600101906200010b565b50620001369291506200013a565b5090565b5b808211156200013657600081556001016200013b565b600082601f83011262000162578081fd5b81516001600160401b03808211156200017f576200017f620002a0565b6040516020601f8401601f1916820181018381118382101715620001a757620001a7620002a0565b6040528382528584018101871015620001be578485fd5b8492505b83831015620001e15785830181015182840182015291820191620001c2565b83831115620001f257848185840101525b5095945050505050565b600080604083850312156200020f578182fd5b82516001600160401b038082111562000226578384fd5b620002348683870162000151565b935060208501519150808211156200024a578283fd5b50620002598582860162000151565b9150509250929050565b6002810460018216806200027857607f821691505b602082108114156200029a57634e487b7160e01b600052602260045260246000fd5b50919050565b634e487b7160e01b600052604160045260246000fd5b611b5580620002c66000396000f3fe6080604052600436106101355760003560e01c80636352211e116100ab578063b88d4fde1161006f578063b88d4fde14610335578063bf40fac114610348578063c87b56dd14610368578063ce606ee014610388578063d0ebdbe71461039d578063e985e9c5146103bd57610135565b80636352211e146102a05780636e27d889146102c057806370a08231146102e057806395d89b4114610300578063a22cb4651461031557610135565b806318160ddd116100fd57806318160ddd146101f457806323185dc91461021657806323b872dd1461024357806342966c6814610256578063481c6a751461027657806362b99ad41461028b57610135565b806301ffc9a71461013a57806306fdde0314610170578063081812fc14610192578063095ea7b3146101bf578063156e29f6146101d4575b600080fd5b34801561014657600080fd5b5061015a610155366004611458565b6103dd565b60405161016791906116b6565b60405180910390f35b34801561017c57600080fd5b5061018561042f565b60405161016791906116c1565b34801561019e57600080fd5b506101b26101ad3660046114de565b6104bd565b60405161016791906115fd565b6101d26101cd3660046113dd565b610516565b005b3480156101e057600080fd5b506101d26101ef366004611408565b6105d7565b34801561020057600080fd5b50610209610756565b604051610167919061199c565b34801561022257600080fd5b50610236610231366004611408565b61075c565b6040516101679190611672565b6101d26102513660046112f3565b6108ed565b34801561026257600080fd5b506101d26102713660046114de565b6108fd565b34801561028257600080fd5b506101b261099e565b34801561029757600080fd5b506101856109ad565b3480156102ac57600080fd5b506101b26102bb3660046114de565b6109ba565b3480156102cc57600080fd5b506102096102db3660046114de565b6109ef565b3480156102ec57600080fd5b506102096102fb366004611283565b610a01565b34801561030c57600080fd5b50610185610a45565b34801561032157600080fd5b506101d26103303660046113b0565b610a52565b6101d2610343366004611333565b610ac1565b34801561035457600080fd5b506101b2610363366004611490565b610b96565b34801561037457600080fd5b506101856103833660046114de565b610c17565b34801561039457600080fd5b506101b2610c4e565b3480156103a957600080fd5b506101d26103b8366004611283565b610c5d565b3480156103c957600080fd5b5061015a6103d83660046112bb565b610ccf565b60006001600160e01b031982166301ffc9a760e01b148061040e57506001600160e01b031982166380ac58cd60e01b145b8061042957506001600160e01b03198216635b5e139f60e01b145b92915050565b6000805461043c90611a37565b80601f016020809104026020016040519081016040528092919081815260200182805461046890611a37565b80156104b55780601f1061048a576101008083540402835291602001916104b5565b820191906000526020600020905b81548152906001019060200180831161049857829003601f168201915b505050505081565b6000818152600460205260408120546001600160a01b03166104fa5760405162461bcd60e51b81526004016104f19061188f565b60405180910390fd5b506000908152600560205260409020546001600160a01b031690565b6000818152600460205260409020546001600160a01b03163381148061055f57506001600160a01b038116600090815260066020908152604080832033845290915290205460ff165b61057b5760405162461bcd60e51b81526004016104f190611757565b60008281526005602052604080822080546001600160a01b0319166001600160a01b0387811691821790925591518593918516917f8c5be1e5ebec7d5bd14f71427d1e84f3dd0314c0f7b2291e5b200ac8c7c3b92591a4505050565b60408051608081018252600581830190815264626f6e757360d81b6060830152815281518083019092526007825266617274776f726b60c81b6020838101919091528101919091526000805b600281146106ee576009546001600160a01b031663f5e65c723385846002811061065d57634e487b7160e01b600052603260045260246000fd5b60200201516040518363ffffffff1660e01b815260040161067f92919061164e565b60206040518083038186803b15801561069757600080fd5b505afa1580156106ab573d6000803e3d6000fd5b505050506040513d601f19601f820116820180604052508101906106cf919061143c565b915081156106dc576106ee565b806106e681611a72565b915050610623565b508061070c5760405162461bcd60e51b81526004016104f190611828565b6000600754600161071d91906119b1565b6fffffffffffffffffffffffffffffffff1685176000818152600b60205260409020859055905061074e8682610cfd565b505050505050565b60075481565b60606001600160a01b0384166107845760405162461bcd60e51b81526004016104f1906117cb565b6001600160a01b0384166000908152600260205260409020826107f5578054604080516020808402820181019092528281529183918301828280156107e857602002820191906000526020600020905b8154815260200190600101908083116107d4575b50505050509150506108e6565b8284106108145760405162461bcd60e51b81526004016104f190611975565b600061082085856119dd565b67ffffffffffffffff81111561084657634e487b7160e01b600052604160045260246000fd5b60405190808252806020026020018201604052801561086f578160200160208202803683370190505b509050845b8481146108e15782818154811061089b57634e487b7160e01b600052603260045260246000fd5b90600052602060002001548282815181106108c657634e487b7160e01b600052603260045260246000fd5b60209081029190910101526108da81611a72565b9050610874565b509150505b9392505050565b6108f8838383610d56565b505050565b6000818152600460205260409020546001600160a01b03163381148061093957506000828152600560205260409020546001600160a01b031633145b8061096757506001600160a01b038116600090815260066020908152604080832033845290915290205460ff165b6109835760405162461bcd60e51b81526004016104f19061184b565b61098c82610ee6565b506000908152600b6020526040812055565b6009546001600160a01b031681565b600a805461043c90611a37565b6000818152600460205260408120546001600160a01b0316806104295760405162461bcd60e51b81526004016104f1906118be565b600b6020526000908152604090205481565b60006001600160a01b038216610a295760405162461bcd60e51b81526004016104f1906117cb565b506001600160a01b031660009081526002602052604090205490565b6001805461043c90611a37565b3360008181526006602090815260408083206001600160a01b038716808552925291829020805460ff191685151517905590519091907f17307eab39ab6107e8899845ad3d59bd9653f200f220920489ca2b5937696c3190610ab59085906116b6565b60405180910390a35050565b610acc848484610d56565b610ade836001600160a01b0316610f7e565b15610b9057604051630a85bd0160e11b808252906001600160a01b0385169063150b7a0290610b17903390899088908890600401611611565b602060405180830381600087803b158015610b3157600080fd5b505af1158015610b45573d6000803e3d6000fd5b505050506040513d601f19601f82011682018060405250810190610b699190611474565b6001600160e01b03191614610b905760405162461bcd60e51b81526004016104f190611716565b50505050565b6009546040516334abd05960e11b81526000916001600160a01b031690636957a0b290610bc79085906004016116c1565b60206040518083038186803b158015610bdf57600080fd5b505afa158015610bf3573d6000803e3d6000fd5b505050506040513d601f19601f82011682018060405250810190610429919061129f565b60606000600a610c2684610f84565b604051602001610c3792919061154f565b60408051808303601f190181529190529392505050565b6008546001600160a01b031681565b6008546001600160a01b03163314610c875760405162461bcd60e51b81526004016104f19061193e565b6001600160a01b038116610cad5760405162461bcd60e51b81526004016104f1906118ec565b600980546001600160a01b0319166001600160a01b0392909216919091179055565b6001600160a01b03918216600090815260066020908152604080832093909416825291909152205460ff1690565b610d078282610f91565b600760008154610d1690611a72565b9091555060405181906001600160a01b038416906000907fddf252ad1be2c89b69c2b068fc378daa952ba7f163c4a11628f55a4df523b3ef908290a45050565b6001600160a01b038316610d7c5760405162461bcd60e51b81526004016104f1906117fa565b6001600160a01b038216610da25760405162461bcd60e51b81526004016104f19061179f565b6000818152600460205260409020546001600160a01b03848116911614610ddb5760405162461bcd60e51b81526004016104f190611912565b336001600160a01b0384161480610e0857506000818152600560205260409020546001600160a01b031633145b80610e3657506001600160a01b038316600090815260066020908152604080832033845290915290205460ff165b610e525760405162461bcd60e51b81526004016104f1906116d4565b6000818152600560205260409020546001600160a01b031615610e8c57600081815260056020526040902080546001600160a01b03191690555b610e968382610fea565b610ea08282610f91565b80826001600160a01b0316846001600160a01b03167fddf252ad1be2c89b69c2b068fc378daa952ba7f163c4a11628f55a4df523b3ef60405160405180910390a4505050565b6000818152600460205260409020546001600160a01b0316610f088183610fea565b6000828152600560205260409020546001600160a01b031615610f4257600082815260056020526040902080546001600160a01b03191690555b60405182906000906001600160a01b038416907fddf252ad1be2c89b69c2b068fc378daa952ba7f163c4a11628f55a4df523b3ef908390a45050565b3b151590565b606061042982600a6110ef565b6001600160a01b03909116600081815260026020908152604080832080548685526003845282852081905560018101825590845282842001859055938252600490529190912080546001600160a01b0319169091179055565b6000818152600360209081526040808320546001600160a01b038616845260029092528220805491929091611021906001906119dd565b9050600082828154811061104557634e487b7160e01b600052603260045260246000fd5b906000526020600020015490508083858154811061107357634e487b7160e01b600052603260045260246000fd5b600091825260208083209091019290925582815260039091526040902084905582548390806110b257634e487b7160e01b600052603160045260246000fd5b60008281526020808220830160001990810183905590920190925595815260049095525050604090922080546001600160a01b0319169055505050565b60608261111457506040805180820190915260018152600360fc1b6020820152610429565b8260005b811561113d578061112881611a72565b9150611136905084836119c9565b9150611118565b60008167ffffffffffffffff81111561116657634e487b7160e01b600052604160045260246000fd5b6040519080825280601f01601f191660200182016040528015611190576020820181803683370190505b508693509050815b8315611209576111a88685611a8d565b6111b39060306119b1565b60f81b826111c083611a20565b925082815181106111e157634e487b7160e01b600052603260045260246000fd5b60200101906001600160f81b031916908160001a90535061120286856119c9565b9350611198565b5095945050505050565b600067ffffffffffffffff8084111561122e5761122e611acd565b604051601f8501601f19168101602001828111828210171561125257611252611acd565b60405284815291508183850186101561126a57600080fd5b8484602083013760006020868301015250509392505050565b600060208284031215611294578081fd5b81356108e681611ae3565b6000602082840312156112b0578081fd5b81516108e681611ae3565b600080604083850312156112cd578081fd5b82356112d881611ae3565b915060208301356112e881611ae3565b809150509250929050565b600080600060608486031215611307578081fd5b833561131281611ae3565b9250602084013561132281611ae3565b929592945050506040919091013590565b60008060008060808587031215611348578081fd5b843561135381611ae3565b9350602085013561136381611ae3565b925060408501359150606085013567ffffffffffffffff811115611385578182fd5b8501601f81018713611395578182fd5b6113a487823560208401611213565b91505092959194509250565b600080604083850312156113c2578182fd5b82356113cd81611ae3565b915060208301356112e881611afb565b600080604083850312156113ef578182fd5b82356113fa81611ae3565b946020939093013593505050565b60008060006060848603121561141c578283fd5b833561142781611ae3565b95602085013595506040909401359392505050565b60006020828403121561144d578081fd5b81516108e681611afb565b600060208284031215611469578081fd5b81356108e681611b09565b600060208284031215611485578081fd5b81516108e681611b09565b6000602082840312156114a1578081fd5b813567ffffffffffffffff8111156114b7578182fd5b8201601f810184136114c7578182fd5b6114d684823560208401611213565b949350505050565b6000602082840312156114ef578081fd5b5035919050565b6000815180845261150e8160208601602086016119f4565b601f01601f19169290920160200192915050565b600081516115348185602086016119f4565b9290920192915050565b64173539b7b760d91b815260050190565b825460009081906002810460018083168061156b57607f831692505b602080841082141561158b57634e487b7160e01b87526022600452602487fd5b81801561159f57600181146115b0576115dc565b60ff198616895284890196506115dc565b6115b98b6119a5565b885b868110156115d45781548b8201529085019083016115bb565b505084890196505b5050505050506115f46115ef8286611522565b61153e565b95945050505050565b6001600160a01b0391909116815260200190565b6001600160a01b0385811682528416602082015260408101839052608060608201819052600090611644908301846114f6565b9695505050505050565b6001600160a01b03831681526040602082018190526000906114d6908301846114f6565b6020808252825182820181905260009190848201906040850190845b818110156116aa5783518352928401929184019160010161168e565b50909695505050505050565b901515815260200190565b6000602082526108e660208301846114f6565b60208082526022908201527f73656e646572206d757374206265206f776e6572206f7220617070726f76616c604082015261195960f21b606082015260800190565b60208082526021908201527f6f6e455243373231526563656976656428292072657475726e20696e76616c696040820152601960fa1b606082015260800190565b60208082526028908201527f73656e646572206d757374206265206f776e6572206f7220617070726f76656460408201526708199bdc88185b1b60c21b606082015260800190565b602080825260129082015271746f206973207a65726f206164647265737360701b604082015260600190565b6020808252601590820152746f776e6572206973207a65726f206164647265737360581b604082015260600190565b60208082526014908201527366726f6d206973207a65726f206164647265737360601b604082015260600190565b6020808252600990820152681b9bc81c195c9b5a5d60ba1b604082015260600190565b60208082526024908201527f6d73672e73656e646572206d757374206265206f776e6572206f7220617070726040820152631bdd995960e21b606082015260800190565b6020808252601590820152743737b137b23c9037bbb7103a3432b7103a37b5b2b760591b604082015260600190565b6020808252601490820152733737b137b23c9037bbb7103a3432903a37b5b2b760611b604082015260600190565b6020808252600c908201526b7a65726f206164647265737360a01b604082015260600190565b602080825260129082015271333937b69036bab9ba1031329037bbb732b960711b604082015260600190565b60208082526019908201527f6f6e6c7920616c6c6f7720636f6e7472616374206f776e657200000000000000604082015260600190565b6020808252600d908201526c0d2dcecc2d8d2c840d2dcc8caf609b1b604082015260600190565b90815260200190565b60009081526020902090565b600082198211156119c4576119c4611aa1565b500190565b6000826119d8576119d8611ab7565b500490565b6000828210156119ef576119ef611aa1565b500390565b60005b83811015611a0f5781810151838201526020016119f7565b83811115610b905750506000910152565b600081611a2f57611a2f611aa1565b506000190190565b600281046001821680611a4b57607f821691505b60208210811415611a6c57634e487b7160e01b600052602260045260246000fd5b50919050565b6000600019821415611a8657611a86611aa1565b5060010190565b600082611a9c57611a9c611ab7565b500690565b634e487b7160e01b600052601160045260246000fd5b634e487b7160e01b600052601260045260246000fd5b634e487b7160e01b600052604160045260246000fd5b6001600160a01b0381168114611af857600080fd5b50565b8015158114611af857600080fd5b6001600160e01b031981168114611af857600080fdfea264697066735822122018f278f5da67362e6a2745700c2bc3c5519ea9596c35b88d205a24c2adc1000d64736f6c6343000800003368747470733a2f2f736f757263652e6c6567656e646e66742e636f6d2f746f74656d2f",
  "immutableReferences": {},
  "source": "pragma solidity ^0.8.0;\n\n// SPDX-License-Identifier: MIT\n\nimport \"./lib/Uinteger.sol\";\nimport \"./lib/Permission.sol\";\nimport \"./lib/ERC721.sol\";\nimport \"./include/ILockTokens.sol\";\nimport \"./include/IERC20OP.sol\";\nimport \"./include/ITotem.sol\";\n\ncontract Totem is ERC721, Permission, ILockTokens, ITotem {\n    using Uinteger for uint256;\n\n    string public uriPrefix = \"https://source.legendnft.com/totem/\";\n\n    // token id => erc20 token value\n    mapping(uint256 => uint256) public override lockTokens;\n\n    constructor(string memory name, string memory symbol) ERC721(name, symbol) {}\n\n    function tokenURI(uint256 tokenId) external view override returns (string memory) {\n        string memory uri = string(abi.encodePacked(uriPrefix, tokenId.toString(), \".json\"));\n        return uri;\n    }\n\n    //\n    function burn(uint256 tokenId) public override {\n        address owner = tokenOwners[tokenId];\n        require(msg.sender == owner || msg.sender == tokenApprovals[tokenId] || approvalForAlls[owner][msg.sender], \"msg.sender must be owner or approved\");\n        _burn(tokenId);\n        delete lockTokens[tokenId];\n    }\n\n    function mint(\n        address to,\n        uint256 tokenId,\n        uint256 tokens\n    ) external override CheckPermit2([\"bonus\", \"artwork\"]) {\n        uint256 id = tokenId | uint128(totalSupply + 1);\n        lockTokens[id] = tokens;\n        _mint(to, id);\n    }\n}\n",
  "sourcePath": "/Users/necklace/work/Legend/Legend/contracts/Totem.sol",
  "compiler": {
    "name": "solc",
    "version": "0.8.0+commit.c7dfd78e.Darwin.appleclang"
  },
  "schemaVersion": "3.4.3",
  "updatedAt": "2022-03-25T17:08:34.301Z",
  "networkType": "ethereum",
  "devdoc": {
    "kind": "dev",
    "methods": {},
    "version": 1
  },
  "userdoc": {
    "kind": "user",
    "methods": {
      "name()": {
        "notice": "A descriptive name for a collection of NFTs in this contract"
      },
      "symbol()": {
        "notice": "An abbreviated name for NFTs in this contract"
      }
    },
    "version": 1
  }
}