{
  "contractName": "USDT",
  "abi": [
    {
      "inputs": [
        {
          "internalType": "string",
          "name": "_name",
          "type": "string"
        },
        {
          "internalType": "string",
          "name": "_symbol",
          "type": "string"
        },
        {
          "internalType": "uint8",
          "name": "_decimals",
          "type": "uint8"
        },
        {
          "internalType": "uint256",
          "name": "_maxSupply",
          "type": "uint256"
        }
      ],
      "stateMutability": "nonpayable",
      "type": "constructor"
    },
    {
      "anonymous": false,
      "inputs": [
        {
          "indexed": true,
          "internalType": "address",
          "name": "owner",
          "type": "address"
        },
        {
          "indexed": true,
          "internalType": "address",
          "name": "spender",
          "type": "address"
        },
        {
          "indexed": false,
          "internalType": "uint256",
          "name": "value",
          "type": "uint256"
        }
      ],
      "name": "Approval",
      "type": "event"
    },
    {
      "anonymous": false,
      "inputs": [
        {
          "indexed": true,
          "internalType": "address",
          "name": "from",
          "type": "address"
        },
        {
          "indexed": true,
          "internalType": "address",
          "name": "to",
          "type": "address"
        },
        {
          "indexed": false,
          "internalType": "uint256",
          "name": "value",
          "type": "uint256"
        }
      ],
      "name": "Transfer",
      "type": "event"
    },
    {
      "inputs": [
        {
          "internalType": "address",
          "name": "",
          "type": "address"
        },
        {
          "internalType": "address",
          "name": "",
          "type": "address"
        }
      ],
      "name": "allowance",
      "outputs": [
        {
          "internalType": "uint256",
          "name": "",
          "type": "uint256"
        }
      ],
      "stateMutability": "view",
      "type": "function"
    },
    {
      "inputs": [
        {
          "internalType": "address",
          "name": "spender",
          "type": "address"
        },
        {
          "internalType": "uint256",
          "name": "amount",
          "type": "uint256"
        }
      ],
      "name": "approve",
      "outputs": [
        {
          "internalType": "bool",
          "name": "",
          "type": "bool"
        }
      ],
      "stateMutability": "nonpayable",
      "type": "function"
    },
    {
      "inputs": [
        {
          "internalType": "address",
          "name": "",
          "type": "address"
        }
      ],
      "name": "balanceOf",
      "outputs": [
        {
          "internalType": "uint256",
          "name": "",
          "type": "uint256"
        }
      ],
      "stateMutability": "view",
      "type": "function"
    },
    {
      "inputs": [
        {
          "internalType": "address",
          "name": "from",
          "type": "address"
        },
        {
          "internalType": "uint256",
          "name": "amount",
          "type": "uint256"
        }
      ],
      "name": "burnFrom",
      "outputs": [],
      "stateMutability": "nonpayable",
      "type": "function"
    },
    {
      "inputs": [],
      "name": "contractOwner",
      "outputs": [
        {
          "internalType": "address",
          "name": "",
          "type": "address"
        }
      ],
      "stateMutability": "view",
      "type": "function"
    },
    {
      "inputs": [],
      "name": "decimals",
      "outputs": [
        {
          "internalType": "uint8",
          "name": "",
          "type": "uint8"
        }
      ],
      "stateMutability": "view",
      "type": "function"
    },
    {
      "inputs": [],
      "name": "name",
      "outputs": [
        {
          "internalType": "string",
          "name": "",
          "type": "string"
        }
      ],
      "stateMutability": "view",
      "type": "function"
    },
    {
      "inputs": [],
      "name": "remainedSupply",
      "outputs": [
        {
          "internalType": "uint256",
          "name": "",
          "type": "uint256"
        }
      ],
      "stateMutability": "view",
      "type": "function"
    },
    {
      "inputs": [],
      "name": "symbol",
      "outputs": [
        {
          "internalType": "string",
          "name": "",
          "type": "string"
        }
      ],
      "stateMutability": "view",
      "type": "function"
    },
    {
      "inputs": [],
      "name": "totalSupply",
      "outputs": [
        {
          "internalType": "uint256",
          "name": "",
          "type": "uint256"
        }
      ],
      "stateMutability": "view",
      "type": "function"
    },
    {
      "inputs": [
        {
          "internalType": "address",
          "name": "to",
          "type": "address"
        },
        {
          "internalType": "uint256",
          "name": "amount",
          "type": "uint256"
        }
      ],
      "name": "transfer",
      "outputs": [
        {
          "internalType": "bool",
          "name": "",
          "type": "bool"
        }
      ],
      "stateMutability": "nonpayable",
      "type": "function"
    },
    {
      "inputs": [
        {
          "internalType": "address",
          "name": "from",
          "type": "address"
        },
        {
          "internalType": "address",
          "name": "to",
          "type": "address"
        },
        {
          "internalType": "uint256",
          "name": "amount",
          "type": "uint256"
        }
      ],
      "name": "transferFrom",
      "outputs": [
        {
          "internalType": "bool",
          "name": "",
          "type": "bool"
        }
      ],
      "stateMutability": "nonpayable",
      "type": "function"
    },
    {
      "inputs": [
        {
          "internalType": "address",
          "name": "to",
          "type": "address"
        },
        {
          "internalType": "uint256",
          "name": "amount",
          "type": "uint256"
        }
      ],
      "name": "mint",
      "outputs": [],
      "stateMutability": "nonpayable",
      "type": "function"
    },
    {
      "inputs": [
        {
          "internalType": "uint256",
          "name": "amount",
          "type": "uint256"
        }
      ],
      "name": "burn",
      "outputs": [],
      "stateMutability": "nonpayable",
      "type": "function"
    }
  ],
  "bytecode": "0x6080604052600080546001600160a01b031916331790553480156200002357600080fd5b5060405162000da438038062000da48339810160408190526200004691620001ef565b838383838360019080519060200190620000629291906200009e565b508251620000789060029060208601906200009e565b506003805460ff191660ff939093169290921790915560055550620002c9945050505050565b828054620000ac9062000276565b90600052602060002090601f016020900481019282620000d057600085556200011b565b82601f10620000eb57805160ff19168380011785556200011b565b828001600101855582156200011b579182015b828111156200011b578251825591602001919060010190620000fe565b50620001299291506200012d565b5090565b5b808211156200012957600081556001016200012e565b600082601f83011262000155578081fd5b81516001600160401b0380821115620001725762000172620002b3565b6040516020601f8401601f19168201810183811183821017156200019a576200019a620002b3565b6040528382528584018101871015620001b1578485fd5b8492505b83831015620001d45785830181015182840182015291820191620001b5565b83831115620001e557848185840101525b5095945050505050565b6000806000806080858703121562000205578384fd5b84516001600160401b03808211156200021c578586fd5b6200022a8883890162000144565b9550602087015191508082111562000240578485fd5b506200024f8782880162000144565b935050604085015160ff8116811462000266578283fd5b6060959095015193969295505050565b6002810460018216806200028b57607f821691505b60208210811415620002ad57634e487b7160e01b600052602260045260246000fd5b50919050565b634e487b7160e01b600052604160045260246000fd5b610acb80620002d96000396000f3fe608060405234801561001057600080fd5b50600436106100ea5760003560e01c806370a082311161008c578063a9059cbb11610066578063a9059cbb146101c0578063ce606ee0146101d3578063dd62ed3e146101e8578063e3b38aa5146101fb576100ea565b806370a082311461019257806379cc6790146101a557806395d89b41146101b8576100ea565b806323b872dd116100c857806323b872dd14610142578063313ce5671461015557806340c10f191461016a57806342966c681461017f576100ea565b806306fdde03146100ef578063095ea7b31461010d57806318160ddd1461012d575b600080fd5b6100f7610203565b60405161010491906108cd565b60405180910390f35b61012061011b36600461086d565b610291565b60405161010491906108c2565b61013561032d565b60405161010491906109fe565b610120610150366004610832565b610333565b61015d6103c4565b6040516101049190610a07565b61017d61017836600461086d565b6103cd565b005b61017d61018d366004610896565b6104e6565b6101356101a03660046107df565b6104f3565b61017d6101b336600461086d565b610505565b6100f761058f565b6101206101ce36600461086d565b61059c565b6101db6105b2565b60405161010491906108ae565b6101356101f6366004610800565b6105c1565b6101356105de565b6001805461021090610a44565b80601f016020809104026020016040519081016040528092919081815260200182805461023c90610a44565b80156102895780601f1061025e57610100808354040283529160200191610289565b820191906000526020600020905b81548152906001019060200180831161026c57829003601f168201915b505050505081565b60006001600160a01b0383166102c25760405162461bcd60e51b81526004016102b99061094c565b60405180910390fd5b3360008181526007602090815260408083206001600160a01b03881680855292529182902085905590519091907f8c5be1e5ebec7d5bd14f71427d1e84f3dd0314c0f7b2291e5b200ac8c7c3b9259061031c9086906109fe565b60405180910390a350600192915050565b60045481565b6001600160a01b03831660009081526007602090815260408083203384529091528120548211156103765760405162461bcd60e51b81526004016102b990610972565b6001600160a01b0384166000908152600760209081526040808320338452909152812080548492906103a9908490610a2d565b909155506103ba90508484846105e4565b5060019392505050565b60035460ff1681565b6000546001600160a01b031633146103f75760405162461bcd60e51b81526004016102b9906109c7565b6001600160a01b03821661041d5760405162461bcd60e51b81526004016102b99061094c565b80600554101561043f5760405162461bcd60e51b81526004016102b9906109a0565b80600560008282546104519190610a2d565b92505081905550806004600082825461046a9190610a15565b90915550506001600160a01b03821660009081526006602052604081208054839290610497908490610a15565b90915550506040516001600160a01b038316906000907fddf252ad1be2c89b69c2b068fc378daa952ba7f163c4a11628f55a4df523b3ef906104da9085906109fe565b60405180910390a35050565b6104f033826106ee565b50565b60066020526000908152604090205481565b6001600160a01b03821660009081526007602090815260408083203384529091529020548111156105485760405162461bcd60e51b81526004016102b990610972565b6001600160a01b03821660009081526007602090815260408083203384529091528120805483929061057b908490610a2d565b9091555061058b905082826106ee565b5050565b6002805461021090610a44565b60006105a93384846105e4565b50600192915050565b6000546001600160a01b031681565b600760209081526000928352604080842090915290825290205481565b60055481565b6001600160a01b03821661060a5760405162461bcd60e51b81526004016102b99061094c565b6001600160a01b0383166000908152600660205260409020548111156106425760405162461bcd60e51b81526004016102b990610920565b6001600160a01b0383166000908152600660205260408120805483929061066a908490610a2d565b90915550506001600160a01b03821660009081526006602052604081208054839290610697908490610a15565b92505081905550816001600160a01b0316836001600160a01b03167fddf252ad1be2c89b69c2b068fc378daa952ba7f163c4a11628f55a4df523b3ef836040516106e191906109fe565b60405180910390a3505050565b6001600160a01b0382166000908152600660205260409020548111156107265760405162461bcd60e51b81526004016102b990610920565b6001600160a01b0382166000908152600660205260408120805483929061074e908490610a2d565b9250508190555080600460008282546107679190610a2d565b9250508190555080600560008282546107809190610a15565b90915550506040516000906001600160a01b038416907fddf252ad1be2c89b69c2b068fc378daa952ba7f163c4a11628f55a4df523b3ef906104da9085906109fe565b80356001600160a01b03811681146107da57600080fd5b919050565b6000602082840312156107f0578081fd5b6107f9826107c3565b9392505050565b60008060408385031215610812578081fd5b61081b836107c3565b9150610829602084016107c3565b90509250929050565b600080600060608486031215610846578081fd5b61084f846107c3565b925061085d602085016107c3565b9150604084013590509250925092565b6000806040838503121561087f578182fd5b610888836107c3565b946020939093013593505050565b6000602082840312156108a7578081fd5b5035919050565b6001600160a01b0391909116815260200190565b901515815260200190565b6000602080835283518082850152825b818110156108f9578581018301518582016040015282016108dd565b8181111561090a5783604083870101525b50601f01601f1916929092016040019392505050565b6020808252601290820152710c4c2d8c2dcc6ca40dcdee840cadcdeeaced60731b604082015260600190565b6020808252600c908201526b7a65726f206164647265737360a01b604082015260600190565b6020808252601490820152730c2d8d8deeec2dcc6ca40dcdee840cadcdeeaced60631b604082015260600190565b6020808252600d908201526c0dad2dce840e8dede40daeac6d609b1b604082015260600190565b60208082526019908201527f6f6e6c7920616c6c6f7720636f6e7472616374206f776e657200000000000000604082015260600190565b90815260200190565b60ff91909116815260200190565b60008219821115610a2857610a28610a7f565b500190565b600082821015610a3f57610a3f610a7f565b500390565b600281046001821680610a5857607f821691505b60208210811415610a7957634e487b7160e01b600052602260045260246000fd5b50919050565b634e487b7160e01b600052601160045260246000fdfea26469706673582212202cd00a5206050198293c57d8f49bd65bcfe84f4504616513b54183ca18c7783164736f6c63430008000033",
  "immutableReferences": {},
  "source": "// SPDX-License-Identifier: MIT\npragma solidity ^0.8.0;\n\nimport \"./lib/ERC20.sol\";\nimport \"./include/IERC20OP.sol\";\n\ncontract USDT is ERC20, IERC20OP {\n    constructor(\n        string memory _name,\n        string memory _symbol,\n        uint8 _decimals,\n        uint256 _maxSupply\n    ) ERC20(_name, _symbol, _decimals, _maxSupply) {}\n\n    function mint(address to, uint256 amount) external override OwnerOnly {\n        require(to != address(0), \"zero address\");\n        require(remainedSupply >= amount, \"mint too much\");\n\n        remainedSupply -= amount;\n        totalSupply += amount;\n        balanceOf[to] += amount;\n\n        emit Transfer(address(0), to, amount);\n    }\n\n    function burn(uint256 amount) external override {\n        _burn(msg.sender, amount);\n    }\n}\n",
  "sourcePath": "/Users/necklace/work/Legend/Legend/contracts/USDT.sol",
  "compiler": {
    "name": "solc",
    "version": "0.8.0+commit.c7dfd78e.Darwin.appleclang"
  },
  "schemaVersion": "3.4.3",
  "updatedAt": "2022-03-25T17:08:33.975Z",
  "networkType": "ethereum",
  "devdoc": {
    "kind": "dev",
    "methods": {},
    "version": 1
  },
  "userdoc": {
    "kind": "user",
    "methods": {},
    "version": 1
  }
}