{
  "contractName": "ZoneMine",
  "abi": [
    {
      "anonymous": false,
      "inputs": [
        {
          "indexed": true,
          "internalType": "address",
          "name": "user",
          "type": "address"
        },
        {
          "indexed": true,
          "internalType": "uint256",
          "name": "class",
          "type": "uint256"
        },
        {
          "indexed": true,
          "internalType": "uint256",
          "name": "quality",
          "type": "uint256"
        },
        {
          "indexed": false,
          "internalType": "uint256",
          "name": "number",
          "type": "uint256"
        },
        {
          "indexed": false,
          "internalType": "uint256",
          "name": "time",
          "type": "uint256"
        }
      ],
      "name": "Gain",
      "type": "event"
    },
    {
      "anonymous": false,
      "inputs": [
        {
          "indexed": true,
          "internalType": "address",
          "name": "user",
          "type": "address"
        },
        {
          "indexed": true,
          "internalType": "uint256",
          "name": "roleId",
          "type": "uint256"
        },
        {
          "indexed": false,
          "internalType": "uint256",
          "name": "zoneId",
          "type": "uint256"
        },
        {
          "indexed": false,
          "internalType": "uint256",
          "name": "number",
          "type": "uint256"
        }
      ],
      "name": "InZone",
      "type": "event"
    },
    {
      "anonymous": false,
      "inputs": [
        {
          "indexed": true,
          "internalType": "address",
          "name": "user",
          "type": "address"
        },
        {
          "indexed": true,
          "internalType": "uint256",
          "name": "roleId",
          "type": "uint256"
        }
      ],
      "name": "StopZone",
      "type": "event"
    },
    {
      "inputs": [],
      "name": "contractOwner",
      "outputs": [
        {
          "internalType": "address",
          "name": "",
          "type": "address"
        }
      ],
      "stateMutability": "view",
      "type": "function"
    },
    {
      "inputs": [],
      "name": "duration",
      "outputs": [
        {
          "internalType": "uint256",
          "name": "",
          "type": "uint256"
        }
      ],
      "stateMutability": "view",
      "type": "function"
    },
    {
      "inputs": [
        {
          "internalType": "string",
          "name": "key",
          "type": "string"
        }
      ],
      "name": "getAddress",
      "outputs": [
        {
          "internalType": "address",
          "name": "",
          "type": "address"
        }
      ],
      "stateMutability": "view",
      "type": "function"
    },
    {
      "inputs": [],
      "name": "manager",
      "outputs": [
        {
          "internalType": "contract Manager",
          "name": "",
          "type": "address"
        }
      ],
      "stateMutability": "view",
      "type": "function"
    },
    {
      "inputs": [
        {
          "internalType": "uint256",
          "name": "",
          "type": "uint256"
        }
      ],
      "name": "outputInfos",
      "outputs": [
        {
          "internalType": "uint8",
          "name": "weight",
          "type": "uint8"
        },
        {
          "internalType": "uint32",
          "name": "maxAmount",
          "type": "uint32"
        },
        {
          "internalType": "uint32",
          "name": "lastCount",
          "type": "uint32"
        }
      ],
      "stateMutability": "view",
      "type": "function"
    },
    {
      "inputs": [],
      "name": "rewardTime",
      "outputs": [
        {
          "internalType": "uint256",
          "name": "",
          "type": "uint256"
        }
      ],
      "stateMutability": "view",
      "type": "function"
    },
    {
      "inputs": [
        {
          "internalType": "uint256",
          "name": "",
          "type": "uint256"
        }
      ],
      "name": "roleByZone",
      "outputs": [
        {
          "internalType": "uint256",
          "name": "",
          "type": "uint256"
        }
      ],
      "stateMutability": "view",
      "type": "function"
    },
    {
      "inputs": [
        {
          "internalType": "uint256",
          "name": "",
          "type": "uint256"
        }
      ],
      "name": "roleCounts",
      "outputs": [
        {
          "internalType": "uint256",
          "name": "",
          "type": "uint256"
        }
      ],
      "stateMutability": "view",
      "type": "function"
    },
    {
      "inputs": [
        {
          "internalType": "uint256",
          "name": "",
          "type": "uint256"
        },
        {
          "internalType": "uint256",
          "name": "",
          "type": "uint256"
        }
      ],
      "name": "roles",
      "outputs": [
        {
          "internalType": "uint16",
          "name": "id",
          "type": "uint16"
        },
        {
          "internalType": "uint256",
          "name": "roleId",
          "type": "uint256"
        },
        {
          "internalType": "uint256",
          "name": "zoneNumber",
          "type": "uint256"
        },
        {
          "internalType": "uint64",
          "name": "bonusPoolNumber",
          "type": "uint64"
        },
        {
          "internalType": "uint64",
          "name": "artworkPoolNumber",
          "type": "uint64"
        },
        {
          "internalType": "uint64",
          "name": "startTime",
          "type": "uint64"
        },
        {
          "internalType": "uint64",
          "name": "endTime",
          "type": "uint64"
        },
        {
          "internalType": "uint256",
          "name": "blockNumber",
          "type": "uint256"
        }
      ],
      "stateMutability": "view",
      "type": "function"
    },
    {
      "inputs": [
        {
          "internalType": "address",
          "name": "addr",
          "type": "address"
        }
      ],
      "name": "setManager",
      "outputs": [],
      "stateMutability": "nonpayable",
      "type": "function"
    },
    {
      "inputs": [
        {
          "internalType": "uint256",
          "name": "",
          "type": "uint256"
        }
      ],
      "name": "zoneNumbers",
      "outputs": [
        {
          "internalType": "uint256",
          "name": "",
          "type": "uint256"
        }
      ],
      "stateMutability": "view",
      "type": "function"
    },
    {
      "inputs": [
        {
          "internalType": "uint256",
          "name": "",
          "type": "uint256"
        },
        {
          "internalType": "uint256",
          "name": "",
          "type": "uint256"
        }
      ],
      "name": "zones",
      "outputs": [
        {
          "internalType": "uint16",
          "name": "id",
          "type": "uint16"
        },
        {
          "internalType": "string",
          "name": "name",
          "type": "string"
        },
        {
          "internalType": "uint256",
          "name": "consumablesId",
          "type": "uint256"
        },
        {
          "internalType": "uint16",
          "name": "consumablesAmount",
          "type": "uint16"
        },
        {
          "internalType": "uint32",
          "name": "baseExp",
          "type": "uint32"
        },
        {
          "internalType": "uint32",
          "name": "level",
          "type": "uint32"
        },
        {
          "internalType": "uint32",
          "name": "minPower",
          "type": "uint32"
        },
        {
          "internalType": "uint32",
          "name": "dropRateBase",
          "type": "uint32"
        },
        {
          "internalType": "uint256",
          "name": "tokenTotal",
          "type": "uint256"
        },
        {
          "internalType": "uint256",
          "name": "tokens",
          "type": "uint256"
        },
        {
          "internalType": "uint256",
          "name": "tokenBase",
          "type": "uint256"
        },
        {
          "internalType": "uint64",
          "name": "startTime",
          "type": "uint64"
        },
        {
          "internalType": "uint64",
          "name": "endTime",
          "type": "uint64"
        }
      ],
      "stateMutability": "view",
      "type": "function"
    },
    {
      "inputs": [
        {
          "internalType": "uint256",
          "name": "zoneId",
          "type": "uint256"
        },
        {
          "components": [
            {
              "internalType": "uint8",
              "name": "weight",
              "type": "uint8"
            },
            {
              "internalType": "uint32",
              "name": "maxAmount",
              "type": "uint32"
            },
            {
              "internalType": "uint32",
              "name": "lastCount",
              "type": "uint32"
            }
          ],
          "internalType": "struct ZoneMine.FragmentOutInfo",
          "name": "info",
          "type": "tuple"
        }
      ],
      "name": "setOutputInfo",
      "outputs": [],
      "stateMutability": "nonpayable",
      "type": "function"
    },
    {
      "inputs": [
        {
          "internalType": "uint256",
          "name": "time",
          "type": "uint256"
        }
      ],
      "name": "setRewardTime",
      "outputs": [],
      "stateMutability": "nonpayable",
      "type": "function"
    },
    {
      "inputs": [
        {
          "components": [
            {
              "internalType": "uint16",
              "name": "id",
              "type": "uint16"
            },
            {
              "internalType": "string",
              "name": "name",
              "type": "string"
            },
            {
              "internalType": "uint256",
              "name": "consumablesId",
              "type": "uint256"
            },
            {
              "internalType": "uint16",
              "name": "consumablesAmount",
              "type": "uint16"
            },
            {
              "internalType": "uint32",
              "name": "baseExp",
              "type": "uint32"
            },
            {
              "internalType": "uint32",
              "name": "level",
              "type": "uint32"
            },
            {
              "internalType": "uint32",
              "name": "minPower",
              "type": "uint32"
            },
            {
              "internalType": "uint32[]",
              "name": "equipmentNumber",
              "type": "uint32[]"
            },
            {
              "internalType": "uint8[]",
              "name": "probability",
              "type": "uint8[]"
            },
            {
              "internalType": "uint8[]",
              "name": "quality",
              "type": "uint8[]"
            },
            {
              "internalType": "uint8[]",
              "name": "profession",
              "type": "uint8[]"
            },
            {
              "internalType": "uint32",
              "name": "dropRateBase",
              "type": "uint32"
            },
            {
              "internalType": "uint256",
              "name": "tokenTotal",
              "type": "uint256"
            },
            {
              "internalType": "uint256",
              "name": "tokens",
              "type": "uint256"
            },
            {
              "internalType": "uint256",
              "name": "tokenBase",
              "type": "uint256"
            },
            {
              "internalType": "uint64",
              "name": "startTime",
              "type": "uint64"
            },
            {
              "internalType": "uint64",
              "name": "endTime",
              "type": "uint64"
            }
          ],
          "internalType": "struct ZoneMine.ZoneInfo",
          "name": "zone",
          "type": "tuple"
        }
      ],
      "name": "addZone",
      "outputs": [],
      "stateMutability": "nonpayable",
      "type": "function"
    },
    {
      "inputs": [
        {
          "internalType": "uint256",
          "name": "zoneId",
          "type": "uint256"
        }
      ],
      "name": "getZoneInfo",
      "outputs": [
        {
          "components": [
            {
              "internalType": "uint16",
              "name": "id",
              "type": "uint16"
            },
            {
              "internalType": "string",
              "name": "name",
              "type": "string"
            },
            {
              "internalType": "uint256",
              "name": "consumablesId",
              "type": "uint256"
            },
            {
              "internalType": "uint16",
              "name": "consumablesAmount",
              "type": "uint16"
            },
            {
              "internalType": "uint32",
              "name": "baseExp",
              "type": "uint32"
            },
            {
              "internalType": "uint32",
              "name": "level",
              "type": "uint32"
            },
            {
              "internalType": "uint32",
              "name": "minPower",
              "type": "uint32"
            },
            {
              "internalType": "uint32[]",
              "name": "equipmentNumber",
              "type": "uint32[]"
            },
            {
              "internalType": "uint8[]",
              "name": "probability",
              "type": "uint8[]"
            },
            {
              "internalType": "uint8[]",
              "name": "quality",
              "type": "uint8[]"
            },
            {
              "internalType": "uint8[]",
              "name": "profession",
              "type": "uint8[]"
            },
            {
              "internalType": "uint32",
              "name": "dropRateBase",
              "type": "uint32"
            },
            {
              "internalType": "uint256",
              "name": "tokenTotal",
              "type": "uint256"
            },
            {
              "internalType": "uint256",
              "name": "tokens",
              "type": "uint256"
            },
            {
              "internalType": "uint256",
              "name": "tokenBase",
              "type": "uint256"
            },
            {
              "internalType": "uint64",
              "name": "startTime",
              "type": "uint64"
            },
            {
              "internalType": "uint64",
              "name": "endTime",
              "type": "uint64"
            }
          ],
          "internalType": "struct ZoneMine.ZoneInfo",
          "name": "",
          "type": "tuple"
        }
      ],
      "stateMutability": "view",
      "type": "function"
    },
    {
      "inputs": [
        {
          "internalType": "uint256",
          "name": "roleId",
          "type": "uint256"
        }
      ],
      "name": "getRoleInfo",
      "outputs": [
        {
          "components": [
            {
              "internalType": "uint16",
              "name": "id",
              "type": "uint16"
            },
            {
              "internalType": "uint256",
              "name": "roleId",
              "type": "uint256"
            },
            {
              "internalType": "uint256",
              "name": "zoneNumber",
              "type": "uint256"
            },
            {
              "internalType": "uint64",
              "name": "bonusPoolNumber",
              "type": "uint64"
            },
            {
              "internalType": "uint64",
              "name": "artworkPoolNumber",
              "type": "uint64"
            },
            {
              "internalType": "uint64",
              "name": "startTime",
              "type": "uint64"
            },
            {
              "internalType": "uint64",
              "name": "endTime",
              "type": "uint64"
            },
            {
              "internalType": "uint256",
              "name": "blockNumber",
              "type": "uint256"
            }
          ],
          "internalType": "struct ZoneMine.RoleInfo",
          "name": "roleInfo",
          "type": "tuple"
        }
      ],
      "stateMutability": "view",
      "type": "function"
    },
    {
      "inputs": [
        {
          "internalType": "address",
          "name": "owner",
          "type": "address"
        }
      ],
      "name": "getRoleByAddr",
      "outputs": [
        {
          "components": [
            {
              "internalType": "uint16",
              "name": "id",
              "type": "uint16"
            },
            {
              "internalType": "uint256",
              "name": "roleId",
              "type": "uint256"
            },
            {
              "internalType": "uint256",
              "name": "zoneNumber",
              "type": "uint256"
            },
            {
              "internalType": "uint64",
              "name": "bonusPoolNumber",
              "type": "uint64"
            },
            {
              "internalType": "uint64",
              "name": "artworkPoolNumber",
              "type": "uint64"
            },
            {
              "internalType": "uint64",
              "name": "startTime",
              "type": "uint64"
            },
            {
              "internalType": "uint64",
              "name": "endTime",
              "type": "uint64"
            },
            {
              "internalType": "uint256",
              "name": "blockNumber",
              "type": "uint256"
            }
          ],
          "internalType": "struct ZoneMine.RoleInfo",
          "name": "roleInfo",
          "type": "tuple"
        }
      ],
      "stateMutability": "view",
      "type": "function"
    },
    {
      "inputs": [],
      "name": "withdraw",
      "outputs": [],
      "stateMutability": "nonpayable",
      "type": "function"
    },
    {
      "inputs": [
        {
          "internalType": "address",
          "name": "",
          "type": "address"
        },
        {
          "internalType": "address",
          "name": "_from",
          "type": "address"
        },
        {
          "internalType": "uint256",
          "name": "_id",
          "type": "uint256"
        },
        {
          "internalType": "uint256",
          "name": "_value",
          "type": "uint256"
        },
        {
          "internalType": "bytes",
          "name": "_data",
          "type": "bytes"
        }
      ],
      "name": "onERC1155Received",
      "outputs": [
        {
          "internalType": "bytes4",
          "name": "",
          "type": "bytes4"
        }
      ],
      "stateMutability": "nonpayable",
      "type": "function"
    },
    {
      "inputs": [
        {
          "internalType": "address",
          "name": "_operator",
          "type": "address"
        },
        {
          "internalType": "address",
          "name": "_from",
          "type": "address"
        },
        {
          "internalType": "uint256[]",
          "name": "_ids",
          "type": "uint256[]"
        },
        {
          "internalType": "uint256[]",
          "name": "_values",
          "type": "uint256[]"
        },
        {
          "internalType": "bytes",
          "name": "_data",
          "type": "bytes"
        }
      ],
      "name": "onERC1155BatchReceived",
      "outputs": [
        {
          "internalType": "bytes4",
          "name": "",
          "type": "bytes4"
        }
      ],
      "stateMutability": "nonpayable",
      "type": "function"
    }
  ],
  "bytecode": "0x6080604052600080546001600160a01b0319163317905562093a80600255610e1060095534801561002f57600080fd5b5061548b8061003f6000396000f3fe608060405234801561001057600080fd5b50600436106101375760003560e01c80639c8f2639116100b8578063c14911921161007c578063c1491192146102b5578063ce606ee0146102c8578063d0ebdbe7146102d0578063f23a6e61146102e3578063f4c8ad14146102f6578063f76067d31461030957610137565b80639c8f263914610221578063b86bbc6f14610243578063b8d0f86a1461026f578063bc197c8114610282578063bf40fac1146102a257610137565b8063481c6a75116100ff578063481c6a75146101be578063510059a0146101d357806361044577146101e65780637f5c26a9146101f957806391b66fd51461021957610137565b80630fb5a6b41461013c57806328a9e9d51461015a57806330d5f2321461016f5780633a1ad6c3146101965780633ccfd60b146101b6575b600080fd5b61014461031c565b604051610151919061493b565b60405180910390f35b61016d610168366004613e8c565b610322565b005b61018261017d366004613f2e565b61045f565b6040516101519897969594939291906148f1565b6101a96101a43660046139a1565b6104c7565b604051610151919061466c565b61016d610603565b6101c6610ed8565b604051610151919061416e565b6101a96101e1366004613ee0565b610ee7565b6101446101f4366004613ee0565b610f9a565b61020c610207366004613ee0565b610fac565b60405161015191906146dc565b61014461130d565b61023461022f366004613ee0565b611313565b60405161015193929190614b93565b610256610251366004613f2e565b61133f565b6040516101519d9c9b9a9998979695949392919061484e565b61014461027d366004613ee0565b61145b565b6102956102903660046139d9565b61146d565b604051610151919061437d565b6101c66102b0366004613c52565b61147b565b6101446102c3366004613ee0565b611502565b6101c6611514565b61016d6102de3660046139a1565b611523565b6102956102f1366004613a93565b611595565b61016d610304366004613ee0565b6116e4565b61016d610317366004613ef8565b6117af565b60025481565b604080518082018252600581526430b236b4b760d91b60208201526001549151637af32e3960e11b815290916001600160a01b03169063f5e65c729061036e90339085906004016141bc565b60206040518083038186803b15801561038657600080fd5b505afa15801561039a573d6000803e3d6000fd5b505050506040513d601f19601f820116820180604052508101906103be9190613c20565b6103e35760405162461bcd60e51b81526004016103da906144ab565b60405180910390fd5b81600b60006103f56020840184613ec4565b61ffff16815260200190815260200160002081816104139190615166565b506003905060006104276020850185613ec4565b61ffff168152602001908152602001600020546000141561045b5761045b6104526020840184613ec4565b61ffff166118cd565b5050565b60066020908152600092835260408084209091529082529020805460018201546002830154600384015460049094015461ffff90931693919290916001600160401b0380821692600160401b8304821692600160801b8104831692600160c01b909104169088565b6104cf613338565b60006104d9611ae3565b6001600160a01b03166318392f64846040518263ffffffff1660e01b8152600401610504919061416e565b60206040518083038186803b15801561051c57600080fd5b505afa158015610530573d6000803e3d6000fd5b505050506040513d601f19601f820116820180604052508101906105549190613c3a565b60008181526007602052604090205490915080156105fc576000818152600660209081526040808320858452825291829020825161010081018452815461ffff16815260018201549281019290925260028101549282019290925260038201546001600160401b038082166060840152600160401b820481166080840152600160801b8204811660a0840152600160c01b9091041660c082015260049091015460e082015292505b5050919050565b600061060d611ae3565b9050600080826001600160a01b031663839ddba8336040518263ffffffff1660e01b815260040161063e919061416e565b60006040518083038186803b15801561065657600080fd5b505afa15801561066a573d6000803e3d6000fd5b505050506040513d6000823e601f3d908101601f191682016040526106929190810190613cc5565b815191935091506106b55760405162461bcd60e51b81526004016103da906145ed565b8151600090815260076020526040902054806106e35760405162461bcd60e51b81526004016103da9061447c565b600081815260066020908152604080832086518452825280832084845260048352818420600282015485529092528220606086015160038201549293919263ffffffff90911691829161073a9061ffff1683614ce9565b60038601549091508190600160c01b90046001600160401b03164210156107ee57600954600387015461077d90600160801b90046001600160401b031642614d08565b6107879190614cd5565b60095460038801549194506000916107af90600160801b90046001600160401b031642614d08565b6107b99190615051565b116107c55760006107c8565b60015b6107d59060ff1684614cbd565b60038601549094506107eb9061ffff1685614ce9565b91505b6000806107fd87898c88611b0f565b91509150600660008a815260200190815260200160002060008c600001518152602001908152602001600020600080820160006101000a81549061ffff0219169055600182016000905560028201600090556003820160006101000a8154906001600160401b0302191690556003820160086101000a8154906001600160401b0302191690556003820160106101000a8154906001600160401b0302191690556003820160186101000a8154906001600160401b03021916905560048201600090555050600760008c600001518152602001908152602001600020600090556001600560008b815260200190815260200160002060008282546109009190614d08565b92505081905550600061093260405180604001604052806008815260200167119c9859db595b9d60c21b81525061147b565b60038901549091506001600160a01b038e169063f23a4331903390610964908a9062010000900463ffffffff16614ce9565b6040518363ffffffff1660e01b815260040161098192919061435e565b600060405180830381600087803b15801561099b57600080fd5b505af11580156109af573d6000803e3d6000fd5b50505050600085856109c19190614d08565b1115610a5a57806001600160a01b031663f242432a30338b6002015489896109e99190614d08565b6040516020016109f890614156565b6040516020818303038152906040526040518663ffffffff1660e01b8152600401610a27959493929190614182565b600060405180830381600087803b158015610a4157600080fd5b505af1158015610a55573d6000803e3d6000fd5b505050505b6002880154604051637a94c56560e11b81526001600160a01b0383169163f5298aca91610a8d9130918a9060040161433d565b600060405180830381600087803b158015610aa757600080fd5b505af1158015610abb573d6000803e3d6000fd5b505050506000610aeb60405180604001604052806009815260200168115c5d5a5c1b595b9d60ba1b81525061147b565b905060005b84518114610c6a57848181518110610b1857634e487b7160e01b600052603260045260246000fd5b60200260200101516000015163ffffffff16600014610c5857816001600160a01b031663803a763a33878481518110610b6157634e487b7160e01b600052603260045260246000fd5b60200260200101516040518363ffffffff1660e01b8152600401610b869291906141e0565b600060405180830381600087803b158015610ba057600080fd5b505af1158015610bb4573d6000803e3d6000fd5b50505050848181518110610bd857634e487b7160e01b600052603260045260246000fd5b60200260200101516060015160ff166000336001600160a01b03167f4ce2915a2cc4b91d8c8bc375bdaaa6e23f6dcaf968d438483dd19f9ca8483b79888581518110610c3457634e487b7160e01b600052603260045260246000fd5b60200260200101516000015142604051610c4f929190614952565b60405180910390a45b80610c6281615036565b915050610af0565b5060005b83518114610e9a57838181518110610c9657634e487b7160e01b600052603260045260246000fd5b60200260200101516040015163ffffffff16600014610e885760006098858381518110610cd357634e487b7160e01b600052603260045260246000fd5b60200260200101516040015163ffffffff16901b60b8868481518110610d0957634e487b7160e01b600052603260045260246000fd5b6020026020010151602001516001600160401b0316901b60f8878581518110610d4257634e487b7160e01b600052603260045260246000fd5b60200260200101516000015160ff16901b17179050836001600160a01b031663a647e8ec33836001898781518110610d8a57634e487b7160e01b600052603260045260246000fd5b6020026020010151608001516040518563ffffffff1660e01b8152600401610db59493929190614317565b600060405180830381600087803b158015610dcf57600080fd5b505af1158015610de3573d6000803e3d6000fd5b50505050848281518110610e0757634e487b7160e01b600052603260045260246000fd5b60200260200101516000015160ff166001336001600160a01b03167f4ce2915a2cc4b91d8c8bc375bdaaa6e23f6dcaf968d438483dd19f9ca8483b79888681518110610e6357634e487b7160e01b600052603260045260246000fd5b60200260200101516020015142604051610e7e929190614968565b60405180910390a4505b80610e9281615036565b915050610c6e565b508c5160405133907f9da9da3d08bda31c1dec0edcab779610258d780027e76e4678b45a5706a0a2a690600090a35050505050505050505050505050565b6001546001600160a01b031681565b610eef613338565b6000828152600760205260409020548015610f94576000818152600660209081526040808320868452825291829020825161010081018452815461ffff16815260018201549281019290925260028101549282019290925260038201546001600160401b038082166060840152600160401b820481166080840152600160801b8204811660a0840152600160c01b9091041660c082015260049091015460e082015291505b50919050565b60036020526000908152604090205481565b610fb461337c565b60008281526004602090815260408083206003835281842054845282529182902082516102208101909352805461ffff1683526001810180549192840191610ffb90614fee565b80601f016020809104026020016040519081016040528092919081815260200182805461102790614fee565b80156110745780601f1061104957610100808354040283529160200191611074565b820191906000526020600020905b81548152906001019060200180831161105757829003601f168201915b50505091835250506002820154602080830191909152600383015461ffff811660408085019190915263ffffffff62010000830481166060860152600160301b830481166080860152600160501b90920490911660a084015260048401805482518185028101850190935280835260c090940193919290919083018282801561114857602002820191906000526020600020906000905b82829054906101000a900463ffffffff1663ffffffff168152602001906004019060208260030104928301926001038202915080841161110b5790505b50505050508152602001600582018054806020026020016040519081016040528092919081815260200182805480156111be57602002820191906000526020600020906000905b825461010083900a900460ff1681526020600192830181810494850194909303909202910180841161118f5790505b505050505081526020016006820180548060200260200160405190810160405280929190818152602001828054801561123457602002820191906000526020600020906000905b825461010083900a900460ff168152602060019283018181049485019490930390920291018084116112055790505b50505050508152602001600782018054806020026020016040519081016040528092919081815260200182805480156112aa57602002820191906000526020600020906000905b825461010083900a900460ff1681526020600192830181810494850194909303909202910180841161127b5790505b5050509183525050600882015463ffffffff16602082015260098201546040820152600a8201546060820152600b8201546080820152600c909101546001600160401b0380821660a0840152600160401b9091041660c09091015290505b919050565b60095481565b60086020526000908152604090205460ff81169063ffffffff6101008204811691600160281b90041683565b60046020908152600092835260408084209091529082529020805460018201805461ffff909216929161137190614fee565b80601f016020809104026020016040519081016040528092919081815260200182805461139d90614fee565b80156113ea5780601f106113bf576101008083540402835291602001916113ea565b820191906000526020600020905b8154815290600101906020018083116113cd57829003601f168201915b5050506002840154600385015460088601546009870154600a880154600b890154600c909901549798949761ffff8516975063ffffffff62010000860481169750600160301b8604811696600160501b909604811695941693906001600160401b0380821691600160401b9004168d565b60076020526000908152604090205481565b600098975050505050505050565b6001546040516334abd05960e11b81526000916001600160a01b031690636957a0b2906114ac908590600401614392565b60206040518083038186803b1580156114c457600080fd5b505afa1580156114d8573d6000803e3d6000fd5b505050506040513d601f19601f820116820180604052508101906114fc91906139bd565b92915050565b60056020526000908152604090205481565b6000546001600160a01b031681565b6000546001600160a01b0316331461154d5760405162461bcd60e51b81526004016103da906145b6565b6001600160a01b0381166115735760405162461bcd60e51b81526004016103da906144fd565b600180546001600160a01b0319166001600160a01b0392909216919091179055565b60006115c060405180604001604052806008815260200167119c9859db595b9d60c21b81525061147b565b6001600160a01b0316336001600160a01b031614156116d0576000838360008181106115fc57634e487b7160e01b600052603260045260246000fd5b919091013560f81c9050600981111561162557634e487b7160e01b600052602160045260246000fd5b9050600061166b85858080601f01602080910402602001604051908101604052809392919081815260200183838082843760009201919091525060019250612155915050565b905081600981111561168d57634e487b7160e01b600052602160045260246000fd5b60051480156116ac57506000818152600b602052604090206002015487145b156116c1576116bc8882886121b5565b6116cd565b50600091506116da9050565b50505b5063f23a6e6160e01b5b9695505050505050565b604080518082018252600581526430b236b4b760d91b60208201526001549151637af32e3960e11b815290916001600160a01b03169063f5e65c729061173090339085906004016141bc565b60206040518083038186803b15801561174857600080fd5b505afa15801561175c573d6000803e3d6000fd5b505050506040513d601f19601f820116820180604052508101906117809190613c20565b61179c5760405162461bcd60e51b81526004016103da906144ab565b600082116117a957600080fd5b50600955565b604080518082018252600581526430b236b4b760d91b60208201526001549151637af32e3960e11b815290916001600160a01b03169063f5e65c72906117fb90339085906004016141bc565b60206040518083038186803b15801561181357600080fd5b505afa158015611827573d6000803e3d6000fd5b505050506040513d601f19601f8201168201806040525081019061184b9190613c20565b6118675760405162461bcd60e51b81526004016103da906144ab565b6000838152600860205260409020829061188182826150ef565b5061189490506040830160208401613f4f565b600093845260086020526040909320805463ffffffff94909416600160281b0268ffffffff000000000019909416939093179092555050565b600081815260036020908152604080832054600b8352818420600490935290832042939192919081611900856001614cbd565b815260208101919091526040016000208254815461ffff191661ffff909116178155600180840180549293509083019161193990614fee565b611944929190613432565b506002808301549082015560038083018054918301805461ffff191661ffff90931692909217808355815463ffffffff6201000091829004811690910265ffffffff000019909216919091178084558254600160301b9081900483160269ffffffff00000000000019909116178084559154600160501b908190049091160263ffffffff60501b19909116179055600480830180546119e692840191906134bd565b50600c8101805467ffffffffffffffff19166001600160401b038616179055600254611a129085614cbd565b600c820180546001600160401b0392909216600160401b026fffffffffffffffff00000000000000001990921691909117905560058083018054611a59928401919061350a565b5060068083018054611a6e928401919061350a565b5060078083018054611a83928401919061350a565b50600880830154908201805463ffffffff191663ffffffff909216919091179055600980830154908201819055600a820155600b8083015490820155611aca600184614cbd565b6000958652600360205260409095209490945550505050565b6000611b0a60405180604001604052806004815260200163526f6c6560e01b81525061147b565b905090565b6060806001831015611b205761214c565b6000611b496040518060400160405280600681526020016552616e646f6d60d01b81525061147b565b6001600160a01b031663cd4b691487600401546040518263ffffffff1660e01b8152600401611b78919061493b565b60206040518083038186803b158015611b9057600080fd5b505afa158015611ba4573d6000803e3d6000fd5b505050506040513d601f19601f82011682018060405250810190611bc89190613c3a565b9050836001600160401b03811115611bf057634e487b7160e01b600052604160045260246000fd5b604051908082528060200260200182016040528015611c2957816020015b611c16613557565b815260200190600190039081611c0e5790505b509250836001600160401b03811115611c5257634e487b7160e01b600052604160045260246000fd5b604051908082528060200260200182016040528015611c8b57816020015b611c786135d2565b815260200190600190039081611c705790505b509150611c97866127a3565b865461ffff166000908152600860208190526040822060c0880151918a0154909291611ccc9163ffffffff9182169116612c22565b905060008060005b88811461214557611d098682604051602001611cf19291906140a9565b60405160208183030381529060405260016064612c68565b600a5490935015801590611d2a57508454600160281b900463ffffffff1615155b15611f4557838311611f4557611d4c8682604051602001611cf19291906140e8565b8c5461ffff1660009081526008602052604090205490935060ff168311611f4557611daa8682604051602001611d839291906140c9565b60408051601f19818403018152919052600a54600090611da590600190614d08565b612c68565b91506001600a8381548110611dcf57634e487b7160e01b600052603260045260246000fd5b600091825260209091206002909102018054600d90611dfc908490600160681b900463ffffffff16614d1f565b92506101000a81548163ffffffff021916908363ffffffff160217905550600a8281548110611e3b57634e487b7160e01b600052603260045260246000fd5b60009182526020918290206040805160a0810182526002909302909101805460ff811684526001600160401b036101008204169484019490945263ffffffff600160481b8504811692840192909252600160681b90930416606082015260019091015460808201528751889083908110611ec557634e487b7160e01b600052603260045260246000fd5b6020026020010181905250611f00878281518110611ef357634e487b7160e01b600052603260045260246000fd5b6020026020010151612cb4565b84546001908690600590611f22908490600160281b900463ffffffff16614d1f565b92506101000a81548163ffffffff021916908363ffffffff160217905550612133565b83831161204257611f5e868d838e600201546001612e69565b888281518110611f7e57634e487b7160e01b600052603260045260246000fd5b6020026020010181905250611f928c612ffa565b888281518110611fb257634e487b7160e01b600052603260045260246000fd5b602002602001015160c0018181525050878181518110611fe257634e487b7160e01b600052603260045260246000fd5b602002602001015160c001518c600a01541061203d5787818151811061201857634e487b7160e01b600052603260045260246000fd5b602002602001015160c001518c600a0160008282546120379190614d08565b90915550505b612133565b612054868d838e600201546000612e69565b88828151811061207457634e487b7160e01b600052603260045260246000fd5b60200260200101819052506120888c612ffa565b8882815181106120a857634e487b7160e01b600052603260045260246000fd5b602002602001015160c00181815250508781815181106120d857634e487b7160e01b600052603260045260246000fd5b602002602001015160c001518c600a0154106121335787818151811061210e57634e487b7160e01b600052603260045260246000fd5b602002602001015160c001518c600a01600082825461212d9190614d08565b90915550505b8061213d81615036565b915050611cd4565b5050505050505b94509492505050565b600081612163816020614cbd565b10156121815760405162461bcd60e51b81526004016103da906143d1565b61218c826020614cbd565b835110156121ac5760405162461bcd60e51b81526004016103da906144ce565b50016020015190565b6000828152600b602052604090205461ffff1682146121e65760405162461bcd60e51b81526004016103da906143fd565b600082815260036020526040902054806122125760405162461bcd60e51b81526004016103da9061454f565b60008381526004602090815260408083208484529091529020600c015442906001600160401b0380821691600160401b90041681158015906122545750818310155b6122705760405162461bcd60e51b81526004016103da90614586565b80831061228057612280866118cd565b600061228a611ae3565b60008881526004602081815260408084208a85529091528083209051631073bb7560e31b81529394509282916001600160a01b0386169163839ddba8916122d3918f910161416e565b60006040518083038186803b1580156122eb57600080fd5b505afa1580156122ff573d6000803e3d6000fd5b505050506040513d6000823e601f3d908101601f191682016040526123279190810190613cc5565b6003850154919350915061233f9061ffff168a614cd5565b9850600089116123615760405162461bcd60e51b81526004016103da90614452565b6000826020015160ff16600281111561238a57634e487b7160e01b600052602160045260246000fd5b60028111156123a957634e487b7160e01b600052602160045260246000fd5b146123c65760405162461bcd60e51b81526004016103da90614523565b600383015460c082015163ffffffff600160501b9092048216911610156123ff5760405162461bcd60e51b81526004016103da906143a5565b600383015460a082015163ffffffff600160301b9092048216911610156124385760405162461bcd60e51b81526004016103da90614426565b60405163f168a9c760e01b81526001600160a01b0385169063f168a9c790612466908e908d906004016142fe565b600060405180830381600087803b15801561248057600080fd5b505af1158015612494573d6000803e3d6000fd5b50505060008b81526005602052604081208054600193509091906124b9908490614cbd565b9091555050815160009081526007602090815260408083208d90558c83526006825280832085518452825291829020805461ffff191661ffff8e1617815584516001820155600281018b905582518084019093526005835264426f6e757360d81b918301919091529061252b9061147b565b6001600160a01b0316638381f58a6040518163ffffffff1660e01b815260040160206040518083038186803b15801561256357600080fd5b505afa158015612577573d6000803e3d6000fd5b505050506040513d601f19601f8201168201806040525081019061259b9190613f6b565b60038201805467ffffffffffffffff191663ffffffff92909216919091179055604080518082019091526007815266417274776f726b60c81b60208201526000906125e59061147b565b90506001600160a01b038116156126bd5761261e60405180604001604052806007815260200166417274776f726b60c81b81525061147b565b6001600160a01b0316638381f58a6040518163ffffffff1660e01b815260040160206040518083038186803b15801561265657600080fd5b505afa15801561266a573d6000803e3d6000fd5b505050506040513d601f19601f8201168201806040525081019061268e9190613f6b565b63ffffffff168260030160086101000a8154816001600160401b0302191690836001600160401b031602179055505b60038201805467ffffffffffffffff60801b1916600160801b426001600160401b0316021790556009546126f1908c614ce9565b60038301546127109190600160801b90046001600160401b0316614cbd565b6003830180546001600160401b0392909216600160c01b026001600160c01b03909216919091179055612744436001614cbd565b826004018190555083600001518d6001600160a01b03167f66aab8ac470f7e6e744b43ae75b07d52258b0f947d1f2b9f6162bd06cde763e68e8d60405161278c929190614944565b60405180910390a350505050505050505050505050565b6127af600a6000613600565b60006127d760405180604001604052806005815260200164426f6e757360d81b81525061147b565b9050600061280360405180604001604052806007815260200166417274776f726b60c81b81525061147b565b905060008360030160009054906101000a90046001600160401b03166001600160401b0316836001600160a01b0316638381f58a6040518163ffffffff1660e01b815260040160206040518083038186803b15801561286157600080fd5b505afa158015612875573d6000803e3d6000fd5b505050506040513d601f19601f820116820180604052508101906128999190613f6b565b63ffffffff161415612a02576000836001600160a01b0316638f8ae9c96040518163ffffffff1660e01b815260040160006040518083038186803b1580156128e057600080fd5b505afa1580156128f4573d6000803e3d6000fd5b505050506040513d6000823e601f3d908101601f1916820160405261291c9190810190613b0c565b9050600091505b80518214612a0057600a81838151811061294d57634e487b7160e01b600052603260045260246000fd5b60209081029190910181015182546001808201855560009485529383902082516002909202018054938301516040840151606085015160ff1990961660ff9094169390931768ffffffffffffffff0019166101006001600160401b03909216919091021763ffffffff60481b1916600160481b63ffffffff938416021763ffffffff60681b1916600160681b929094169190910292909217825560800151910155816129f881615036565b925050612923565b505b6003840154600160401b90046001600160401b031615801590612aba57508360030160089054906101000a90046001600160401b03166001600160401b0316826001600160a01b0316638381f58a6040518163ffffffff1660e01b815260040160206040518083038186803b158015612a7a57600080fd5b505afa158015612a8e573d6000803e3d6000fd5b505050506040513d601f19601f82011682018060405250810190612ab29190613f6b565b63ffffffff16145b15612c1c576000826001600160a01b0316638f8ae9c96040518163ffffffff1660e01b815260040160006040518083038186803b158015612afa57600080fd5b505afa158015612b0e573d6000803e3d6000fd5b505050506040513d6000823e601f3d908101601f19168201604052612b369190810190613b0c565b9050600091505b80518214612c1a57600a818381518110612b6757634e487b7160e01b600052603260045260246000fd5b60209081029190910181015182546001808201855560009485529383902082516002909202018054938301516040840151606085015160ff1990961660ff9094169390931768ffffffffffffffff0019166101006001600160401b03909216919091021763ffffffff60481b1916600160481b63ffffffff938416021763ffffffff60681b1916600160681b92909416919091029290921782556080015191015581612c1281615036565b925050612b3d565b505b50505050565b6000612c58612c53612c44612c36866130c6565b612c3f866130c6565b6130e4565b612c4e60646130c6565b61314b565b613181565b6001600160401b03169392505050565b6000818310612c78575081612cad565b8351602085012083612c8a8185614d08565b612c95906001614cbd565b612c9f9083615051565b612ca99190614cbd565b9150505b9392505050565b6001815160ff166002811115612cda57634e487b7160e01b600052602160045260246000fd5b6002811115612cf957634e487b7160e01b600052602160045260246000fd5b1415612d8e576000612d2760405180604001604052806005815260200164426f6e757360d81b81525061147b565b6040516380b07ed960e01b81529091506001600160a01b038216906380b07ed990612d5690859060040161461a565b600060405180830381600087803b158015612d7057600080fd5b505af1158015612d84573d6000803e3d6000fd5b5050505050612e66565b6002815160ff166002811115612db457634e487b7160e01b600052602160045260246000fd5b6002811115612dd357634e487b7160e01b600052602160045260246000fd5b1415612e66576000612e0360405180604001604052806007815260200166417274776f726b60c81b81525061147b565b6040516380b07ed960e01b81529091506001600160a01b038216906380b07ed990612e3290859060040161461a565b600060405180830381600087803b158015612e4c57600080fd5b505af1158015612e60573d6000803e3d6000fd5b50505050505b50565b612e71613557565b6000612e9a60405180604001604052806006815260200165436f6e66696760d01b81525061147b565b90508215612f4457612f3b878686604051602001612eba93929190614130565b60408051601f1981840301815260068a018054602081810286018101909452808552919392909190830182828015612f2f57602002820191906000526020600020906000905b825461010083900a900460ff16815260206001928301818104948501949093039092029101808411612f005790505b5050505050606461319d565b60ff1660608301525b806001600160a01b031663296bfa588360600151886004018a8989604051602001612f719392919061410b565b6040516020818303038152906040526040518463ffffffff1660e01b8152600401612f9e93929190614981565b6102806040518083038186803b158015612fb757600080fd5b505afa158015612fcb573d6000803e3d6000fd5b505050506040513d601f19601f82011682018060405250810190612fef9190613d80565b979650505050505050565b600080670de0b6b3a764000083600a01546130159190614cd5565b90506000670de0b6b3a764000084600901546130319190614cd5565b9050600061304a613041846130c6565b612c3f846130c6565b9050600061306161305b60016130c6565b83613275565b905061307961307387600b01546130c6565b8261314b565b9050613093613088828461314b565b612c4e6127106130c6565b90506127106130a182613181565b6130bc906001600160401b0316670de0b6b3a7640000614ce9565b6116da9190614cd5565b6000677fffffffffffffff8211156130dd57600080fd5b5060401b90565b600081600f0b600014156130f757600080fd5b600082600f0b604085600f0b901b8161312057634e487b7160e01b600052601260045260246000fd5b05905060016001607f1b03198112801590613142575060016001607f1b038113155b612cad57600080fd5b6000600f83810b9083900b0260401d60016001607f1b03198112801590613142575060016001607f1b03811315612cad57600080fd5b60008082600f0b121561319357600080fd5b50600f0b60401d90565b60008083516001600160401b038111156131c757634e487b7160e01b600052604160045260246000fd5b6040519080825280602002602001820160405280156131f0578160200160208202803683370190505b50905060005b845181146132665784818151811061321e57634e487b7160e01b600052603260045260246000fd5b602002602001015160ff1682828151811061324957634e487b7160e01b600052603260045260246000fd5b60209081029190910101528061325e81615036565b9150506131f6565b50612ca985828560ff166132a8565b6000600f83810b9083900b0160016001607f1b03198112801590613142575060016001607f1b03811315612cad57600080fd5b6000806132b785600185612c68565b90506000805b600186516132cb9190614d08565b8114613329578581815181106132f157634e487b7160e01b600052603260045260246000fd5b6020026020010151826133049190614cbd565b9150818311613317579250612cad915050565b8061332181615036565b9150506132bd565b50600185516116da9190614d08565b6040805161010081018252600080825260208201819052918101829052606081018290526080810182905260a0810182905260c0810182905260e081019190915290565b604051806102200160405280600061ffff1681526020016060815260200160008152602001600061ffff168152602001600063ffffffff168152602001600063ffffffff168152602001600063ffffffff16815260200160608152602001606081526020016060815260200160608152602001600063ffffffff16815260200160008152602001600081526020016000815260200160006001600160401b0316815260200160006001600160401b031681525090565b82805461343e90614fee565b90600052602060002090601f01602090048101928261346057600085556134ad565b82601f1061347157805485556134ad565b828001600101855582156134ad57600052602060002091601f016020900482015b828111156134ad578254825591600101919060010190613492565b506134b9929150613621565b5090565b828054828255906000526020600020906007016008900481019282156134ad57600052602060002091600701600890048201828111156134ad578254825591600101919060010190613492565b82805482825590600052602060002090601f016020900481019282156134ad57600052602060002091601f01602090048201828111156134ad578254825591600101919060010190613492565b604080516101c081018252600080825260208201819052918101829052606081018290526080810182905260a0810182905260c0810182905260e0810182905261010081018290526101208101829052610140810182905261016081018290526101808101919091526101a081016135cd613636565b905290565b6040805160a08101825260008082526020820181905291810182905260608101829052608081019190915290565b5080546000825560020290600052602060002090810190612e669190613672565b5b808211156134b95760008155600101613622565b6040805160e081018252600080825260208201819052918101829052606081018290526080810182905260a0810182905260c081019190915290565b5b808211156134b957805470ffffffffffffffffffffffffffffffffff1916815560006001820155600201613673565b60008083601f8401126136b3578182fd5b5081356001600160401b038111156136c9578182fd5b60208301915083602080830285010111156136e357600080fd5b9250929050565b600082601f8301126136fa578081fd5b8151602061370f61370a83614c67565b614c3e565b828152818101908583018385028701840188101561372b578586fd5b855b858110156137495781518452928401929084019060010161372d565b5090979650505050505050565b8051801515811461130857600080fd5b60008083601f840112613777578182fd5b5081356001600160401b0381111561378d578182fd5b6020830191508360208285010111156136e357600080fd5b600082601f8301126137b5578081fd5b81516137c361370a82614c8a565b8181528460208386010111156137d7578283fd5b6137e8826020830160208701614fc2565b949350505050565b60006101e08284031215613802578081fd5b61380d610120614c3e565b905061381882613996565b815261382660208301613996565b602082015260408201516001600160401b038082111561384557600080fd5b613851858386016137a5565b60408401526138626060850161398b565b60608401526138736080850161398b565b608084015261388460a0850161398b565b60a084015261389560c0850161398b565b60c084015260e08401519150808211156138ae57600080fd5b506138bb848285016136ea565b60e0830152506101006138d0848285016138da565b9082015292915050565b600060e082840312156138eb578081fd5b60405160e081018181106001600160401b038211171561390d5761390d615091565b60405290508061391c8361398b565b815261392a6020840161398b565b602082015261393b6040840161398b565b604082015261394c6060840161398b565b606082015261395d6080840161398b565b608082015261396e60a0840161398b565b60a082015261397f60c0840161398b565b60c08201525092915050565b80516113088161541f565b805161130881615446565b6000602082840312156139b2578081fd5b8135612cad816153fa565b6000602082840312156139ce578081fd5b8151612cad816153fa565b60008060008060008060008060a0898b0312156139f4578384fd5b88356139ff816153fa565b97506020890135613a0f816153fa565b965060408901356001600160401b0380821115613a2a578586fd5b613a368c838d016136a2565b909850965060608b0135915080821115613a4e578586fd5b613a5a8c838d016136a2565b909650945060808b0135915080821115613a72578384fd5b50613a7f8b828c01613766565b999c989b5096995094979396929594505050565b60008060008060008060a08789031215613aab578384fd5b8635613ab6816153fa565b95506020870135613ac6816153fa565b9450604087013593506060870135925060808701356001600160401b03811115613aee578283fd5b613afa89828a01613766565b979a9699509497509295939492505050565b60006020808385031215613b1e578182fd5b82516001600160401b0380821115613b34578384fd5b818501915085601f830112613b47578384fd5b8151613b5561370a82614c67565b8181528481019084860160a0808502870188018b1015613b73578889fd5b8896505b84871015613c115780828c031215613b8d578889fd5b604080518281018181108982111715613ba857613ba8615091565b82528351613bb581615446565b8152838a0151613bc481615431565b818b015283820151613bd58161541f565b80838301525060609150613bea82850161398b565b91810191909152608083810151908201528452600196909601959287019290810190613b77565b50909998505050505050505050565b600060208284031215613c31578081fd5b612cad82613756565b600060208284031215613c4b578081fd5b5051919050565b600060208284031215613c63578081fd5b81356001600160401b03811115613c78578182fd5b8201601f81018413613c88578182fd5b8035613c9661370a82614c8a565b818152856020838501011115613caa578384fd5b81602084016020830137908101602001929092525092915050565b60008082840360a0811215613cd8578283fd5b6080811215613ce5578283fd5b50604051608081016001600160401b038282108183111715613d0957613d09615091565b816040528551835260208601519150613d2182615446565b81602084015260408601519150613d3782615431565b81604084015260608601519150613d4d8261541f565b60608301829052608086015192945080831115613d68578384fd5b5050613d76858286016137f0565b9150509250929050565b60006102808284031215613d92578081fd5b613d9d6101c0614c3e565b613da68361398b565b8152613db460208401613996565b6020820152613dc560408401613996565b6040820152613dd660608401613996565b6060820152613de760808401613756565b6080820152613df860a08401613756565b60a082015260c083015160c0820152613e1360e0840161398b565b60e0820152610100613e2681850161398b565b90820152610120613e3884820161398b565b90820152610140613e4a84820161398b565b90820152610160613e5c84820161398b565b90820152610180613e6e84820161398b565b908201526101a0613e81858583016138da565b908201529392505050565b600060208284031215613e9d578081fd5b81356001600160401b03811115613eb2578182fd5b82016102208185031215612cad578182fd5b600060208284031215613ed5578081fd5b8135612cad8161540f565b600060208284031215613ef1578081fd5b5035919050565b6000808284036080811215613f0b578283fd5b833592506060601f1982011215613f20578182fd5b506020830190509250929050565b60008060408385031215613f40578182fd5b50508035926020909101359150565b600060208284031215613f60578081fd5b8135612cad8161541f565b600060208284031215613f7c578081fd5b8151612cad8161541f565b6000815180845260208085019450808401835b83811015613fbc57815163ffffffff1687529582019590820190600101613f9a565b509495945050505050565b6000815180845260208085019450808401835b83811015613fbc57815160ff1687529582019590820190600101613fda565b15159052565b60008151808452614017816020860160208601614fc2565b601f01601f19169290920160200192915050565b63ffffffff8082511683528060208301511660208401528060408301511660408401528060608301511660608401528060808301511660808401528060a08301511660a08401528060c08301511660c0840152505050565b61ffff169052565b63ffffffff169052565b6001600160401b03169052565b60ff169052565b918252602082015268706f7765725261746560b81b604082015260490190565b918252602082015267199c9859db595b9d60c21b604082015260480190565b91825260208201526b667261676d656e745261746560a01b6040820152604c0190565b9283526020830191909152604082015265373ab6b132b960d11b606082015260660190565b92835260208301919091526040820152667175616c69747960c81b606082015260670190565b6b52657475726e206974656d7360a01b8152600c0190565b6001600160a01b0391909116815260200190565b6001600160a01b03868116825285166020820152604081018490526060810183905260a060808201819052600090612fef90830184613fff565b6001600160a01b03831681526040602082018190526000906137e890830184613fff565b6001600160a01b038316815281516102a082019061420290602084019061408b565b602083015161421460408401826140a2565b50604083015161422760608401826140a2565b50606083015161423a60808401826140a2565b50608083015161424d60a0840182613ff9565b5060a083015161426060c0840182613ff9565b5060c083015160e083015260e083015161010061427f8185018361408b565b84015190506101206142938482018361408b565b84015190506101406142a78482018361408b565b84015190506101606142bb8482018361408b565b84015190506101806142cf8482018361408b565b84015190506101a06142e38482018361408b565b84015190506142f66101c084018261402b565b509392505050565b6001600160a01b03929092168252602082015260400190565b6001600160a01b0394909416845260208401929092526040830152606082015260800190565b6001600160a01b039390931683526020830191909152604082015260600190565b6001600160a01b0392909216825263ffffffff16602082015260400190565b6001600160e01b031991909116815260200190565b600060208252612cad6020830184613fff565b60208082526012908201527124b739bab33334b1b4b2b73a103837bbb2b960711b604082015260600190565b602080825260129082015271746f55696e743235365f6f766572666c6f7760701b604082015260600190565b6020808252600f908201526e125b9d985b1a59081e9bdb99481a59608a1b604082015260600190565b602080825260129082015271125b9cdd59999a58da595b9d081b195d995b60721b604082015260600190565b60208082526010908201526f054696d652063616e6e6f7420626520360841b604082015260600190565b6020808252601590820152741e9bdb99525908191bd95cc81b9bdd08195e1a5cdd605a1b604082015260600190565b6020808252600990820152681b9bc81c195c9b5a5d60ba1b604082015260600190565b602080825260159082015274746f55696e743235365f6f75744f66426f756e647360581b604082015260600190565b6020808252600c908201526b7a65726f206164647265737360a01b604082015260600190565b6020808252601290820152714e6f2074696d6520666f72206865726f657360701b604082015260600190565b6020808252601a908201527f54686973207a6f6e65496420646f6573206e6f74206578697374000000000000604082015260600190565b602080825260169082015275151a19481e9bdb9948191a59081b9bdd081cdd185c9d60521b604082015260600190565b60208082526019908201527f6f6e6c7920616c6c6f7720636f6e7472616374206f776e657200000000000000604082015260600190565b602080825260139082015272149bdb1948191bd95cc81b9bdd08195e1a5cdd606a1b604082015260600190565b600060a08201905060ff83511682526001600160401b036020840151166020830152604083015163ffffffff808216604085015280606086015116606085015250506080830151608083015292915050565b60006101008201905061ffff8351168252602083015160208301526040830151604083015260608301516001600160401b0380821660608501528060808601511660808501528060a08601511660a08501528060c08601511660c0850152505060e083015160e083015292915050565b6000602082526146f0602083018451614083565b602083015161022080604085015261470c610240850183613fff565b915060408501516060850152606085015161472a6080860182614083565b50608085015161473d60a086018261408b565b5060a085015161475060c086018261408b565b5060c085015161476360e086018261408b565b5060e0850151601f196101008187860301818801526147828584613f87565b9450808801519250506101208187860301818801526147a18584613fc7565b9450808801519250506101408187860301818801526147c08584613fc7565b9450808801519250506101608187860301818801526147df8584613fc7565b945080880151925050506101806147f88187018361408b565b8601516101a0868101919091528601516101c0808701919091528601516101e080870191909152860151905061020061483381870183614095565b860151905061484485830182614095565b5090949350505050565b600061ffff8f1682526101a0602083015261486d6101a083018f613fff565b604083018e905261ffff8d16606084015263ffffffff8c811660808501528b1660a084015290506148a160c083018a61408b565b6148ae60e083018961408b565b8661010083015285610120830152846101408301526148d1610160830185614095565b6148df610180830184614095565b9e9d5050505050505050505050505050565b61ffff989098168852602088019690965260408701949094526001600160401b0392831660608701529082166080860152811660a08501521660c083015260e08201526101000190565b90815260200190565b918252602082015260400190565b63ffffffff929092168252602082015260400190565b6001600160401b03929092168252602082015260400190565b6000606080830160ff87168452602082818601528187546149a2818561493b565b91506149ad89614cb1565b9350855b81600782011015614a6557845463ffffffff6149cf8582841661408b565b6149df8686018284891c1661408b565b60406149f18187018385841c1661408b565b50614a0288860182848b1c1661408b565b6080614a148187018385841c1661408b565b5060a0614a278187018385841c1661408b565b5060c0614a3a8187018385841c1661408b565b505060e0614a4c81860183831c61408b565b50506001949094019361010092909201916008016149b1565b93549381811015614a8857614a808363ffffffff871661408b565b918301916001015b81811015614aaa57614aa28363ffffffff87871c1661408b565b918301916001015b81811015614acd57614ac58363ffffffff8760401c1661408b565b918301916001015b81811015614aef57614ae78363ffffffff87891c1661408b565b918301916001015b81811015614b1257614b0a8363ffffffff8760801c1661408b565b918301916001015b81811015614b3557614b2d8363ffffffff8760a01c1661408b565b918301916001015b81811015614b5857614b508363ffffffff8760c01c1661408b565b918301916001015b81811015614b7257614b6d838660e01c61408b565b918301915b50508581036040870152614b868188613fff565b9998505050505050505050565b60ff93909316835263ffffffff918216602084015216604082015260600190565b6000808335601e19843603018112614bca578283fd5b8301803591506001600160401b03821115614be3578283fd5b60209081019250810236038213156136e357600080fd5b6000808335601e19843603018112614c10578283fd5b8301803591506001600160401b03821115614c29578283fd5b6020019150368190038213156136e357600080fd5b6040518181016001600160401b0381118282101715614c5f57614c5f615091565b604052919050565b60006001600160401b03821115614c8057614c80615091565b5060209081020190565b60006001600160401b03821115614ca357614ca3615091565b50601f01601f191660200190565b60009081526020902090565b60008219821115614cd057614cd0615065565b500190565b600082614ce457614ce461507b565b500490565b6000816000190483118215151615614d0357614d03615065565b500290565b600082821015614d1a57614d1a615065565b500390565b600063ffffffff83811690831681811015614d3c57614d3c615065565b039392505050565b5b8181101561045b5760008155600101614d45565b600160401b831115614d6d57614d6d615091565b805483825580841015614dbd57816000526020600020600860078601048101600460078716028015614da757614da78160001984016150a7565b50614dba60086007850104830182614d44565b50505b5081614dc882614cb1565b6000805b86811015614e0f57614de7614de0856150c8565b83856153b4565b602084019350600482019150601c821115614e0757600091506001830192505b600101614dcc565b50505050505050565b600160401b831115614e2c57614e2c615091565b805483825580841015614e79578160005260206000206020601f8601048101601f86168015614e6357614e638160001984016150a7565b50614e766020601f850104830182614d44565b50505b5081614e8482614cb1565b6000805b86811015614e0f57614ea3614e9c856150e2565b83856153d9565b60208401935060018083019250601f831115614ec25792830192600092505b50600101614e88565b6001600160401b03831115614ee257614ee2615091565b614eec8154614fee565b600080601f8611601f841181811715614f0b57614f0886614cb1565b92505b8015614f3a576020601f89010483016020891015614f265750825b614f386020601f880104850182614d44565b505b508060018114614f6657600094508715614f55578387013594505b614f5f8886615023565b8655614fb8565b601f198816945082845b86811015614f905788860135825560209586019560019092019101614f70565b5088861015614fad57878501356000196008601f8c16021c191681555b506001600289020186555b5050505050505050565b60005b83811015614fdd578181015183820152602001614fc5565b83811115612c1c5750506000910152565b60028104600182168061500257607f821691505b60208210811415610f9457634e487b7160e01b600052602260045260246000fd5b600019600883021c191660029091021790565b600060001982141561504a5761504a615065565b5060010190565b6000826150605761506061507b565b500690565b634e487b7160e01b600052601160045260246000fd5b634e487b7160e01b600052601260045260246000fd5b634e487b7160e01b600052604160045260246000fd5b8054600019836020036008021c1681555050565b600081356114fc8161540f565b600081356114fc8161541f565b600081356114fc81615431565b600081356114fc81615446565b81356150fa81615446565b815460ff191660ff919091161780825560208301356151188161541f565b64ffffffff008160081b1664ffffffff001983161791505080825560408301356151418161541f565b68ffffffff00000000008160281b1668ffffffff000000000019831617835550505050565b615178615172836150bb565b826152d8565b6151856020830183614bfa565b615193818360018601614ecb565b505060408201356002820155600381016151b2615172606085016150bb565b6151c76151c1608085016150c8565b82615342565b6151dc6151d660a085016150c8565b82615362565b6151f16151eb60c085016150c8565b8261531f565b506151ff60e0830183614bb4565b61520d818360048601614d59565b505061521d610100830183614bb4565b61522b818360058601614e18565b505061523b610120830183614bb4565b615249818360068601614e18565b5050615259610140830183614bb4565b615267818360078601614e18565b505061528261527961016084016150c8565b600883016152eb565b61018082013560098201556101a0820135600a8201556101c0820135600b820155600c81016152bd6152b76101e085016150d5565b82615302565b6152d36152cd61020085016150d5565b8261538a565b505050565b61ffff821661ffff198254161781555050565b63ffffffff821663ffffffff198254161781555050565b6001600160401b0382166001600160401b03198254161781555050565b805463ffffffff60501b191660509290921b63ffffffff60501b16919091179055565b805465ffffffff00008360101b1665ffffffff0000198216178255505050565b805469ffffffff0000000000008360301b1669ffffffff000000000000198216178255505050565b805467ffffffffffffffff60401b8360401b1667ffffffffffffffff60401b198216178255505050565b63ffffffff81546008840282811b80848816831b168119841617855550505050505050565b80546008830260ff811b8060ff8716831b1681198416178455505050505050565b6001600160a01b0381168114612e6657600080fd5b61ffff81168114612e6657600080fd5b63ffffffff81168114612e6657600080fd5b6001600160401b0381168114612e6657600080fd5b60ff81168114612e6657600080fdfea26469706673582212208c5bc81244fa1ce7d13fb576d03bb5b805c62d3ee2d007dcb22bbd0f64523f8864736f6c63430008000033",
  "immutableReferences": {},
  "source": "pragma solidity ^0.8.0;\npragma abicoder v2;\n\n// SPDX-License-Identifier: MIT\n\nimport \"./include/IERC20.sol\";\nimport \"./include/IRole.sol\";\nimport \"./lib/Permission.sol\";\nimport \"./Structs.sol\";\nimport \"./include/IEquipment.sol\";\nimport \"./include/IERC1155OP.sol\";\nimport \"./include/IBonusPool.sol\";\nimport \"./include/IPeriod.sol\";\nimport \"./include/IConfig.sol\";\nimport \"./lib/Utils.sol\";\nimport \"./lib/Uinteger.sol\";\nimport \"./include/IRandom.sol\";\nimport \"./include/IERC1155TokenReceiver.sol\";\nimport \"./include/IERC1155.sol\";\n\ncontract ZoneMine is Permission, IERC1155TokenReceiver {\n    bytes4 internal constant ERC1155_ACCEPTED = 0xf23a6e61;\n    bytes4 internal constant ERC1155_BATCH_ACCEPTED = 0xbc197c81;\n\n    //\n    struct ZoneInfo {\n        //id\n        uint16 id;\n        //\n        string name;\n        //id\n        uint256 consumablesId;\n        //\n        uint16 consumablesAmount;\n        //\n        uint32 baseExp;\n        //\n        uint32 level;\n        //\n        uint32 minPower;\n        //\n        uint32[] equipmentNumber;\n        //[2,12,9,20,30,27],100\n        uint8[] probability;\n        /*\n        ,1-3[0,1,2],100\n        :[72,24,4][72,28][100]\n        */\n        uint8[] quality;\n        /*\n        1-3[,,],100\n        :[50,30,20][50,50][100]\n        */\n        uint8[] profession;\n        //\n        uint32 dropRateBase;\n        //token\n        uint256 tokenTotal;\n        //token\n        uint256 tokens;\n        //token\n        uint256 tokenBase;\n        //\n        uint64 startTime;\n        //\n        uint64 endTime;\n    }\n\n    //\n    struct FragmentOutInfo {\n        //\n        uint8 weight;\n        //\n        uint32 maxAmount;\n        //\n        uint32 lastCount;\n    }\n\n    //\n    struct RoleInfo {\n        //id\n        uint16 id;\n        //id\n        uint256 roleId;\n        //\n        uint256 zoneNumber;\n        //\n        uint64 bonusPoolNumber;\n        //\n        uint64 artworkPoolNumber;\n        //\n        uint64 startTime;\n        //\n        uint64 endTime;\n        //\n        uint256 blockNumber;\n    }\n    /**\n    @notice \n    @param user \n    @param roleId id\n    @param zoneId id\n    @param number \n     */\n    event InZone(address indexed user, uint256 indexed roleId, uint256 zoneId, uint256 number);\n    /**\n    @notice \n    @param user \n    @param roleId id\n     */\n    event StopZone(address indexed user, uint256 indexed roleId);\n\n    /**\n    @notice \n    @param user \n    @param class (0,1)\n    @param quality ()\n    @param number (,)\n    @param time \n    */\n    event Gain(address indexed user, uint256 indexed class, uint256 indexed quality, uint256 number, uint256 time);\n\n    // zone duration\n    uint256 public duration = 7 * 24 * 3600;\n\n    // zone id => zone current number\n    mapping(uint256 => uint256) public zoneNumbers;\n    // zone id => zone number => zone info\n    mapping(uint256 => mapping(uint256 => ZoneInfo)) public zones;\n    // zone id=> role count\n    mapping(uint256 => uint256) public roleCounts;\n    // zone id => role id => RoleInfo\n    mapping(uint256 => mapping(uint256 => RoleInfo)) public roles;\n    // role id => zone id\n    mapping(uint256 => uint256) public roleByZone;\n    // zone id => FragmentOutInfo\n    mapping(uint256 => FragmentOutInfo) public outputInfos;\n\n    //\n    uint256 public rewardTime = 3600;\n\n    //\n    FragmentInfo[] availableFragments;\n\n    // => \n    mapping(uint256 => ZoneInfo) private zoneConfigs;\n\n    //\n    function setOutputInfo(uint256 zoneId, FragmentOutInfo calldata info) public CheckPermit(\"admin\") {\n        outputInfos[zoneId] = info;\n        outputInfos[zoneId].lastCount = info.maxAmount;\n    }\n\n    function _getRoleContract() internal view returns (IRole) {\n        return IRole(getAddress(\"Role\"));\n    }\n\n    function setRewardTime(uint256 time) external CheckPermit(\"admin\") {\n        require(time > 0);\n        rewardTime = time;\n    }\n\n    function addZone(ZoneInfo calldata zone) external CheckPermit(\"admin\") {\n        zoneConfigs[zone.id] = zone;\n        if (zoneNumbers[zone.id] == 0) {\n            _newPeriod(zone.id);\n        }\n    }\n\n    function getZoneInfo(uint256 zoneId) public view returns (ZoneInfo memory) {\n        return zones[zoneId][zoneNumbers[zoneId]];\n    }\n\n    function getRoleInfo(uint256 roleId) public view returns (RoleInfo memory roleInfo) {\n        uint256 zoneId = roleByZone[roleId];\n        if (zoneId != 0) {\n            roleInfo = roles[zoneId][roleId];\n        }\n    }\n\n    function getRoleByAddr(address owner) public view returns (RoleInfo memory roleInfo) {\n        uint256 roleId = _getRoleContract().getRoleId(owner);\n        uint256 zoneId = roleByZone[roleId];\n        if (zoneId != 0) {\n            roleInfo = roles[zoneId][roleId];\n        }\n    }\n\n    function _newPeriod(uint256 zoneId) internal {\n        uint256 _now = block.timestamp;\n        uint256 number = zoneNumbers[zoneId];\n        ZoneInfo storage config = zoneConfigs[zoneId];\n        ZoneInfo storage info = zones[zoneId][number + 1];\n        info.id = config.id;\n        info.name = config.name;\n        info.consumablesId = config.consumablesId;\n        info.consumablesAmount = config.consumablesAmount;\n        info.baseExp = config.baseExp;\n        info.level = config.level;\n        info.minPower = config.minPower;\n        info.equipmentNumber = config.equipmentNumber;\n        info.startTime = uint64(_now);\n        info.endTime = uint64(_now + duration);\n        info.probability = config.probability;\n        info.quality = config.quality;\n        info.profession = config.profession;\n        info.dropRateBase = config.dropRateBase;\n        info.tokenTotal = config.tokenTotal;\n        info.tokens = config.tokenTotal;\n        info.tokenBase = config.tokenBase;\n\n        number += 1;\n        zoneNumbers[zoneId] = number;\n    }\n\n    function staking(\n        address _from,\n        uint256 zoneId,\n        uint256 time\n    ) internal {\n        require(zoneId == zoneConfigs[zoneId].id, \"Invalid zone id\");\n        uint256 number = zoneNumbers[zoneId];\n        require(number > 0, \"This zoneId does not exist\");\n        uint256 _now = block.timestamp;\n        uint256 start = zones[zoneId][number].startTime;\n        uint256 end = zones[zoneId][number].endTime;\n        require(start > 0 && _now >= start, \"The zone did not start\");\n        if (_now >= end) {\n            _newPeriod(zoneId);\n        }\n\n        IRole roleContract = _getRoleContract();\n        //\n        ZoneInfo storage zoneInfo = zones[zoneId][number];\n        (CurrentHero memory hero, HeroAttrs memory attrs) = roleContract.getHeroInfo(_from);\n        time = time / zoneInfo.consumablesAmount; //()\n        require(time > 0, \"Time cannot be 0\");\n        require(HeroStatus(hero.status) == HeroStatus.None, \"No time for heroes\");\n        require(attrs.power >= zoneInfo.minPower, \"Insufficient power\");\n        require(attrs.level >= zoneInfo.level, \"Insufficient level\");\n\n        roleContract.inZone(_from, time);\n\n        roleCounts[zoneId] += 1;\n        roleByZone[hero.tokenId] = zoneId;\n\n        RoleInfo storage roleInfo = roles[zoneId][hero.tokenId];\n        roleInfo.id = uint16(zoneId);\n        roleInfo.roleId = hero.tokenId;\n        roleInfo.zoneNumber = number;\n        roleInfo.bonusPoolNumber = IPeriod(getAddress(\"Bonus\")).number();\n        address artwork = getAddress(\"Artwork\");\n        if (artwork != address(0)) roleInfo.artworkPoolNumber = IPeriod(getAddress(\"Artwork\")).number();\n        roleInfo.startTime = uint64(block.timestamp);\n        roleInfo.endTime = uint64(roleInfo.startTime + time * rewardTime);\n        roleInfo.blockNumber = block.number + 1;\n        emit InZone(_from, hero.tokenId, zoneId, number);\n    }\n\n    function _getFragments(RoleInfo storage role) private {\n        delete availableFragments;\n        IPeriod bonusPool = IPeriod(getAddress(\"Bonus\")); //\n        IPeriod artworkPool = IPeriod(getAddress(\"Artwork\")); //\n        uint256 i;\n        if (bonusPool.number() == role.bonusPoolNumber) {\n            FragmentInfo[] memory bonusPoolFs = bonusPool.getPeriodFragment(); //\n            for (i = 0; i != bonusPoolFs.length; i++) {\n                availableFragments.push(bonusPoolFs[i]);\n            }\n        }\n        if (role.artworkPoolNumber != 0 && artworkPool.number() == role.artworkPoolNumber) {\n            FragmentInfo[] memory artworkPoolFs = artworkPool.getPeriodFragment(); //(TODO:)\n            for (i = 0; i != artworkPoolFs.length; i++) {\n                availableFragments.push(artworkPoolFs[i]);\n            }\n        }\n    }\n\n    function _updateFragments(FragmentInfo memory fi) internal {\n        // fi.lastFragmentCount -= 1;\n        if (FragmentType(fi.fType) == FragmentType.BonusPool) {\n            IPeriod bonusPool = IPeriod(getAddress(\"Bonus\")); //\n            bonusPool.updateFragment(fi);\n        } else if (FragmentType(fi.fType) == FragmentType.ArtworkPool) {\n            IPeriod artworkPool = IPeriod(getAddress(\"Artwork\")); //\n            artworkPool.updateFragment(fi);\n        }\n    }\n\n    function _calcReward(\n        ZoneInfo storage zoneInfo,\n        RoleInfo storage role,\n        HeroAttrs memory roleAttr,\n        uint256 roleDuration\n    ) internal returns (EquipmentAttr[] memory equipments, FragmentInfo[] memory fragments) {\n        if (roleDuration < 1) return (equipments, fragments);\n        bytes32 seed = IRandom(getAddress(\"Random\")).getRandom(role.blockNumber);\n        equipments = new EquipmentAttr[](roleDuration);\n        fragments = new FragmentInfo[](roleDuration);\n        _getFragments(role);\n        FragmentOutInfo storage foInfo = outputInfos[zoneInfo.id];\n        //,\n        //\n        uint256 powerRate = _calcPowerRate(roleAttr.power, zoneInfo.dropRateBase);\n        uint256 random;\n        uint256 index;\n        for (uint256 i = 0; i != roleDuration; i++) {\n            random = Utils.randomUint(abi.encodePacked(seed, i, \"powerRate\"), 1, 100);\n            //\n            if (availableFragments.length > 0 && foInfo.lastCount > 0) {\n                if (random <= powerRate) {\n                    random = Utils.randomUint(abi.encodePacked(seed, i, \"fragmentRate\"), 1, 100);\n                    if (random <= outputInfos[zoneInfo.id].weight) {\n                        //\n                        index = Utils.randomUint(abi.encodePacked(seed, i, \"fragment\"), 0, availableFragments.length - 1);\n                        availableFragments[index].lastFragmentCount -= 1;\n                        fragments[i] = availableFragments[index];\n                        _updateFragments(fragments[i]);\n                        foInfo.lastCount -= 1;\n                        continue;\n                    }\n                }\n            }\n            if (random <= powerRate) {\n                //\n                equipments[i] = _randomEquipment(seed, zoneInfo, i, role.zoneNumber, true);\n                //token\n                equipments[i].tokens = _calcToken(zoneInfo);\n                if (zoneInfo.tokens >= equipments[i].tokens) zoneInfo.tokens -= equipments[i].tokens;\n            } else {\n                //\n                equipments[i] = _randomEquipment(seed, zoneInfo, i, role.zoneNumber, false);\n                equipments[i].tokens = _calcToken(zoneInfo);\n                if (zoneInfo.tokens >= equipments[i].tokens) zoneInfo.tokens -= equipments[i].tokens;\n            }\n        }\n    }\n\n    function _randomEquipment(\n        bytes32 seed,\n        ZoneInfo storage category,\n        uint256 index,\n        uint256 number,\n        bool randQuality\n    ) internal view returns (EquipmentAttr memory attr) {\n        IConfig config = IConfig(getAddress(\"Config\"));\n        // //\n        // attr.profession = uint8(_randomWeight(abi.encodePacked(seed, index, number, \"profession\"), category.profession, 100));\n        // //\n        // attr.category = uint8(_randomWeight(abi.encodePacked(seed, index, number, \"category\"), category.probability, 100));\n        //\n        if (randQuality) attr.quality = uint8(_randomWeight(abi.encodePacked(seed, index, number, \"quality\"), category.quality, 100));\n\n        attr = config.searchEquipment(attr.quality, category.equipmentNumber, abi.encodePacked(seed, index, number, \"number\"));\n        // attr.tokens = 0;\n    }\n\n    function _calcPowerRate(uint256 power, uint256 dropRateBase) internal pure returns (uint256 pr) {\n        // power/dropRateBase*100\n        pr = Uinteger.toUInt(Uinteger.mul(Uinteger.div(Uinteger.fromUInt(power), Uinteger.fromUInt(dropRateBase)), Uinteger.fromUInt(100)));\n    }\n\n    function _calcToken(ZoneInfo storage zoneInfo) internal view returns (uint256) {\n        uint256 m = zoneInfo.tokens / (10**18);\n        uint256 n = zoneInfo.tokenTotal / (10**18);\n        int128 bs = Uinteger.div(Uinteger.fromUInt(m), Uinteger.fromUInt(n));\n        int128 tmp = Uinteger.add(Uinteger.fromUInt(1), bs);\n        tmp = Uinteger.mul(Uinteger.fromUInt(zoneInfo.tokenBase), tmp);\n        tmp = Uinteger.mul(Uinteger.mul(tmp, bs), Uinteger.fromUInt(10000));\n        return (uint256(Uinteger.toUInt(tmp)) * (10**18)) / 10000;\n    }\n\n    function withdraw() external {\n        IRole roleContract = _getRoleContract();\n        (CurrentHero memory hero, HeroAttrs memory attrs) = roleContract.getHeroInfo(msg.sender);\n        require(hero.tokenId != 0, \"Role does not exist\");\n\n        uint256 zoneId = roleByZone[hero.tokenId];\n        require(zoneId != 0, \"zoneId does not exist\");\n\n        RoleInfo storage roleInfo = roles[zoneId][hero.tokenId];\n        ZoneInfo storage zoneInfo = zones[zoneId][roleInfo.zoneNumber];\n        uint256 times = hero.time;\n        uint256 bonusTimes = times;\n        uint256 burnTokens = times * zoneInfo.consumablesAmount;\n        uint256 allTokens = burnTokens;\n        if (block.timestamp < roleInfo.endTime) {\n            bonusTimes = (block.timestamp - roleInfo.startTime) / rewardTime;\n            times = bonusTimes + (((block.timestamp - roleInfo.startTime) % rewardTime) > 0 ? 1 : 0);\n            burnTokens = times * zoneInfo.consumablesAmount;\n        }\n\n        (EquipmentAttr[] memory equipments, FragmentInfo[] memory fragments) = _calcReward(zoneInfo, roleInfo, attrs, bonusTimes);\n\n        delete roles[zoneId][hero.tokenId];\n        delete roleByZone[hero.tokenId];\n        roleCounts[zoneId] -= 1;\n\n        address fragmentAddr = getAddress(\"Fragment\");\n        // \n        roleContract.stopWorking(msg.sender, uint32(zoneInfo.baseExp * bonusTimes));\n\n        //\n        if (allTokens - burnTokens > 0) {\n            IERC1155(fragmentAddr).safeTransferFrom(address(this), msg.sender, zoneInfo.consumablesId, allTokens - burnTokens, abi.encodePacked(\"Return items\"));\n        }\n        //\n        IERC1155OP(fragmentAddr).burn(address(this), zoneInfo.consumablesId, burnTokens);\n\n        // \n        IEquipment equip = IEquipment(getAddress(\"Equipment\"));\n        for (uint256 i = 0; i != equipments.length; i++) {\n            if (equipments[i].number != 0) {\n                equip.mint(msg.sender, equipments[i]);\n                emit Gain(msg.sender, 0, equipments[i].quality, equipments[i].number, block.timestamp);\n            }\n        }\n        // \n        for (uint256 i = 0; i != fragments.length; i++) {\n            if (fragments[i].number != 0) {\n                uint256 fId = (uint256(fragments[i].fType) << 248) | (uint256(fragments[i].id) << 184) | (uint256(fragments[i].number) << 152);\n                IERC1155OP(fragmentAddr).mint(msg.sender, fId, 1, fragments[i].tokens);\n                emit Gain(msg.sender, 1, fragments[i].fType, fragments[i].id, block.timestamp);\n            }\n        }\n\n        emit StopZone(msg.sender, hero.tokenId);\n    }\n\n    function _randomWeight(\n        bytes memory seed,\n        uint8[] memory weights,\n        uint8 totalWeight\n    ) internal pure returns (uint256) {\n        uint256[] memory ws = new uint256[](weights.length);\n        for (uint256 i = 0; i != weights.length; i++) {\n            ws[i] = weights[i];\n        }\n        return Utils.randomWeight(seed, ws, totalWeight);\n    }\n\n    function _randomWeightR(\n        bytes memory seed,\n        uint8[] memory weights,\n        uint8 totalWeight\n    ) internal pure returns (uint256) {\n        uint256[] memory ws = new uint256[](weights.length);\n        for (uint256 i = 0; i != weights.length; i++) {\n            ws[i] = weights[i];\n        }\n        return Utils.randomWeightR(seed, ws, totalWeight);\n    }\n\n    function onERC1155Received(\n        address,\n        address _from,\n        uint256 _id,\n        uint256 _value,\n        bytes calldata _data\n    ) external override returns (bytes4) {\n        if (msg.sender == getAddress(\"Fragment\")) {\n            Operate op = Operate(uint8(_data[0]));\n            uint256 zoneId = Utils.toUint256(_data, 1);\n            if (Operate.ZoneMine == op && zoneConfigs[zoneId].consumablesId == _id) {\n                //\n                staking(_from, zoneId, _value);\n            } else {\n                return 0;\n            }\n        }\n        return ERC1155_ACCEPTED;\n    }\n\n    function onERC1155BatchReceived(\n        address _operator,\n        address _from,\n        uint256[] calldata _ids,\n        uint256[] calldata _values,\n        bytes calldata _data\n    ) external override returns (bytes4) {\n        //\n        // return ERC1155_BATCH_ACCEPTED;\n    }\n}\n",
  "sourcePath": "/Users/necklace/work/Legend/Legend/contracts/ZoneMine.sol",
  "compiler": {
    "name": "solc",
    "version": "0.8.0+commit.c7dfd78e.Darwin.appleclang"
  },
  "schemaVersion": "3.4.3",
  "updatedAt": "2022-03-25T17:08:34.192Z",
  "networkType": "ethereum",
  "devdoc": {
    "events": {
      "Gain(address,uint256,uint256,uint256,uint256)": {
        "params": {
          "class": "(0,1)",
          "number": "(,)",
          "quality": "()",
          "time": "",
          "user": ""
        }
      },
      "InZone(address,uint256,uint256,uint256)": {
        "params": {
          "number": "",
          "roleId": "id",
          "user": "",
          "zoneId": "id"
        }
      },
      "StopZone(address,uint256)": {
        "params": {
          "roleId": "id",
          "user": ""
        }
      }
    },
    "kind": "dev",
    "methods": {
      "onERC1155BatchReceived(address,address,uint256[],uint256[],bytes)": {
        "details": "An ERC1155-compliant smart contract MUST call this function on the token recipient contract, at the end of a `safeBatchTransferFrom` after the balances have been updated. This function MUST return `bytes4(keccak256(\"onERC1155BatchReceived(address,address,uint256[],uint256[],bytes)\"))` (i.e. 0xbc197c81) if it accepts the transfer(s). This function MUST revert if it rejects the transfer(s). Return of any other value than the prescribed keccak256 generated value MUST result in the transaction being reverted by the caller.",
        "params": {
          "_data": "Additional data with no specified format",
          "_from": "The address which previously owned the token",
          "_ids": "An array containing ids of each token being transferred (order and length must match _values array)",
          "_operator": "The address which initiated the batch transfer (i.e. msg.sender)",
          "_values": "An array containing amounts of each token being transferred (order and length must match _ids array)"
        },
        "returns": {
          "_0": "`bytes4(keccak256(\"onERC1155BatchReceived(address,address,uint256[],uint256[],bytes)\"))`"
        }
      }
    },
    "version": 1
  },
  "userdoc": {
    "events": {
      "Gain(address,uint256,uint256,uint256,uint256)": {
        "notice": ""
      },
      "InZone(address,uint256,uint256,uint256)": {
        "notice": ""
      },
      "StopZone(address,uint256)": {
        "notice": ""
      }
    },
    "kind": "user",
    "methods": {
      "onERC1155BatchReceived(address,address,uint256[],uint256[],bytes)": {
        "notice": "Handle the receipt of multiple ERC1155 token types."
      }
    },
    "version": 1
  }
}